{"contracts/Portfolio.sol":{"Portfolio":{"abi":[{"inputs":[{"internalType":"address","name":"initialOwner","type":"address"},{"internalType":"string","name":"_name","type":"string"},{"internalType":"string","name":"_bio","type":"string"},{"internalType":"string","name":"_profileImage","type":"string"},{"internalType":"string","name":"_resumeLink","type":"string"},{"internalType":"string","name":"_location","type":"string"},{"internalType":"string","name":"_email","type":"string"},{"internalType":"string[]","name":"_socialLinks","type":"string[]"}],"stateMutability":"nonpayable","type":"constructor"},{"inputs":[{"internalType":"address","name":"owner","type":"address"}],"name":"OwnableInvalidOwner","type":"error"},{"inputs":[{"internalType":"address","name":"account","type":"address"}],"name":"OwnableUnauthorizedAccount","type":"error"},{"inputs":[],"name":"ReentrancyGuardReentrantCall","type":"error"},{"anonymous":false,"inputs":[{"indexed":true,"internalType":"uint256","name":"id","type":"uint256"},{"indexed":false,"internalType":"string","name":"title","type":"string"}],"name":"AchievementAdded","type":"event"},{"anonymous":false,"inputs":[{"indexed":true,"internalType":"address","name":"donor","type":"address"},{"indexed":false,"internalType":"uint256","name":"amount","type":"uint256"}],"name":"DonationReceived","type":"event"},{"anonymous":false,"inputs":[{"indexed":true,"internalType":"uint256","name":"id","type":"uint256"},{"indexed":false,"internalType":"string","name":"degree","type":"string"}],"name":"EducationAdded","type":"event"},{"anonymous":false,"inputs":[{"indexed":true,"internalType":"uint256","name":"id","type":"uint256"},{"indexed":false,"internalType":"string","name":"designation","type":"string"}],"name":"ExperienceAdded","type":"event"},{"anonymous":false,"inputs":[{"indexed":true,"internalType":"address","name":"previousOwner","type":"address"},{"indexed":true,"internalType":"address","name":"newOwner","type":"address"}],"name":"OwnershipTransferred","type":"event"},{"anonymous":false,"inputs":[],"name":"ProfileUpdated","type":"event"},{"anonymous":false,"inputs":[{"indexed":true,"internalType":"uint256","name":"id","type":"uint256"},{"indexed":false,"internalType":"string","name":"name","type":"string"}],"name":"ProjectAdded","type":"event"},{"anonymous":false,"inputs":[{"indexed":true,"internalType":"uint256","name":"id","type":"uint256"},{"indexed":true,"internalType":"address","name":"liker","type":"address"}],"name":"ProjectLiked","type":"event"},{"anonymous":false,"inputs":[{"indexed":true,"internalType":"uint256","name":"id","type":"uint256"}],"name":"ProjectUpdated","type":"event"},{"anonymous":false,"inputs":[{"indexed":true,"internalType":"uint256","name":"id","type":"uint256"}],"name":"ProjectViewed","type":"event"},{"anonymous":false,"inputs":[{"indexed":true,"internalType":"uint256","name":"id","type":"uint256"},{"indexed":false,"internalType":"string","name":"name","type":"string"}],"name":"SkillAdded","type":"event"},{"inputs":[{"internalType":"uint256","name":"","type":"uint256"}],"name":"achievementIds","outputs":[{"internalType":"uint256","name":"","type":"uint256"}],"stateMutability":"view","type":"function"},{"inputs":[{"internalType":"uint256","name":"","type":"uint256"}],"name":"achievements","outputs":[{"internalType":"uint256","name":"id","type":"uint256"},{"internalType":"string","name":"title","type":"string"},{"internalType":"string","name":"description","type":"string"},{"internalType":"string","name":"image","type":"string"},{"internalType":"string","name":"verificationLink","type":"string"},{"internalType":"uint256","name":"date","type":"uint256"},{"internalType":"string","name":"category","type":"string"},{"internalType":"bool","name":"isActive","type":"bool"}],"stateMutability":"view","type":"function"},{"inputs":[{"internalType":"string","name":"_title","type":"string"},{"internalType":"string","name":"_description","type":"string"},{"internalType":"string","name":"_image","type":"string"},{"internalType":"string","name":"_verificationLink","type":"string"},{"internalType":"uint256","name":"_date","type":"uint256"},{"internalType":"string","name":"_category","type":"string"}],"name":"addAchievement","outputs":[],"stateMutability":"nonpayable","type":"function"},{"inputs":[{"internalType":"string","name":"_startDate","type":"string"},{"internalType":"string","name":"_endDate","type":"string"},{"internalType":"string","name":"_degree","type":"string"},{"internalType":"string","name":"_knowledgeAcquired","type":"string"},{"internalType":"string","name":"_institutionName","type":"string"},{"internalType":"string","name":"_institutionLogo","type":"string"},{"internalType":"string","name":"_grade","type":"string"}],"name":"addEducation","outputs":[],"stateMutability":"nonpayable","type":"function"},{"inputs":[{"internalType":"string","name":"_startDate","type":"string"},{"internalType":"string","name":"_endDate","type":"string"},{"internalType":"string","name":"_designation","type":"string"},{"internalType":"string","name":"_experienceAcquired","type":"string"},{"internalType":"string","name":"_companyName","type":"string"},{"internalType":"string","name":"_companyLogo","type":"string"},{"internalType":"string[]","name":"_skills","type":"string[]"}],"name":"addExperience","outputs":[],"stateMutability":"nonpayable","type":"function"},{"inputs":[{"internalType":"string","name":"_name","type":"string"},{"internalType":"string","name":"_description","type":"string"},{"internalType":"string","name":"_image","type":"string"},{"internalType":"string","name":"_githubLink","type":"string"},{"internalType":"string","name":"_liveLink","type":"string"},{"internalType":"string[]","name":"_technologies","type":"string[]"}],"name":"addProject","outputs":[],"stateMutability":"nonpayable","type":"function"},{"inputs":[{"internalType":"string","name":"_name","type":"string"},{"internalType":"string","name":"_category","type":"string"},{"internalType":"string","name":"_icon","type":"string"},{"internalType":"uint256","name":"_proficiencyLevel","type":"uint256"}],"name":"addSkill","outputs":[],"stateMutability":"nonpayable","type":"function"},{"inputs":[],"name":"donateEth","outputs":[],"stateMutability":"payable","type":"function"},{"inputs":[{"internalType":"uint256","name":"","type":"uint256"}],"name":"educationIds","outputs":[{"internalType":"uint256","name":"","type":"uint256"}],"stateMutability":"view","type":"function"},{"inputs":[{"internalType":"uint256","name":"","type":"uint256"}],"name":"educations","outputs":[{"internalType":"uint256","name":"id","type":"uint256"},{"internalType":"string","name":"startDate","type":"string"},{"internalType":"string","name":"endDate","type":"string"},{"internalType":"string","name":"degree","type":"string"},{"internalType":"string","name":"knowledgeAcquired","type":"string"},{"internalType":"string","name":"institutionName","type":"string"},{"internalType":"string","name":"institutionLogo","type":"string"},{"internalType":"string","name":"grade","type":"string"},{"internalType":"uint256","name":"createdAt","type":"uint256"},{"internalType":"bool","name":"isActive","type":"bool"}],"stateMutability":"view","type":"function"},{"inputs":[{"internalType":"uint256","name":"","type":"uint256"}],"name":"experienceIds","outputs":[{"internalType":"uint256","name":"","type":"uint256"}],"stateMutability":"view","type":"function"},{"inputs":[{"internalType":"uint256","name":"","type":"uint256"}],"name":"experiences","outputs":[{"internalType":"uint256","name":"id","type":"uint256"},{"internalType":"string","name":"startDate","type":"string"},{"internalType":"string","name":"endDate","type":"string"},{"internalType":"string","name":"designation","type":"string"},{"internalType":"string","name":"experienceAcquired","type":"string"},{"internalType":"string","name":"companyName","type":"string"},{"internalType":"string","name":"companyLogo","type":"string"},{"internalType":"uint256","name":"createdAt","type":"uint256"},{"internalType":"bool","name":"isActive","type":"bool"}],"stateMutability":"view","type":"function"},{"inputs":[],"name":"getAllAchievements","outputs":[{"components":[{"internalType":"uint256","name":"id","type":"uint256"},{"internalType":"string","name":"title","type":"string"},{"internalType":"string","name":"description","type":"string"},{"internalType":"string","name":"image","type":"string"},{"internalType":"string","name":"verificationLink","type":"string"},{"internalType":"uint256","name":"date","type":"uint256"},{"internalType":"string","name":"category","type":"string"},{"internalType":"bool","name":"isActive","type":"bool"}],"internalType":"struct Portfolio.Achievement[]","name":"","type":"tuple[]"}],"stateMutability":"view","type":"function"},{"inputs":[],"name":"getAllEducations","outputs":[{"components":[{"internalType":"uint256","name":"id","type":"uint256"},{"internalType":"string","name":"startDate","type":"string"},{"internalType":"string","name":"endDate","type":"string"},{"internalType":"string","name":"degree","type":"string"},{"internalType":"string","name":"knowledgeAcquired","type":"string"},{"internalType":"string","name":"institutionName","type":"string"},{"internalType":"string","name":"institutionLogo","type":"string"},{"internalType":"string","name":"grade","type":"string"},{"internalType":"uint256","name":"createdAt","type":"uint256"},{"internalType":"bool","name":"isActive","type":"bool"}],"internalType":"struct Portfolio.Education[]","name":"","type":"tuple[]"}],"stateMutability":"view","type":"function"},{"inputs":[],"name":"getAllExperiences","outputs":[{"components":[{"internalType":"uint256","name":"id","type":"uint256"},{"internalType":"string","name":"startDate","type":"string"},{"internalType":"string","name":"endDate","type":"string"},{"internalType":"string","name":"designation","type":"string"},{"internalType":"string","name":"experienceAcquired","type":"string"},{"internalType":"string","name":"companyName","type":"string"},{"internalType":"string","name":"companyLogo","type":"string"},{"internalType":"string[]","name":"skills","type":"string[]"},{"internalType":"uint256","name":"createdAt","type":"uint256"},{"internalType":"bool","name":"isActive","type":"bool"}],"internalType":"struct Portfolio.Experience[]","name":"","type":"tuple[]"}],"stateMutability":"view","type":"function"},{"inputs":[],"name":"getAllProjects","outputs":[{"components":[{"internalType":"uint256","name":"id","type":"uint256"},{"internalType":"string","name":"name","type":"string"},{"internalType":"string","name":"description","type":"string"},{"internalType":"string","name":"image","type":"string"},{"internalType":"string","name":"githubLink","type":"string"},{"internalType":"string","name":"liveLink","type":"string"},{"internalType":"string[]","name":"technologies","type":"string[]"},{"internalType":"uint256","name":"likes","type":"uint256"},{"internalType":"uint256","name":"views","type":"uint256"},{"internalType":"uint256","name":"createdAt","type":"uint256"},{"internalType":"bool","name":"isActive","type":"bool"}],"internalType":"struct Portfolio.Project[]","name":"","type":"tuple[]"}],"stateMutability":"view","type":"function"},{"inputs":[],"name":"getAllSkills","outputs":[{"components":[{"internalType":"uint256","name":"id","type":"uint256"},{"internalType":"string","name":"name","type":"string"},{"internalType":"string","name":"category","type":"string"},{"internalType":"string","name":"icon","type":"string"},{"internalType":"uint256","name":"proficiencyLevel","type":"uint256"},{"internalType":"uint256","name":"createdAt","type":"uint256"},{"internalType":"bool","name":"isActive","type":"bool"}],"internalType":"struct Portfolio.Skill[]","name":"","type":"tuple[]"}],"stateMutability":"view","type":"function"},{"inputs":[],"name":"getPortfolioStats","outputs":[{"internalType":"uint256","name":"totalProjects","type":"uint256"},{"internalType":"uint256","name":"totalEducations","type":"uint256"},{"internalType":"uint256","name":"totalExperiences","type":"uint256"},{"internalType":"uint256","name":"totalSkills","type":"uint256"},{"internalType":"uint256","name":"totalAchievements","type":"uint256"},{"internalType":"uint256","name":"totalLikes","type":"uint256"},{"internalType":"uint256","name":"totalViews","type":"uint256"},{"internalType":"uint256","name":"profileViews","type":"uint256"},{"internalType":"uint256","name":"totalDonations","type":"uint256"}],"stateMutability":"view","type":"function"},{"inputs":[{"internalType":"string","name":"_category","type":"string"}],"name":"getSkillsByCategory","outputs":[{"components":[{"internalType":"uint256","name":"id","type":"uint256"},{"internalType":"string","name":"name","type":"string"},{"internalType":"string","name":"category","type":"string"},{"internalType":"string","name":"icon","type":"string"},{"internalType":"uint256","name":"proficiencyLevel","type":"uint256"},{"internalType":"uint256","name":"createdAt","type":"uint256"},{"internalType":"bool","name":"isActive","type":"bool"}],"internalType":"struct Portfolio.Skill[]","name":"","type":"tuple[]"}],"stateMutability":"view","type":"function"},{"inputs":[{"internalType":"address","name":"","type":"address"}],"name":"hasLikedProject","outputs":[{"internalType":"bool","name":"","type":"bool"}],"stateMutability":"view","type":"function"},{"inputs":[],"name":"incrementProfileViews","outputs":[],"stateMutability":"nonpayable","type":"function"},{"inputs":[{"internalType":"uint256","name":"_projectId","type":"uint256"}],"name":"likeProject","outputs":[],"stateMutability":"nonpayable","type":"function"},{"inputs":[],"name":"owner","outputs":[{"internalType":"address","name":"","type":"address"}],"stateMutability":"view","type":"function"},{"inputs":[],"name":"personalInfo","outputs":[{"internalType":"string","name":"name","type":"string"},{"internalType":"string","name":"bio","type":"string"},{"internalType":"string","name":"profileImage","type":"string"},{"internalType":"string","name":"resumeLink","type":"string"},{"internalType":"string","name":"location","type":"string"},{"internalType":"string","name":"email","type":"string"},{"internalType":"uint256","name":"totalDonations","type":"uint256"},{"internalType":"uint256","name":"profileViews","type":"uint256"},{"internalType":"uint256","name":"lastUpdated","type":"uint256"}],"stateMutability":"view","type":"function"},{"inputs":[{"internalType":"uint256","name":"","type":"uint256"}],"name":"projectIds","outputs":[{"internalType":"uint256","name":"","type":"uint256"}],"stateMutability":"view","type":"function"},{"inputs":[{"internalType":"uint256","name":"","type":"uint256"},{"internalType":"address","name":"","type":"address"}],"name":"projectLikes","outputs":[{"internalType":"bool","name":"","type":"bool"}],"stateMutability":"view","type":"function"},{"inputs":[{"internalType":"uint256","name":"","type":"uint256"}],"name":"projects","outputs":[{"internalType":"uint256","name":"id","type":"uint256"},{"internalType":"string","name":"name","type":"string"},{"internalType":"string","name":"description","type":"string"},{"internalType":"string","name":"image","type":"string"},{"internalType":"string","name":"githubLink","type":"string"},{"internalType":"string","name":"liveLink","type":"string"},{"internalType":"uint256","name":"likes","type":"uint256"},{"internalType":"uint256","name":"views","type":"uint256"},{"internalType":"uint256","name":"createdAt","type":"uint256"},{"internalType":"bool","name":"isActive","type":"bool"}],"stateMutability":"view","type":"function"},{"inputs":[],"name":"renounceOwnership","outputs":[],"stateMutability":"nonpayable","type":"function"},{"inputs":[{"internalType":"uint256","name":"","type":"uint256"}],"name":"skillIds","outputs":[{"internalType":"uint256","name":"","type":"uint256"}],"stateMutability":"view","type":"function"},{"inputs":[{"internalType":"uint256","name":"","type":"uint256"}],"name":"skills","outputs":[{"internalType":"uint256","name":"id","type":"uint256"},{"internalType":"string","name":"name","type":"string"},{"internalType":"string","name":"category","type":"string"},{"internalType":"string","name":"icon","type":"string"},{"internalType":"uint256","name":"proficiencyLevel","type":"uint256"},{"internalType":"uint256","name":"createdAt","type":"uint256"},{"internalType":"bool","name":"isActive","type":"bool"}],"stateMutability":"view","type":"function"},{"inputs":[{"internalType":"uint256","name":"_achievementId","type":"uint256"}],"name":"toggleAchievementStatus","outputs":[],"stateMutability":"nonpayable","type":"function"},{"inputs":[{"internalType":"uint256","name":"_educationId","type":"uint256"}],"name":"toggleEducationStatus","outputs":[],"stateMutability":"nonpayable","type":"function"},{"inputs":[{"internalType":"uint256","name":"_experienceId","type":"uint256"}],"name":"toggleExperienceStatus","outputs":[],"stateMutability":"nonpayable","type":"function"},{"inputs":[{"internalType":"uint256","name":"_projectId","type":"uint256"}],"name":"toggleProjectStatus","outputs":[],"stateMutability":"nonpayable","type":"function"},{"inputs":[{"internalType":"uint256","name":"_skillId","type":"uint256"}],"name":"toggleSkillStatus","outputs":[],"stateMutability":"nonpayable","type":"function"},{"inputs":[{"internalType":"address","name":"newOwner","type":"address"}],"name":"transferOwnership","outputs":[],"stateMutability":"nonpayable","type":"function"},{"inputs":[{"internalType":"string","name":"_name","type":"string"},{"internalType":"string","name":"_bio","type":"string"},{"internalType":"string","name":"_profileImage","type":"string"},{"internalType":"string","name":"_resumeLink","type":"string"},{"internalType":"string","name":"_location","type":"string"},{"internalType":"string[]","name":"_socialLinks","type":"string[]"},{"internalType":"string","name":"_email","type":"string"}],"name":"updatePersonalInfo","outputs":[],"stateMutability":"nonpayable","type":"function"},{"inputs":[{"internalType":"uint256","name":"_id","type":"uint256"},{"internalType":"string","name":"_name","type":"string"},{"internalType":"string","name":"_description","type":"string"},{"internalType":"string","name":"_image","type":"string"},{"internalType":"string","name":"_githubLink","type":"string"},{"internalType":"string","name":"_liveLink","type":"string"},{"internalType":"string[]","name":"_technologies","type":"string[]"}],"name":"updateProject","outputs":[],"stateMutability":"nonpayable","type":"function"},{"inputs":[{"internalType":"uint256","name":"_projectId","type":"uint256"}],"name":"viewProject","outputs":[],"stateMutability":"nonpayable","type":"function"}],"evm":{"bytecode":{"linkReferences":{},"object":"60806040523480156200001157600080fd5b506040516200630938038062006309833981016040819052620000349162000457565b876001600160a01b0381166200006457604051631e4fbdf760e01b81526000600482015260240160405180910390fd5b6200006f8162000193565b5060018055604080516101408101825288815260208101889052908101869052606081018590526080810184905260a0810182905260c08101839052600060e0820181905261010082015242610120820152601380620000d08a826200062a565b5060208201516001820190620000e790826200062a565b5060408201516002820190620000fe90826200062a565b50606082015160038201906200011590826200062a565b50608082015160048201906200012c90826200062a565b5060a082015180516200014a916005840191602090910190620001e3565b5060c082015160068201906200016190826200062a565b5060e08201518160070155610100820151816008015561012082015181600901559050505050505050505050620006f6565b600080546001600160a01b038381166001600160a01b0319831681178455604051919092169283917f8be0079c531659141344cd1fd0a4f28419497f9722a3daafe3b4186f6b6457e09190a35050565b8280548282559060005260206000209081019282156200022e579160200282015b828111156200022e57825182906200021d90826200062a565b509160200191906001019062000204565b506200023c92915062000240565b5090565b808211156200023c57600062000257828262000261565b5060010162000240565b5080546200026f906200059b565b6000825580601f1062000280575050565b601f016020900490600052602060002090810190620002a09190620002a3565b50565b5b808211156200023c5760008155600101620002a4565b80516001600160a01b0381168114620002d257600080fd5b919050565b634e487b7160e01b600052604160045260246000fd5b604051601f8201601f191681016001600160401b0381118282101715620003185762000318620002d7565b604052919050565b600082601f8301126200033257600080fd5b81516001600160401b038111156200034e576200034e620002d7565b602062000364601f8301601f19168201620002ed565b82815285828487010111156200037957600080fd5b60005b83811015620003995785810183015182820184015282016200037c565b506000928101909101919091529392505050565b600082601f830112620003bf57600080fd5b815160206001600160401b0380831115620003de57620003de620002d7565b8260051b620003ef838201620002ed565b93845285810183019383810190888611156200040a57600080fd5b84880192505b858310156200044b578251848111156200042a5760008081fd5b6200043a8a87838c010162000320565b835250918401919084019062000410565b98975050505050505050565b600080600080600080600080610100898b0312156200047557600080fd5b6200048089620002ba565b60208a01519098506001600160401b03808211156200049e57600080fd5b620004ac8c838d0162000320565b985060408b0151915080821115620004c357600080fd5b620004d18c838d0162000320565b975060608b0151915080821115620004e857600080fd5b620004f68c838d0162000320565b965060808b01519150808211156200050d57600080fd5b6200051b8c838d0162000320565b955060a08b01519150808211156200053257600080fd5b620005408c838d0162000320565b945060c08b01519150808211156200055757600080fd5b620005658c838d0162000320565b935060e08b01519150808211156200057c57600080fd5b506200058b8b828c01620003ad565b9150509295985092959890939650565b600181811c90821680620005b057607f821691505b602082108103620005d157634e487b7160e01b600052602260045260246000fd5b50919050565b601f8211156200062557600081815260208120601f850160051c81016020861015620006005750805b601f850160051c820191505b8181101562000621578281556001016200060c565b5050505b505050565b81516001600160401b03811115620006465762000646620002d7565b6200065e816200065784546200059b565b84620005d7565b602080601f8311600181146200069657600084156200067d5750858301515b600019600386901b1c1916600185901b17855562000621565b600085815260208120601f198616915b82811015620006c757888601518255948401946001909101908401620006a6565b5085821015620006e65787850151600019600388901b60f8161c191681555b5050505050600190811b01905550565b615c0380620007066000396000f3fe6080604052600436106102305760003560e01c806380d038291161012e578063ce47d973116100ab578063e54a3d091161006f578063e54a3d09146106ff578063e5e92e9c1461071f578063eaeac63114610778578063f2dbf12e146107ae578063f2fde38b146107d857600080fd5b8063ce47d97314610653578063cf3e7c7c14610673578063debf99a1146106a8578063e2f62dc3146106bd578063e4375492146106df57600080fd5b8063a72a2440116100f2578063a72a2440146105c6578063aadd1b03146105e6578063b83fac9f146105ee578063c351f0ec1461060e578063ccc3bba81461063e57600080fd5b806380d038291461051c5780638b8a417e1461053e5780638da5cb5b1461055e5780639f35998e14610586578063a6751ba7146105a657600080fd5b806356e34410116101bc578063715018a611610180578063715018a614610485578063722c51ae1461049a5780637358e08d146104ba5780637725a9fb146104da5780637920efdb146104fc57600080fd5b806356e34410146103ad578063574726f2146103da5780635e1c6ece146103fa578063632c655f1461044557806366e628dd1461046557600080fd5b806327b090021161020357806327b09002146102ec5780632e6c95b41461030c57806343b06c1f1461033a57806348c35ad41461035a57806350d15fbe1461037a57600080fd5b8063049bfecc14610235578063107046bd14610257578063117be5ba1461029657806327aed72e146102b8575b600080fd5b34801561024157600080fd5b5061025561025036600461487d565b6107f8565b005b34801561026357600080fd5b5061027761027236600461487d565b61087c565b60405161028d9a999897969594939291906148dc565b60405180910390f35b3480156102a257600080fd5b506102ab610b75565b60405161028d91906149cc565b3480156102c457600080fd5b506102d86102d336600461487d565b61110b565b60405161028d989796959493929190614b08565b3480156102f857600080fd5b50610255610307366004614ce3565b6113f7565b34801561031857600080fd5b5061032c61032736600461487d565b6115b6565b60405190815260200161028d565b34801561034657600080fd5b5061032c61035536600461487d565b6115d7565b34801561036657600080fd5b5061032c61037536600461487d565b6115e7565b34801561038657600080fd5b5061039a61039536600461487d565b6115f7565b60405161028d9796959493929190614dd7565b3480156103b957600080fd5b506103cd6103c8366004614e38565b6117cf565b60405161028d9190614e74565b3480156103e657600080fd5b5061032c6103f536600461487d565b611c35565b34801561040657600080fd5b50610435610415366004614f4e565b600d60209081526000928352604080842090915290825290205460ff1681565b604051901515815260200161028d565b34801561045157600080fd5b50610255610460366004614f7a565b611c45565b34801561047157600080fd5b5061025561048036600461487d565b611df1565b34801561049157600080fd5b50610255611efd565b3480156104a657600080fd5b506102556104b536600461487d565b611f11565b3480156104c657600080fd5b5061032c6104d536600461487d565b611f99565b3480156104e657600080fd5b506104ef611fa9565b60405161028d9190615009565b34801561050857600080fd5b506102556105173660046150ff565b6123c1565b34801561052857600080fd5b50610531612527565b60405161028d91906151cb565b34801561054a57600080fd5b5061025561055936600461487d565b612a40565b34801561056a57600080fd5b506000546040516001600160a01b03909116815260200161028d565b34801561059257600080fd5b506102556105a13660046152f3565b612a98565b3480156105b257600080fd5b506102556105c136600461540d565b612c4a565b3480156105d257600080fd5b506102556105e136600461487d565b612d65565b610255612ded565b3480156105fa57600080fd5b506102556106093660046154fd565b612f50565b34801561061a57600080fd5b50610435610629366004615551565b600c6020526000908152604090205460ff1681565b34801561064a57600080fd5b506103cd6130f7565b34801561065f57600080fd5b5061025561066e366004615573565b6133eb565b34801561067f57600080fd5b5061069361068e36600461487d565b61348b565b60405161028d9998979695949392919061565b565b3480156106b457600080fd5b50610255613806565b3480156106c957600080fd5b506106d261381d565b60405161028d91906156f8565b3480156106eb57600080fd5b506102556106fa36600461487d565b613d66565b34801561070b57600080fd5b5061025561071a36600461487d565b613de7565b34801561072b57600080fd5b50610734613e70565b60408051998a5260208a0198909852968801959095526060870193909352608086019190915260a085015260c084015260e08301526101008201526101200161028d565b34801561078457600080fd5b5061079861079336600461487d565b613f68565b60405161028d9a99989796959493929190615826565b3480156107ba57600080fd5b506107c3614371565b60405161028d999897969594939291906158d9565b3480156107e457600080fd5b506102556107f3366004615551565b6146db565b610800614719565b6000818152600a602052604081205490036108595760405162461bcd60e51b815260206004820152601460248201527314dada5b1b08191bd95cc81b9bdd08195e1a5cdd60621b60448201526064015b60405180910390fd5b6000908152600a60205260409020600601805460ff19811660ff90911615179055565b6007602052600090815260409020805460018201805491929161089e90615974565b80601f01602080910402602001604051908101604052809291908181526020018280546108ca90615974565b80156109175780601f106108ec57610100808354040283529160200191610917565b820191906000526020600020905b8154815290600101906020018083116108fa57829003601f168201915b50505050509080600201805461092c90615974565b80601f016020809104026020016040519081016040528092919081815260200182805461095890615974565b80156109a55780601f1061097a576101008083540402835291602001916109a5565b820191906000526020600020905b81548152906001019060200180831161098857829003601f168201915b5050505050908060030180546109ba90615974565b80601f01602080910402602001604051908101604052809291908181526020018280546109e690615974565b8015610a335780601f10610a0857610100808354040283529160200191610a33565b820191906000526020600020905b815481529060010190602001808311610a1657829003601f168201915b505050505090806004018054610a4890615974565b80601f0160208091040260200160405190810160405280929190818152602001828054610a7490615974565b8015610ac15780601f10610a9657610100808354040283529160200191610ac1565b820191906000526020600020905b815481529060010190602001808311610aa457829003601f168201915b505050505090806005018054610ad690615974565b80601f0160208091040260200160405190810160405280929190818152602001828054610b0290615974565b8015610b4f5780601f10610b2457610100808354040283529160200191610b4f565b820191906000526020600020905b815481529060010190602001808311610b3257829003601f168201915b50505050600783015460088401546009850154600a909501549394919390925060ff168a565b6010546060906000906001600160401b03811115610b9557610b95614b90565b604051908082528060200260200182016040528015610c1e57816020015b610c0b6040518061014001604052806000815260200160608152602001606081526020016060815260200160608152602001606081526020016060815260200160608152602001600081526020016000151581525090565b815260200190600190039081610bb35790505b50905060005b601054811015611105576009600060108381548110610c4557610c456159a8565b906000526020600020015481526020019081526020016000206040518061014001604052908160008201548152602001600182018054610c8490615974565b80601f0160208091040260200160405190810160405280929190818152602001828054610cb090615974565b8015610cfd5780601f10610cd257610100808354040283529160200191610cfd565b820191906000526020600020905b815481529060010190602001808311610ce057829003601f168201915b50505050508152602001600282018054610d1690615974565b80601f0160208091040260200160405190810160405280929190818152602001828054610d4290615974565b8015610d8f5780601f10610d6457610100808354040283529160200191610d8f565b820191906000526020600020905b815481529060010190602001808311610d7257829003601f168201915b50505050508152602001600382018054610da890615974565b80601f0160208091040260200160405190810160405280929190818152602001828054610dd490615974565b8015610e215780601f10610df657610100808354040283529160200191610e21565b820191906000526020600020905b815481529060010190602001808311610e0457829003601f168201915b50505050508152602001600482018054610e3a90615974565b80601f0160208091040260200160405190810160405280929190818152602001828054610e6690615974565b8015610eb35780601f10610e8857610100808354040283529160200191610eb3565b820191906000526020600020905b815481529060010190602001808311610e9657829003601f168201915b50505050508152602001600582018054610ecc90615974565b80601f0160208091040260200160405190810160405280929190818152602001828054610ef890615974565b8015610f455780601f10610f1a57610100808354040283529160200191610f45565b820191906000526020600020905b815481529060010190602001808311610f2857829003601f168201915b50505050508152602001600682018054610f5e90615974565b80601f0160208091040260200160405190810160405280929190818152602001828054610f8a90615974565b8015610fd75780601f10610fac57610100808354040283529160200191610fd7565b820191906000526020600020905b815481529060010190602001808311610fba57829003601f168201915b5050505050815260200160078201805480602002602001604051908101604052809291908181526020016000905b828210156110b157838290600052602060002001805461102490615974565b80601f016020809104026020016040519081016040528092919081815260200182805461105090615974565b801561109d5780601f106110725761010080835404028352916020019161109d565b820191906000526020600020905b81548152906001019060200180831161108057829003601f168201915b505050505081526020019060010190611005565b505050908252506008820154602082015260099091015460ff16151560409091015282518390839081106110e7576110e76159a8565b602002602001018190525080806110fd906159d4565b915050610c24565b50919050565b600b602052600090815260409020805460018201805491929161112d90615974565b80601f016020809104026020016040519081016040528092919081815260200182805461115990615974565b80156111a65780601f1061117b576101008083540402835291602001916111a6565b820191906000526020600020905b81548152906001019060200180831161118957829003601f168201915b5050505050908060020180546111bb90615974565b80601f01602080910402602001604051908101604052809291908181526020018280546111e790615974565b80156112345780601f1061120957610100808354040283529160200191611234565b820191906000526020600020905b81548152906001019060200180831161121757829003601f168201915b50505050509080600301805461124990615974565b80601f016020809104026020016040519081016040528092919081815260200182805461127590615974565b80156112c25780601f10611297576101008083540402835291602001916112c2565b820191906000526020600020905b8154815290600101906020018083116112a557829003601f168201915b5050505050908060040180546112d790615974565b80601f016020809104026020016040519081016040528092919081815260200182805461130390615974565b80156113505780601f1061132557610100808354040283529160200191611350565b820191906000526020600020905b81548152906001019060200180831161133357829003601f168201915b50505050509080600501549080600601805461136b90615974565b80601f016020809104026020016040519081016040528092919081815260200182805461139790615974565b80156113e45780601f106113b9576101008083540402835291602001916113e4565b820191906000526020600020905b8154815290600101906020018083116113c757829003601f168201915b5050506007909301549192505060ff1688565b6113ff614719565b60026000815461140e906159d4565b90915550600254604080516101608101825282815260208082018a81528284018a9052606083018990526080830188905260a0830187905260c08301869052600060e0840181905261010084018190524261012085015260016101408501819052868252600790935293909320825181559251919291908201906114929082615a3c565b50604082015160028201906114a79082615a3c565b50606082015160038201906114bc9082615a3c565b50608082015160048201906114d19082615a3c565b5060a082015160058201906114e69082615a3c565b5060c082015180516115029160068401916020909101906147c0565b5060e082015160078201556101008201516008820155610120820151600982015561014090910151600a909101805460ff1916911515919091179055600e80546001810182556000919091527fbb7b4a454dc3493923482f07822329ed19e8244eff582cc204f8554c3620c3fd0181905560405181907f0855be7ab46e0ae9e0d9c2f3567377c0a577a8c726b7c88615644d282a1fc291906115a5908a90615afb565b60405180910390a250505050505050565b601181815481106115c657600080fd5b600091825260209091200154905081565b600f81815481106115c657600080fd5b600e81815481106115c657600080fd5b600a602052600090815260409020805460018201805491929161161990615974565b80601f016020809104026020016040519081016040528092919081815260200182805461164590615974565b80156116925780601f1061166757610100808354040283529160200191611692565b820191906000526020600020905b81548152906001019060200180831161167557829003601f168201915b5050505050908060020180546116a790615974565b80601f01602080910402602001604051908101604052809291908181526020018280546116d390615974565b80156117205780601f106116f557610100808354040283529160200191611720565b820191906000526020600020905b81548152906001019060200180831161170357829003601f168201915b50505050509080600301805461173590615974565b80601f016020809104026020016040519081016040528092919081815260200182805461176190615974565b80156117ae5780601f10611783576101008083540402835291602001916117ae565b820191906000526020600020905b81548152906001019060200180831161179157829003601f168201915b50505050600483015460058401546006909401549293909290915060ff1687565b60606000805b601154811015611896578380519060200120600a6000601184815481106117fe576117fe6159a8565b906000526020600020015481526020019081526020016000206002016040516118279190615b0e565b60405180910390201480156118715750600a60006011838154811061184e5761184e6159a8565b6000918252602080832090910154835282019290925260400190206006015460ff165b156118845781611880816159d4565b9250505b8061188e816159d4565b9150506117d5565b506000816001600160401b038111156118b1576118b1614b90565b60405190808252806020026020018201604052801561192457816020015b6119116040518060e001604052806000815260200160608152602001606081526020016060815260200160008152602001600081526020016000151581525090565b8152602001906001900390816118cf5790505b5090506000805b601154811015611c2b578580519060200120600a600060118481548110611954576119546159a8565b9060005260206000200154815260200190815260200160002060020160405161197d9190615b0e565b60405180910390201480156119c75750600a6000601183815481106119a4576119a46159a8565b6000918252602080832090910154835282019290925260400190206006015460ff165b15611c1957600a6000601183815481106119e3576119e36159a8565b906000526020600020015481526020019081526020016000206040518060e001604052908160008201548152602001600182018054611a2190615974565b80601f0160208091040260200160405190810160405280929190818152602001828054611a4d90615974565b8015611a9a5780601f10611a6f57610100808354040283529160200191611a9a565b820191906000526020600020905b815481529060010190602001808311611a7d57829003601f168201915b50505050508152602001600282018054611ab390615974565b80601f0160208091040260200160405190810160405280929190818152602001828054611adf90615974565b8015611b2c5780601f10611b0157610100808354040283529160200191611b2c565b820191906000526020600020905b815481529060010190602001808311611b0f57829003601f168201915b50505050508152602001600382018054611b4590615974565b80601f0160208091040260200160405190810160405280929190818152602001828054611b7190615974565b8015611bbe5780601f10611b9357610100808354040283529160200191611bbe565b820191906000526020600020905b815481529060010190602001808311611ba157829003601f168201915b5050509183525050600482015460208201526005820154604082015260069091015460ff1615156060909101528351849084908110611bff57611bff6159a8565b60200260200101819052508180611c15906159d4565b9250505b80611c23816159d4565b91505061192b565b5090949350505050565b601281815481106115c657600080fd5b611c4d614719565b6064811115611cae5760405162461bcd60e51b815260206004820152602760248201527f50726f66696369656e6379206c6576656c206d7573742062652062657477656560448201526606e20302d3130360cc1b6064820152608401610850565b600560008154611cbd906159d4565b909155506005546040805160e081018252828152602080820188815282840188905260608301879052608083018690524260a0840152600160c084018190526000868152600a909352939091208251815590519192909190820190611d229082615a3c565b5060408201516002820190611d379082615a3c565b5060608201516003820190611d4c9082615a3c565b506080820151600482015560a0820151600582015560c0909101516006909101805460ff1916911515919091179055601180546001810182556000919091527f31ecc21a745e3968a04e9570e4425bc18fa8019c68028196b546d1669c200c680181905560405181907f9187da888fb0a4e77ba1969299efdd67961b0bba0aea2875b80e51aefe03f25090611de2908890615afb565b60405180910390a25050505050565b6000818152600760205260409020600a015460ff16611e225760405162461bcd60e51b815260040161085090615b84565b6000818152600d6020908152604080832033845290915290205460ff1615611e8c5760405162461bcd60e51b815260206004820152601a60248201527f416c7265616479206c696b656420746869732070726f6a6563740000000000006044820152606401610850565b6000818152600d602090815260408083203384528252808320805460ff19166001179055838352600791829052822001805491611ec8836159d4565b9091555050604051339082907ffb3102d8ecb66d98243ae49796162a002aaca5261e7af9e47b4e110e6c1d6d3590600090a350565b611f05614719565b611f0f6000614746565b565b611f19614719565b6000818152600b60205260408120549003611f765760405162461bcd60e51b815260206004820152601a60248201527f416368696576656d656e7420646f6573206e6f742065786973740000000000006044820152606401610850565b6000908152600b60205260409020600701805460ff19811660ff90911615179055565b601081815481106115c657600080fd5b6012546060906000906001600160401b03811115611fc957611fc9614b90565b60405190808252806020026020018201604052801561204457816020015b612031604051806101000160405280600081526020016060815260200160608152602001606081526020016060815260200160008152602001606081526020016000151581525090565b815260200190600190039081611fe75790505b50905060005b60125481101561110557600b60006012838154811061206b5761206b6159a8565b9060005260206000200154815260200190815260200160002060405180610100016040529081600082015481526020016001820180546120aa90615974565b80601f01602080910402602001604051908101604052809291908181526020018280546120d690615974565b80156121235780601f106120f857610100808354040283529160200191612123565b820191906000526020600020905b81548152906001019060200180831161210657829003601f168201915b5050505050815260200160028201805461213c90615974565b80601f016020809104026020016040519081016040528092919081815260200182805461216890615974565b80156121b55780601f1061218a576101008083540402835291602001916121b5565b820191906000526020600020905b81548152906001019060200180831161219857829003601f168201915b505050505081526020016003820180546121ce90615974565b80601f01602080910402602001604051908101604052809291908181526020018280546121fa90615974565b80156122475780601f1061221c57610100808354040283529160200191612247565b820191906000526020600020905b81548152906001019060200180831161222a57829003601f168201915b5050505050815260200160048201805461226090615974565b80601f016020809104026020016040519081016040528092919081815260200182805461228c90615974565b80156122d95780601f106122ae576101008083540402835291602001916122d9565b820191906000526020600020905b8154815290600101906020018083116122bc57829003601f168201915b50505050508152602001600582015481526020016006820180546122fc90615974565b80601f016020809104026020016040519081016040528092919081815260200182805461232890615974565b80156123755780601f1061234a57610100808354040283529160200191612375565b820191906000526020600020905b81548152906001019060200180831161235857829003601f168201915b50505091835250506007919091015460ff16151560209091015282518390839081106123a3576123a36159a8565b602002602001018190525080806123b9906159d4565b91505061204a565b6123c9614719565b6006600081546123d8906159d4565b90915550600654604080516101008101825282815260208082018a81528284018a9052606083018990526080830188905260a0830187905260c08301869052600160e084018190526000868152600b9093529390912082518155905191929091908201906124469082615a3c565b506040820151600282019061245b9082615a3c565b50606082015160038201906124709082615a3c565b50608082015160048201906124859082615a3c565b5060a0820151600582015560c082015160068201906124a49082615a3c565b5060e091909101516007909101805460ff1916911515919091179055601280546001810182556000919091527fbb8a6a4669ba250d26cd7a459eca9d215f8307e33aebe50379bc5a3617ec34440181905560405181907ff17f92196cd6983957acf186d3c32425568737aac0a230c7cd0b9068addcc5d0906115a5908a90615afb565b600e546060906000906001600160401b0381111561254757612547614b90565b6040519080825280602002602001820160405280156125d757816020015b6125c4604051806101600160405280600081526020016060815260200160608152602001606081526020016060815260200160608152602001606081526020016000815260200160008152602001600081526020016000151581525090565b8152602001906001900390816125655790505b50905060005b600e548110156111055760076000600e83815481106125fe576125fe6159a8565b90600052602060002001548152602001908152602001600020604051806101600160405290816000820154815260200160018201805461263d90615974565b80601f016020809104026020016040519081016040528092919081815260200182805461266990615974565b80156126b65780601f1061268b576101008083540402835291602001916126b6565b820191906000526020600020905b81548152906001019060200180831161269957829003601f168201915b505050505081526020016002820180546126cf90615974565b80601f01602080910402602001604051908101604052809291908181526020018280546126fb90615974565b80156127485780601f1061271d57610100808354040283529160200191612748565b820191906000526020600020905b81548152906001019060200180831161272b57829003601f168201915b5050505050815260200160038201805461276190615974565b80601f016020809104026020016040519081016040528092919081815260200182805461278d90615974565b80156127da5780601f106127af576101008083540402835291602001916127da565b820191906000526020600020905b8154815290600101906020018083116127bd57829003601f168201915b505050505081526020016004820180546127f390615974565b80601f016020809104026020016040519081016040528092919081815260200182805461281f90615974565b801561286c5780601f106128415761010080835404028352916020019161286c565b820191906000526020600020905b81548152906001019060200180831161284f57829003601f168201915b5050505050815260200160058201805461288590615974565b80601f01602080910402602001604051908101604052809291908181526020018280546128b190615974565b80156128fe5780601f106128d3576101008083540402835291602001916128fe565b820191906000526020600020905b8154815290600101906020018083116128e157829003601f168201915b5050505050815260200160068201805480602002602001604051908101604052809291908181526020016000905b828210156129d857838290600052602060002001805461294b90615974565b80601f016020809104026020016040519081016040528092919081815260200182805461297790615974565b80156129c45780601f10612999576101008083540402835291602001916129c4565b820191906000526020600020905b8154815290600101906020018083116129a757829003601f168201915b50505050508152602001906001019061292c565b50505090825250600782015460208201526008820154604082015260098201546060820152600a9091015460ff1615156080909101528251839083908110612a2257612a226159a8565b60200260200101819052508080612a38906159d4565b9150506125dd565b612a48614719565b6000818152600760205260408120549003612a755760405162461bcd60e51b815260040161085090615b84565b6000908152600760205260409020600a01805460ff19811660ff90911615179055565b612aa0614719565b600360008154612aaf906159d4565b90915550600354604080516101408101825282815260208082018b81528284018b9052606083018a90526080830189905260a0830188905260c0830187905260e08301869052426101008401526001610120840181905260008681526008909352939091208251815590519192909190820190612b2c9082615a3c565b5060408201516002820190612b419082615a3c565b5060608201516003820190612b569082615a3c565b5060808201516004820190612b6b9082615a3c565b5060a08201516005820190612b809082615a3c565b5060c08201516006820190612b959082615a3c565b5060e08201516007820190612baa9082615a3c565b506101008201516008820155610120909101516009909101805460ff1916911515919091179055600f80546001810182556000919091527f8d1108e10bcb7c27dddfc02ed9d693a074039d026cf4ea4240b40f7d581ac8020181905560405181907ff5bbb635e6e75237148e193e7d9ef620ab355d1d09ec782c89e43bfe5af40cc890612c38908990615afb565b60405180910390a25050505050505050565b612c52614719565b6000878152600760205260409020600a015460ff16612cc15760405162461bcd60e51b815260206004820152602560248201527f50726f6a65637420646f6573206e6f74206578697374206f7220697320696e61604482015264637469766560d81b6064820152608401610850565b600087815260076020526040902060018101612cdd8882615a3c565b5060028101612cec8782615a3c565b5060038101612cfb8682615a3c565b5060048101612d0a8582615a3c565b5060058101612d198482615a3c565b508151612d2f90600683019060208501906147c0565b5060405188907fda124279e8f8c56d142d1f8d79ba312ac54eb788b54f07b8040ff61eaf21100990600090a25050505050505050565b612d6d614719565b6000818152600860205260408120549003612dca5760405162461bcd60e51b815260206004820152601860248201527f456475636174696f6e20646f6573206e6f7420657869737400000000000000006044820152606401610850565b6000908152600860205260409020600901805460ff19811660ff90911615179055565b612df5614796565b60003411612e545760405162461bcd60e51b815260206004820152602660248201527f446f6e6174696f6e20616d6f756e74206d75737420626520677265617465722060448201526507468616e20360d41b6064820152608401610850565b3460136007016000828254612e699190615bb4565b9091555050600080546040516001600160a01b039091169034908381818185875af1925050503d8060008114612ebb576040519150601f19603f3d011682016040523d82523d6000602084013e612ec0565b606091505b5050905080612f115760405162461bcd60e51b815260206004820152601860248201527f446f6e6174696f6e207472616e73666572206661696c656400000000000000006044820152606401610850565b60405134815233907f264f630d9efa0d07053a31163641d9fcc0adafc9d9e76f1c37c2ce3a558d2c529060200160405180910390a250611f0f60018055565b612f58614719565b600460008154612f67906159d4565b90915550600454604080516101408101825282815260208082018b81528284018b9052606083018a90526080830189905260a0830188905260c0830187905260e08301869052426101008401526001610120840181905260008681526009909352939091208251815590519192909190820190612fe49082615a3c565b5060408201516002820190612ff99082615a3c565b506060820151600382019061300e9082615a3c565b50608082015160048201906130239082615a3c565b5060a082015160058201906130389082615a3c565b5060c0820151600682019061304d9082615a3c565b5060e082015180516130699160078401916020909101906147c0565b506101008201516008820155610120909101516009909101805460ff1916911515919091179055601080546001810182556000919091527f1b6847dc741a1b0cd08d278845f9d819d87b734759afb55fe2de5cb82a9ae6720181905560405181907f7bab0d14dcd32266c701747fa8b71424d340a4b0f4f864a4d4b8a92538b22c0390612c38908990615afb565b6011546060906000906001600160401b0381111561311757613117614b90565b60405190808252806020026020018201604052801561318a57816020015b6131776040518060e001604052806000815260200160608152602001606081526020016060815260200160008152602001600081526020016000151581525090565b8152602001906001900390816131355790505b50905060005b60115481101561110557600a6000601183815481106131b1576131b16159a8565b906000526020600020015481526020019081526020016000206040518060e0016040529081600082015481526020016001820180546131ef90615974565b80601f016020809104026020016040519081016040528092919081815260200182805461321b90615974565b80156132685780601f1061323d57610100808354040283529160200191613268565b820191906000526020600020905b81548152906001019060200180831161324b57829003601f168201915b5050505050815260200160028201805461328190615974565b80601f01602080910402602001604051908101604052809291908181526020018280546132ad90615974565b80156132fa5780601f106132cf576101008083540402835291602001916132fa565b820191906000526020600020905b8154815290600101906020018083116132dd57829003601f168201915b5050505050815260200160038201805461331390615974565b80601f016020809104026020016040519081016040528092919081815260200182805461333f90615974565b801561338c5780601f106133615761010080835404028352916020019161338c565b820191906000526020600020905b81548152906001019060200180831161336f57829003601f168201915b5050509183525050600482015460208201526005820154604082015260069091015460ff16151560609091015282518390839081106133cd576133cd6159a8565b602002602001018190525080806133e3906159d4565b915050613190565b6133f3614719565b60136133ff8882615a3c565b50601461340c8782615a3c565b5060156134198682615a3c565b5060166134268582615a3c565b5060176134338482615a3c565b5081516134479060189060208501906147c0565b5060196134548282615a3c565b5042601c556040517fa5a5ab76615c969594387069888e113fe2c9e39bd533a63259ebb8d7a3c4185390600090a150505050505050565b600960205260009081526040902080546001820180549192916134ad90615974565b80601f01602080910402602001604051908101604052809291908181526020018280546134d990615974565b80156135265780601f106134fb57610100808354040283529160200191613526565b820191906000526020600020905b81548152906001019060200180831161350957829003601f168201915b50505050509080600201805461353b90615974565b80601f016020809104026020016040519081016040528092919081815260200182805461356790615974565b80156135b45780601f10613589576101008083540402835291602001916135b4565b820191906000526020600020905b81548152906001019060200180831161359757829003601f168201915b5050505050908060030180546135c990615974565b80601f01602080910402602001604051908101604052809291908181526020018280546135f590615974565b80156136425780601f1061361757610100808354040283529160200191613642565b820191906000526020600020905b81548152906001019060200180831161362557829003601f168201915b50505050509080600401805461365790615974565b80601f016020809104026020016040519081016040528092919081815260200182805461368390615974565b80156136d05780601f106136a5576101008083540402835291602001916136d0565b820191906000526020600020905b8154815290600101906020018083116136b357829003601f168201915b5050505050908060050180546136e590615974565b80601f016020809104026020016040519081016040528092919081815260200182805461371190615974565b801561375e5780601f106137335761010080835404028352916020019161375e565b820191906000526020600020905b81548152906001019060200180831161374157829003601f168201915b50505050509080600601805461377390615974565b80601f016020809104026020016040519081016040528092919081815260200182805461379f90615974565b80156137ec5780601f106137c1576101008083540402835291602001916137ec565b820191906000526020600020905b8154815290600101906020018083116137cf57829003601f168201915b50505050600883015460099093015491929160ff16905089565b601b8054906000613816836159d4565b9190505550565b600f546060906000906001600160401b0381111561383d5761383d614b90565b6040519080825280602002602001820160405280156138c657816020015b6138b36040518061014001604052806000815260200160608152602001606081526020016060815260200160608152602001606081526020016060815260200160608152602001600081526020016000151581525090565b81526020019060019003908161385b5790505b50905060005b600f548110156111055760086000600f83815481106138ed576138ed6159a8565b90600052602060002001548152602001908152602001600020604051806101400160405290816000820154815260200160018201805461392c90615974565b80601f016020809104026020016040519081016040528092919081815260200182805461395890615974565b80156139a55780601f1061397a576101008083540402835291602001916139a5565b820191906000526020600020905b81548152906001019060200180831161398857829003601f168201915b505050505081526020016002820180546139be90615974565b80601f01602080910402602001604051908101604052809291908181526020018280546139ea90615974565b8015613a375780601f10613a0c57610100808354040283529160200191613a37565b820191906000526020600020905b815481529060010190602001808311613a1a57829003601f168201915b50505050508152602001600382018054613a5090615974565b80601f0160208091040260200160405190810160405280929190818152602001828054613a7c90615974565b8015613ac95780601f10613a9e57610100808354040283529160200191613ac9565b820191906000526020600020905b815481529060010190602001808311613aac57829003601f168201915b50505050508152602001600482018054613ae290615974565b80601f0160208091040260200160405190810160405280929190818152602001828054613b0e90615974565b8015613b5b5780601f10613b3057610100808354040283529160200191613b5b565b820191906000526020600020905b815481529060010190602001808311613b3e57829003601f168201915b50505050508152602001600582018054613b7490615974565b80601f0160208091040260200160405190810160405280929190818152602001828054613ba090615974565b8015613bed5780601f10613bc257610100808354040283529160200191613bed565b820191906000526020600020905b815481529060010190602001808311613bd057829003601f168201915b50505050508152602001600682018054613c0690615974565b80601f0160208091040260200160405190810160405280929190818152602001828054613c3290615974565b8015613c7f5780601f10613c5457610100808354040283529160200191613c7f565b820191906000526020600020905b815481529060010190602001808311613c6257829003601f168201915b50505050508152602001600782018054613c9890615974565b80601f0160208091040260200160405190810160405280929190818152602001828054613cc490615974565b8015613d115780601f10613ce657610100808354040283529160200191613d11565b820191906000526020600020905b815481529060010190602001808311613cf457829003601f168201915b50505091835250506008820154602082015260099091015460ff1615156040909101528251839083908110613d4857613d486159a8565b60200260200101819052508080613d5e906159d4565b9150506138cc565b6000818152600760205260409020600a015460ff16613d975760405162461bcd60e51b815260040161085090615b84565b6000818152600760205260408120600801805491613db4836159d4565b909155505060405181907f2b4557dc4017846f558fdc087e75e3ec527411984bd18e0cb63c92b851862c2e90600090a250565b613def614719565b6000818152600960205260408120549003613e4c5760405162461bcd60e51b815260206004820152601960248201527f457870657269656e636520646f6573206e6f74206578697374000000000000006044820152606401610850565b600090815260096020819052604090912001805460ff19811660ff90911615179055565b600080808080808080808080805b600e54811015613f1c5760076000600e8381548110613e9f57613e9f6159a8565b906000526020600020015481526020019081526020016000206007015483613ec79190615bb4565b925060076000600e8381548110613ee057613ee06159a8565b906000526020600020015481526020019081526020016000206008015482613f089190615bb4565b915080613f14816159d4565b915050613e7e565b50600e80549050600f8054905060108054905060118054905060128054905086866013600801546013600701549a509a509a509a509a509a509a509a509a505050909192939495969798565b60086020526000908152604090208054600182018054919291613f8a90615974565b80601f0160208091040260200160405190810160405280929190818152602001828054613fb690615974565b80156140035780601f10613fd857610100808354040283529160200191614003565b820191906000526020600020905b815481529060010190602001808311613fe657829003601f168201915b50505050509080600201805461401890615974565b80601f016020809104026020016040519081016040528092919081815260200182805461404490615974565b80156140915780601f1061406657610100808354040283529160200191614091565b820191906000526020600020905b81548152906001019060200180831161407457829003601f168201915b5050505050908060030180546140a690615974565b80601f01602080910402602001604051908101604052809291908181526020018280546140d290615974565b801561411f5780601f106140f45761010080835404028352916020019161411f565b820191906000526020600020905b81548152906001019060200180831161410257829003601f168201915b50505050509080600401805461413490615974565b80601f016020809104026020016040519081016040528092919081815260200182805461416090615974565b80156141ad5780601f10614182576101008083540402835291602001916141ad565b820191906000526020600020905b81548152906001019060200180831161419057829003601f168201915b5050505050908060050180546141c290615974565b80601f01602080910402602001604051908101604052809291908181526020018280546141ee90615974565b801561423b5780601f106142105761010080835404028352916020019161423b565b820191906000526020600020905b81548152906001019060200180831161421e57829003601f168201915b50505050509080600601805461425090615974565b80601f016020809104026020016040519081016040528092919081815260200182805461427c90615974565b80156142c95780601f1061429e576101008083540402835291602001916142c9565b820191906000526020600020905b8154815290600101906020018083116142ac57829003601f168201915b5050505050908060070180546142de90615974565b80601f016020809104026020016040519081016040528092919081815260200182805461430a90615974565b80156143575780601f1061432c57610100808354040283529160200191614357565b820191906000526020600020905b81548152906001019060200180831161433a57829003601f168201915b50505050600883015460099093015491929160ff1690508a565b60138054819061438090615974565b80601f01602080910402602001604051908101604052809291908181526020018280546143ac90615974565b80156143f95780601f106143ce576101008083540402835291602001916143f9565b820191906000526020600020905b8154815290600101906020018083116143dc57829003601f168201915b50505050509080600101805461440e90615974565b80601f016020809104026020016040519081016040528092919081815260200182805461443a90615974565b80156144875780601f1061445c57610100808354040283529160200191614487565b820191906000526020600020905b81548152906001019060200180831161446a57829003601f168201915b50505050509080600201805461449c90615974565b80601f01602080910402602001604051908101604052809291908181526020018280546144c890615974565b80156145155780601f106144ea57610100808354040283529160200191614515565b820191906000526020600020905b8154815290600101906020018083116144f857829003601f168201915b50505050509080600301805461452a90615974565b80601f016020809104026020016040519081016040528092919081815260200182805461455690615974565b80156145a35780601f10614578576101008083540402835291602001916145a3565b820191906000526020600020905b81548152906001019060200180831161458657829003601f168201915b5050505050908060040180546145b890615974565b80601f01602080910402602001604051908101604052809291908181526020018280546145e490615974565b80156146315780601f1061460657610100808354040283529160200191614631565b820191906000526020600020905b81548152906001019060200180831161461457829003601f168201915b50505050509080600601805461464690615974565b80601f016020809104026020016040519081016040528092919081815260200182805461467290615974565b80156146bf5780601f10614694576101008083540402835291602001916146bf565b820191906000526020600020905b8154815290600101906020018083116146a257829003601f168201915b5050505050908060070154908060080154908060090154905089565b6146e3614719565b6001600160a01b03811661470d57604051631e4fbdf760e01b815260006004820152602401610850565b61471681614746565b50565b6000546001600160a01b03163314611f0f5760405163118cdaa760e01b8152336004820152602401610850565b600080546001600160a01b038381166001600160a01b0319831681178455604051919092169283917f8be0079c531659141344cd1fd0a4f28419497f9722a3daafe3b4186f6b6457e09190a35050565b6002600154036147b957604051633ee5aeb560e01b815260040160405180910390fd5b6002600155565b828054828255906000526020600020908101928215614806579160200282015b8281111561480657825182906147f69082615a3c565b50916020019190600101906147e0565b50614812929150614816565b5090565b8082111561481257600061482a8282614833565b50600101614816565b50805461483f90615974565b6000825580601f1061484f575050565b601f01602090049060005260206000209081019061471691905b808211156148125760008155600101614869565b60006020828403121561488f57600080fd5b5035919050565b6000815180845260005b818110156148bc576020818501810151868301820152016148a0565b506000602082860101526020601f19601f83011685010191505092915050565b60006101408c83528060208401526148f68184018d614896565b9050828103604084015261490a818c614896565b9050828103606084015261491e818b614896565b90508281036080840152614932818a614896565b905082810360a08401526149468189614896565b9150508560c08301528460e0830152836101008301528215156101208301529b9a5050505050505050505050565b600082825180855260208086019550808260051b84010181860160005b848110156149bf57601f198684030189526149ad838351614896565b98840198925090830190600101614991565b5090979650505050505050565b60006020808301818452808551808352604092508286019150828160051b87010184880160005b83811015614afa57603f1989840301855281516101408151855288820151818a870152614a2282870182614896565b9150508782015185820389870152614a3a8282614896565b91505060608083015186830382880152614a548382614896565b9250505060808083015186830382880152614a6f8382614896565b9250505060a08083015186830382880152614a8a8382614896565b9250505060c08083015186830382880152614aa58382614896565b9250505060e08083015186830382880152614ac08382614974565b92505050610100808301518187015250610120808301519250614ae68187018415159052565b5095880195935050908601906001016149f3565b509098975050505050505050565b60006101008a8352806020840152614b228184018b614896565b90508281036040840152614b36818a614896565b90508281036060840152614b4a8189614896565b90508281036080840152614b5e8188614896565b90508560a084015282810360c0840152614b788186614896565b91505082151560e08301529998505050505050505050565b634e487b7160e01b600052604160045260246000fd5b604051601f8201601f191681016001600160401b0381118282101715614bce57614bce614b90565b604052919050565b600082601f830112614be757600080fd5b81356001600160401b03811115614c0057614c00614b90565b614c13601f8201601f1916602001614ba6565b818152846020838601011115614c2857600080fd5b816020850160208301376000918101602001919091529392505050565b600082601f830112614c5657600080fd5b813560206001600160401b0380831115614c7257614c72614b90565b8260051b614c81838201614ba6565b9384528581018301938381019088861115614c9b57600080fd5b84880192505b85831015614cd757823584811115614cb95760008081fd5b614cc78a87838c0101614bd6565b8352509184019190840190614ca1565b98975050505050505050565b60008060008060008060c08789031215614cfc57600080fd5b86356001600160401b0380821115614d1357600080fd5b614d1f8a838b01614bd6565b97506020890135915080821115614d3557600080fd5b614d418a838b01614bd6565b96506040890135915080821115614d5757600080fd5b614d638a838b01614bd6565b95506060890135915080821115614d7957600080fd5b614d858a838b01614bd6565b94506080890135915080821115614d9b57600080fd5b614da78a838b01614bd6565b935060a0890135915080821115614dbd57600080fd5b50614dca89828a01614c45565b9150509295509295509295565b87815260e060208201526000614df060e0830189614896565b8281036040840152614e028189614896565b90508281036060840152614e168188614896565b6080840196909652505060a0810192909252151560c090910152949350505050565b600060208284031215614e4a57600080fd5b81356001600160401b03811115614e6057600080fd5b614e6c84828501614bd6565b949350505050565b60006020808301818452808551808352604092508286019150828160051b87010184880160005b83811015614afa57603f19898403018552815160e08151855288820151818a870152614ec982870182614896565b9150508782015185820389870152614ee18282614896565b91505060608083015186830382880152614efb8382614896565b6080858101519089015260a0808601519089015260c094850151151594909701939093525050509386019390860190600101614e9b565b80356001600160a01b0381168114614f4957600080fd5b919050565b60008060408385031215614f6157600080fd5b82359150614f7160208401614f32565b90509250929050565b60008060008060808587031215614f9057600080fd5b84356001600160401b0380821115614fa757600080fd5b614fb388838901614bd6565b95506020870135915080821115614fc957600080fd5b614fd588838901614bd6565b94506040870135915080821115614feb57600080fd5b50614ff887828801614bd6565b949793965093946060013593505050565b60006020808301818452808551808352604092508286019150828160051b87010184880160005b83811015614afa57603f1989840301855281516101008151855288820151818a87015261505f82870182614896565b91505087820151858203898701526150778282614896565b915050606080830151868303828801526150918382614896565b92505050608080830151868303828801526150ac8382614896565b9250505060a080830151818701525060c080830151868303828801526150d28382614896565b9250505060e08083015192506150eb8187018415159052565b509588019593505090860190600101615030565b60008060008060008060c0878903121561511857600080fd5b86356001600160401b038082111561512f57600080fd5b61513b8a838b01614bd6565b9750602089013591508082111561515157600080fd5b61515d8a838b01614bd6565b9650604089013591508082111561517357600080fd5b61517f8a838b01614bd6565b9550606089013591508082111561519557600080fd5b6151a18a838b01614bd6565b94506080890135935060a08901359150808211156151be57600080fd5b50614dca89828a01614bd6565b60006020808301818452808551808352604092508286019150828160051b87010184880160005b83811015614afa57603f1989840301855281516101608151855288820151818a87015261522182870182614896565b91505087820151858203898701526152398282614896565b915050606080830151868303828801526152538382614896565b925050506080808301518683038288015261526e8382614896565b9250505060a080830151868303828801526152898382614896565b9250505060c080830151868303828801526152a48382614974565b60e085810151908901526101008086015190890152610120808601519089015261014094850151801515868a01529490935091506152df9050565b5095880195935050908601906001016151f2565b600080600080600080600060e0888a03121561530e57600080fd5b87356001600160401b038082111561532557600080fd5b6153318b838c01614bd6565b985060208a013591508082111561534757600080fd5b6153538b838c01614bd6565b975060408a013591508082111561536957600080fd5b6153758b838c01614bd6565b965060608a013591508082111561538b57600080fd5b6153978b838c01614bd6565b955060808a01359150808211156153ad57600080fd5b6153b98b838c01614bd6565b945060a08a01359150808211156153cf57600080fd5b6153db8b838c01614bd6565b935060c08a01359150808211156153f157600080fd5b506153fe8a828b01614bd6565b91505092959891949750929550565b600080600080600080600060e0888a03121561542857600080fd5b8735965060208801356001600160401b038082111561544657600080fd5b6154528b838c01614bd6565b975060408a013591508082111561546857600080fd5b6154748b838c01614bd6565b965060608a013591508082111561548a57600080fd5b6154968b838c01614bd6565b955060808a01359150808211156154ac57600080fd5b6154b88b838c01614bd6565b945060a08a01359150808211156154ce57600080fd5b6154da8b838c01614bd6565b935060c08a01359150808211156154f057600080fd5b506153fe8a828b01614c45565b600080600080600080600060e0888a03121561551857600080fd5b87356001600160401b038082111561552f57600080fd5b61553b8b838c01614bd6565b985060208a013591508082111561544657600080fd5b60006020828403121561556357600080fd5b61556c82614f32565b9392505050565b600080600080600080600060e0888a03121561558e57600080fd5b87356001600160401b03808211156155a557600080fd5b6155b18b838c01614bd6565b985060208a01359150808211156155c757600080fd5b6155d38b838c01614bd6565b975060408a01359150808211156155e957600080fd5b6155f58b838c01614bd6565b965060608a013591508082111561560b57600080fd5b6156178b838c01614bd6565b955060808a013591508082111561562d57600080fd5b6156398b838c01614bd6565b945060a08a013591508082111561564f57600080fd5b6153db8b838c01614c45565b60006101208b83528060208401526156758184018c614896565b90508281036040840152615689818b614896565b9050828103606084015261569d818a614896565b905082810360808401526156b18189614896565b905082810360a08401526156c58188614896565b905082810360c08401526156d98187614896565b60e0840195909552505090151561010090910152979650505050505050565b60006020808301818452808551808352604092508286019150828160051b87010184880160005b83811015614afa57603f1989840301855281516101408151855288820151818a87015261574e82870182614896565b91505087820151858203898701526157668282614896565b915050606080830151868303828801526157808382614896565b925050506080808301518683038288015261579b8382614896565b9250505060a080830151868303828801526157b68382614896565b9250505060c080830151868303828801526157d18382614896565b9250505060e080830151868303828801526157ec8382614896565b925050506101008083015181870152506101208083015192506158128187018415159052565b50958801959350509086019060010161571f565b60006101408c83528060208401526158408184018d614896565b90508281036040840152615854818c614896565b90508281036060840152615868818b614896565b9050828103608084015261587c818a614896565b905082810360a08401526158908189614896565b905082810360c08401526158a48188614896565b905082810360e08401526158b88187614896565b61010084019590955250509015156101209091015298975050505050505050565b60006101208083526158ed8184018d614896565b90508281036020840152615901818c614896565b90508281036040840152615915818b614896565b90508281036060840152615929818a614896565b9050828103608084015261593d8189614896565b905082810360a08401526159518188614896565b60c0840196909652505060e0810192909252610100909101529695505050505050565b600181811c9082168061598857607f821691505b60208210810361110557634e487b7160e01b600052602260045260246000fd5b634e487b7160e01b600052603260045260246000fd5b634e487b7160e01b600052601160045260246000fd5b6000600182016159e6576159e66159be565b5060010190565b601f821115615a3757600081815260208120601f850160051c81016020861015615a145750805b601f850160051c820191505b81811015615a3357828155600101615a20565b5050505b505050565b81516001600160401b03811115615a5557615a55614b90565b615a6981615a638454615974565b846159ed565b602080601f831160018114615a9e5760008415615a865750858301515b600019600386901b1c1916600185901b178555615a33565b600085815260208120601f198616915b82811015615acd57888601518255948401946001909101908401615aae565b5085821015615aeb5787850151600019600388901b60f8161c191681555b5050505050600190811b01905550565b60208152600061556c6020830184614896565b6000808354615b1c81615974565b60018281168015615b345760018114615b4957615b78565b60ff1984168752821515830287019450615b78565b8760005260208060002060005b85811015615b6f5781548a820152908401908201615b56565b50505082870194505b50929695505050505050565b602080825260169082015275141c9bda9958dd08191bd95cc81b9bdd08195e1a5cdd60521b604082015260600190565b80820180821115615bc757615bc76159be565b9291505056fea2646970667358221220cb10a4467ba02d39449a6e04e7feefc21b2d5e7f982496d7bfd80b8b982d5ada64736f6c63430008140033","opcodes":"PUSH1 0x80 PUSH1 0x40 MSTORE CALLVALUE DUP1 ISZERO PUSH3 0x11 JUMPI PUSH1 0x0 DUP1 REVERT JUMPDEST POP PUSH1 0x40 MLOAD PUSH3 0x6309 CODESIZE SUB DUP1 PUSH3 0x6309 DUP4 CODECOPY DUP2 ADD PUSH1 0x40 DUP2 SWAP1 MSTORE PUSH3 0x34 SWAP2 PUSH3 0x457 JUMP JUMPDEST DUP8 PUSH1 0x1 PUSH1 0x1 PUSH1 0xA0 SHL SUB DUP2 AND PUSH3 0x64 JUMPI PUSH1 0x40 MLOAD PUSH4 0x1E4FBDF7 PUSH1 0xE0 SHL DUP2 MSTORE PUSH1 0x0 PUSH1 0x4 DUP3 ADD MSTORE PUSH1 0x24 ADD PUSH1 0x40 MLOAD DUP1 SWAP2 SUB SWAP1 REVERT JUMPDEST PUSH3 0x6F DUP2 PUSH3 0x193 JUMP JUMPDEST POP PUSH1 0x1 DUP1 SSTORE PUSH1 0x40 DUP1 MLOAD PUSH2 0x140 DUP2 ADD DUP3 MSTORE DUP9 DUP2 MSTORE PUSH1 0x20 DUP2 ADD DUP9 SWAP1 MSTORE SWAP1 DUP2 ADD DUP7 SWAP1 MSTORE PUSH1 0x60 DUP2 ADD DUP6 SWAP1 MSTORE PUSH1 0x80 DUP2 ADD DUP5 SWAP1 MSTORE PUSH1 0xA0 DUP2 ADD DUP3 SWAP1 MSTORE PUSH1 0xC0 DUP2 ADD DUP4 SWAP1 MSTORE PUSH1 0x0 PUSH1 0xE0 DUP3 ADD DUP2 SWAP1 MSTORE PUSH2 0x100 DUP3 ADD MSTORE TIMESTAMP PUSH2 0x120 DUP3 ADD MSTORE PUSH1 0x13 DUP1 PUSH3 0xD0 DUP11 DUP3 PUSH3 0x62A JUMP JUMPDEST POP PUSH1 0x20 DUP3 ADD MLOAD PUSH1 0x1 DUP3 ADD SWAP1 PUSH3 0xE7 SWAP1 DUP3 PUSH3 0x62A JUMP JUMPDEST POP PUSH1 0x40 DUP3 ADD MLOAD PUSH1 0x2 DUP3 ADD SWAP1 PUSH3 0xFE SWAP1 DUP3 PUSH3 0x62A JUMP JUMPDEST POP PUSH1 0x60 DUP3 ADD MLOAD PUSH1 0x3 DUP3 ADD SWAP1 PUSH3 0x115 SWAP1 DUP3 PUSH3 0x62A JUMP JUMPDEST POP PUSH1 0x80 DUP3 ADD MLOAD PUSH1 0x4 DUP3 ADD SWAP1 PUSH3 0x12C SWAP1 DUP3 PUSH3 0x62A JUMP JUMPDEST POP PUSH1 0xA0 DUP3 ADD MLOAD DUP1 MLOAD PUSH3 0x14A SWAP2 PUSH1 0x5 DUP5 ADD SWAP2 PUSH1 0x20 SWAP1 SWAP2 ADD SWAP1 PUSH3 0x1E3 JUMP JUMPDEST POP PUSH1 0xC0 DUP3 ADD MLOAD PUSH1 0x6 DUP3 ADD SWAP1 PUSH3 0x161 SWAP1 DUP3 PUSH3 0x62A JUMP JUMPDEST POP PUSH1 0xE0 DUP3 ADD MLOAD DUP2 PUSH1 0x7 ADD SSTORE PUSH2 0x100 DUP3 ADD MLOAD DUP2 PUSH1 0x8 ADD SSTORE PUSH2 0x120 DUP3 ADD MLOAD DUP2 PUSH1 0x9 ADD SSTORE SWAP1 POP POP POP POP POP POP POP POP POP POP PUSH3 0x6F6 JUMP JUMPDEST PUSH1 0x0 DUP1 SLOAD PUSH1 0x1 PUSH1 0x1 PUSH1 0xA0 SHL SUB DUP4 DUP2 AND PUSH1 0x1 PUSH1 0x1 PUSH1 0xA0 SHL SUB NOT DUP4 AND DUP2 OR DUP5 SSTORE PUSH1 0x40 MLOAD SWAP2 SWAP1 SWAP3 AND SWAP3 DUP4 SWAP2 PUSH32 0x8BE0079C531659141344CD1FD0A4F28419497F9722A3DAAFE3B4186F6B6457E0 SWAP2 SWAP1 LOG3 POP POP JUMP JUMPDEST DUP3 DUP1 SLOAD DUP3 DUP3 SSTORE SWAP1 PUSH1 0x0 MSTORE PUSH1 0x20 PUSH1 0x0 KECCAK256 SWAP1 DUP2 ADD SWAP3 DUP3 ISZERO PUSH3 0x22E JUMPI SWAP2 PUSH1 0x20 MUL DUP3 ADD JUMPDEST DUP3 DUP2 GT ISZERO PUSH3 0x22E JUMPI DUP3 MLOAD DUP3 SWAP1 PUSH3 0x21D SWAP1 DUP3 PUSH3 0x62A JUMP JUMPDEST POP SWAP2 PUSH1 0x20 ADD SWAP2 SWAP1 PUSH1 0x1 ADD SWAP1 PUSH3 0x204 JUMP JUMPDEST POP PUSH3 0x23C SWAP3 SWAP2 POP PUSH3 0x240 JUMP JUMPDEST POP SWAP1 JUMP JUMPDEST DUP1 DUP3 GT ISZERO PUSH3 0x23C JUMPI PUSH1 0x0 PUSH3 0x257 DUP3 DUP3 PUSH3 0x261 JUMP JUMPDEST POP PUSH1 0x1 ADD PUSH3 0x240 JUMP JUMPDEST POP DUP1 SLOAD PUSH3 0x26F SWAP1 PUSH3 0x59B JUMP JUMPDEST PUSH1 0x0 DUP3 SSTORE DUP1 PUSH1 0x1F LT PUSH3 0x280 JUMPI POP POP JUMP JUMPDEST PUSH1 0x1F ADD PUSH1 0x20 SWAP1 DIV SWAP1 PUSH1 0x0 MSTORE PUSH1 0x20 PUSH1 0x0 KECCAK256 SWAP1 DUP2 ADD SWAP1 PUSH3 0x2A0 SWAP2 SWAP1 PUSH3 0x2A3 JUMP JUMPDEST POP JUMP JUMPDEST JUMPDEST DUP1 DUP3 GT ISZERO PUSH3 0x23C JUMPI PUSH1 0x0 DUP2 SSTORE PUSH1 0x1 ADD PUSH3 0x2A4 JUMP JUMPDEST DUP1 MLOAD PUSH1 0x1 PUSH1 0x1 PUSH1 0xA0 SHL SUB DUP2 AND DUP2 EQ PUSH3 0x2D2 JUMPI PUSH1 0x0 DUP1 REVERT JUMPDEST SWAP2 SWAP1 POP JUMP JUMPDEST PUSH4 0x4E487B71 PUSH1 0xE0 SHL PUSH1 0x0 MSTORE PUSH1 0x41 PUSH1 0x4 MSTORE PUSH1 0x24 PUSH1 0x0 REVERT JUMPDEST PUSH1 0x40 MLOAD PUSH1 0x1F DUP3 ADD PUSH1 0x1F NOT AND DUP2 ADD PUSH1 0x1 PUSH1 0x1 PUSH1 0x40 SHL SUB DUP2 GT DUP3 DUP3 LT OR ISZERO PUSH3 0x318 JUMPI PUSH3 0x318 PUSH3 0x2D7 JUMP JUMPDEST PUSH1 0x40 MSTORE SWAP2 SWAP1 POP JUMP JUMPDEST PUSH1 0x0 DUP3 PUSH1 0x1F DUP4 ADD SLT PUSH3 0x332 JUMPI PUSH1 0x0 DUP1 REVERT JUMPDEST DUP2 MLOAD PUSH1 0x1 PUSH1 0x1 PUSH1 0x40 SHL SUB DUP2 GT ISZERO PUSH3 0x34E JUMPI PUSH3 0x34E PUSH3 0x2D7 JUMP JUMPDEST PUSH1 0x20 PUSH3 0x364 PUSH1 0x1F DUP4 ADD PUSH1 0x1F NOT AND DUP3 ADD PUSH3 0x2ED JUMP JUMPDEST DUP3 DUP2 MSTORE DUP6 DUP3 DUP5 DUP8 ADD ADD GT ISZERO PUSH3 0x379 JUMPI PUSH1 0x0 DUP1 REVERT JUMPDEST PUSH1 0x0 JUMPDEST DUP4 DUP2 LT ISZERO PUSH3 0x399 JUMPI DUP6 DUP2 ADD DUP4 ADD MLOAD DUP3 DUP3 ADD DUP5 ADD MSTORE DUP3 ADD PUSH3 0x37C JUMP JUMPDEST POP PUSH1 0x0 SWAP3 DUP2 ADD SWAP1 SWAP2 ADD SWAP2 SWAP1 SWAP2 MSTORE SWAP4 SWAP3 POP POP POP JUMP JUMPDEST PUSH1 0x0 DUP3 PUSH1 0x1F DUP4 ADD SLT PUSH3 0x3BF JUMPI PUSH1 0x0 DUP1 REVERT JUMPDEST DUP2 MLOAD PUSH1 0x20 PUSH1 0x1 PUSH1 0x1 PUSH1 0x40 SHL SUB DUP1 DUP4 GT ISZERO PUSH3 0x3DE JUMPI PUSH3 0x3DE PUSH3 0x2D7 JUMP JUMPDEST DUP3 PUSH1 0x5 SHL PUSH3 0x3EF DUP4 DUP3 ADD PUSH3 0x2ED JUMP JUMPDEST SWAP4 DUP5 MSTORE DUP6 DUP2 ADD DUP4 ADD SWAP4 DUP4 DUP2 ADD SWAP1 DUP9 DUP7 GT ISZERO PUSH3 0x40A JUMPI PUSH1 0x0 DUP1 REVERT JUMPDEST DUP5 DUP9 ADD SWAP3 POP JUMPDEST DUP6 DUP4 LT ISZERO PUSH3 0x44B JUMPI DUP3 MLOAD DUP5 DUP2 GT ISZERO PUSH3 0x42A JUMPI PUSH1 0x0 DUP1 DUP2 REVERT JUMPDEST PUSH3 0x43A DUP11 DUP8 DUP4 DUP13 ADD ADD PUSH3 0x320 JUMP JUMPDEST DUP4 MSTORE POP SWAP2 DUP5 ADD SWAP2 SWAP1 DUP5 ADD SWAP1 PUSH3 0x410 JUMP JUMPDEST SWAP9 SWAP8 POP POP POP POP POP POP POP POP JUMP JUMPDEST PUSH1 0x0 DUP1 PUSH1 0x0 DUP1 PUSH1 0x0 DUP1 PUSH1 0x0 DUP1 PUSH2 0x100 DUP10 DUP12 SUB SLT ISZERO PUSH3 0x475 JUMPI PUSH1 0x0 DUP1 REVERT JUMPDEST PUSH3 0x480 DUP10 PUSH3 0x2BA JUMP JUMPDEST PUSH1 0x20 DUP11 ADD MLOAD SWAP1 SWAP9 POP PUSH1 0x1 PUSH1 0x1 PUSH1 0x40 SHL SUB DUP1 DUP3 GT ISZERO PUSH3 0x49E JUMPI PUSH1 0x0 DUP1 REVERT JUMPDEST PUSH3 0x4AC DUP13 DUP4 DUP14 ADD PUSH3 0x320 JUMP JUMPDEST SWAP9 POP PUSH1 0x40 DUP12 ADD MLOAD SWAP2 POP DUP1 DUP3 GT ISZERO PUSH3 0x4C3 JUMPI PUSH1 0x0 DUP1 REVERT JUMPDEST PUSH3 0x4D1 DUP13 DUP4 DUP14 ADD PUSH3 0x320 JUMP JUMPDEST SWAP8 POP PUSH1 0x60 DUP12 ADD MLOAD SWAP2 POP DUP1 DUP3 GT ISZERO PUSH3 0x4E8 JUMPI PUSH1 0x0 DUP1 REVERT JUMPDEST PUSH3 0x4F6 DUP13 DUP4 DUP14 ADD PUSH3 0x320 JUMP JUMPDEST SWAP7 POP PUSH1 0x80 DUP12 ADD MLOAD SWAP2 POP DUP1 DUP3 GT ISZERO PUSH3 0x50D JUMPI PUSH1 0x0 DUP1 REVERT JUMPDEST PUSH3 0x51B DUP13 DUP4 DUP14 ADD PUSH3 0x320 JUMP JUMPDEST SWAP6 POP PUSH1 0xA0 DUP12 ADD MLOAD SWAP2 POP DUP1 DUP3 GT ISZERO PUSH3 0x532 JUMPI PUSH1 0x0 DUP1 REVERT JUMPDEST PUSH3 0x540 DUP13 DUP4 DUP14 ADD PUSH3 0x320 JUMP JUMPDEST SWAP5 POP PUSH1 0xC0 DUP12 ADD MLOAD SWAP2 POP DUP1 DUP3 GT ISZERO PUSH3 0x557 JUMPI PUSH1 0x0 DUP1 REVERT JUMPDEST PUSH3 0x565 DUP13 DUP4 DUP14 ADD PUSH3 0x320 JUMP JUMPDEST SWAP4 POP PUSH1 0xE0 DUP12 ADD MLOAD SWAP2 POP DUP1 DUP3 GT ISZERO PUSH3 0x57C JUMPI PUSH1 0x0 DUP1 REVERT JUMPDEST POP PUSH3 0x58B DUP12 DUP3 DUP13 ADD PUSH3 0x3AD JUMP JUMPDEST SWAP2 POP POP SWAP3 SWAP6 SWAP9 POP SWAP3 SWAP6 SWAP9 SWAP1 SWAP4 SWAP7 POP JUMP JUMPDEST PUSH1 0x1 DUP2 DUP2 SHR SWAP1 DUP3 AND DUP1 PUSH3 0x5B0 JUMPI PUSH1 0x7F DUP3 AND SWAP2 POP JUMPDEST PUSH1 0x20 DUP3 LT DUP2 SUB PUSH3 0x5D1 JUMPI PUSH4 0x4E487B71 PUSH1 0xE0 SHL PUSH1 0x0 MSTORE PUSH1 0x22 PUSH1 0x4 MSTORE PUSH1 0x24 PUSH1 0x0 REVERT JUMPDEST POP SWAP2 SWAP1 POP JUMP JUMPDEST PUSH1 0x1F DUP3 GT ISZERO PUSH3 0x625 JUMPI PUSH1 0x0 DUP2 DUP2 MSTORE PUSH1 0x20 DUP2 KECCAK256 PUSH1 0x1F DUP6 ADD PUSH1 0x5 SHR DUP2 ADD PUSH1 0x20 DUP7 LT ISZERO PUSH3 0x600 JUMPI POP DUP1 JUMPDEST PUSH1 0x1F DUP6 ADD PUSH1 0x5 SHR DUP3 ADD SWAP2 POP JUMPDEST DUP2 DUP2 LT ISZERO PUSH3 0x621 JUMPI DUP3 DUP2 SSTORE PUSH1 0x1 ADD PUSH3 0x60C JUMP JUMPDEST POP POP POP JUMPDEST POP POP POP JUMP JUMPDEST DUP2 MLOAD PUSH1 0x1 PUSH1 0x1 PUSH1 0x40 SHL SUB DUP2 GT ISZERO PUSH3 0x646 JUMPI PUSH3 0x646 PUSH3 0x2D7 JUMP JUMPDEST PUSH3 0x65E DUP2 PUSH3 0x657 DUP5 SLOAD PUSH3 0x59B JUMP JUMPDEST DUP5 PUSH3 0x5D7 JUMP JUMPDEST PUSH1 0x20 DUP1 PUSH1 0x1F DUP4 GT PUSH1 0x1 DUP2 EQ PUSH3 0x696 JUMPI PUSH1 0x0 DUP5 ISZERO PUSH3 0x67D JUMPI POP DUP6 DUP4 ADD MLOAD JUMPDEST PUSH1 0x0 NOT PUSH1 0x3 DUP7 SWAP1 SHL SHR NOT AND PUSH1 0x1 DUP6 SWAP1 SHL OR DUP6 SSTORE PUSH3 0x621 JUMP JUMPDEST PUSH1 0x0 DUP6 DUP2 MSTORE PUSH1 0x20 DUP2 KECCAK256 PUSH1 0x1F NOT DUP7 AND SWAP2 JUMPDEST DUP3 DUP2 LT ISZERO PUSH3 0x6C7 JUMPI DUP9 DUP7 ADD MLOAD DUP3 SSTORE SWAP5 DUP5 ADD SWAP5 PUSH1 0x1 SWAP1 SWAP2 ADD SWAP1 DUP5 ADD PUSH3 0x6A6 JUMP JUMPDEST POP DUP6 DUP3 LT ISZERO PUSH3 0x6E6 JUMPI DUP8 DUP6 ADD MLOAD PUSH1 0x0 NOT PUSH1 0x3 DUP9 SWAP1 SHL PUSH1 0xF8 AND SHR NOT AND DUP2 SSTORE JUMPDEST POP POP POP POP POP PUSH1 0x1 SWAP1 DUP2 SHL ADD SWAP1 SSTORE POP JUMP JUMPDEST PUSH2 0x5C03 DUP1 PUSH3 0x706 PUSH1 0x0 CODECOPY PUSH1 0x0 RETURN INVALID PUSH1 0x80 PUSH1 0x40 MSTORE PUSH1 0x4 CALLDATASIZE LT PUSH2 0x230 JUMPI PUSH1 0x0 CALLDATALOAD PUSH1 0xE0 SHR DUP1 PUSH4 0x80D03829 GT PUSH2 0x12E JUMPI DUP1 PUSH4 0xCE47D973 GT PUSH2 0xAB JUMPI DUP1 PUSH4 0xE54A3D09 GT PUSH2 0x6F JUMPI DUP1 PUSH4 0xE54A3D09 EQ PUSH2 0x6FF JUMPI DUP1 PUSH4 0xE5E92E9C EQ PUSH2 0x71F JUMPI DUP1 PUSH4 0xEAEAC631 EQ PUSH2 0x778 JUMPI DUP1 PUSH4 0xF2DBF12E EQ PUSH2 0x7AE JUMPI DUP1 PUSH4 0xF2FDE38B EQ PUSH2 0x7D8 JUMPI PUSH1 0x0 DUP1 REVERT JUMPDEST DUP1 PUSH4 0xCE47D973 EQ PUSH2 0x653 JUMPI DUP1 PUSH4 0xCF3E7C7C EQ PUSH2 0x673 JUMPI DUP1 PUSH4 0xDEBF99A1 EQ PUSH2 0x6A8 JUMPI DUP1 PUSH4 0xE2F62DC3 EQ PUSH2 0x6BD JUMPI DUP1 PUSH4 0xE4375492 EQ PUSH2 0x6DF JUMPI PUSH1 0x0 DUP1 REVERT JUMPDEST DUP1 PUSH4 0xA72A2440 GT PUSH2 0xF2 JUMPI DUP1 PUSH4 0xA72A2440 EQ PUSH2 0x5C6 JUMPI DUP1 PUSH4 0xAADD1B03 EQ PUSH2 0x5E6 JUMPI DUP1 PUSH4 0xB83FAC9F EQ PUSH2 0x5EE JUMPI DUP1 PUSH4 0xC351F0EC EQ PUSH2 0x60E JUMPI DUP1 PUSH4 0xCCC3BBA8 EQ PUSH2 0x63E JUMPI PUSH1 0x0 DUP1 REVERT JUMPDEST DUP1 PUSH4 0x80D03829 EQ PUSH2 0x51C JUMPI DUP1 PUSH4 0x8B8A417E EQ PUSH2 0x53E JUMPI DUP1 PUSH4 0x8DA5CB5B EQ PUSH2 0x55E JUMPI DUP1 PUSH4 0x9F35998E EQ PUSH2 0x586 JUMPI DUP1 PUSH4 0xA6751BA7 EQ PUSH2 0x5A6 JUMPI PUSH1 0x0 DUP1 REVERT JUMPDEST DUP1 PUSH4 0x56E34410 GT PUSH2 0x1BC JUMPI DUP1 PUSH4 0x715018A6 GT PUSH2 0x180 JUMPI DUP1 PUSH4 0x715018A6 EQ PUSH2 0x485 JUMPI DUP1 PUSH4 0x722C51AE EQ PUSH2 0x49A JUMPI DUP1 PUSH4 0x7358E08D EQ PUSH2 0x4BA JUMPI DUP1 PUSH4 0x7725A9FB EQ PUSH2 0x4DA JUMPI DUP1 PUSH4 0x7920EFDB EQ PUSH2 0x4FC JUMPI PUSH1 0x0 DUP1 REVERT JUMPDEST DUP1 PUSH4 0x56E34410 EQ PUSH2 0x3AD JUMPI DUP1 PUSH4 0x574726F2 EQ PUSH2 0x3DA JUMPI DUP1 PUSH4 0x5E1C6ECE EQ PUSH2 0x3FA JUMPI DUP1 PUSH4 0x632C655F EQ PUSH2 0x445 JUMPI DUP1 PUSH4 0x66E628DD EQ PUSH2 0x465 JUMPI PUSH1 0x0 DUP1 REVERT JUMPDEST DUP1 PUSH4 0x27B09002 GT PUSH2 0x203 JUMPI DUP1 PUSH4 0x27B09002 EQ PUSH2 0x2EC JUMPI DUP1 PUSH4 0x2E6C95B4 EQ PUSH2 0x30C JUMPI DUP1 PUSH4 0x43B06C1F EQ PUSH2 0x33A JUMPI DUP1 PUSH4 0x48C35AD4 EQ PUSH2 0x35A JUMPI DUP1 PUSH4 0x50D15FBE EQ PUSH2 0x37A JUMPI PUSH1 0x0 DUP1 REVERT JUMPDEST DUP1 PUSH4 0x49BFECC EQ PUSH2 0x235 JUMPI DUP1 PUSH4 0x107046BD EQ PUSH2 0x257 JUMPI DUP1 PUSH4 0x117BE5BA EQ PUSH2 0x296 JUMPI DUP1 PUSH4 0x27AED72E EQ PUSH2 0x2B8 JUMPI JUMPDEST PUSH1 0x0 DUP1 REVERT JUMPDEST CALLVALUE DUP1 ISZERO PUSH2 0x241 JUMPI PUSH1 0x0 DUP1 REVERT JUMPDEST POP PUSH2 0x255 PUSH2 0x250 CALLDATASIZE PUSH1 0x4 PUSH2 0x487D JUMP JUMPDEST PUSH2 0x7F8 JUMP JUMPDEST STOP JUMPDEST CALLVALUE DUP1 ISZERO PUSH2 0x263 JUMPI PUSH1 0x0 DUP1 REVERT JUMPDEST POP PUSH2 0x277 PUSH2 0x272 CALLDATASIZE PUSH1 0x4 PUSH2 0x487D JUMP JUMPDEST PUSH2 0x87C JUMP JUMPDEST PUSH1 0x40 MLOAD PUSH2 0x28D SWAP11 SWAP10 SWAP9 SWAP8 SWAP7 SWAP6 SWAP5 SWAP4 SWAP3 SWAP2 SWAP1 PUSH2 0x48DC JUMP JUMPDEST PUSH1 0x40 MLOAD DUP1 SWAP2 SUB SWAP1 RETURN JUMPDEST CALLVALUE DUP1 ISZERO PUSH2 0x2A2 JUMPI PUSH1 0x0 DUP1 REVERT JUMPDEST POP PUSH2 0x2AB PUSH2 0xB75 JUMP JUMPDEST PUSH1 0x40 MLOAD PUSH2 0x28D SWAP2 SWAP1 PUSH2 0x49CC JUMP JUMPDEST CALLVALUE DUP1 ISZERO PUSH2 0x2C4 JUMPI PUSH1 0x0 DUP1 REVERT JUMPDEST POP PUSH2 0x2D8 PUSH2 0x2D3 CALLDATASIZE PUSH1 0x4 PUSH2 0x487D JUMP JUMPDEST PUSH2 0x110B JUMP JUMPDEST PUSH1 0x40 MLOAD PUSH2 0x28D SWAP9 SWAP8 SWAP7 SWAP6 SWAP5 SWAP4 SWAP3 SWAP2 SWAP1 PUSH2 0x4B08 JUMP JUMPDEST CALLVALUE DUP1 ISZERO PUSH2 0x2F8 JUMPI PUSH1 0x0 DUP1 REVERT JUMPDEST POP PUSH2 0x255 PUSH2 0x307 CALLDATASIZE PUSH1 0x4 PUSH2 0x4CE3 JUMP JUMPDEST PUSH2 0x13F7 JUMP JUMPDEST CALLVALUE DUP1 ISZERO PUSH2 0x318 JUMPI PUSH1 0x0 DUP1 REVERT JUMPDEST POP PUSH2 0x32C PUSH2 0x327 CALLDATASIZE PUSH1 0x4 PUSH2 0x487D JUMP JUMPDEST PUSH2 0x15B6 JUMP JUMPDEST PUSH1 0x40 MLOAD SWAP1 DUP2 MSTORE PUSH1 0x20 ADD PUSH2 0x28D JUMP JUMPDEST CALLVALUE DUP1 ISZERO PUSH2 0x346 JUMPI PUSH1 0x0 DUP1 REVERT JUMPDEST POP PUSH2 0x32C PUSH2 0x355 CALLDATASIZE PUSH1 0x4 PUSH2 0x487D JUMP JUMPDEST PUSH2 0x15D7 JUMP JUMPDEST CALLVALUE DUP1 ISZERO PUSH2 0x366 JUMPI PUSH1 0x0 DUP1 REVERT JUMPDEST POP PUSH2 0x32C PUSH2 0x375 CALLDATASIZE PUSH1 0x4 PUSH2 0x487D JUMP JUMPDEST PUSH2 0x15E7 JUMP JUMPDEST CALLVALUE DUP1 ISZERO PUSH2 0x386 JUMPI PUSH1 0x0 DUP1 REVERT JUMPDEST POP PUSH2 0x39A PUSH2 0x395 CALLDATASIZE PUSH1 0x4 PUSH2 0x487D JUMP JUMPDEST PUSH2 0x15F7 JUMP JUMPDEST PUSH1 0x40 MLOAD PUSH2 0x28D SWAP8 SWAP7 SWAP6 SWAP5 SWAP4 SWAP3 SWAP2 SWAP1 PUSH2 0x4DD7 JUMP JUMPDEST CALLVALUE DUP1 ISZERO PUSH2 0x3B9 JUMPI PUSH1 0x0 DUP1 REVERT JUMPDEST POP PUSH2 0x3CD PUSH2 0x3C8 CALLDATASIZE PUSH1 0x4 PUSH2 0x4E38 JUMP JUMPDEST PUSH2 0x17CF JUMP JUMPDEST PUSH1 0x40 MLOAD PUSH2 0x28D SWAP2 SWAP1 PUSH2 0x4E74 JUMP JUMPDEST CALLVALUE DUP1 ISZERO PUSH2 0x3E6 JUMPI PUSH1 0x0 DUP1 REVERT JUMPDEST POP PUSH2 0x32C PUSH2 0x3F5 CALLDATASIZE PUSH1 0x4 PUSH2 0x487D JUMP JUMPDEST PUSH2 0x1C35 JUMP JUMPDEST CALLVALUE DUP1 ISZERO PUSH2 0x406 JUMPI PUSH1 0x0 DUP1 REVERT JUMPDEST POP PUSH2 0x435 PUSH2 0x415 CALLDATASIZE PUSH1 0x4 PUSH2 0x4F4E JUMP JUMPDEST PUSH1 0xD PUSH1 0x20 SWAP1 DUP2 MSTORE PUSH1 0x0 SWAP3 DUP4 MSTORE PUSH1 0x40 DUP1 DUP5 KECCAK256 SWAP1 SWAP2 MSTORE SWAP1 DUP3 MSTORE SWAP1 KECCAK256 SLOAD PUSH1 0xFF AND DUP2 JUMP JUMPDEST PUSH1 0x40 MLOAD SWAP1 ISZERO ISZERO DUP2 MSTORE PUSH1 0x20 ADD PUSH2 0x28D JUMP JUMPDEST CALLVALUE DUP1 ISZERO PUSH2 0x451 JUMPI PUSH1 0x0 DUP1 REVERT JUMPDEST POP PUSH2 0x255 PUSH2 0x460 CALLDATASIZE PUSH1 0x4 PUSH2 0x4F7A JUMP JUMPDEST PUSH2 0x1C45 JUMP JUMPDEST CALLVALUE DUP1 ISZERO PUSH2 0x471 JUMPI PUSH1 0x0 DUP1 REVERT JUMPDEST POP PUSH2 0x255 PUSH2 0x480 CALLDATASIZE PUSH1 0x4 PUSH2 0x487D JUMP JUMPDEST PUSH2 0x1DF1 JUMP JUMPDEST CALLVALUE DUP1 ISZERO PUSH2 0x491 JUMPI PUSH1 0x0 DUP1 REVERT JUMPDEST POP PUSH2 0x255 PUSH2 0x1EFD JUMP JUMPDEST CALLVALUE DUP1 ISZERO PUSH2 0x4A6 JUMPI PUSH1 0x0 DUP1 REVERT JUMPDEST POP PUSH2 0x255 PUSH2 0x4B5 CALLDATASIZE PUSH1 0x4 PUSH2 0x487D JUMP JUMPDEST PUSH2 0x1F11 JUMP JUMPDEST CALLVALUE DUP1 ISZERO PUSH2 0x4C6 JUMPI PUSH1 0x0 DUP1 REVERT JUMPDEST POP PUSH2 0x32C PUSH2 0x4D5 CALLDATASIZE PUSH1 0x4 PUSH2 0x487D JUMP JUMPDEST PUSH2 0x1F99 JUMP JUMPDEST CALLVALUE DUP1 ISZERO PUSH2 0x4E6 JUMPI PUSH1 0x0 DUP1 REVERT JUMPDEST POP PUSH2 0x4EF PUSH2 0x1FA9 JUMP JUMPDEST PUSH1 0x40 MLOAD PUSH2 0x28D SWAP2 SWAP1 PUSH2 0x5009 JUMP JUMPDEST CALLVALUE DUP1 ISZERO PUSH2 0x508 JUMPI PUSH1 0x0 DUP1 REVERT JUMPDEST POP PUSH2 0x255 PUSH2 0x517 CALLDATASIZE PUSH1 0x4 PUSH2 0x50FF JUMP JUMPDEST PUSH2 0x23C1 JUMP JUMPDEST CALLVALUE DUP1 ISZERO PUSH2 0x528 JUMPI PUSH1 0x0 DUP1 REVERT JUMPDEST POP PUSH2 0x531 PUSH2 0x2527 JUMP JUMPDEST PUSH1 0x40 MLOAD PUSH2 0x28D SWAP2 SWAP1 PUSH2 0x51CB JUMP JUMPDEST CALLVALUE DUP1 ISZERO PUSH2 0x54A JUMPI PUSH1 0x0 DUP1 REVERT JUMPDEST POP PUSH2 0x255 PUSH2 0x559 CALLDATASIZE PUSH1 0x4 PUSH2 0x487D JUMP JUMPDEST PUSH2 0x2A40 JUMP JUMPDEST CALLVALUE DUP1 ISZERO PUSH2 0x56A JUMPI PUSH1 0x0 DUP1 REVERT JUMPDEST POP PUSH1 0x0 SLOAD PUSH1 0x40 MLOAD PUSH1 0x1 PUSH1 0x1 PUSH1 0xA0 SHL SUB SWAP1 SWAP2 AND DUP2 MSTORE PUSH1 0x20 ADD PUSH2 0x28D JUMP JUMPDEST CALLVALUE DUP1 ISZERO PUSH2 0x592 JUMPI PUSH1 0x0 DUP1 REVERT JUMPDEST POP PUSH2 0x255 PUSH2 0x5A1 CALLDATASIZE PUSH1 0x4 PUSH2 0x52F3 JUMP JUMPDEST PUSH2 0x2A98 JUMP JUMPDEST CALLVALUE DUP1 ISZERO PUSH2 0x5B2 JUMPI PUSH1 0x0 DUP1 REVERT JUMPDEST POP PUSH2 0x255 PUSH2 0x5C1 CALLDATASIZE PUSH1 0x4 PUSH2 0x540D JUMP JUMPDEST PUSH2 0x2C4A JUMP JUMPDEST CALLVALUE DUP1 ISZERO PUSH2 0x5D2 JUMPI PUSH1 0x0 DUP1 REVERT JUMPDEST POP PUSH2 0x255 PUSH2 0x5E1 CALLDATASIZE PUSH1 0x4 PUSH2 0x487D JUMP JUMPDEST PUSH2 0x2D65 JUMP JUMPDEST PUSH2 0x255 PUSH2 0x2DED JUMP JUMPDEST CALLVALUE DUP1 ISZERO PUSH2 0x5FA JUMPI PUSH1 0x0 DUP1 REVERT JUMPDEST POP PUSH2 0x255 PUSH2 0x609 CALLDATASIZE PUSH1 0x4 PUSH2 0x54FD JUMP JUMPDEST PUSH2 0x2F50 JUMP JUMPDEST CALLVALUE DUP1 ISZERO PUSH2 0x61A JUMPI PUSH1 0x0 DUP1 REVERT JUMPDEST POP PUSH2 0x435 PUSH2 0x629 CALLDATASIZE PUSH1 0x4 PUSH2 0x5551 JUMP JUMPDEST PUSH1 0xC PUSH1 0x20 MSTORE PUSH1 0x0 SWAP1 DUP2 MSTORE PUSH1 0x40 SWAP1 KECCAK256 SLOAD PUSH1 0xFF AND DUP2 JUMP JUMPDEST CALLVALUE DUP1 ISZERO PUSH2 0x64A JUMPI PUSH1 0x0 DUP1 REVERT JUMPDEST POP PUSH2 0x3CD PUSH2 0x30F7 JUMP JUMPDEST CALLVALUE DUP1 ISZERO PUSH2 0x65F JUMPI PUSH1 0x0 DUP1 REVERT JUMPDEST POP PUSH2 0x255 PUSH2 0x66E CALLDATASIZE PUSH1 0x4 PUSH2 0x5573 JUMP JUMPDEST PUSH2 0x33EB JUMP JUMPDEST CALLVALUE DUP1 ISZERO PUSH2 0x67F JUMPI PUSH1 0x0 DUP1 REVERT JUMPDEST POP PUSH2 0x693 PUSH2 0x68E CALLDATASIZE PUSH1 0x4 PUSH2 0x487D JUMP JUMPDEST PUSH2 0x348B JUMP JUMPDEST PUSH1 0x40 MLOAD PUSH2 0x28D SWAP10 SWAP9 SWAP8 SWAP7 SWAP6 SWAP5 SWAP4 SWAP3 SWAP2 SWAP1 PUSH2 0x565B JUMP JUMPDEST CALLVALUE DUP1 ISZERO PUSH2 0x6B4 JUMPI PUSH1 0x0 DUP1 REVERT JUMPDEST POP PUSH2 0x255 PUSH2 0x3806 JUMP JUMPDEST CALLVALUE DUP1 ISZERO PUSH2 0x6C9 JUMPI PUSH1 0x0 DUP1 REVERT JUMPDEST POP PUSH2 0x6D2 PUSH2 0x381D JUMP JUMPDEST PUSH1 0x40 MLOAD PUSH2 0x28D SWAP2 SWAP1 PUSH2 0x56F8 JUMP JUMPDEST CALLVALUE DUP1 ISZERO PUSH2 0x6EB JUMPI PUSH1 0x0 DUP1 REVERT JUMPDEST POP PUSH2 0x255 PUSH2 0x6FA CALLDATASIZE PUSH1 0x4 PUSH2 0x487D JUMP JUMPDEST PUSH2 0x3D66 JUMP JUMPDEST CALLVALUE DUP1 ISZERO PUSH2 0x70B JUMPI PUSH1 0x0 DUP1 REVERT JUMPDEST POP PUSH2 0x255 PUSH2 0x71A CALLDATASIZE PUSH1 0x4 PUSH2 0x487D JUMP JUMPDEST PUSH2 0x3DE7 JUMP JUMPDEST CALLVALUE DUP1 ISZERO PUSH2 0x72B JUMPI PUSH1 0x0 DUP1 REVERT JUMPDEST POP PUSH2 0x734 PUSH2 0x3E70 JUMP JUMPDEST PUSH1 0x40 DUP1 MLOAD SWAP10 DUP11 MSTORE PUSH1 0x20 DUP11 ADD SWAP9 SWAP1 SWAP9 MSTORE SWAP7 DUP9 ADD SWAP6 SWAP1 SWAP6 MSTORE PUSH1 0x60 DUP8 ADD SWAP4 SWAP1 SWAP4 MSTORE PUSH1 0x80 DUP7 ADD SWAP2 SWAP1 SWAP2 MSTORE PUSH1 0xA0 DUP6 ADD MSTORE PUSH1 0xC0 DUP5 ADD MSTORE PUSH1 0xE0 DUP4 ADD MSTORE PUSH2 0x100 DUP3 ADD MSTORE PUSH2 0x120 ADD PUSH2 0x28D JUMP JUMPDEST CALLVALUE DUP1 ISZERO PUSH2 0x784 JUMPI PUSH1 0x0 DUP1 REVERT JUMPDEST POP PUSH2 0x798 PUSH2 0x793 CALLDATASIZE PUSH1 0x4 PUSH2 0x487D JUMP JUMPDEST PUSH2 0x3F68 JUMP JUMPDEST PUSH1 0x40 MLOAD PUSH2 0x28D SWAP11 SWAP10 SWAP9 SWAP8 SWAP7 SWAP6 SWAP5 SWAP4 SWAP3 SWAP2 SWAP1 PUSH2 0x5826 JUMP JUMPDEST CALLVALUE DUP1 ISZERO PUSH2 0x7BA JUMPI PUSH1 0x0 DUP1 REVERT JUMPDEST POP PUSH2 0x7C3 PUSH2 0x4371 JUMP JUMPDEST PUSH1 0x40 MLOAD PUSH2 0x28D SWAP10 SWAP9 SWAP8 SWAP7 SWAP6 SWAP5 SWAP4 SWAP3 SWAP2 SWAP1 PUSH2 0x58D9 JUMP JUMPDEST CALLVALUE DUP1 ISZERO PUSH2 0x7E4 JUMPI PUSH1 0x0 DUP1 REVERT JUMPDEST POP PUSH2 0x255 PUSH2 0x7F3 CALLDATASIZE PUSH1 0x4 PUSH2 0x5551 JUMP JUMPDEST PUSH2 0x46DB JUMP JUMPDEST PUSH2 0x800 PUSH2 0x4719 JUMP JUMPDEST PUSH1 0x0 DUP2 DUP2 MSTORE PUSH1 0xA PUSH1 0x20 MSTORE PUSH1 0x40 DUP2 KECCAK256 SLOAD SWAP1 SUB PUSH2 0x859 JUMPI PUSH1 0x40 MLOAD PUSH3 0x461BCD PUSH1 0xE5 SHL DUP2 MSTORE PUSH1 0x20 PUSH1 0x4 DUP3 ADD MSTORE PUSH1 0x14 PUSH1 0x24 DUP3 ADD MSTORE PUSH20 0x14DADA5B1B08191BD95CC81B9BDD08195E1A5CDD PUSH1 0x62 SHL PUSH1 0x44 DUP3 ADD MSTORE PUSH1 0x64 ADD JUMPDEST PUSH1 0x40 MLOAD DUP1 SWAP2 SUB SWAP1 REVERT JUMPDEST PUSH1 0x0 SWAP1 DUP2 MSTORE PUSH1 0xA PUSH1 0x20 MSTORE PUSH1 0x40 SWAP1 KECCAK256 PUSH1 0x6 ADD DUP1 SLOAD PUSH1 0xFF NOT DUP2 AND PUSH1 0xFF SWAP1 SWAP2 AND ISZERO OR SWAP1 SSTORE JUMP JUMPDEST PUSH1 0x7 PUSH1 0x20 MSTORE PUSH1 0x0 SWAP1 DUP2 MSTORE PUSH1 0x40 SWAP1 KECCAK256 DUP1 SLOAD PUSH1 0x1 DUP3 ADD DUP1 SLOAD SWAP2 SWAP3 SWAP2 PUSH2 0x89E SWAP1 PUSH2 0x5974 JUMP JUMPDEST DUP1 PUSH1 0x1F ADD PUSH1 0x20 DUP1 SWAP2 DIV MUL PUSH1 0x20 ADD PUSH1 0x40 MLOAD SWAP1 DUP2 ADD PUSH1 0x40 MSTORE DUP1 SWAP3 SWAP2 SWAP1 DUP2 DUP2 MSTORE PUSH1 0x20 ADD DUP3 DUP1 SLOAD PUSH2 0x8CA SWAP1 PUSH2 0x5974 JUMP JUMPDEST DUP1 ISZERO PUSH2 0x917 JUMPI DUP1 PUSH1 0x1F LT PUSH2 0x8EC JUMPI PUSH2 0x100 DUP1 DUP4 SLOAD DIV MUL DUP4 MSTORE SWAP2 PUSH1 0x20 ADD SWAP2 PUSH2 0x917 JUMP JUMPDEST DUP3 ADD SWAP2 SWAP1 PUSH1 0x0 MSTORE PUSH1 0x20 PUSH1 0x0 KECCAK256 SWAP1 JUMPDEST DUP2 SLOAD DUP2 MSTORE SWAP1 PUSH1 0x1 ADD SWAP1 PUSH1 0x20 ADD DUP1 DUP4 GT PUSH2 0x8FA JUMPI DUP3 SWAP1 SUB PUSH1 0x1F AND DUP3 ADD SWAP2 JUMPDEST POP POP POP POP POP SWAP1 DUP1 PUSH1 0x2 ADD DUP1 SLOAD PUSH2 0x92C SWAP1 PUSH2 0x5974 JUMP JUMPDEST DUP1 PUSH1 0x1F ADD PUSH1 0x20 DUP1 SWAP2 DIV MUL PUSH1 0x20 ADD PUSH1 0x40 MLOAD SWAP1 DUP2 ADD PUSH1 0x40 MSTORE DUP1 SWAP3 SWAP2 SWAP1 DUP2 DUP2 MSTORE PUSH1 0x20 ADD DUP3 DUP1 SLOAD PUSH2 0x958 SWAP1 PUSH2 0x5974 JUMP JUMPDEST DUP1 ISZERO PUSH2 0x9A5 JUMPI DUP1 PUSH1 0x1F LT PUSH2 0x97A JUMPI PUSH2 0x100 DUP1 DUP4 SLOAD DIV MUL DUP4 MSTORE SWAP2 PUSH1 0x20 ADD SWAP2 PUSH2 0x9A5 JUMP JUMPDEST DUP3 ADD SWAP2 SWAP1 PUSH1 0x0 MSTORE PUSH1 0x20 PUSH1 0x0 KECCAK256 SWAP1 JUMPDEST DUP2 SLOAD DUP2 MSTORE SWAP1 PUSH1 0x1 ADD SWAP1 PUSH1 0x20 ADD DUP1 DUP4 GT PUSH2 0x988 JUMPI DUP3 SWAP1 SUB PUSH1 0x1F AND DUP3 ADD SWAP2 JUMPDEST POP POP POP POP POP SWAP1 DUP1 PUSH1 0x3 ADD DUP1 SLOAD PUSH2 0x9BA SWAP1 PUSH2 0x5974 JUMP JUMPDEST DUP1 PUSH1 0x1F ADD PUSH1 0x20 DUP1 SWAP2 DIV MUL PUSH1 0x20 ADD PUSH1 0x40 MLOAD SWAP1 DUP2 ADD PUSH1 0x40 MSTORE DUP1 SWAP3 SWAP2 SWAP1 DUP2 DUP2 MSTORE PUSH1 0x20 ADD DUP3 DUP1 SLOAD PUSH2 0x9E6 SWAP1 PUSH2 0x5974 JUMP JUMPDEST DUP1 ISZERO PUSH2 0xA33 JUMPI DUP1 PUSH1 0x1F LT PUSH2 0xA08 JUMPI PUSH2 0x100 DUP1 DUP4 SLOAD DIV MUL DUP4 MSTORE SWAP2 PUSH1 0x20 ADD SWAP2 PUSH2 0xA33 JUMP JUMPDEST DUP3 ADD SWAP2 SWAP1 PUSH1 0x0 MSTORE PUSH1 0x20 PUSH1 0x0 KECCAK256 SWAP1 JUMPDEST DUP2 SLOAD DUP2 MSTORE SWAP1 PUSH1 0x1 ADD SWAP1 PUSH1 0x20 ADD DUP1 DUP4 GT PUSH2 0xA16 JUMPI DUP3 SWAP1 SUB PUSH1 0x1F AND DUP3 ADD SWAP2 JUMPDEST POP POP POP POP POP SWAP1 DUP1 PUSH1 0x4 ADD DUP1 SLOAD PUSH2 0xA48 SWAP1 PUSH2 0x5974 JUMP JUMPDEST DUP1 PUSH1 0x1F ADD PUSH1 0x20 DUP1 SWAP2 DIV MUL PUSH1 0x20 ADD PUSH1 0x40 MLOAD SWAP1 DUP2 ADD PUSH1 0x40 MSTORE DUP1 SWAP3 SWAP2 SWAP1 DUP2 DUP2 MSTORE PUSH1 0x20 ADD DUP3 DUP1 SLOAD PUSH2 0xA74 SWAP1 PUSH2 0x5974 JUMP JUMPDEST DUP1 ISZERO PUSH2 0xAC1 JUMPI DUP1 PUSH1 0x1F LT PUSH2 0xA96 JUMPI PUSH2 0x100 DUP1 DUP4 SLOAD DIV MUL DUP4 MSTORE SWAP2 PUSH1 0x20 ADD SWAP2 PUSH2 0xAC1 JUMP JUMPDEST DUP3 ADD SWAP2 SWAP1 PUSH1 0x0 MSTORE PUSH1 0x20 PUSH1 0x0 KECCAK256 SWAP1 JUMPDEST DUP2 SLOAD DUP2 MSTORE SWAP1 PUSH1 0x1 ADD SWAP1 PUSH1 0x20 ADD DUP1 DUP4 GT PUSH2 0xAA4 JUMPI DUP3 SWAP1 SUB PUSH1 0x1F AND DUP3 ADD SWAP2 JUMPDEST POP POP POP POP POP SWAP1 DUP1 PUSH1 0x5 ADD DUP1 SLOAD PUSH2 0xAD6 SWAP1 PUSH2 0x5974 JUMP JUMPDEST DUP1 PUSH1 0x1F ADD PUSH1 0x20 DUP1 SWAP2 DIV MUL PUSH1 0x20 ADD PUSH1 0x40 MLOAD SWAP1 DUP2 ADD PUSH1 0x40 MSTORE DUP1 SWAP3 SWAP2 SWAP1 DUP2 DUP2 MSTORE PUSH1 0x20 ADD DUP3 DUP1 SLOAD PUSH2 0xB02 SWAP1 PUSH2 0x5974 JUMP JUMPDEST DUP1 ISZERO PUSH2 0xB4F JUMPI DUP1 PUSH1 0x1F LT PUSH2 0xB24 JUMPI PUSH2 0x100 DUP1 DUP4 SLOAD DIV MUL DUP4 MSTORE SWAP2 PUSH1 0x20 ADD SWAP2 PUSH2 0xB4F JUMP JUMPDEST DUP3 ADD SWAP2 SWAP1 PUSH1 0x0 MSTORE PUSH1 0x20 PUSH1 0x0 KECCAK256 SWAP1 JUMPDEST DUP2 SLOAD DUP2 MSTORE SWAP1 PUSH1 0x1 ADD SWAP1 PUSH1 0x20 ADD DUP1 DUP4 GT PUSH2 0xB32 JUMPI DUP3 SWAP1 SUB PUSH1 0x1F AND DUP3 ADD SWAP2 JUMPDEST POP POP POP POP PUSH1 0x7 DUP4 ADD SLOAD PUSH1 0x8 DUP5 ADD SLOAD PUSH1 0x9 DUP6 ADD SLOAD PUSH1 0xA SWAP1 SWAP6 ADD SLOAD SWAP4 SWAP5 SWAP2 SWAP4 SWAP1 SWAP3 POP PUSH1 0xFF AND DUP11 JUMP JUMPDEST PUSH1 0x10 SLOAD PUSH1 0x60 SWAP1 PUSH1 0x0 SWAP1 PUSH1 0x1 PUSH1 0x1 PUSH1 0x40 SHL SUB DUP2 GT ISZERO PUSH2 0xB95 JUMPI PUSH2 0xB95 PUSH2 0x4B90 JUMP JUMPDEST PUSH1 0x40 MLOAD SWAP1 DUP1 DUP3 MSTORE DUP1 PUSH1 0x20 MUL PUSH1 0x20 ADD DUP3 ADD PUSH1 0x40 MSTORE DUP1 ISZERO PUSH2 0xC1E JUMPI DUP2 PUSH1 0x20 ADD JUMPDEST PUSH2 0xC0B PUSH1 0x40 MLOAD DUP1 PUSH2 0x140 ADD PUSH1 0x40 MSTORE DUP1 PUSH1 0x0 DUP2 MSTORE PUSH1 0x20 ADD PUSH1 0x60 DUP2 MSTORE PUSH1 0x20 ADD PUSH1 0x60 DUP2 MSTORE PUSH1 0x20 ADD PUSH1 0x60 DUP2 MSTORE PUSH1 0x20 ADD PUSH1 0x60 DUP2 MSTORE PUSH1 0x20 ADD PUSH1 0x60 DUP2 MSTORE PUSH1 0x20 ADD PUSH1 0x60 DUP2 MSTORE PUSH1 0x20 ADD PUSH1 0x60 DUP2 MSTORE PUSH1 0x20 ADD PUSH1 0x0 DUP2 MSTORE PUSH1 0x20 ADD PUSH1 0x0 ISZERO ISZERO DUP2 MSTORE POP SWAP1 JUMP JUMPDEST DUP2 MSTORE PUSH1 0x20 ADD SWAP1 PUSH1 0x1 SWAP1 SUB SWAP1 DUP2 PUSH2 0xBB3 JUMPI SWAP1 POP JUMPDEST POP SWAP1 POP PUSH1 0x0 JUMPDEST PUSH1 0x10 SLOAD DUP2 LT ISZERO PUSH2 0x1105 JUMPI PUSH1 0x9 PUSH1 0x0 PUSH1 0x10 DUP4 DUP2 SLOAD DUP2 LT PUSH2 0xC45 JUMPI PUSH2 0xC45 PUSH2 0x59A8 JUMP JUMPDEST SWAP1 PUSH1 0x0 MSTORE PUSH1 0x20 PUSH1 0x0 KECCAK256 ADD SLOAD DUP2 MSTORE PUSH1 0x20 ADD SWAP1 DUP2 MSTORE PUSH1 0x20 ADD PUSH1 0x0 KECCAK256 PUSH1 0x40 MLOAD DUP1 PUSH2 0x140 ADD PUSH1 0x40 MSTORE SWAP1 DUP2 PUSH1 0x0 DUP3 ADD SLOAD DUP2 MSTORE PUSH1 0x20 ADD PUSH1 0x1 DUP3 ADD DUP1 SLOAD PUSH2 0xC84 SWAP1 PUSH2 0x5974 JUMP JUMPDEST DUP1 PUSH1 0x1F ADD PUSH1 0x20 DUP1 SWAP2 DIV MUL PUSH1 0x20 ADD PUSH1 0x40 MLOAD SWAP1 DUP2 ADD PUSH1 0x40 MSTORE DUP1 SWAP3 SWAP2 SWAP1 DUP2 DUP2 MSTORE PUSH1 0x20 ADD DUP3 DUP1 SLOAD PUSH2 0xCB0 SWAP1 PUSH2 0x5974 JUMP JUMPDEST DUP1 ISZERO PUSH2 0xCFD JUMPI DUP1 PUSH1 0x1F LT PUSH2 0xCD2 JUMPI PUSH2 0x100 DUP1 DUP4 SLOAD DIV MUL DUP4 MSTORE SWAP2 PUSH1 0x20 ADD SWAP2 PUSH2 0xCFD JUMP JUMPDEST DUP3 ADD SWAP2 SWAP1 PUSH1 0x0 MSTORE PUSH1 0x20 PUSH1 0x0 KECCAK256 SWAP1 JUMPDEST DUP2 SLOAD DUP2 MSTORE SWAP1 PUSH1 0x1 ADD SWAP1 PUSH1 0x20 ADD DUP1 DUP4 GT PUSH2 0xCE0 JUMPI DUP3 SWAP1 SUB PUSH1 0x1F AND DUP3 ADD SWAP2 JUMPDEST POP POP POP POP POP DUP2 MSTORE PUSH1 0x20 ADD PUSH1 0x2 DUP3 ADD DUP1 SLOAD PUSH2 0xD16 SWAP1 PUSH2 0x5974 JUMP JUMPDEST DUP1 PUSH1 0x1F ADD PUSH1 0x20 DUP1 SWAP2 DIV MUL PUSH1 0x20 ADD PUSH1 0x40 MLOAD SWAP1 DUP2 ADD PUSH1 0x40 MSTORE DUP1 SWAP3 SWAP2 SWAP1 DUP2 DUP2 MSTORE PUSH1 0x20 ADD DUP3 DUP1 SLOAD PUSH2 0xD42 SWAP1 PUSH2 0x5974 JUMP JUMPDEST DUP1 ISZERO PUSH2 0xD8F JUMPI DUP1 PUSH1 0x1F LT PUSH2 0xD64 JUMPI PUSH2 0x100 DUP1 DUP4 SLOAD DIV MUL DUP4 MSTORE SWAP2 PUSH1 0x20 ADD SWAP2 PUSH2 0xD8F JUMP JUMPDEST DUP3 ADD SWAP2 SWAP1 PUSH1 0x0 MSTORE PUSH1 0x20 PUSH1 0x0 KECCAK256 SWAP1 JUMPDEST DUP2 SLOAD DUP2 MSTORE SWAP1 PUSH1 0x1 ADD SWAP1 PUSH1 0x20 ADD DUP1 DUP4 GT PUSH2 0xD72 JUMPI DUP3 SWAP1 SUB PUSH1 0x1F AND DUP3 ADD SWAP2 JUMPDEST POP POP POP POP POP DUP2 MSTORE PUSH1 0x20 ADD PUSH1 0x3 DUP3 ADD DUP1 SLOAD PUSH2 0xDA8 SWAP1 PUSH2 0x5974 JUMP JUMPDEST DUP1 PUSH1 0x1F ADD PUSH1 0x20 DUP1 SWAP2 DIV MUL PUSH1 0x20 ADD PUSH1 0x40 MLOAD SWAP1 DUP2 ADD PUSH1 0x40 MSTORE DUP1 SWAP3 SWAP2 SWAP1 DUP2 DUP2 MSTORE PUSH1 0x20 ADD DUP3 DUP1 SLOAD PUSH2 0xDD4 SWAP1 PUSH2 0x5974 JUMP JUMPDEST DUP1 ISZERO PUSH2 0xE21 JUMPI DUP1 PUSH1 0x1F LT PUSH2 0xDF6 JUMPI PUSH2 0x100 DUP1 DUP4 SLOAD DIV MUL DUP4 MSTORE SWAP2 PUSH1 0x20 ADD SWAP2 PUSH2 0xE21 JUMP JUMPDEST DUP3 ADD SWAP2 SWAP1 PUSH1 0x0 MSTORE PUSH1 0x20 PUSH1 0x0 KECCAK256 SWAP1 JUMPDEST DUP2 SLOAD DUP2 MSTORE SWAP1 PUSH1 0x1 ADD SWAP1 PUSH1 0x20 ADD DUP1 DUP4 GT PUSH2 0xE04 JUMPI DUP3 SWAP1 SUB PUSH1 0x1F AND DUP3 ADD SWAP2 JUMPDEST POP POP POP POP POP DUP2 MSTORE PUSH1 0x20 ADD PUSH1 0x4 DUP3 ADD DUP1 SLOAD PUSH2 0xE3A SWAP1 PUSH2 0x5974 JUMP JUMPDEST DUP1 PUSH1 0x1F ADD PUSH1 0x20 DUP1 SWAP2 DIV MUL PUSH1 0x20 ADD PUSH1 0x40 MLOAD SWAP1 DUP2 ADD PUSH1 0x40 MSTORE DUP1 SWAP3 SWAP2 SWAP1 DUP2 DUP2 MSTORE PUSH1 0x20 ADD DUP3 DUP1 SLOAD PUSH2 0xE66 SWAP1 PUSH2 0x5974 JUMP JUMPDEST DUP1 ISZERO PUSH2 0xEB3 JUMPI DUP1 PUSH1 0x1F LT PUSH2 0xE88 JUMPI PUSH2 0x100 DUP1 DUP4 SLOAD DIV MUL DUP4 MSTORE SWAP2 PUSH1 0x20 ADD SWAP2 PUSH2 0xEB3 JUMP JUMPDEST DUP3 ADD SWAP2 SWAP1 PUSH1 0x0 MSTORE PUSH1 0x20 PUSH1 0x0 KECCAK256 SWAP1 JUMPDEST DUP2 SLOAD DUP2 MSTORE SWAP1 PUSH1 0x1 ADD SWAP1 PUSH1 0x20 ADD DUP1 DUP4 GT PUSH2 0xE96 JUMPI DUP3 SWAP1 SUB PUSH1 0x1F AND DUP3 ADD SWAP2 JUMPDEST POP POP POP POP POP DUP2 MSTORE PUSH1 0x20 ADD PUSH1 0x5 DUP3 ADD DUP1 SLOAD PUSH2 0xECC SWAP1 PUSH2 0x5974 JUMP JUMPDEST DUP1 PUSH1 0x1F ADD PUSH1 0x20 DUP1 SWAP2 DIV MUL PUSH1 0x20 ADD PUSH1 0x40 MLOAD SWAP1 DUP2 ADD PUSH1 0x40 MSTORE DUP1 SWAP3 SWAP2 SWAP1 DUP2 DUP2 MSTORE PUSH1 0x20 ADD DUP3 DUP1 SLOAD PUSH2 0xEF8 SWAP1 PUSH2 0x5974 JUMP JUMPDEST DUP1 ISZERO PUSH2 0xF45 JUMPI DUP1 PUSH1 0x1F LT PUSH2 0xF1A JUMPI PUSH2 0x100 DUP1 DUP4 SLOAD DIV MUL DUP4 MSTORE SWAP2 PUSH1 0x20 ADD SWAP2 PUSH2 0xF45 JUMP JUMPDEST DUP3 ADD SWAP2 SWAP1 PUSH1 0x0 MSTORE PUSH1 0x20 PUSH1 0x0 KECCAK256 SWAP1 JUMPDEST DUP2 SLOAD DUP2 MSTORE SWAP1 PUSH1 0x1 ADD SWAP1 PUSH1 0x20 ADD DUP1 DUP4 GT PUSH2 0xF28 JUMPI DUP3 SWAP1 SUB PUSH1 0x1F AND DUP3 ADD SWAP2 JUMPDEST POP POP POP POP POP DUP2 MSTORE PUSH1 0x20 ADD PUSH1 0x6 DUP3 ADD DUP1 SLOAD PUSH2 0xF5E SWAP1 PUSH2 0x5974 JUMP JUMPDEST DUP1 PUSH1 0x1F ADD PUSH1 0x20 DUP1 SWAP2 DIV MUL PUSH1 0x20 ADD PUSH1 0x40 MLOAD SWAP1 DUP2 ADD PUSH1 0x40 MSTORE DUP1 SWAP3 SWAP2 SWAP1 DUP2 DUP2 MSTORE PUSH1 0x20 ADD DUP3 DUP1 SLOAD PUSH2 0xF8A SWAP1 PUSH2 0x5974 JUMP JUMPDEST DUP1 ISZERO PUSH2 0xFD7 JUMPI DUP1 PUSH1 0x1F LT PUSH2 0xFAC JUMPI PUSH2 0x100 DUP1 DUP4 SLOAD DIV MUL DUP4 MSTORE SWAP2 PUSH1 0x20 ADD SWAP2 PUSH2 0xFD7 JUMP JUMPDEST DUP3 ADD SWAP2 SWAP1 PUSH1 0x0 MSTORE PUSH1 0x20 PUSH1 0x0 KECCAK256 SWAP1 JUMPDEST DUP2 SLOAD DUP2 MSTORE SWAP1 PUSH1 0x1 ADD SWAP1 PUSH1 0x20 ADD DUP1 DUP4 GT PUSH2 0xFBA JUMPI DUP3 SWAP1 SUB PUSH1 0x1F AND DUP3 ADD SWAP2 JUMPDEST POP POP POP POP POP DUP2 MSTORE PUSH1 0x20 ADD PUSH1 0x7 DUP3 ADD DUP1 SLOAD DUP1 PUSH1 0x20 MUL PUSH1 0x20 ADD PUSH1 0x40 MLOAD SWAP1 DUP2 ADD PUSH1 0x40 MSTORE DUP1 SWAP3 SWAP2 SWAP1 DUP2 DUP2 MSTORE PUSH1 0x20 ADD PUSH1 0x0 SWAP1 JUMPDEST DUP3 DUP3 LT ISZERO PUSH2 0x10B1 JUMPI DUP4 DUP3 SWAP1 PUSH1 0x0 MSTORE PUSH1 0x20 PUSH1 0x0 KECCAK256 ADD DUP1 SLOAD PUSH2 0x1024 SWAP1 PUSH2 0x5974 JUMP JUMPDEST DUP1 PUSH1 0x1F ADD PUSH1 0x20 DUP1 SWAP2 DIV MUL PUSH1 0x20 ADD PUSH1 0x40 MLOAD SWAP1 DUP2 ADD PUSH1 0x40 MSTORE DUP1 SWAP3 SWAP2 SWAP1 DUP2 DUP2 MSTORE PUSH1 0x20 ADD DUP3 DUP1 SLOAD PUSH2 0x1050 SWAP1 PUSH2 0x5974 JUMP JUMPDEST DUP1 ISZERO PUSH2 0x109D JUMPI DUP1 PUSH1 0x1F LT PUSH2 0x1072 JUMPI PUSH2 0x100 DUP1 DUP4 SLOAD DIV MUL DUP4 MSTORE SWAP2 PUSH1 0x20 ADD SWAP2 PUSH2 0x109D JUMP JUMPDEST DUP3 ADD SWAP2 SWAP1 PUSH1 0x0 MSTORE PUSH1 0x20 PUSH1 0x0 KECCAK256 SWAP1 JUMPDEST DUP2 SLOAD DUP2 MSTORE SWAP1 PUSH1 0x1 ADD SWAP1 PUSH1 0x20 ADD DUP1 DUP4 GT PUSH2 0x1080 JUMPI DUP3 SWAP1 SUB PUSH1 0x1F AND DUP3 ADD SWAP2 JUMPDEST POP POP POP POP POP DUP2 MSTORE PUSH1 0x20 ADD SWAP1 PUSH1 0x1 ADD SWAP1 PUSH2 0x1005 JUMP JUMPDEST POP POP POP SWAP1 DUP3 MSTORE POP PUSH1 0x8 DUP3 ADD SLOAD PUSH1 0x20 DUP3 ADD MSTORE PUSH1 0x9 SWAP1 SWAP2 ADD SLOAD PUSH1 0xFF AND ISZERO ISZERO PUSH1 0x40 SWAP1 SWAP2 ADD MSTORE DUP3 MLOAD DUP4 SWAP1 DUP4 SWAP1 DUP2 LT PUSH2 0x10E7 JUMPI PUSH2 0x10E7 PUSH2 0x59A8 JUMP JUMPDEST PUSH1 0x20 MUL PUSH1 0x20 ADD ADD DUP2 SWAP1 MSTORE POP DUP1 DUP1 PUSH2 0x10FD SWAP1 PUSH2 0x59D4 JUMP JUMPDEST SWAP2 POP POP PUSH2 0xC24 JUMP JUMPDEST POP SWAP2 SWAP1 POP JUMP JUMPDEST PUSH1 0xB PUSH1 0x20 MSTORE PUSH1 0x0 SWAP1 DUP2 MSTORE PUSH1 0x40 SWAP1 KECCAK256 DUP1 SLOAD PUSH1 0x1 DUP3 ADD DUP1 SLOAD SWAP2 SWAP3 SWAP2 PUSH2 0x112D SWAP1 PUSH2 0x5974 JUMP JUMPDEST DUP1 PUSH1 0x1F ADD PUSH1 0x20 DUP1 SWAP2 DIV MUL PUSH1 0x20 ADD PUSH1 0x40 MLOAD SWAP1 DUP2 ADD PUSH1 0x40 MSTORE DUP1 SWAP3 SWAP2 SWAP1 DUP2 DUP2 MSTORE PUSH1 0x20 ADD DUP3 DUP1 SLOAD PUSH2 0x1159 SWAP1 PUSH2 0x5974 JUMP JUMPDEST DUP1 ISZERO PUSH2 0x11A6 JUMPI DUP1 PUSH1 0x1F LT PUSH2 0x117B JUMPI PUSH2 0x100 DUP1 DUP4 SLOAD DIV MUL DUP4 MSTORE SWAP2 PUSH1 0x20 ADD SWAP2 PUSH2 0x11A6 JUMP JUMPDEST DUP3 ADD SWAP2 SWAP1 PUSH1 0x0 MSTORE PUSH1 0x20 PUSH1 0x0 KECCAK256 SWAP1 JUMPDEST DUP2 SLOAD DUP2 MSTORE SWAP1 PUSH1 0x1 ADD SWAP1 PUSH1 0x20 ADD DUP1 DUP4 GT PUSH2 0x1189 JUMPI DUP3 SWAP1 SUB PUSH1 0x1F AND DUP3 ADD SWAP2 JUMPDEST POP POP POP POP POP SWAP1 DUP1 PUSH1 0x2 ADD DUP1 SLOAD PUSH2 0x11BB SWAP1 PUSH2 0x5974 JUMP JUMPDEST DUP1 PUSH1 0x1F ADD PUSH1 0x20 DUP1 SWAP2 DIV MUL PUSH1 0x20 ADD PUSH1 0x40 MLOAD SWAP1 DUP2 ADD PUSH1 0x40 MSTORE DUP1 SWAP3 SWAP2 SWAP1 DUP2 DUP2 MSTORE PUSH1 0x20 ADD DUP3 DUP1 SLOAD PUSH2 0x11E7 SWAP1 PUSH2 0x5974 JUMP JUMPDEST DUP1 ISZERO PUSH2 0x1234 JUMPI DUP1 PUSH1 0x1F LT PUSH2 0x1209 JUMPI PUSH2 0x100 DUP1 DUP4 SLOAD DIV MUL DUP4 MSTORE SWAP2 PUSH1 0x20 ADD SWAP2 PUSH2 0x1234 JUMP JUMPDEST DUP3 ADD SWAP2 SWAP1 PUSH1 0x0 MSTORE PUSH1 0x20 PUSH1 0x0 KECCAK256 SWAP1 JUMPDEST DUP2 SLOAD DUP2 MSTORE SWAP1 PUSH1 0x1 ADD SWAP1 PUSH1 0x20 ADD DUP1 DUP4 GT PUSH2 0x1217 JUMPI DUP3 SWAP1 SUB PUSH1 0x1F AND DUP3 ADD SWAP2 JUMPDEST POP POP POP POP POP SWAP1 DUP1 PUSH1 0x3 ADD DUP1 SLOAD PUSH2 0x1249 SWAP1 PUSH2 0x5974 JUMP JUMPDEST DUP1 PUSH1 0x1F ADD PUSH1 0x20 DUP1 SWAP2 DIV MUL PUSH1 0x20 ADD PUSH1 0x40 MLOAD SWAP1 DUP2 ADD PUSH1 0x40 MSTORE DUP1 SWAP3 SWAP2 SWAP1 DUP2 DUP2 MSTORE PUSH1 0x20 ADD DUP3 DUP1 SLOAD PUSH2 0x1275 SWAP1 PUSH2 0x5974 JUMP JUMPDEST DUP1 ISZERO PUSH2 0x12C2 JUMPI DUP1 PUSH1 0x1F LT PUSH2 0x1297 JUMPI PUSH2 0x100 DUP1 DUP4 SLOAD DIV MUL DUP4 MSTORE SWAP2 PUSH1 0x20 ADD SWAP2 PUSH2 0x12C2 JUMP JUMPDEST DUP3 ADD SWAP2 SWAP1 PUSH1 0x0 MSTORE PUSH1 0x20 PUSH1 0x0 KECCAK256 SWAP1 JUMPDEST DUP2 SLOAD DUP2 MSTORE SWAP1 PUSH1 0x1 ADD SWAP1 PUSH1 0x20 ADD DUP1 DUP4 GT PUSH2 0x12A5 JUMPI DUP3 SWAP1 SUB PUSH1 0x1F AND DUP3 ADD SWAP2 JUMPDEST POP POP POP POP POP SWAP1 DUP1 PUSH1 0x4 ADD DUP1 SLOAD PUSH2 0x12D7 SWAP1 PUSH2 0x5974 JUMP JUMPDEST DUP1 PUSH1 0x1F ADD PUSH1 0x20 DUP1 SWAP2 DIV MUL PUSH1 0x20 ADD PUSH1 0x40 MLOAD SWAP1 DUP2 ADD PUSH1 0x40 MSTORE DUP1 SWAP3 SWAP2 SWAP1 DUP2 DUP2 MSTORE PUSH1 0x20 ADD DUP3 DUP1 SLOAD PUSH2 0x1303 SWAP1 PUSH2 0x5974 JUMP JUMPDEST DUP1 ISZERO PUSH2 0x1350 JUMPI DUP1 PUSH1 0x1F LT PUSH2 0x1325 JUMPI PUSH2 0x100 DUP1 DUP4 SLOAD DIV MUL DUP4 MSTORE SWAP2 PUSH1 0x20 ADD SWAP2 PUSH2 0x1350 JUMP JUMPDEST DUP3 ADD SWAP2 SWAP1 PUSH1 0x0 MSTORE PUSH1 0x20 PUSH1 0x0 KECCAK256 SWAP1 JUMPDEST DUP2 SLOAD DUP2 MSTORE SWAP1 PUSH1 0x1 ADD SWAP1 PUSH1 0x20 ADD DUP1 DUP4 GT PUSH2 0x1333 JUMPI DUP3 SWAP1 SUB PUSH1 0x1F AND DUP3 ADD SWAP2 JUMPDEST POP POP POP POP POP SWAP1 DUP1 PUSH1 0x5 ADD SLOAD SWAP1 DUP1 PUSH1 0x6 ADD DUP1 SLOAD PUSH2 0x136B SWAP1 PUSH2 0x5974 JUMP JUMPDEST DUP1 PUSH1 0x1F ADD PUSH1 0x20 DUP1 SWAP2 DIV MUL PUSH1 0x20 ADD PUSH1 0x40 MLOAD SWAP1 DUP2 ADD PUSH1 0x40 MSTORE DUP1 SWAP3 SWAP2 SWAP1 DUP2 DUP2 MSTORE PUSH1 0x20 ADD DUP3 DUP1 SLOAD PUSH2 0x1397 SWAP1 PUSH2 0x5974 JUMP JUMPDEST DUP1 ISZERO PUSH2 0x13E4 JUMPI DUP1 PUSH1 0x1F LT PUSH2 0x13B9 JUMPI PUSH2 0x100 DUP1 DUP4 SLOAD DIV MUL DUP4 MSTORE SWAP2 PUSH1 0x20 ADD SWAP2 PUSH2 0x13E4 JUMP JUMPDEST DUP3 ADD SWAP2 SWAP1 PUSH1 0x0 MSTORE PUSH1 0x20 PUSH1 0x0 KECCAK256 SWAP1 JUMPDEST DUP2 SLOAD DUP2 MSTORE SWAP1 PUSH1 0x1 ADD SWAP1 PUSH1 0x20 ADD DUP1 DUP4 GT PUSH2 0x13C7 JUMPI DUP3 SWAP1 SUB PUSH1 0x1F AND DUP3 ADD SWAP2 JUMPDEST POP POP POP PUSH1 0x7 SWAP1 SWAP4 ADD SLOAD SWAP2 SWAP3 POP POP PUSH1 0xFF AND DUP9 JUMP JUMPDEST PUSH2 0x13FF PUSH2 0x4719 JUMP JUMPDEST PUSH1 0x2 PUSH1 0x0 DUP2 SLOAD PUSH2 0x140E SWAP1 PUSH2 0x59D4 JUMP JUMPDEST SWAP1 SWAP2 SSTORE POP PUSH1 0x2 SLOAD PUSH1 0x40 DUP1 MLOAD PUSH2 0x160 DUP2 ADD DUP3 MSTORE DUP3 DUP2 MSTORE PUSH1 0x20 DUP1 DUP3 ADD DUP11 DUP2 MSTORE DUP3 DUP5 ADD DUP11 SWAP1 MSTORE PUSH1 0x60 DUP4 ADD DUP10 SWAP1 MSTORE PUSH1 0x80 DUP4 ADD DUP9 SWAP1 MSTORE PUSH1 0xA0 DUP4 ADD DUP8 SWAP1 MSTORE PUSH1 0xC0 DUP4 ADD DUP7 SWAP1 MSTORE PUSH1 0x0 PUSH1 0xE0 DUP5 ADD DUP2 SWAP1 MSTORE PUSH2 0x100 DUP5 ADD DUP2 SWAP1 MSTORE TIMESTAMP PUSH2 0x120 DUP6 ADD MSTORE PUSH1 0x1 PUSH2 0x140 DUP6 ADD DUP2 SWAP1 MSTORE DUP7 DUP3 MSTORE PUSH1 0x7 SWAP1 SWAP4 MSTORE SWAP4 SWAP1 SWAP4 KECCAK256 DUP3 MLOAD DUP2 SSTORE SWAP3 MLOAD SWAP2 SWAP3 SWAP2 SWAP1 DUP3 ADD SWAP1 PUSH2 0x1492 SWAP1 DUP3 PUSH2 0x5A3C JUMP JUMPDEST POP PUSH1 0x40 DUP3 ADD MLOAD PUSH1 0x2 DUP3 ADD SWAP1 PUSH2 0x14A7 SWAP1 DUP3 PUSH2 0x5A3C JUMP JUMPDEST POP PUSH1 0x60 DUP3 ADD MLOAD PUSH1 0x3 DUP3 ADD SWAP1 PUSH2 0x14BC SWAP1 DUP3 PUSH2 0x5A3C JUMP JUMPDEST POP PUSH1 0x80 DUP3 ADD MLOAD PUSH1 0x4 DUP3 ADD SWAP1 PUSH2 0x14D1 SWAP1 DUP3 PUSH2 0x5A3C JUMP JUMPDEST POP PUSH1 0xA0 DUP3 ADD MLOAD PUSH1 0x5 DUP3 ADD SWAP1 PUSH2 0x14E6 SWAP1 DUP3 PUSH2 0x5A3C JUMP JUMPDEST POP PUSH1 0xC0 DUP3 ADD MLOAD DUP1 MLOAD PUSH2 0x1502 SWAP2 PUSH1 0x6 DUP5 ADD SWAP2 PUSH1 0x20 SWAP1 SWAP2 ADD SWAP1 PUSH2 0x47C0 JUMP JUMPDEST POP PUSH1 0xE0 DUP3 ADD MLOAD PUSH1 0x7 DUP3 ADD SSTORE PUSH2 0x100 DUP3 ADD MLOAD PUSH1 0x8 DUP3 ADD SSTORE PUSH2 0x120 DUP3 ADD MLOAD PUSH1 0x9 DUP3 ADD SSTORE PUSH2 0x140 SWAP1 SWAP2 ADD MLOAD PUSH1 0xA SWAP1 SWAP2 ADD DUP1 SLOAD PUSH1 0xFF NOT AND SWAP2 ISZERO ISZERO SWAP2 SWAP1 SWAP2 OR SWAP1 SSTORE PUSH1 0xE DUP1 SLOAD PUSH1 0x1 DUP2 ADD DUP3 SSTORE PUSH1 0x0 SWAP2 SWAP1 SWAP2 MSTORE PUSH32 0xBB7B4A454DC3493923482F07822329ED19E8244EFF582CC204F8554C3620C3FD ADD DUP2 SWAP1 SSTORE PUSH1 0x40 MLOAD DUP2 SWAP1 PUSH32 0x855BE7AB46E0AE9E0D9C2F3567377C0A577A8C726B7C88615644D282A1FC291 SWAP1 PUSH2 0x15A5 SWAP1 DUP11 SWAP1 PUSH2 0x5AFB JUMP JUMPDEST PUSH1 0x40 MLOAD DUP1 SWAP2 SUB SWAP1 LOG2 POP POP POP POP POP POP POP JUMP JUMPDEST PUSH1 0x11 DUP2 DUP2 SLOAD DUP2 LT PUSH2 0x15C6 JUMPI PUSH1 0x0 DUP1 REVERT JUMPDEST PUSH1 0x0 SWAP2 DUP3 MSTORE PUSH1 0x20 SWAP1 SWAP2 KECCAK256 ADD SLOAD SWAP1 POP DUP2 JUMP JUMPDEST PUSH1 0xF DUP2 DUP2 SLOAD DUP2 LT PUSH2 0x15C6 JUMPI PUSH1 0x0 DUP1 REVERT JUMPDEST PUSH1 0xE DUP2 DUP2 SLOAD DUP2 LT PUSH2 0x15C6 JUMPI PUSH1 0x0 DUP1 REVERT JUMPDEST PUSH1 0xA PUSH1 0x20 MSTORE PUSH1 0x0 SWAP1 DUP2 MSTORE PUSH1 0x40 SWAP1 KECCAK256 DUP1 SLOAD PUSH1 0x1 DUP3 ADD DUP1 SLOAD SWAP2 SWAP3 SWAP2 PUSH2 0x1619 SWAP1 PUSH2 0x5974 JUMP JUMPDEST DUP1 PUSH1 0x1F ADD PUSH1 0x20 DUP1 SWAP2 DIV MUL PUSH1 0x20 ADD PUSH1 0x40 MLOAD SWAP1 DUP2 ADD PUSH1 0x40 MSTORE DUP1 SWAP3 SWAP2 SWAP1 DUP2 DUP2 MSTORE PUSH1 0x20 ADD DUP3 DUP1 SLOAD PUSH2 0x1645 SWAP1 PUSH2 0x5974 JUMP JUMPDEST DUP1 ISZERO PUSH2 0x1692 JUMPI DUP1 PUSH1 0x1F LT PUSH2 0x1667 JUMPI PUSH2 0x100 DUP1 DUP4 SLOAD DIV MUL DUP4 MSTORE SWAP2 PUSH1 0x20 ADD SWAP2 PUSH2 0x1692 JUMP JUMPDEST DUP3 ADD SWAP2 SWAP1 PUSH1 0x0 MSTORE PUSH1 0x20 PUSH1 0x0 KECCAK256 SWAP1 JUMPDEST DUP2 SLOAD DUP2 MSTORE SWAP1 PUSH1 0x1 ADD SWAP1 PUSH1 0x20 ADD DUP1 DUP4 GT PUSH2 0x1675 JUMPI DUP3 SWAP1 SUB PUSH1 0x1F AND DUP3 ADD SWAP2 JUMPDEST POP POP POP POP POP SWAP1 DUP1 PUSH1 0x2 ADD DUP1 SLOAD PUSH2 0x16A7 SWAP1 PUSH2 0x5974 JUMP JUMPDEST DUP1 PUSH1 0x1F ADD PUSH1 0x20 DUP1 SWAP2 DIV MUL PUSH1 0x20 ADD PUSH1 0x40 MLOAD SWAP1 DUP2 ADD PUSH1 0x40 MSTORE DUP1 SWAP3 SWAP2 SWAP1 DUP2 DUP2 MSTORE PUSH1 0x20 ADD DUP3 DUP1 SLOAD PUSH2 0x16D3 SWAP1 PUSH2 0x5974 JUMP JUMPDEST DUP1 ISZERO PUSH2 0x1720 JUMPI DUP1 PUSH1 0x1F LT PUSH2 0x16F5 JUMPI PUSH2 0x100 DUP1 DUP4 SLOAD DIV MUL DUP4 MSTORE SWAP2 PUSH1 0x20 ADD SWAP2 PUSH2 0x1720 JUMP JUMPDEST DUP3 ADD SWAP2 SWAP1 PUSH1 0x0 MSTORE PUSH1 0x20 PUSH1 0x0 KECCAK256 SWAP1 JUMPDEST DUP2 SLOAD DUP2 MSTORE SWAP1 PUSH1 0x1 ADD SWAP1 PUSH1 0x20 ADD DUP1 DUP4 GT PUSH2 0x1703 JUMPI DUP3 SWAP1 SUB PUSH1 0x1F AND DUP3 ADD SWAP2 JUMPDEST POP POP POP POP POP SWAP1 DUP1 PUSH1 0x3 ADD DUP1 SLOAD PUSH2 0x1735 SWAP1 PUSH2 0x5974 JUMP JUMPDEST DUP1 PUSH1 0x1F ADD PUSH1 0x20 DUP1 SWAP2 DIV MUL PUSH1 0x20 ADD PUSH1 0x40 MLOAD SWAP1 DUP2 ADD PUSH1 0x40 MSTORE DUP1 SWAP3 SWAP2 SWAP1 DUP2 DUP2 MSTORE PUSH1 0x20 ADD DUP3 DUP1 SLOAD PUSH2 0x1761 SWAP1 PUSH2 0x5974 JUMP JUMPDEST DUP1 ISZERO PUSH2 0x17AE JUMPI DUP1 PUSH1 0x1F LT PUSH2 0x1783 JUMPI PUSH2 0x100 DUP1 DUP4 SLOAD DIV MUL DUP4 MSTORE SWAP2 PUSH1 0x20 ADD SWAP2 PUSH2 0x17AE JUMP JUMPDEST DUP3 ADD SWAP2 SWAP1 PUSH1 0x0 MSTORE PUSH1 0x20 PUSH1 0x0 KECCAK256 SWAP1 JUMPDEST DUP2 SLOAD DUP2 MSTORE SWAP1 PUSH1 0x1 ADD SWAP1 PUSH1 0x20 ADD DUP1 DUP4 GT PUSH2 0x1791 JUMPI DUP3 SWAP1 SUB PUSH1 0x1F AND DUP3 ADD SWAP2 JUMPDEST POP POP POP POP PUSH1 0x4 DUP4 ADD SLOAD PUSH1 0x5 DUP5 ADD SLOAD PUSH1 0x6 SWAP1 SWAP5 ADD SLOAD SWAP3 SWAP4 SWAP1 SWAP3 SWAP1 SWAP2 POP PUSH1 0xFF AND DUP8 JUMP JUMPDEST PUSH1 0x60 PUSH1 0x0 DUP1 JUMPDEST PUSH1 0x11 SLOAD DUP2 LT ISZERO PUSH2 0x1896 JUMPI DUP4 DUP1 MLOAD SWAP1 PUSH1 0x20 ADD KECCAK256 PUSH1 0xA PUSH1 0x0 PUSH1 0x11 DUP5 DUP2 SLOAD DUP2 LT PUSH2 0x17FE JUMPI PUSH2 0x17FE PUSH2 0x59A8 JUMP JUMPDEST SWAP1 PUSH1 0x0 MSTORE PUSH1 0x20 PUSH1 0x0 KECCAK256 ADD SLOAD DUP2 MSTORE PUSH1 0x20 ADD SWAP1 DUP2 MSTORE PUSH1 0x20 ADD PUSH1 0x0 KECCAK256 PUSH1 0x2 ADD PUSH1 0x40 MLOAD PUSH2 0x1827 SWAP2 SWAP1 PUSH2 0x5B0E JUMP JUMPDEST PUSH1 0x40 MLOAD DUP1 SWAP2 SUB SWAP1 KECCAK256 EQ DUP1 ISZERO PUSH2 0x1871 JUMPI POP PUSH1 0xA PUSH1 0x0 PUSH1 0x11 DUP4 DUP2 SLOAD DUP2 LT PUSH2 0x184E JUMPI PUSH2 0x184E PUSH2 0x59A8 JUMP JUMPDEST PUSH1 0x0 SWAP2 DUP3 MSTORE PUSH1 0x20 DUP1 DUP4 KECCAK256 SWAP1 SWAP2 ADD SLOAD DUP4 MSTORE DUP3 ADD SWAP3 SWAP1 SWAP3 MSTORE PUSH1 0x40 ADD SWAP1 KECCAK256 PUSH1 0x6 ADD SLOAD PUSH1 0xFF AND JUMPDEST ISZERO PUSH2 0x1884 JUMPI DUP2 PUSH2 0x1880 DUP2 PUSH2 0x59D4 JUMP JUMPDEST SWAP3 POP POP JUMPDEST DUP1 PUSH2 0x188E DUP2 PUSH2 0x59D4 JUMP JUMPDEST SWAP2 POP POP PUSH2 0x17D5 JUMP JUMPDEST POP PUSH1 0x0 DUP2 PUSH1 0x1 PUSH1 0x1 PUSH1 0x40 SHL SUB DUP2 GT ISZERO PUSH2 0x18B1 JUMPI PUSH2 0x18B1 PUSH2 0x4B90 JUMP JUMPDEST PUSH1 0x40 MLOAD SWAP1 DUP1 DUP3 MSTORE DUP1 PUSH1 0x20 MUL PUSH1 0x20 ADD DUP3 ADD PUSH1 0x40 MSTORE DUP1 ISZERO PUSH2 0x1924 JUMPI DUP2 PUSH1 0x20 ADD JUMPDEST PUSH2 0x1911 PUSH1 0x40 MLOAD DUP1 PUSH1 0xE0 ADD PUSH1 0x40 MSTORE DUP1 PUSH1 0x0 DUP2 MSTORE PUSH1 0x20 ADD PUSH1 0x60 DUP2 MSTORE PUSH1 0x20 ADD PUSH1 0x60 DUP2 MSTORE PUSH1 0x20 ADD PUSH1 0x60 DUP2 MSTORE PUSH1 0x20 ADD PUSH1 0x0 DUP2 MSTORE PUSH1 0x20 ADD PUSH1 0x0 DUP2 MSTORE PUSH1 0x20 ADD PUSH1 0x0 ISZERO ISZERO DUP2 MSTORE POP SWAP1 JUMP JUMPDEST DUP2 MSTORE PUSH1 0x20 ADD SWAP1 PUSH1 0x1 SWAP1 SUB SWAP1 DUP2 PUSH2 0x18CF JUMPI SWAP1 POP JUMPDEST POP SWAP1 POP PUSH1 0x0 DUP1 JUMPDEST PUSH1 0x11 SLOAD DUP2 LT ISZERO PUSH2 0x1C2B JUMPI DUP6 DUP1 MLOAD SWAP1 PUSH1 0x20 ADD KECCAK256 PUSH1 0xA PUSH1 0x0 PUSH1 0x11 DUP5 DUP2 SLOAD DUP2 LT PUSH2 0x1954 JUMPI PUSH2 0x1954 PUSH2 0x59A8 JUMP JUMPDEST SWAP1 PUSH1 0x0 MSTORE PUSH1 0x20 PUSH1 0x0 KECCAK256 ADD SLOAD DUP2 MSTORE PUSH1 0x20 ADD SWAP1 DUP2 MSTORE PUSH1 0x20 ADD PUSH1 0x0 KECCAK256 PUSH1 0x2 ADD PUSH1 0x40 MLOAD PUSH2 0x197D SWAP2 SWAP1 PUSH2 0x5B0E JUMP JUMPDEST PUSH1 0x40 MLOAD DUP1 SWAP2 SUB SWAP1 KECCAK256 EQ DUP1 ISZERO PUSH2 0x19C7 JUMPI POP PUSH1 0xA PUSH1 0x0 PUSH1 0x11 DUP4 DUP2 SLOAD DUP2 LT PUSH2 0x19A4 JUMPI PUSH2 0x19A4 PUSH2 0x59A8 JUMP JUMPDEST PUSH1 0x0 SWAP2 DUP3 MSTORE PUSH1 0x20 DUP1 DUP4 KECCAK256 SWAP1 SWAP2 ADD SLOAD DUP4 MSTORE DUP3 ADD SWAP3 SWAP1 SWAP3 MSTORE PUSH1 0x40 ADD SWAP1 KECCAK256 PUSH1 0x6 ADD SLOAD PUSH1 0xFF AND JUMPDEST ISZERO PUSH2 0x1C19 JUMPI PUSH1 0xA PUSH1 0x0 PUSH1 0x11 DUP4 DUP2 SLOAD DUP2 LT PUSH2 0x19E3 JUMPI PUSH2 0x19E3 PUSH2 0x59A8 JUMP JUMPDEST SWAP1 PUSH1 0x0 MSTORE PUSH1 0x20 PUSH1 0x0 KECCAK256 ADD SLOAD DUP2 MSTORE PUSH1 0x20 ADD SWAP1 DUP2 MSTORE PUSH1 0x20 ADD PUSH1 0x0 KECCAK256 PUSH1 0x40 MLOAD DUP1 PUSH1 0xE0 ADD PUSH1 0x40 MSTORE SWAP1 DUP2 PUSH1 0x0 DUP3 ADD SLOAD DUP2 MSTORE PUSH1 0x20 ADD PUSH1 0x1 DUP3 ADD DUP1 SLOAD PUSH2 0x1A21 SWAP1 PUSH2 0x5974 JUMP JUMPDEST DUP1 PUSH1 0x1F ADD PUSH1 0x20 DUP1 SWAP2 DIV MUL PUSH1 0x20 ADD PUSH1 0x40 MLOAD SWAP1 DUP2 ADD PUSH1 0x40 MSTORE DUP1 SWAP3 SWAP2 SWAP1 DUP2 DUP2 MSTORE PUSH1 0x20 ADD DUP3 DUP1 SLOAD PUSH2 0x1A4D SWAP1 PUSH2 0x5974 JUMP JUMPDEST DUP1 ISZERO PUSH2 0x1A9A JUMPI DUP1 PUSH1 0x1F LT PUSH2 0x1A6F JUMPI PUSH2 0x100 DUP1 DUP4 SLOAD DIV MUL DUP4 MSTORE SWAP2 PUSH1 0x20 ADD SWAP2 PUSH2 0x1A9A JUMP JUMPDEST DUP3 ADD SWAP2 SWAP1 PUSH1 0x0 MSTORE PUSH1 0x20 PUSH1 0x0 KECCAK256 SWAP1 JUMPDEST DUP2 SLOAD DUP2 MSTORE SWAP1 PUSH1 0x1 ADD SWAP1 PUSH1 0x20 ADD DUP1 DUP4 GT PUSH2 0x1A7D JUMPI DUP3 SWAP1 SUB PUSH1 0x1F AND DUP3 ADD SWAP2 JUMPDEST POP POP POP POP POP DUP2 MSTORE PUSH1 0x20 ADD PUSH1 0x2 DUP3 ADD DUP1 SLOAD PUSH2 0x1AB3 SWAP1 PUSH2 0x5974 JUMP JUMPDEST DUP1 PUSH1 0x1F ADD PUSH1 0x20 DUP1 SWAP2 DIV MUL PUSH1 0x20 ADD PUSH1 0x40 MLOAD SWAP1 DUP2 ADD PUSH1 0x40 MSTORE DUP1 SWAP3 SWAP2 SWAP1 DUP2 DUP2 MSTORE PUSH1 0x20 ADD DUP3 DUP1 SLOAD PUSH2 0x1ADF SWAP1 PUSH2 0x5974 JUMP JUMPDEST DUP1 ISZERO PUSH2 0x1B2C JUMPI DUP1 PUSH1 0x1F LT PUSH2 0x1B01 JUMPI PUSH2 0x100 DUP1 DUP4 SLOAD DIV MUL DUP4 MSTORE SWAP2 PUSH1 0x20 ADD SWAP2 PUSH2 0x1B2C JUMP JUMPDEST DUP3 ADD SWAP2 SWAP1 PUSH1 0x0 MSTORE PUSH1 0x20 PUSH1 0x0 KECCAK256 SWAP1 JUMPDEST DUP2 SLOAD DUP2 MSTORE SWAP1 PUSH1 0x1 ADD SWAP1 PUSH1 0x20 ADD DUP1 DUP4 GT PUSH2 0x1B0F JUMPI DUP3 SWAP1 SUB PUSH1 0x1F AND DUP3 ADD SWAP2 JUMPDEST POP POP POP POP POP DUP2 MSTORE PUSH1 0x20 ADD PUSH1 0x3 DUP3 ADD DUP1 SLOAD PUSH2 0x1B45 SWAP1 PUSH2 0x5974 JUMP JUMPDEST DUP1 PUSH1 0x1F ADD PUSH1 0x20 DUP1 SWAP2 DIV MUL PUSH1 0x20 ADD PUSH1 0x40 MLOAD SWAP1 DUP2 ADD PUSH1 0x40 MSTORE DUP1 SWAP3 SWAP2 SWAP1 DUP2 DUP2 MSTORE PUSH1 0x20 ADD DUP3 DUP1 SLOAD PUSH2 0x1B71 SWAP1 PUSH2 0x5974 JUMP JUMPDEST DUP1 ISZERO PUSH2 0x1BBE JUMPI DUP1 PUSH1 0x1F LT PUSH2 0x1B93 JUMPI PUSH2 0x100 DUP1 DUP4 SLOAD DIV MUL DUP4 MSTORE SWAP2 PUSH1 0x20 ADD SWAP2 PUSH2 0x1BBE JUMP JUMPDEST DUP3 ADD SWAP2 SWAP1 PUSH1 0x0 MSTORE PUSH1 0x20 PUSH1 0x0 KECCAK256 SWAP1 JUMPDEST DUP2 SLOAD DUP2 MSTORE SWAP1 PUSH1 0x1 ADD SWAP1 PUSH1 0x20 ADD DUP1 DUP4 GT PUSH2 0x1BA1 JUMPI DUP3 SWAP1 SUB PUSH1 0x1F AND DUP3 ADD SWAP2 JUMPDEST POP POP POP SWAP2 DUP4 MSTORE POP POP PUSH1 0x4 DUP3 ADD SLOAD PUSH1 0x20 DUP3 ADD MSTORE PUSH1 0x5 DUP3 ADD SLOAD PUSH1 0x40 DUP3 ADD MSTORE PUSH1 0x6 SWAP1 SWAP2 ADD SLOAD PUSH1 0xFF AND ISZERO ISZERO PUSH1 0x60 SWAP1 SWAP2 ADD MSTORE DUP4 MLOAD DUP5 SWAP1 DUP5 SWAP1 DUP2 LT PUSH2 0x1BFF JUMPI PUSH2 0x1BFF PUSH2 0x59A8 JUMP JUMPDEST PUSH1 0x20 MUL PUSH1 0x20 ADD ADD DUP2 SWAP1 MSTORE POP DUP2 DUP1 PUSH2 0x1C15 SWAP1 PUSH2 0x59D4 JUMP JUMPDEST SWAP3 POP POP JUMPDEST DUP1 PUSH2 0x1C23 DUP2 PUSH2 0x59D4 JUMP JUMPDEST SWAP2 POP POP PUSH2 0x192B JUMP JUMPDEST POP SWAP1 SWAP5 SWAP4 POP POP POP POP JUMP JUMPDEST PUSH1 0x12 DUP2 DUP2 SLOAD DUP2 LT PUSH2 0x15C6 JUMPI PUSH1 0x0 DUP1 REVERT JUMPDEST PUSH2 0x1C4D PUSH2 0x4719 JUMP JUMPDEST PUSH1 0x64 DUP2 GT ISZERO PUSH2 0x1CAE JUMPI PUSH1 0x40 MLOAD PUSH3 0x461BCD PUSH1 0xE5 SHL DUP2 MSTORE PUSH1 0x20 PUSH1 0x4 DUP3 ADD MSTORE PUSH1 0x27 PUSH1 0x24 DUP3 ADD MSTORE PUSH32 0x50726F66696369656E6379206C6576656C206D75737420626520626574776565 PUSH1 0x44 DUP3 ADD MSTORE PUSH7 0x6E20302D31303 PUSH1 0xCC SHL PUSH1 0x64 DUP3 ADD MSTORE PUSH1 0x84 ADD PUSH2 0x850 JUMP JUMPDEST PUSH1 0x5 PUSH1 0x0 DUP2 SLOAD PUSH2 0x1CBD SWAP1 PUSH2 0x59D4 JUMP JUMPDEST SWAP1 SWAP2 SSTORE POP PUSH1 0x5 SLOAD PUSH1 0x40 DUP1 MLOAD PUSH1 0xE0 DUP2 ADD DUP3 MSTORE DUP3 DUP2 MSTORE PUSH1 0x20 DUP1 DUP3 ADD DUP9 DUP2 MSTORE DUP3 DUP5 ADD DUP9 SWAP1 MSTORE PUSH1 0x60 DUP4 ADD DUP8 SWAP1 MSTORE PUSH1 0x80 DUP4 ADD DUP7 SWAP1 MSTORE TIMESTAMP PUSH1 0xA0 DUP5 ADD MSTORE PUSH1 0x1 PUSH1 0xC0 DUP5 ADD DUP2 SWAP1 MSTORE PUSH1 0x0 DUP7 DUP2 MSTORE PUSH1 0xA SWAP1 SWAP4 MSTORE SWAP4 SWAP1 SWAP2 KECCAK256 DUP3 MLOAD DUP2 SSTORE SWAP1 MLOAD SWAP2 SWAP3 SWAP1 SWAP2 SWAP1 DUP3 ADD SWAP1 PUSH2 0x1D22 SWAP1 DUP3 PUSH2 0x5A3C JUMP JUMPDEST POP PUSH1 0x40 DUP3 ADD MLOAD PUSH1 0x2 DUP3 ADD SWAP1 PUSH2 0x1D37 SWAP1 DUP3 PUSH2 0x5A3C JUMP JUMPDEST POP PUSH1 0x60 DUP3 ADD MLOAD PUSH1 0x3 DUP3 ADD SWAP1 PUSH2 0x1D4C SWAP1 DUP3 PUSH2 0x5A3C JUMP JUMPDEST POP PUSH1 0x80 DUP3 ADD MLOAD PUSH1 0x4 DUP3 ADD SSTORE PUSH1 0xA0 DUP3 ADD MLOAD PUSH1 0x5 DUP3 ADD SSTORE PUSH1 0xC0 SWAP1 SWAP2 ADD MLOAD PUSH1 0x6 SWAP1 SWAP2 ADD DUP1 SLOAD PUSH1 0xFF NOT AND SWAP2 ISZERO ISZERO SWAP2 SWAP1 SWAP2 OR SWAP1 SSTORE PUSH1 0x11 DUP1 SLOAD PUSH1 0x1 DUP2 ADD DUP3 SSTORE PUSH1 0x0 SWAP2 SWAP1 SWAP2 MSTORE PUSH32 0x31ECC21A745E3968A04E9570E4425BC18FA8019C68028196B546D1669C200C68 ADD DUP2 SWAP1 SSTORE PUSH1 0x40 MLOAD DUP2 SWAP1 PUSH32 0x9187DA888FB0A4E77BA1969299EFDD67961B0BBA0AEA2875B80E51AEFE03F250 SWAP1 PUSH2 0x1DE2 SWAP1 DUP9 SWAP1 PUSH2 0x5AFB JUMP JUMPDEST PUSH1 0x40 MLOAD DUP1 SWAP2 SUB SWAP1 LOG2 POP POP POP POP POP JUMP JUMPDEST PUSH1 0x0 DUP2 DUP2 MSTORE PUSH1 0x7 PUSH1 0x20 MSTORE PUSH1 0x40 SWAP1 KECCAK256 PUSH1 0xA ADD SLOAD PUSH1 0xFF AND PUSH2 0x1E22 JUMPI PUSH1 0x40 MLOAD PUSH3 0x461BCD PUSH1 0xE5 SHL DUP2 MSTORE PUSH1 0x4 ADD PUSH2 0x850 SWAP1 PUSH2 0x5B84 JUMP JUMPDEST PUSH1 0x0 DUP2 DUP2 MSTORE PUSH1 0xD PUSH1 0x20 SWAP1 DUP2 MSTORE PUSH1 0x40 DUP1 DUP4 KECCAK256 CALLER DUP5 MSTORE SWAP1 SWAP2 MSTORE SWAP1 KECCAK256 SLOAD PUSH1 0xFF AND ISZERO PUSH2 0x1E8C JUMPI PUSH1 0x40 MLOAD PUSH3 0x461BCD PUSH1 0xE5 SHL DUP2 MSTORE PUSH1 0x20 PUSH1 0x4 DUP3 ADD MSTORE PUSH1 0x1A PUSH1 0x24 DUP3 ADD MSTORE PUSH32 0x416C7265616479206C696B656420746869732070726F6A656374000000000000 PUSH1 0x44 DUP3 ADD MSTORE PUSH1 0x64 ADD PUSH2 0x850 JUMP JUMPDEST PUSH1 0x0 DUP2 DUP2 MSTORE PUSH1 0xD PUSH1 0x20 SWAP1 DUP2 MSTORE PUSH1 0x40 DUP1 DUP4 KECCAK256 CALLER DUP5 MSTORE DUP3 MSTORE DUP1 DUP4 KECCAK256 DUP1 SLOAD PUSH1 0xFF NOT AND PUSH1 0x1 OR SWAP1 SSTORE DUP4 DUP4 MSTORE PUSH1 0x7 SWAP2 DUP3 SWAP1 MSTORE DUP3 KECCAK256 ADD DUP1 SLOAD SWAP2 PUSH2 0x1EC8 DUP4 PUSH2 0x59D4 JUMP JUMPDEST SWAP1 SWAP2 SSTORE POP POP PUSH1 0x40 MLOAD CALLER SWAP1 DUP3 SWAP1 PUSH32 0xFB3102D8ECB66D98243AE49796162A002AACA5261E7AF9E47B4E110E6C1D6D35 SWAP1 PUSH1 0x0 SWAP1 LOG3 POP JUMP JUMPDEST PUSH2 0x1F05 PUSH2 0x4719 JUMP JUMPDEST PUSH2 0x1F0F PUSH1 0x0 PUSH2 0x4746 JUMP JUMPDEST JUMP JUMPDEST PUSH2 0x1F19 PUSH2 0x4719 JUMP JUMPDEST PUSH1 0x0 DUP2 DUP2 MSTORE PUSH1 0xB PUSH1 0x20 MSTORE PUSH1 0x40 DUP2 KECCAK256 SLOAD SWAP1 SUB PUSH2 0x1F76 JUMPI PUSH1 0x40 MLOAD PUSH3 0x461BCD PUSH1 0xE5 SHL DUP2 MSTORE PUSH1 0x20 PUSH1 0x4 DUP3 ADD MSTORE PUSH1 0x1A PUSH1 0x24 DUP3 ADD MSTORE PUSH32 0x416368696576656D656E7420646F6573206E6F74206578697374000000000000 PUSH1 0x44 DUP3 ADD MSTORE PUSH1 0x64 ADD PUSH2 0x850 JUMP JUMPDEST PUSH1 0x0 SWAP1 DUP2 MSTORE PUSH1 0xB PUSH1 0x20 MSTORE PUSH1 0x40 SWAP1 KECCAK256 PUSH1 0x7 ADD DUP1 SLOAD PUSH1 0xFF NOT DUP2 AND PUSH1 0xFF SWAP1 SWAP2 AND ISZERO OR SWAP1 SSTORE JUMP JUMPDEST PUSH1 0x10 DUP2 DUP2 SLOAD DUP2 LT PUSH2 0x15C6 JUMPI PUSH1 0x0 DUP1 REVERT JUMPDEST PUSH1 0x12 SLOAD PUSH1 0x60 SWAP1 PUSH1 0x0 SWAP1 PUSH1 0x1 PUSH1 0x1 PUSH1 0x40 SHL SUB DUP2 GT ISZERO PUSH2 0x1FC9 JUMPI PUSH2 0x1FC9 PUSH2 0x4B90 JUMP JUMPDEST PUSH1 0x40 MLOAD SWAP1 DUP1 DUP3 MSTORE DUP1 PUSH1 0x20 MUL PUSH1 0x20 ADD DUP3 ADD PUSH1 0x40 MSTORE DUP1 ISZERO PUSH2 0x2044 JUMPI DUP2 PUSH1 0x20 ADD JUMPDEST PUSH2 0x2031 PUSH1 0x40 MLOAD DUP1 PUSH2 0x100 ADD PUSH1 0x40 MSTORE DUP1 PUSH1 0x0 DUP2 MSTORE PUSH1 0x20 ADD PUSH1 0x60 DUP2 MSTORE PUSH1 0x20 ADD PUSH1 0x60 DUP2 MSTORE PUSH1 0x20 ADD PUSH1 0x60 DUP2 MSTORE PUSH1 0x20 ADD PUSH1 0x60 DUP2 MSTORE PUSH1 0x20 ADD PUSH1 0x0 DUP2 MSTORE PUSH1 0x20 ADD PUSH1 0x60 DUP2 MSTORE PUSH1 0x20 ADD PUSH1 0x0 ISZERO ISZERO DUP2 MSTORE POP SWAP1 JUMP JUMPDEST DUP2 MSTORE PUSH1 0x20 ADD SWAP1 PUSH1 0x1 SWAP1 SUB SWAP1 DUP2 PUSH2 0x1FE7 JUMPI SWAP1 POP JUMPDEST POP SWAP1 POP PUSH1 0x0 JUMPDEST PUSH1 0x12 SLOAD DUP2 LT ISZERO PUSH2 0x1105 JUMPI PUSH1 0xB PUSH1 0x0 PUSH1 0x12 DUP4 DUP2 SLOAD DUP2 LT PUSH2 0x206B JUMPI PUSH2 0x206B PUSH2 0x59A8 JUMP JUMPDEST SWAP1 PUSH1 0x0 MSTORE PUSH1 0x20 PUSH1 0x0 KECCAK256 ADD SLOAD DUP2 MSTORE PUSH1 0x20 ADD SWAP1 DUP2 MSTORE PUSH1 0x20 ADD PUSH1 0x0 KECCAK256 PUSH1 0x40 MLOAD DUP1 PUSH2 0x100 ADD PUSH1 0x40 MSTORE SWAP1 DUP2 PUSH1 0x0 DUP3 ADD SLOAD DUP2 MSTORE PUSH1 0x20 ADD PUSH1 0x1 DUP3 ADD DUP1 SLOAD PUSH2 0x20AA SWAP1 PUSH2 0x5974 JUMP JUMPDEST DUP1 PUSH1 0x1F ADD PUSH1 0x20 DUP1 SWAP2 DIV MUL PUSH1 0x20 ADD PUSH1 0x40 MLOAD SWAP1 DUP2 ADD PUSH1 0x40 MSTORE DUP1 SWAP3 SWAP2 SWAP1 DUP2 DUP2 MSTORE PUSH1 0x20 ADD DUP3 DUP1 SLOAD PUSH2 0x20D6 SWAP1 PUSH2 0x5974 JUMP JUMPDEST DUP1 ISZERO PUSH2 0x2123 JUMPI DUP1 PUSH1 0x1F LT PUSH2 0x20F8 JUMPI PUSH2 0x100 DUP1 DUP4 SLOAD DIV MUL DUP4 MSTORE SWAP2 PUSH1 0x20 ADD SWAP2 PUSH2 0x2123 JUMP JUMPDEST DUP3 ADD SWAP2 SWAP1 PUSH1 0x0 MSTORE PUSH1 0x20 PUSH1 0x0 KECCAK256 SWAP1 JUMPDEST DUP2 SLOAD DUP2 MSTORE SWAP1 PUSH1 0x1 ADD SWAP1 PUSH1 0x20 ADD DUP1 DUP4 GT PUSH2 0x2106 JUMPI DUP3 SWAP1 SUB PUSH1 0x1F AND DUP3 ADD SWAP2 JUMPDEST POP POP POP POP POP DUP2 MSTORE PUSH1 0x20 ADD PUSH1 0x2 DUP3 ADD DUP1 SLOAD PUSH2 0x213C SWAP1 PUSH2 0x5974 JUMP JUMPDEST DUP1 PUSH1 0x1F ADD PUSH1 0x20 DUP1 SWAP2 DIV MUL PUSH1 0x20 ADD PUSH1 0x40 MLOAD SWAP1 DUP2 ADD PUSH1 0x40 MSTORE DUP1 SWAP3 SWAP2 SWAP1 DUP2 DUP2 MSTORE PUSH1 0x20 ADD DUP3 DUP1 SLOAD PUSH2 0x2168 SWAP1 PUSH2 0x5974 JUMP JUMPDEST DUP1 ISZERO PUSH2 0x21B5 JUMPI DUP1 PUSH1 0x1F LT PUSH2 0x218A JUMPI PUSH2 0x100 DUP1 DUP4 SLOAD DIV MUL DUP4 MSTORE SWAP2 PUSH1 0x20 ADD SWAP2 PUSH2 0x21B5 JUMP JUMPDEST DUP3 ADD SWAP2 SWAP1 PUSH1 0x0 MSTORE PUSH1 0x20 PUSH1 0x0 KECCAK256 SWAP1 JUMPDEST DUP2 SLOAD DUP2 MSTORE SWAP1 PUSH1 0x1 ADD SWAP1 PUSH1 0x20 ADD DUP1 DUP4 GT PUSH2 0x2198 JUMPI DUP3 SWAP1 SUB PUSH1 0x1F AND DUP3 ADD SWAP2 JUMPDEST POP POP POP POP POP DUP2 MSTORE PUSH1 0x20 ADD PUSH1 0x3 DUP3 ADD DUP1 SLOAD PUSH2 0x21CE SWAP1 PUSH2 0x5974 JUMP JUMPDEST DUP1 PUSH1 0x1F ADD PUSH1 0x20 DUP1 SWAP2 DIV MUL PUSH1 0x20 ADD PUSH1 0x40 MLOAD SWAP1 DUP2 ADD PUSH1 0x40 MSTORE DUP1 SWAP3 SWAP2 SWAP1 DUP2 DUP2 MSTORE PUSH1 0x20 ADD DUP3 DUP1 SLOAD PUSH2 0x21FA SWAP1 PUSH2 0x5974 JUMP JUMPDEST DUP1 ISZERO PUSH2 0x2247 JUMPI DUP1 PUSH1 0x1F LT PUSH2 0x221C JUMPI PUSH2 0x100 DUP1 DUP4 SLOAD DIV MUL DUP4 MSTORE SWAP2 PUSH1 0x20 ADD SWAP2 PUSH2 0x2247 JUMP JUMPDEST DUP3 ADD SWAP2 SWAP1 PUSH1 0x0 MSTORE PUSH1 0x20 PUSH1 0x0 KECCAK256 SWAP1 JUMPDEST DUP2 SLOAD DUP2 MSTORE SWAP1 PUSH1 0x1 ADD SWAP1 PUSH1 0x20 ADD DUP1 DUP4 GT PUSH2 0x222A JUMPI DUP3 SWAP1 SUB PUSH1 0x1F AND DUP3 ADD SWAP2 JUMPDEST POP POP POP POP POP DUP2 MSTORE PUSH1 0x20 ADD PUSH1 0x4 DUP3 ADD DUP1 SLOAD PUSH2 0x2260 SWAP1 PUSH2 0x5974 JUMP JUMPDEST DUP1 PUSH1 0x1F ADD PUSH1 0x20 DUP1 SWAP2 DIV MUL PUSH1 0x20 ADD PUSH1 0x40 MLOAD SWAP1 DUP2 ADD PUSH1 0x40 MSTORE DUP1 SWAP3 SWAP2 SWAP1 DUP2 DUP2 MSTORE PUSH1 0x20 ADD DUP3 DUP1 SLOAD PUSH2 0x228C SWAP1 PUSH2 0x5974 JUMP JUMPDEST DUP1 ISZERO PUSH2 0x22D9 JUMPI DUP1 PUSH1 0x1F LT PUSH2 0x22AE JUMPI PUSH2 0x100 DUP1 DUP4 SLOAD DIV MUL DUP4 MSTORE SWAP2 PUSH1 0x20 ADD SWAP2 PUSH2 0x22D9 JUMP JUMPDEST DUP3 ADD SWAP2 SWAP1 PUSH1 0x0 MSTORE PUSH1 0x20 PUSH1 0x0 KECCAK256 SWAP1 JUMPDEST DUP2 SLOAD DUP2 MSTORE SWAP1 PUSH1 0x1 ADD SWAP1 PUSH1 0x20 ADD DUP1 DUP4 GT PUSH2 0x22BC JUMPI DUP3 SWAP1 SUB PUSH1 0x1F AND DUP3 ADD SWAP2 JUMPDEST POP POP POP POP POP DUP2 MSTORE PUSH1 0x20 ADD PUSH1 0x5 DUP3 ADD SLOAD DUP2 MSTORE PUSH1 0x20 ADD PUSH1 0x6 DUP3 ADD DUP1 SLOAD PUSH2 0x22FC SWAP1 PUSH2 0x5974 JUMP JUMPDEST DUP1 PUSH1 0x1F ADD PUSH1 0x20 DUP1 SWAP2 DIV MUL PUSH1 0x20 ADD PUSH1 0x40 MLOAD SWAP1 DUP2 ADD PUSH1 0x40 MSTORE DUP1 SWAP3 SWAP2 SWAP1 DUP2 DUP2 MSTORE PUSH1 0x20 ADD DUP3 DUP1 SLOAD PUSH2 0x2328 SWAP1 PUSH2 0x5974 JUMP JUMPDEST DUP1 ISZERO PUSH2 0x2375 JUMPI DUP1 PUSH1 0x1F LT PUSH2 0x234A JUMPI PUSH2 0x100 DUP1 DUP4 SLOAD DIV MUL DUP4 MSTORE SWAP2 PUSH1 0x20 ADD SWAP2 PUSH2 0x2375 JUMP JUMPDEST DUP3 ADD SWAP2 SWAP1 PUSH1 0x0 MSTORE PUSH1 0x20 PUSH1 0x0 KECCAK256 SWAP1 JUMPDEST DUP2 SLOAD DUP2 MSTORE SWAP1 PUSH1 0x1 ADD SWAP1 PUSH1 0x20 ADD DUP1 DUP4 GT PUSH2 0x2358 JUMPI DUP3 SWAP1 SUB PUSH1 0x1F AND DUP3 ADD SWAP2 JUMPDEST POP POP POP SWAP2 DUP4 MSTORE POP POP PUSH1 0x7 SWAP2 SWAP1 SWAP2 ADD SLOAD PUSH1 0xFF AND ISZERO ISZERO PUSH1 0x20 SWAP1 SWAP2 ADD MSTORE DUP3 MLOAD DUP4 SWAP1 DUP4 SWAP1 DUP2 LT PUSH2 0x23A3 JUMPI PUSH2 0x23A3 PUSH2 0x59A8 JUMP JUMPDEST PUSH1 0x20 MUL PUSH1 0x20 ADD ADD DUP2 SWAP1 MSTORE POP DUP1 DUP1 PUSH2 0x23B9 SWAP1 PUSH2 0x59D4 JUMP JUMPDEST SWAP2 POP POP PUSH2 0x204A JUMP JUMPDEST PUSH2 0x23C9 PUSH2 0x4719 JUMP JUMPDEST PUSH1 0x6 PUSH1 0x0 DUP2 SLOAD PUSH2 0x23D8 SWAP1 PUSH2 0x59D4 JUMP JUMPDEST SWAP1 SWAP2 SSTORE POP PUSH1 0x6 SLOAD PUSH1 0x40 DUP1 MLOAD PUSH2 0x100 DUP2 ADD DUP3 MSTORE DUP3 DUP2 MSTORE PUSH1 0x20 DUP1 DUP3 ADD DUP11 DUP2 MSTORE DUP3 DUP5 ADD DUP11 SWAP1 MSTORE PUSH1 0x60 DUP4 ADD DUP10 SWAP1 MSTORE PUSH1 0x80 DUP4 ADD DUP9 SWAP1 MSTORE PUSH1 0xA0 DUP4 ADD DUP8 SWAP1 MSTORE PUSH1 0xC0 DUP4 ADD DUP7 SWAP1 MSTORE PUSH1 0x1 PUSH1 0xE0 DUP5 ADD DUP2 SWAP1 MSTORE PUSH1 0x0 DUP7 DUP2 MSTORE PUSH1 0xB SWAP1 SWAP4 MSTORE SWAP4 SWAP1 SWAP2 KECCAK256 DUP3 MLOAD DUP2 SSTORE SWAP1 MLOAD SWAP2 SWAP3 SWAP1 SWAP2 SWAP1 DUP3 ADD SWAP1 PUSH2 0x2446 SWAP1 DUP3 PUSH2 0x5A3C JUMP JUMPDEST POP PUSH1 0x40 DUP3 ADD MLOAD PUSH1 0x2 DUP3 ADD SWAP1 PUSH2 0x245B SWAP1 DUP3 PUSH2 0x5A3C JUMP JUMPDEST POP PUSH1 0x60 DUP3 ADD MLOAD PUSH1 0x3 DUP3 ADD SWAP1 PUSH2 0x2470 SWAP1 DUP3 PUSH2 0x5A3C JUMP JUMPDEST POP PUSH1 0x80 DUP3 ADD MLOAD PUSH1 0x4 DUP3 ADD SWAP1 PUSH2 0x2485 SWAP1 DUP3 PUSH2 0x5A3C JUMP JUMPDEST POP PUSH1 0xA0 DUP3 ADD MLOAD PUSH1 0x5 DUP3 ADD SSTORE PUSH1 0xC0 DUP3 ADD MLOAD PUSH1 0x6 DUP3 ADD SWAP1 PUSH2 0x24A4 SWAP1 DUP3 PUSH2 0x5A3C JUMP JUMPDEST POP PUSH1 0xE0 SWAP2 SWAP1 SWAP2 ADD MLOAD PUSH1 0x7 SWAP1 SWAP2 ADD DUP1 SLOAD PUSH1 0xFF NOT AND SWAP2 ISZERO ISZERO SWAP2 SWAP1 SWAP2 OR SWAP1 SSTORE PUSH1 0x12 DUP1 SLOAD PUSH1 0x1 DUP2 ADD DUP3 SSTORE PUSH1 0x0 SWAP2 SWAP1 SWAP2 MSTORE PUSH32 0xBB8A6A4669BA250D26CD7A459ECA9D215F8307E33AEBE50379BC5A3617EC3444 ADD DUP2 SWAP1 SSTORE PUSH1 0x40 MLOAD DUP2 SWAP1 PUSH32 0xF17F92196CD6983957ACF186D3C32425568737AAC0A230C7CD0B9068ADDCC5D0 SWAP1 PUSH2 0x15A5 SWAP1 DUP11 SWAP1 PUSH2 0x5AFB JUMP JUMPDEST PUSH1 0xE SLOAD PUSH1 0x60 SWAP1 PUSH1 0x0 SWAP1 PUSH1 0x1 PUSH1 0x1 PUSH1 0x40 SHL SUB DUP2 GT ISZERO PUSH2 0x2547 JUMPI PUSH2 0x2547 PUSH2 0x4B90 JUMP JUMPDEST PUSH1 0x40 MLOAD SWAP1 DUP1 DUP3 MSTORE DUP1 PUSH1 0x20 MUL PUSH1 0x20 ADD DUP3 ADD PUSH1 0x40 MSTORE DUP1 ISZERO PUSH2 0x25D7 JUMPI DUP2 PUSH1 0x20 ADD JUMPDEST PUSH2 0x25C4 PUSH1 0x40 MLOAD DUP1 PUSH2 0x160 ADD PUSH1 0x40 MSTORE DUP1 PUSH1 0x0 DUP2 MSTORE PUSH1 0x20 ADD PUSH1 0x60 DUP2 MSTORE PUSH1 0x20 ADD PUSH1 0x60 DUP2 MSTORE PUSH1 0x20 ADD PUSH1 0x60 DUP2 MSTORE PUSH1 0x20 ADD PUSH1 0x60 DUP2 MSTORE PUSH1 0x20 ADD PUSH1 0x60 DUP2 MSTORE PUSH1 0x20 ADD PUSH1 0x60 DUP2 MSTORE PUSH1 0x20 ADD PUSH1 0x0 DUP2 MSTORE PUSH1 0x20 ADD PUSH1 0x0 DUP2 MSTORE PUSH1 0x20 ADD PUSH1 0x0 DUP2 MSTORE PUSH1 0x20 ADD PUSH1 0x0 ISZERO ISZERO DUP2 MSTORE POP SWAP1 JUMP JUMPDEST DUP2 MSTORE PUSH1 0x20 ADD SWAP1 PUSH1 0x1 SWAP1 SUB SWAP1 DUP2 PUSH2 0x2565 JUMPI SWAP1 POP JUMPDEST POP SWAP1 POP PUSH1 0x0 JUMPDEST PUSH1 0xE SLOAD DUP2 LT ISZERO PUSH2 0x1105 JUMPI PUSH1 0x7 PUSH1 0x0 PUSH1 0xE DUP4 DUP2 SLOAD DUP2 LT PUSH2 0x25FE JUMPI PUSH2 0x25FE PUSH2 0x59A8 JUMP JUMPDEST SWAP1 PUSH1 0x0 MSTORE PUSH1 0x20 PUSH1 0x0 KECCAK256 ADD SLOAD DUP2 MSTORE PUSH1 0x20 ADD SWAP1 DUP2 MSTORE PUSH1 0x20 ADD PUSH1 0x0 KECCAK256 PUSH1 0x40 MLOAD DUP1 PUSH2 0x160 ADD PUSH1 0x40 MSTORE SWAP1 DUP2 PUSH1 0x0 DUP3 ADD SLOAD DUP2 MSTORE PUSH1 0x20 ADD PUSH1 0x1 DUP3 ADD DUP1 SLOAD PUSH2 0x263D SWAP1 PUSH2 0x5974 JUMP JUMPDEST DUP1 PUSH1 0x1F ADD PUSH1 0x20 DUP1 SWAP2 DIV MUL PUSH1 0x20 ADD PUSH1 0x40 MLOAD SWAP1 DUP2 ADD PUSH1 0x40 MSTORE DUP1 SWAP3 SWAP2 SWAP1 DUP2 DUP2 MSTORE PUSH1 0x20 ADD DUP3 DUP1 SLOAD PUSH2 0x2669 SWAP1 PUSH2 0x5974 JUMP JUMPDEST DUP1 ISZERO PUSH2 0x26B6 JUMPI DUP1 PUSH1 0x1F LT PUSH2 0x268B JUMPI PUSH2 0x100 DUP1 DUP4 SLOAD DIV MUL DUP4 MSTORE SWAP2 PUSH1 0x20 ADD SWAP2 PUSH2 0x26B6 JUMP JUMPDEST DUP3 ADD SWAP2 SWAP1 PUSH1 0x0 MSTORE PUSH1 0x20 PUSH1 0x0 KECCAK256 SWAP1 JUMPDEST DUP2 SLOAD DUP2 MSTORE SWAP1 PUSH1 0x1 ADD SWAP1 PUSH1 0x20 ADD DUP1 DUP4 GT PUSH2 0x2699 JUMPI DUP3 SWAP1 SUB PUSH1 0x1F AND DUP3 ADD SWAP2 JUMPDEST POP POP POP POP POP DUP2 MSTORE PUSH1 0x20 ADD PUSH1 0x2 DUP3 ADD DUP1 SLOAD PUSH2 0x26CF SWAP1 PUSH2 0x5974 JUMP JUMPDEST DUP1 PUSH1 0x1F ADD PUSH1 0x20 DUP1 SWAP2 DIV MUL PUSH1 0x20 ADD PUSH1 0x40 MLOAD SWAP1 DUP2 ADD PUSH1 0x40 MSTORE DUP1 SWAP3 SWAP2 SWAP1 DUP2 DUP2 MSTORE PUSH1 0x20 ADD DUP3 DUP1 SLOAD PUSH2 0x26FB SWAP1 PUSH2 0x5974 JUMP JUMPDEST DUP1 ISZERO PUSH2 0x2748 JUMPI DUP1 PUSH1 0x1F LT PUSH2 0x271D JUMPI PUSH2 0x100 DUP1 DUP4 SLOAD DIV MUL DUP4 MSTORE SWAP2 PUSH1 0x20 ADD SWAP2 PUSH2 0x2748 JUMP JUMPDEST DUP3 ADD SWAP2 SWAP1 PUSH1 0x0 MSTORE PUSH1 0x20 PUSH1 0x0 KECCAK256 SWAP1 JUMPDEST DUP2 SLOAD DUP2 MSTORE SWAP1 PUSH1 0x1 ADD SWAP1 PUSH1 0x20 ADD DUP1 DUP4 GT PUSH2 0x272B JUMPI DUP3 SWAP1 SUB PUSH1 0x1F AND DUP3 ADD SWAP2 JUMPDEST POP POP POP POP POP DUP2 MSTORE PUSH1 0x20 ADD PUSH1 0x3 DUP3 ADD DUP1 SLOAD PUSH2 0x2761 SWAP1 PUSH2 0x5974 JUMP JUMPDEST DUP1 PUSH1 0x1F ADD PUSH1 0x20 DUP1 SWAP2 DIV MUL PUSH1 0x20 ADD PUSH1 0x40 MLOAD SWAP1 DUP2 ADD PUSH1 0x40 MSTORE DUP1 SWAP3 SWAP2 SWAP1 DUP2 DUP2 MSTORE PUSH1 0x20 ADD DUP3 DUP1 SLOAD PUSH2 0x278D SWAP1 PUSH2 0x5974 JUMP JUMPDEST DUP1 ISZERO PUSH2 0x27DA JUMPI DUP1 PUSH1 0x1F LT PUSH2 0x27AF JUMPI PUSH2 0x100 DUP1 DUP4 SLOAD DIV MUL DUP4 MSTORE SWAP2 PUSH1 0x20 ADD SWAP2 PUSH2 0x27DA JUMP JUMPDEST DUP3 ADD SWAP2 SWAP1 PUSH1 0x0 MSTORE PUSH1 0x20 PUSH1 0x0 KECCAK256 SWAP1 JUMPDEST DUP2 SLOAD DUP2 MSTORE SWAP1 PUSH1 0x1 ADD SWAP1 PUSH1 0x20 ADD DUP1 DUP4 GT PUSH2 0x27BD JUMPI DUP3 SWAP1 SUB PUSH1 0x1F AND DUP3 ADD SWAP2 JUMPDEST POP POP POP POP POP DUP2 MSTORE PUSH1 0x20 ADD PUSH1 0x4 DUP3 ADD DUP1 SLOAD PUSH2 0x27F3 SWAP1 PUSH2 0x5974 JUMP JUMPDEST DUP1 PUSH1 0x1F ADD PUSH1 0x20 DUP1 SWAP2 DIV MUL PUSH1 0x20 ADD PUSH1 0x40 MLOAD SWAP1 DUP2 ADD PUSH1 0x40 MSTORE DUP1 SWAP3 SWAP2 SWAP1 DUP2 DUP2 MSTORE PUSH1 0x20 ADD DUP3 DUP1 SLOAD PUSH2 0x281F SWAP1 PUSH2 0x5974 JUMP JUMPDEST DUP1 ISZERO PUSH2 0x286C JUMPI DUP1 PUSH1 0x1F LT PUSH2 0x2841 JUMPI PUSH2 0x100 DUP1 DUP4 SLOAD DIV MUL DUP4 MSTORE SWAP2 PUSH1 0x20 ADD SWAP2 PUSH2 0x286C JUMP JUMPDEST DUP3 ADD SWAP2 SWAP1 PUSH1 0x0 MSTORE PUSH1 0x20 PUSH1 0x0 KECCAK256 SWAP1 JUMPDEST DUP2 SLOAD DUP2 MSTORE SWAP1 PUSH1 0x1 ADD SWAP1 PUSH1 0x20 ADD DUP1 DUP4 GT PUSH2 0x284F JUMPI DUP3 SWAP1 SUB PUSH1 0x1F AND DUP3 ADD SWAP2 JUMPDEST POP POP POP POP POP DUP2 MSTORE PUSH1 0x20 ADD PUSH1 0x5 DUP3 ADD DUP1 SLOAD PUSH2 0x2885 SWAP1 PUSH2 0x5974 JUMP JUMPDEST DUP1 PUSH1 0x1F ADD PUSH1 0x20 DUP1 SWAP2 DIV MUL PUSH1 0x20 ADD PUSH1 0x40 MLOAD SWAP1 DUP2 ADD PUSH1 0x40 MSTORE DUP1 SWAP3 SWAP2 SWAP1 DUP2 DUP2 MSTORE PUSH1 0x20 ADD DUP3 DUP1 SLOAD PUSH2 0x28B1 SWAP1 PUSH2 0x5974 JUMP JUMPDEST DUP1 ISZERO PUSH2 0x28FE JUMPI DUP1 PUSH1 0x1F LT PUSH2 0x28D3 JUMPI PUSH2 0x100 DUP1 DUP4 SLOAD DIV MUL DUP4 MSTORE SWAP2 PUSH1 0x20 ADD SWAP2 PUSH2 0x28FE JUMP JUMPDEST DUP3 ADD SWAP2 SWAP1 PUSH1 0x0 MSTORE PUSH1 0x20 PUSH1 0x0 KECCAK256 SWAP1 JUMPDEST DUP2 SLOAD DUP2 MSTORE SWAP1 PUSH1 0x1 ADD SWAP1 PUSH1 0x20 ADD DUP1 DUP4 GT PUSH2 0x28E1 JUMPI DUP3 SWAP1 SUB PUSH1 0x1F AND DUP3 ADD SWAP2 JUMPDEST POP POP POP POP POP DUP2 MSTORE PUSH1 0x20 ADD PUSH1 0x6 DUP3 ADD DUP1 SLOAD DUP1 PUSH1 0x20 MUL PUSH1 0x20 ADD PUSH1 0x40 MLOAD SWAP1 DUP2 ADD PUSH1 0x40 MSTORE DUP1 SWAP3 SWAP2 SWAP1 DUP2 DUP2 MSTORE PUSH1 0x20 ADD PUSH1 0x0 SWAP1 JUMPDEST DUP3 DUP3 LT ISZERO PUSH2 0x29D8 JUMPI DUP4 DUP3 SWAP1 PUSH1 0x0 MSTORE PUSH1 0x20 PUSH1 0x0 KECCAK256 ADD DUP1 SLOAD PUSH2 0x294B SWAP1 PUSH2 0x5974 JUMP JUMPDEST DUP1 PUSH1 0x1F ADD PUSH1 0x20 DUP1 SWAP2 DIV MUL PUSH1 0x20 ADD PUSH1 0x40 MLOAD SWAP1 DUP2 ADD PUSH1 0x40 MSTORE DUP1 SWAP3 SWAP2 SWAP1 DUP2 DUP2 MSTORE PUSH1 0x20 ADD DUP3 DUP1 SLOAD PUSH2 0x2977 SWAP1 PUSH2 0x5974 JUMP JUMPDEST DUP1 ISZERO PUSH2 0x29C4 JUMPI DUP1 PUSH1 0x1F LT PUSH2 0x2999 JUMPI PUSH2 0x100 DUP1 DUP4 SLOAD DIV MUL DUP4 MSTORE SWAP2 PUSH1 0x20 ADD SWAP2 PUSH2 0x29C4 JUMP JUMPDEST DUP3 ADD SWAP2 SWAP1 PUSH1 0x0 MSTORE PUSH1 0x20 PUSH1 0x0 KECCAK256 SWAP1 JUMPDEST DUP2 SLOAD DUP2 MSTORE SWAP1 PUSH1 0x1 ADD SWAP1 PUSH1 0x20 ADD DUP1 DUP4 GT PUSH2 0x29A7 JUMPI DUP3 SWAP1 SUB PUSH1 0x1F AND DUP3 ADD SWAP2 JUMPDEST POP POP POP POP POP DUP2 MSTORE PUSH1 0x20 ADD SWAP1 PUSH1 0x1 ADD SWAP1 PUSH2 0x292C JUMP JUMPDEST POP POP POP SWAP1 DUP3 MSTORE POP PUSH1 0x7 DUP3 ADD SLOAD PUSH1 0x20 DUP3 ADD MSTORE PUSH1 0x8 DUP3 ADD SLOAD PUSH1 0x40 DUP3 ADD MSTORE PUSH1 0x9 DUP3 ADD SLOAD PUSH1 0x60 DUP3 ADD MSTORE PUSH1 0xA SWAP1 SWAP2 ADD SLOAD PUSH1 0xFF AND ISZERO ISZERO PUSH1 0x80 SWAP1 SWAP2 ADD MSTORE DUP3 MLOAD DUP4 SWAP1 DUP4 SWAP1 DUP2 LT PUSH2 0x2A22 JUMPI PUSH2 0x2A22 PUSH2 0x59A8 JUMP JUMPDEST PUSH1 0x20 MUL PUSH1 0x20 ADD ADD DUP2 SWAP1 MSTORE POP DUP1 DUP1 PUSH2 0x2A38 SWAP1 PUSH2 0x59D4 JUMP JUMPDEST SWAP2 POP POP PUSH2 0x25DD JUMP JUMPDEST PUSH2 0x2A48 PUSH2 0x4719 JUMP JUMPDEST PUSH1 0x0 DUP2 DUP2 MSTORE PUSH1 0x7 PUSH1 0x20 MSTORE PUSH1 0x40 DUP2 KECCAK256 SLOAD SWAP1 SUB PUSH2 0x2A75 JUMPI PUSH1 0x40 MLOAD PUSH3 0x461BCD PUSH1 0xE5 SHL DUP2 MSTORE PUSH1 0x4 ADD PUSH2 0x850 SWAP1 PUSH2 0x5B84 JUMP JUMPDEST PUSH1 0x0 SWAP1 DUP2 MSTORE PUSH1 0x7 PUSH1 0x20 MSTORE PUSH1 0x40 SWAP1 KECCAK256 PUSH1 0xA ADD DUP1 SLOAD PUSH1 0xFF NOT DUP2 AND PUSH1 0xFF SWAP1 SWAP2 AND ISZERO OR SWAP1 SSTORE JUMP JUMPDEST PUSH2 0x2AA0 PUSH2 0x4719 JUMP JUMPDEST PUSH1 0x3 PUSH1 0x0 DUP2 SLOAD PUSH2 0x2AAF SWAP1 PUSH2 0x59D4 JUMP JUMPDEST SWAP1 SWAP2 SSTORE POP PUSH1 0x3 SLOAD PUSH1 0x40 DUP1 MLOAD PUSH2 0x140 DUP2 ADD DUP3 MSTORE DUP3 DUP2 MSTORE PUSH1 0x20 DUP1 DUP3 ADD DUP12 DUP2 MSTORE DUP3 DUP5 ADD DUP12 SWAP1 MSTORE PUSH1 0x60 DUP4 ADD DUP11 SWAP1 MSTORE PUSH1 0x80 DUP4 ADD DUP10 SWAP1 MSTORE PUSH1 0xA0 DUP4 ADD DUP9 SWAP1 MSTORE PUSH1 0xC0 DUP4 ADD DUP8 SWAP1 MSTORE PUSH1 0xE0 DUP4 ADD DUP7 SWAP1 MSTORE TIMESTAMP PUSH2 0x100 DUP5 ADD MSTORE PUSH1 0x1 PUSH2 0x120 DUP5 ADD DUP2 SWAP1 MSTORE PUSH1 0x0 DUP7 DUP2 MSTORE PUSH1 0x8 SWAP1 SWAP4 MSTORE SWAP4 SWAP1 SWAP2 KECCAK256 DUP3 MLOAD DUP2 SSTORE SWAP1 MLOAD SWAP2 SWAP3 SWAP1 SWAP2 SWAP1 DUP3 ADD SWAP1 PUSH2 0x2B2C SWAP1 DUP3 PUSH2 0x5A3C JUMP JUMPDEST POP PUSH1 0x40 DUP3 ADD MLOAD PUSH1 0x2 DUP3 ADD SWAP1 PUSH2 0x2B41 SWAP1 DUP3 PUSH2 0x5A3C JUMP JUMPDEST POP PUSH1 0x60 DUP3 ADD MLOAD PUSH1 0x3 DUP3 ADD SWAP1 PUSH2 0x2B56 SWAP1 DUP3 PUSH2 0x5A3C JUMP JUMPDEST POP PUSH1 0x80 DUP3 ADD MLOAD PUSH1 0x4 DUP3 ADD SWAP1 PUSH2 0x2B6B SWAP1 DUP3 PUSH2 0x5A3C JUMP JUMPDEST POP PUSH1 0xA0 DUP3 ADD MLOAD PUSH1 0x5 DUP3 ADD SWAP1 PUSH2 0x2B80 SWAP1 DUP3 PUSH2 0x5A3C JUMP JUMPDEST POP PUSH1 0xC0 DUP3 ADD MLOAD PUSH1 0x6 DUP3 ADD SWAP1 PUSH2 0x2B95 SWAP1 DUP3 PUSH2 0x5A3C JUMP JUMPDEST POP PUSH1 0xE0 DUP3 ADD MLOAD PUSH1 0x7 DUP3 ADD SWAP1 PUSH2 0x2BAA SWAP1 DUP3 PUSH2 0x5A3C JUMP JUMPDEST POP PUSH2 0x100 DUP3 ADD MLOAD PUSH1 0x8 DUP3 ADD SSTORE PUSH2 0x120 SWAP1 SWAP2 ADD MLOAD PUSH1 0x9 SWAP1 SWAP2 ADD DUP1 SLOAD PUSH1 0xFF NOT AND SWAP2 ISZERO ISZERO SWAP2 SWAP1 SWAP2 OR SWAP1 SSTORE PUSH1 0xF DUP1 SLOAD PUSH1 0x1 DUP2 ADD DUP3 SSTORE PUSH1 0x0 SWAP2 SWAP1 SWAP2 MSTORE PUSH32 0x8D1108E10BCB7C27DDDFC02ED9D693A074039D026CF4EA4240B40F7D581AC802 ADD DUP2 SWAP1 SSTORE PUSH1 0x40 MLOAD DUP2 SWAP1 PUSH32 0xF5BBB635E6E75237148E193E7D9EF620AB355D1D09EC782C89E43BFE5AF40CC8 SWAP1 PUSH2 0x2C38 SWAP1 DUP10 SWAP1 PUSH2 0x5AFB JUMP JUMPDEST PUSH1 0x40 MLOAD DUP1 SWAP2 SUB SWAP1 LOG2 POP POP POP POP POP POP POP POP JUMP JUMPDEST PUSH2 0x2C52 PUSH2 0x4719 JUMP JUMPDEST PUSH1 0x0 DUP8 DUP2 MSTORE PUSH1 0x7 PUSH1 0x20 MSTORE PUSH1 0x40 SWAP1 KECCAK256 PUSH1 0xA ADD SLOAD PUSH1 0xFF AND PUSH2 0x2CC1 JUMPI PUSH1 0x40 MLOAD PUSH3 0x461BCD PUSH1 0xE5 SHL DUP2 MSTORE PUSH1 0x20 PUSH1 0x4 DUP3 ADD MSTORE PUSH1 0x25 PUSH1 0x24 DUP3 ADD MSTORE PUSH32 0x50726F6A65637420646F6573206E6F74206578697374206F7220697320696E61 PUSH1 0x44 DUP3 ADD MSTORE PUSH5 0x6374697665 PUSH1 0xD8 SHL PUSH1 0x64 DUP3 ADD MSTORE PUSH1 0x84 ADD PUSH2 0x850 JUMP JUMPDEST PUSH1 0x0 DUP8 DUP2 MSTORE PUSH1 0x7 PUSH1 0x20 MSTORE PUSH1 0x40 SWAP1 KECCAK256 PUSH1 0x1 DUP2 ADD PUSH2 0x2CDD DUP9 DUP3 PUSH2 0x5A3C JUMP JUMPDEST POP PUSH1 0x2 DUP2 ADD PUSH2 0x2CEC DUP8 DUP3 PUSH2 0x5A3C JUMP JUMPDEST POP PUSH1 0x3 DUP2 ADD PUSH2 0x2CFB DUP7 DUP3 PUSH2 0x5A3C JUMP JUMPDEST POP PUSH1 0x4 DUP2 ADD PUSH2 0x2D0A DUP6 DUP3 PUSH2 0x5A3C JUMP JUMPDEST POP PUSH1 0x5 DUP2 ADD PUSH2 0x2D19 DUP5 DUP3 PUSH2 0x5A3C JUMP JUMPDEST POP DUP2 MLOAD PUSH2 0x2D2F SWAP1 PUSH1 0x6 DUP4 ADD SWAP1 PUSH1 0x20 DUP6 ADD SWAP1 PUSH2 0x47C0 JUMP JUMPDEST POP PUSH1 0x40 MLOAD DUP9 SWAP1 PUSH32 0xDA124279E8F8C56D142D1F8D79BA312AC54EB788B54F07B8040FF61EAF211009 SWAP1 PUSH1 0x0 SWAP1 LOG2 POP POP POP POP POP POP POP POP JUMP JUMPDEST PUSH2 0x2D6D PUSH2 0x4719 JUMP JUMPDEST PUSH1 0x0 DUP2 DUP2 MSTORE PUSH1 0x8 PUSH1 0x20 MSTORE PUSH1 0x40 DUP2 KECCAK256 SLOAD SWAP1 SUB PUSH2 0x2DCA JUMPI PUSH1 0x40 MLOAD PUSH3 0x461BCD PUSH1 0xE5 SHL DUP2 MSTORE PUSH1 0x20 PUSH1 0x4 DUP3 ADD MSTORE PUSH1 0x18 PUSH1 0x24 DUP3 ADD MSTORE PUSH32 0x456475636174696F6E20646F6573206E6F742065786973740000000000000000 PUSH1 0x44 DUP3 ADD MSTORE PUSH1 0x64 ADD PUSH2 0x850 JUMP JUMPDEST PUSH1 0x0 SWAP1 DUP2 MSTORE PUSH1 0x8 PUSH1 0x20 MSTORE PUSH1 0x40 SWAP1 KECCAK256 PUSH1 0x9 ADD DUP1 SLOAD PUSH1 0xFF NOT DUP2 AND PUSH1 0xFF SWAP1 SWAP2 AND ISZERO OR SWAP1 SSTORE JUMP JUMPDEST PUSH2 0x2DF5 PUSH2 0x4796 JUMP JUMPDEST PUSH1 0x0 CALLVALUE GT PUSH2 0x2E54 JUMPI PUSH1 0x40 MLOAD PUSH3 0x461BCD PUSH1 0xE5 SHL DUP2 MSTORE PUSH1 0x20 PUSH1 0x4 DUP3 ADD MSTORE PUSH1 0x26 PUSH1 0x24 DUP3 ADD MSTORE PUSH32 0x446F6E6174696F6E20616D6F756E74206D757374206265206772656174657220 PUSH1 0x44 DUP3 ADD MSTORE PUSH6 0x7468616E203 PUSH1 0xD4 SHL PUSH1 0x64 DUP3 ADD MSTORE PUSH1 0x84 ADD PUSH2 0x850 JUMP JUMPDEST CALLVALUE PUSH1 0x13 PUSH1 0x7 ADD PUSH1 0x0 DUP3 DUP3 SLOAD PUSH2 0x2E69 SWAP2 SWAP1 PUSH2 0x5BB4 JUMP JUMPDEST SWAP1 SWAP2 SSTORE POP POP PUSH1 0x0 DUP1 SLOAD PUSH1 0x40 MLOAD PUSH1 0x1 PUSH1 0x1 PUSH1 0xA0 SHL SUB SWAP1 SWAP2 AND SWAP1 CALLVALUE SWAP1 DUP4 DUP2 DUP2 DUP2 DUP6 DUP8 GAS CALL SWAP3 POP POP POP RETURNDATASIZE DUP1 PUSH1 0x0 DUP2 EQ PUSH2 0x2EBB JUMPI PUSH1 0x40 MLOAD SWAP2 POP PUSH1 0x1F NOT PUSH1 0x3F RETURNDATASIZE ADD AND DUP3 ADD PUSH1 0x40 MSTORE RETURNDATASIZE DUP3 MSTORE RETURNDATASIZE PUSH1 0x0 PUSH1 0x20 DUP5 ADD RETURNDATACOPY PUSH2 0x2EC0 JUMP JUMPDEST PUSH1 0x60 SWAP2 POP JUMPDEST POP POP SWAP1 POP DUP1 PUSH2 0x2F11 JUMPI PUSH1 0x40 MLOAD PUSH3 0x461BCD PUSH1 0xE5 SHL DUP2 MSTORE PUSH1 0x20 PUSH1 0x4 DUP3 ADD MSTORE PUSH1 0x18 PUSH1 0x24 DUP3 ADD MSTORE PUSH32 0x446F6E6174696F6E207472616E73666572206661696C65640000000000000000 PUSH1 0x44 DUP3 ADD MSTORE PUSH1 0x64 ADD PUSH2 0x850 JUMP JUMPDEST PUSH1 0x40 MLOAD CALLVALUE DUP2 MSTORE CALLER SWAP1 PUSH32 0x264F630D9EFA0D07053A31163641D9FCC0ADAFC9D9E76F1C37C2CE3A558D2C52 SWAP1 PUSH1 0x20 ADD PUSH1 0x40 MLOAD DUP1 SWAP2 SUB SWAP1 LOG2 POP PUSH2 0x1F0F PUSH1 0x1 DUP1 SSTORE JUMP JUMPDEST PUSH2 0x2F58 PUSH2 0x4719 JUMP JUMPDEST PUSH1 0x4 PUSH1 0x0 DUP2 SLOAD PUSH2 0x2F67 SWAP1 PUSH2 0x59D4 JUMP JUMPDEST SWAP1 SWAP2 SSTORE POP PUSH1 0x4 SLOAD PUSH1 0x40 DUP1 MLOAD PUSH2 0x140 DUP2 ADD DUP3 MSTORE DUP3 DUP2 MSTORE PUSH1 0x20 DUP1 DUP3 ADD DUP12 DUP2 MSTORE DUP3 DUP5 ADD DUP12 SWAP1 MSTORE PUSH1 0x60 DUP4 ADD DUP11 SWAP1 MSTORE PUSH1 0x80 DUP4 ADD DUP10 SWAP1 MSTORE PUSH1 0xA0 DUP4 ADD DUP9 SWAP1 MSTORE PUSH1 0xC0 DUP4 ADD DUP8 SWAP1 MSTORE PUSH1 0xE0 DUP4 ADD DUP7 SWAP1 MSTORE TIMESTAMP PUSH2 0x100 DUP5 ADD MSTORE PUSH1 0x1 PUSH2 0x120 DUP5 ADD DUP2 SWAP1 MSTORE PUSH1 0x0 DUP7 DUP2 MSTORE PUSH1 0x9 SWAP1 SWAP4 MSTORE SWAP4 SWAP1 SWAP2 KECCAK256 DUP3 MLOAD DUP2 SSTORE SWAP1 MLOAD SWAP2 SWAP3 SWAP1 SWAP2 SWAP1 DUP3 ADD SWAP1 PUSH2 0x2FE4 SWAP1 DUP3 PUSH2 0x5A3C JUMP JUMPDEST POP PUSH1 0x40 DUP3 ADD MLOAD PUSH1 0x2 DUP3 ADD SWAP1 PUSH2 0x2FF9 SWAP1 DUP3 PUSH2 0x5A3C JUMP JUMPDEST POP PUSH1 0x60 DUP3 ADD MLOAD PUSH1 0x3 DUP3 ADD SWAP1 PUSH2 0x300E SWAP1 DUP3 PUSH2 0x5A3C JUMP JUMPDEST POP PUSH1 0x80 DUP3 ADD MLOAD PUSH1 0x4 DUP3 ADD SWAP1 PUSH2 0x3023 SWAP1 DUP3 PUSH2 0x5A3C JUMP JUMPDEST POP PUSH1 0xA0 DUP3 ADD MLOAD PUSH1 0x5 DUP3 ADD SWAP1 PUSH2 0x3038 SWAP1 DUP3 PUSH2 0x5A3C JUMP JUMPDEST POP PUSH1 0xC0 DUP3 ADD MLOAD PUSH1 0x6 DUP3 ADD SWAP1 PUSH2 0x304D SWAP1 DUP3 PUSH2 0x5A3C JUMP JUMPDEST POP PUSH1 0xE0 DUP3 ADD MLOAD DUP1 MLOAD PUSH2 0x3069 SWAP2 PUSH1 0x7 DUP5 ADD SWAP2 PUSH1 0x20 SWAP1 SWAP2 ADD SWAP1 PUSH2 0x47C0 JUMP JUMPDEST POP PUSH2 0x100 DUP3 ADD MLOAD PUSH1 0x8 DUP3 ADD SSTORE PUSH2 0x120 SWAP1 SWAP2 ADD MLOAD PUSH1 0x9 SWAP1 SWAP2 ADD DUP1 SLOAD PUSH1 0xFF NOT AND SWAP2 ISZERO ISZERO SWAP2 SWAP1 SWAP2 OR SWAP1 SSTORE PUSH1 0x10 DUP1 SLOAD PUSH1 0x1 DUP2 ADD DUP3 SSTORE PUSH1 0x0 SWAP2 SWAP1 SWAP2 MSTORE PUSH32 0x1B6847DC741A1B0CD08D278845F9D819D87B734759AFB55FE2DE5CB82A9AE672 ADD DUP2 SWAP1 SSTORE PUSH1 0x40 MLOAD DUP2 SWAP1 PUSH32 0x7BAB0D14DCD32266C701747FA8B71424D340A4B0F4F864A4D4B8A92538B22C03 SWAP1 PUSH2 0x2C38 SWAP1 DUP10 SWAP1 PUSH2 0x5AFB JUMP JUMPDEST PUSH1 0x11 SLOAD PUSH1 0x60 SWAP1 PUSH1 0x0 SWAP1 PUSH1 0x1 PUSH1 0x1 PUSH1 0x40 SHL SUB DUP2 GT ISZERO PUSH2 0x3117 JUMPI PUSH2 0x3117 PUSH2 0x4B90 JUMP JUMPDEST PUSH1 0x40 MLOAD SWAP1 DUP1 DUP3 MSTORE DUP1 PUSH1 0x20 MUL PUSH1 0x20 ADD DUP3 ADD PUSH1 0x40 MSTORE DUP1 ISZERO PUSH2 0x318A JUMPI DUP2 PUSH1 0x20 ADD JUMPDEST PUSH2 0x3177 PUSH1 0x40 MLOAD DUP1 PUSH1 0xE0 ADD PUSH1 0x40 MSTORE DUP1 PUSH1 0x0 DUP2 MSTORE PUSH1 0x20 ADD PUSH1 0x60 DUP2 MSTORE PUSH1 0x20 ADD PUSH1 0x60 DUP2 MSTORE PUSH1 0x20 ADD PUSH1 0x60 DUP2 MSTORE PUSH1 0x20 ADD PUSH1 0x0 DUP2 MSTORE PUSH1 0x20 ADD PUSH1 0x0 DUP2 MSTORE PUSH1 0x20 ADD PUSH1 0x0 ISZERO ISZERO DUP2 MSTORE POP SWAP1 JUMP JUMPDEST DUP2 MSTORE PUSH1 0x20 ADD SWAP1 PUSH1 0x1 SWAP1 SUB SWAP1 DUP2 PUSH2 0x3135 JUMPI SWAP1 POP JUMPDEST POP SWAP1 POP PUSH1 0x0 JUMPDEST PUSH1 0x11 SLOAD DUP2 LT ISZERO PUSH2 0x1105 JUMPI PUSH1 0xA PUSH1 0x0 PUSH1 0x11 DUP4 DUP2 SLOAD DUP2 LT PUSH2 0x31B1 JUMPI PUSH2 0x31B1 PUSH2 0x59A8 JUMP JUMPDEST SWAP1 PUSH1 0x0 MSTORE PUSH1 0x20 PUSH1 0x0 KECCAK256 ADD SLOAD DUP2 MSTORE PUSH1 0x20 ADD SWAP1 DUP2 MSTORE PUSH1 0x20 ADD PUSH1 0x0 KECCAK256 PUSH1 0x40 MLOAD DUP1 PUSH1 0xE0 ADD PUSH1 0x40 MSTORE SWAP1 DUP2 PUSH1 0x0 DUP3 ADD SLOAD DUP2 MSTORE PUSH1 0x20 ADD PUSH1 0x1 DUP3 ADD DUP1 SLOAD PUSH2 0x31EF SWAP1 PUSH2 0x5974 JUMP JUMPDEST DUP1 PUSH1 0x1F ADD PUSH1 0x20 DUP1 SWAP2 DIV MUL PUSH1 0x20 ADD PUSH1 0x40 MLOAD SWAP1 DUP2 ADD PUSH1 0x40 MSTORE DUP1 SWAP3 SWAP2 SWAP1 DUP2 DUP2 MSTORE PUSH1 0x20 ADD DUP3 DUP1 SLOAD PUSH2 0x321B SWAP1 PUSH2 0x5974 JUMP JUMPDEST DUP1 ISZERO PUSH2 0x3268 JUMPI DUP1 PUSH1 0x1F LT PUSH2 0x323D JUMPI PUSH2 0x100 DUP1 DUP4 SLOAD DIV MUL DUP4 MSTORE SWAP2 PUSH1 0x20 ADD SWAP2 PUSH2 0x3268 JUMP JUMPDEST DUP3 ADD SWAP2 SWAP1 PUSH1 0x0 MSTORE PUSH1 0x20 PUSH1 0x0 KECCAK256 SWAP1 JUMPDEST DUP2 SLOAD DUP2 MSTORE SWAP1 PUSH1 0x1 ADD SWAP1 PUSH1 0x20 ADD DUP1 DUP4 GT PUSH2 0x324B JUMPI DUP3 SWAP1 SUB PUSH1 0x1F AND DUP3 ADD SWAP2 JUMPDEST POP POP POP POP POP DUP2 MSTORE PUSH1 0x20 ADD PUSH1 0x2 DUP3 ADD DUP1 SLOAD PUSH2 0x3281 SWAP1 PUSH2 0x5974 JUMP JUMPDEST DUP1 PUSH1 0x1F ADD PUSH1 0x20 DUP1 SWAP2 DIV MUL PUSH1 0x20 ADD PUSH1 0x40 MLOAD SWAP1 DUP2 ADD PUSH1 0x40 MSTORE DUP1 SWAP3 SWAP2 SWAP1 DUP2 DUP2 MSTORE PUSH1 0x20 ADD DUP3 DUP1 SLOAD PUSH2 0x32AD SWAP1 PUSH2 0x5974 JUMP JUMPDEST DUP1 ISZERO PUSH2 0x32FA JUMPI DUP1 PUSH1 0x1F LT PUSH2 0x32CF JUMPI PUSH2 0x100 DUP1 DUP4 SLOAD DIV MUL DUP4 MSTORE SWAP2 PUSH1 0x20 ADD SWAP2 PUSH2 0x32FA JUMP JUMPDEST DUP3 ADD SWAP2 SWAP1 PUSH1 0x0 MSTORE PUSH1 0x20 PUSH1 0x0 KECCAK256 SWAP1 JUMPDEST DUP2 SLOAD DUP2 MSTORE SWAP1 PUSH1 0x1 ADD SWAP1 PUSH1 0x20 ADD DUP1 DUP4 GT PUSH2 0x32DD JUMPI DUP3 SWAP1 SUB PUSH1 0x1F AND DUP3 ADD SWAP2 JUMPDEST POP POP POP POP POP DUP2 MSTORE PUSH1 0x20 ADD PUSH1 0x3 DUP3 ADD DUP1 SLOAD PUSH2 0x3313 SWAP1 PUSH2 0x5974 JUMP JUMPDEST DUP1 PUSH1 0x1F ADD PUSH1 0x20 DUP1 SWAP2 DIV MUL PUSH1 0x20 ADD PUSH1 0x40 MLOAD SWAP1 DUP2 ADD PUSH1 0x40 MSTORE DUP1 SWAP3 SWAP2 SWAP1 DUP2 DUP2 MSTORE PUSH1 0x20 ADD DUP3 DUP1 SLOAD PUSH2 0x333F SWAP1 PUSH2 0x5974 JUMP JUMPDEST DUP1 ISZERO PUSH2 0x338C JUMPI DUP1 PUSH1 0x1F LT PUSH2 0x3361 JUMPI PUSH2 0x100 DUP1 DUP4 SLOAD DIV MUL DUP4 MSTORE SWAP2 PUSH1 0x20 ADD SWAP2 PUSH2 0x338C JUMP JUMPDEST DUP3 ADD SWAP2 SWAP1 PUSH1 0x0 MSTORE PUSH1 0x20 PUSH1 0x0 KECCAK256 SWAP1 JUMPDEST DUP2 SLOAD DUP2 MSTORE SWAP1 PUSH1 0x1 ADD SWAP1 PUSH1 0x20 ADD DUP1 DUP4 GT PUSH2 0x336F JUMPI DUP3 SWAP1 SUB PUSH1 0x1F AND DUP3 ADD SWAP2 JUMPDEST POP POP POP SWAP2 DUP4 MSTORE POP POP PUSH1 0x4 DUP3 ADD SLOAD PUSH1 0x20 DUP3 ADD MSTORE PUSH1 0x5 DUP3 ADD SLOAD PUSH1 0x40 DUP3 ADD MSTORE PUSH1 0x6 SWAP1 SWAP2 ADD SLOAD PUSH1 0xFF AND ISZERO ISZERO PUSH1 0x60 SWAP1 SWAP2 ADD MSTORE DUP3 MLOAD DUP4 SWAP1 DUP4 SWAP1 DUP2 LT PUSH2 0x33CD JUMPI PUSH2 0x33CD PUSH2 0x59A8 JUMP JUMPDEST PUSH1 0x20 MUL PUSH1 0x20 ADD ADD DUP2 SWAP1 MSTORE POP DUP1 DUP1 PUSH2 0x33E3 SWAP1 PUSH2 0x59D4 JUMP JUMPDEST SWAP2 POP POP PUSH2 0x3190 JUMP JUMPDEST PUSH2 0x33F3 PUSH2 0x4719 JUMP JUMPDEST PUSH1 0x13 PUSH2 0x33FF DUP9 DUP3 PUSH2 0x5A3C JUMP JUMPDEST POP PUSH1 0x14 PUSH2 0x340C DUP8 DUP3 PUSH2 0x5A3C JUMP JUMPDEST POP PUSH1 0x15 PUSH2 0x3419 DUP7 DUP3 PUSH2 0x5A3C JUMP JUMPDEST POP PUSH1 0x16 PUSH2 0x3426 DUP6 DUP3 PUSH2 0x5A3C JUMP JUMPDEST POP PUSH1 0x17 PUSH2 0x3433 DUP5 DUP3 PUSH2 0x5A3C JUMP JUMPDEST POP DUP2 MLOAD PUSH2 0x3447 SWAP1 PUSH1 0x18 SWAP1 PUSH1 0x20 DUP6 ADD SWAP1 PUSH2 0x47C0 JUMP JUMPDEST POP PUSH1 0x19 PUSH2 0x3454 DUP3 DUP3 PUSH2 0x5A3C JUMP JUMPDEST POP TIMESTAMP PUSH1 0x1C SSTORE PUSH1 0x40 MLOAD PUSH32 0xA5A5AB76615C969594387069888E113FE2C9E39BD533A63259EBB8D7A3C41853 SWAP1 PUSH1 0x0 SWAP1 LOG1 POP POP POP POP POP POP POP JUMP JUMPDEST PUSH1 0x9 PUSH1 0x20 MSTORE PUSH1 0x0 SWAP1 DUP2 MSTORE PUSH1 0x40 SWAP1 KECCAK256 DUP1 SLOAD PUSH1 0x1 DUP3 ADD DUP1 SLOAD SWAP2 SWAP3 SWAP2 PUSH2 0x34AD SWAP1 PUSH2 0x5974 JUMP JUMPDEST DUP1 PUSH1 0x1F ADD PUSH1 0x20 DUP1 SWAP2 DIV MUL PUSH1 0x20 ADD PUSH1 0x40 MLOAD SWAP1 DUP2 ADD PUSH1 0x40 MSTORE DUP1 SWAP3 SWAP2 SWAP1 DUP2 DUP2 MSTORE PUSH1 0x20 ADD DUP3 DUP1 SLOAD PUSH2 0x34D9 SWAP1 PUSH2 0x5974 JUMP JUMPDEST DUP1 ISZERO PUSH2 0x3526 JUMPI DUP1 PUSH1 0x1F LT PUSH2 0x34FB JUMPI PUSH2 0x100 DUP1 DUP4 SLOAD DIV MUL DUP4 MSTORE SWAP2 PUSH1 0x20 ADD SWAP2 PUSH2 0x3526 JUMP JUMPDEST DUP3 ADD SWAP2 SWAP1 PUSH1 0x0 MSTORE PUSH1 0x20 PUSH1 0x0 KECCAK256 SWAP1 JUMPDEST DUP2 SLOAD DUP2 MSTORE SWAP1 PUSH1 0x1 ADD SWAP1 PUSH1 0x20 ADD DUP1 DUP4 GT PUSH2 0x3509 JUMPI DUP3 SWAP1 SUB PUSH1 0x1F AND DUP3 ADD SWAP2 JUMPDEST POP POP POP POP POP SWAP1 DUP1 PUSH1 0x2 ADD DUP1 SLOAD PUSH2 0x353B SWAP1 PUSH2 0x5974 JUMP JUMPDEST DUP1 PUSH1 0x1F ADD PUSH1 0x20 DUP1 SWAP2 DIV MUL PUSH1 0x20 ADD PUSH1 0x40 MLOAD SWAP1 DUP2 ADD PUSH1 0x40 MSTORE DUP1 SWAP3 SWAP2 SWAP1 DUP2 DUP2 MSTORE PUSH1 0x20 ADD DUP3 DUP1 SLOAD PUSH2 0x3567 SWAP1 PUSH2 0x5974 JUMP JUMPDEST DUP1 ISZERO PUSH2 0x35B4 JUMPI DUP1 PUSH1 0x1F LT PUSH2 0x3589 JUMPI PUSH2 0x100 DUP1 DUP4 SLOAD DIV MUL DUP4 MSTORE SWAP2 PUSH1 0x20 ADD SWAP2 PUSH2 0x35B4 JUMP JUMPDEST DUP3 ADD SWAP2 SWAP1 PUSH1 0x0 MSTORE PUSH1 0x20 PUSH1 0x0 KECCAK256 SWAP1 JUMPDEST DUP2 SLOAD DUP2 MSTORE SWAP1 PUSH1 0x1 ADD SWAP1 PUSH1 0x20 ADD DUP1 DUP4 GT PUSH2 0x3597 JUMPI DUP3 SWAP1 SUB PUSH1 0x1F AND DUP3 ADD SWAP2 JUMPDEST POP POP POP POP POP SWAP1 DUP1 PUSH1 0x3 ADD DUP1 SLOAD PUSH2 0x35C9 SWAP1 PUSH2 0x5974 JUMP JUMPDEST DUP1 PUSH1 0x1F ADD PUSH1 0x20 DUP1 SWAP2 DIV MUL PUSH1 0x20 ADD PUSH1 0x40 MLOAD SWAP1 DUP2 ADD PUSH1 0x40 MSTORE DUP1 SWAP3 SWAP2 SWAP1 DUP2 DUP2 MSTORE PUSH1 0x20 ADD DUP3 DUP1 SLOAD PUSH2 0x35F5 SWAP1 PUSH2 0x5974 JUMP JUMPDEST DUP1 ISZERO PUSH2 0x3642 JUMPI DUP1 PUSH1 0x1F LT PUSH2 0x3617 JUMPI PUSH2 0x100 DUP1 DUP4 SLOAD DIV MUL DUP4 MSTORE SWAP2 PUSH1 0x20 ADD SWAP2 PUSH2 0x3642 JUMP JUMPDEST DUP3 ADD SWAP2 SWAP1 PUSH1 0x0 MSTORE PUSH1 0x20 PUSH1 0x0 KECCAK256 SWAP1 JUMPDEST DUP2 SLOAD DUP2 MSTORE SWAP1 PUSH1 0x1 ADD SWAP1 PUSH1 0x20 ADD DUP1 DUP4 GT PUSH2 0x3625 JUMPI DUP3 SWAP1 SUB PUSH1 0x1F AND DUP3 ADD SWAP2 JUMPDEST POP POP POP POP POP SWAP1 DUP1 PUSH1 0x4 ADD DUP1 SLOAD PUSH2 0x3657 SWAP1 PUSH2 0x5974 JUMP JUMPDEST DUP1 PUSH1 0x1F ADD PUSH1 0x20 DUP1 SWAP2 DIV MUL PUSH1 0x20 ADD PUSH1 0x40 MLOAD SWAP1 DUP2 ADD PUSH1 0x40 MSTORE DUP1 SWAP3 SWAP2 SWAP1 DUP2 DUP2 MSTORE PUSH1 0x20 ADD DUP3 DUP1 SLOAD PUSH2 0x3683 SWAP1 PUSH2 0x5974 JUMP JUMPDEST DUP1 ISZERO PUSH2 0x36D0 JUMPI DUP1 PUSH1 0x1F LT PUSH2 0x36A5 JUMPI PUSH2 0x100 DUP1 DUP4 SLOAD DIV MUL DUP4 MSTORE SWAP2 PUSH1 0x20 ADD SWAP2 PUSH2 0x36D0 JUMP JUMPDEST DUP3 ADD SWAP2 SWAP1 PUSH1 0x0 MSTORE PUSH1 0x20 PUSH1 0x0 KECCAK256 SWAP1 JUMPDEST DUP2 SLOAD DUP2 MSTORE SWAP1 PUSH1 0x1 ADD SWAP1 PUSH1 0x20 ADD DUP1 DUP4 GT PUSH2 0x36B3 JUMPI DUP3 SWAP1 SUB PUSH1 0x1F AND DUP3 ADD SWAP2 JUMPDEST POP POP POP POP POP SWAP1 DUP1 PUSH1 0x5 ADD DUP1 SLOAD PUSH2 0x36E5 SWAP1 PUSH2 0x5974 JUMP JUMPDEST DUP1 PUSH1 0x1F ADD PUSH1 0x20 DUP1 SWAP2 DIV MUL PUSH1 0x20 ADD PUSH1 0x40 MLOAD SWAP1 DUP2 ADD PUSH1 0x40 MSTORE DUP1 SWAP3 SWAP2 SWAP1 DUP2 DUP2 MSTORE PUSH1 0x20 ADD DUP3 DUP1 SLOAD PUSH2 0x3711 SWAP1 PUSH2 0x5974 JUMP JUMPDEST DUP1 ISZERO PUSH2 0x375E JUMPI DUP1 PUSH1 0x1F LT PUSH2 0x3733 JUMPI PUSH2 0x100 DUP1 DUP4 SLOAD DIV MUL DUP4 MSTORE SWAP2 PUSH1 0x20 ADD SWAP2 PUSH2 0x375E JUMP JUMPDEST DUP3 ADD SWAP2 SWAP1 PUSH1 0x0 MSTORE PUSH1 0x20 PUSH1 0x0 KECCAK256 SWAP1 JUMPDEST DUP2 SLOAD DUP2 MSTORE SWAP1 PUSH1 0x1 ADD SWAP1 PUSH1 0x20 ADD DUP1 DUP4 GT PUSH2 0x3741 JUMPI DUP3 SWAP1 SUB PUSH1 0x1F AND DUP3 ADD SWAP2 JUMPDEST POP POP POP POP POP SWAP1 DUP1 PUSH1 0x6 ADD DUP1 SLOAD PUSH2 0x3773 SWAP1 PUSH2 0x5974 JUMP JUMPDEST DUP1 PUSH1 0x1F ADD PUSH1 0x20 DUP1 SWAP2 DIV MUL PUSH1 0x20 ADD PUSH1 0x40 MLOAD SWAP1 DUP2 ADD PUSH1 0x40 MSTORE DUP1 SWAP3 SWAP2 SWAP1 DUP2 DUP2 MSTORE PUSH1 0x20 ADD DUP3 DUP1 SLOAD PUSH2 0x379F SWAP1 PUSH2 0x5974 JUMP JUMPDEST DUP1 ISZERO PUSH2 0x37EC JUMPI DUP1 PUSH1 0x1F LT PUSH2 0x37C1 JUMPI PUSH2 0x100 DUP1 DUP4 SLOAD DIV MUL DUP4 MSTORE SWAP2 PUSH1 0x20 ADD SWAP2 PUSH2 0x37EC JUMP JUMPDEST DUP3 ADD SWAP2 SWAP1 PUSH1 0x0 MSTORE PUSH1 0x20 PUSH1 0x0 KECCAK256 SWAP1 JUMPDEST DUP2 SLOAD DUP2 MSTORE SWAP1 PUSH1 0x1 ADD SWAP1 PUSH1 0x20 ADD DUP1 DUP4 GT PUSH2 0x37CF JUMPI DUP3 SWAP1 SUB PUSH1 0x1F AND DUP3 ADD SWAP2 JUMPDEST POP POP POP POP PUSH1 0x8 DUP4 ADD SLOAD PUSH1 0x9 SWAP1 SWAP4 ADD SLOAD SWAP2 SWAP3 SWAP2 PUSH1 0xFF AND SWAP1 POP DUP10 JUMP JUMPDEST PUSH1 0x1B DUP1 SLOAD SWAP1 PUSH1 0x0 PUSH2 0x3816 DUP4 PUSH2 0x59D4 JUMP JUMPDEST SWAP2 SWAP1 POP SSTORE POP JUMP JUMPDEST PUSH1 0xF SLOAD PUSH1 0x60 SWAP1 PUSH1 0x0 SWAP1 PUSH1 0x1 PUSH1 0x1 PUSH1 0x40 SHL SUB DUP2 GT ISZERO PUSH2 0x383D JUMPI PUSH2 0x383D PUSH2 0x4B90 JUMP JUMPDEST PUSH1 0x40 MLOAD SWAP1 DUP1 DUP3 MSTORE DUP1 PUSH1 0x20 MUL PUSH1 0x20 ADD DUP3 ADD PUSH1 0x40 MSTORE DUP1 ISZERO PUSH2 0x38C6 JUMPI DUP2 PUSH1 0x20 ADD JUMPDEST PUSH2 0x38B3 PUSH1 0x40 MLOAD DUP1 PUSH2 0x140 ADD PUSH1 0x40 MSTORE DUP1 PUSH1 0x0 DUP2 MSTORE PUSH1 0x20 ADD PUSH1 0x60 DUP2 MSTORE PUSH1 0x20 ADD PUSH1 0x60 DUP2 MSTORE PUSH1 0x20 ADD PUSH1 0x60 DUP2 MSTORE PUSH1 0x20 ADD PUSH1 0x60 DUP2 MSTORE PUSH1 0x20 ADD PUSH1 0x60 DUP2 MSTORE PUSH1 0x20 ADD PUSH1 0x60 DUP2 MSTORE PUSH1 0x20 ADD PUSH1 0x60 DUP2 MSTORE PUSH1 0x20 ADD PUSH1 0x0 DUP2 MSTORE PUSH1 0x20 ADD PUSH1 0x0 ISZERO ISZERO DUP2 MSTORE POP SWAP1 JUMP JUMPDEST DUP2 MSTORE PUSH1 0x20 ADD SWAP1 PUSH1 0x1 SWAP1 SUB SWAP1 DUP2 PUSH2 0x385B JUMPI SWAP1 POP JUMPDEST POP SWAP1 POP PUSH1 0x0 JUMPDEST PUSH1 0xF SLOAD DUP2 LT ISZERO PUSH2 0x1105 JUMPI PUSH1 0x8 PUSH1 0x0 PUSH1 0xF DUP4 DUP2 SLOAD DUP2 LT PUSH2 0x38ED JUMPI PUSH2 0x38ED PUSH2 0x59A8 JUMP JUMPDEST SWAP1 PUSH1 0x0 MSTORE PUSH1 0x20 PUSH1 0x0 KECCAK256 ADD SLOAD DUP2 MSTORE PUSH1 0x20 ADD SWAP1 DUP2 MSTORE PUSH1 0x20 ADD PUSH1 0x0 KECCAK256 PUSH1 0x40 MLOAD DUP1 PUSH2 0x140 ADD PUSH1 0x40 MSTORE SWAP1 DUP2 PUSH1 0x0 DUP3 ADD SLOAD DUP2 MSTORE PUSH1 0x20 ADD PUSH1 0x1 DUP3 ADD DUP1 SLOAD PUSH2 0x392C SWAP1 PUSH2 0x5974 JUMP JUMPDEST DUP1 PUSH1 0x1F ADD PUSH1 0x20 DUP1 SWAP2 DIV MUL PUSH1 0x20 ADD PUSH1 0x40 MLOAD SWAP1 DUP2 ADD PUSH1 0x40 MSTORE DUP1 SWAP3 SWAP2 SWAP1 DUP2 DUP2 MSTORE PUSH1 0x20 ADD DUP3 DUP1 SLOAD PUSH2 0x3958 SWAP1 PUSH2 0x5974 JUMP JUMPDEST DUP1 ISZERO PUSH2 0x39A5 JUMPI DUP1 PUSH1 0x1F LT PUSH2 0x397A JUMPI PUSH2 0x100 DUP1 DUP4 SLOAD DIV MUL DUP4 MSTORE SWAP2 PUSH1 0x20 ADD SWAP2 PUSH2 0x39A5 JUMP JUMPDEST DUP3 ADD SWAP2 SWAP1 PUSH1 0x0 MSTORE PUSH1 0x20 PUSH1 0x0 KECCAK256 SWAP1 JUMPDEST DUP2 SLOAD DUP2 MSTORE SWAP1 PUSH1 0x1 ADD SWAP1 PUSH1 0x20 ADD DUP1 DUP4 GT PUSH2 0x3988 JUMPI DUP3 SWAP1 SUB PUSH1 0x1F AND DUP3 ADD SWAP2 JUMPDEST POP POP POP POP POP DUP2 MSTORE PUSH1 0x20 ADD PUSH1 0x2 DUP3 ADD DUP1 SLOAD PUSH2 0x39BE SWAP1 PUSH2 0x5974 JUMP JUMPDEST DUP1 PUSH1 0x1F ADD PUSH1 0x20 DUP1 SWAP2 DIV MUL PUSH1 0x20 ADD PUSH1 0x40 MLOAD SWAP1 DUP2 ADD PUSH1 0x40 MSTORE DUP1 SWAP3 SWAP2 SWAP1 DUP2 DUP2 MSTORE PUSH1 0x20 ADD DUP3 DUP1 SLOAD PUSH2 0x39EA SWAP1 PUSH2 0x5974 JUMP JUMPDEST DUP1 ISZERO PUSH2 0x3A37 JUMPI DUP1 PUSH1 0x1F LT PUSH2 0x3A0C JUMPI PUSH2 0x100 DUP1 DUP4 SLOAD DIV MUL DUP4 MSTORE SWAP2 PUSH1 0x20 ADD SWAP2 PUSH2 0x3A37 JUMP JUMPDEST DUP3 ADD SWAP2 SWAP1 PUSH1 0x0 MSTORE PUSH1 0x20 PUSH1 0x0 KECCAK256 SWAP1 JUMPDEST DUP2 SLOAD DUP2 MSTORE SWAP1 PUSH1 0x1 ADD SWAP1 PUSH1 0x20 ADD DUP1 DUP4 GT PUSH2 0x3A1A JUMPI DUP3 SWAP1 SUB PUSH1 0x1F AND DUP3 ADD SWAP2 JUMPDEST POP POP POP POP POP DUP2 MSTORE PUSH1 0x20 ADD PUSH1 0x3 DUP3 ADD DUP1 SLOAD PUSH2 0x3A50 SWAP1 PUSH2 0x5974 JUMP JUMPDEST DUP1 PUSH1 0x1F ADD PUSH1 0x20 DUP1 SWAP2 DIV MUL PUSH1 0x20 ADD PUSH1 0x40 MLOAD SWAP1 DUP2 ADD PUSH1 0x40 MSTORE DUP1 SWAP3 SWAP2 SWAP1 DUP2 DUP2 MSTORE PUSH1 0x20 ADD DUP3 DUP1 SLOAD PUSH2 0x3A7C SWAP1 PUSH2 0x5974 JUMP JUMPDEST DUP1 ISZERO PUSH2 0x3AC9 JUMPI DUP1 PUSH1 0x1F LT PUSH2 0x3A9E JUMPI PUSH2 0x100 DUP1 DUP4 SLOAD DIV MUL DUP4 MSTORE SWAP2 PUSH1 0x20 ADD SWAP2 PUSH2 0x3AC9 JUMP JUMPDEST DUP3 ADD SWAP2 SWAP1 PUSH1 0x0 MSTORE PUSH1 0x20 PUSH1 0x0 KECCAK256 SWAP1 JUMPDEST DUP2 SLOAD DUP2 MSTORE SWAP1 PUSH1 0x1 ADD SWAP1 PUSH1 0x20 ADD DUP1 DUP4 GT PUSH2 0x3AAC JUMPI DUP3 SWAP1 SUB PUSH1 0x1F AND DUP3 ADD SWAP2 JUMPDEST POP POP POP POP POP DUP2 MSTORE PUSH1 0x20 ADD PUSH1 0x4 DUP3 ADD DUP1 SLOAD PUSH2 0x3AE2 SWAP1 PUSH2 0x5974 JUMP JUMPDEST DUP1 PUSH1 0x1F ADD PUSH1 0x20 DUP1 SWAP2 DIV MUL PUSH1 0x20 ADD PUSH1 0x40 MLOAD SWAP1 DUP2 ADD PUSH1 0x40 MSTORE DUP1 SWAP3 SWAP2 SWAP1 DUP2 DUP2 MSTORE PUSH1 0x20 ADD DUP3 DUP1 SLOAD PUSH2 0x3B0E SWAP1 PUSH2 0x5974 JUMP JUMPDEST DUP1 ISZERO PUSH2 0x3B5B JUMPI DUP1 PUSH1 0x1F LT PUSH2 0x3B30 JUMPI PUSH2 0x100 DUP1 DUP4 SLOAD DIV MUL DUP4 MSTORE SWAP2 PUSH1 0x20 ADD SWAP2 PUSH2 0x3B5B JUMP JUMPDEST DUP3 ADD SWAP2 SWAP1 PUSH1 0x0 MSTORE PUSH1 0x20 PUSH1 0x0 KECCAK256 SWAP1 JUMPDEST DUP2 SLOAD DUP2 MSTORE SWAP1 PUSH1 0x1 ADD SWAP1 PUSH1 0x20 ADD DUP1 DUP4 GT PUSH2 0x3B3E JUMPI DUP3 SWAP1 SUB PUSH1 0x1F AND DUP3 ADD SWAP2 JUMPDEST POP POP POP POP POP DUP2 MSTORE PUSH1 0x20 ADD PUSH1 0x5 DUP3 ADD DUP1 SLOAD PUSH2 0x3B74 SWAP1 PUSH2 0x5974 JUMP JUMPDEST DUP1 PUSH1 0x1F ADD PUSH1 0x20 DUP1 SWAP2 DIV MUL PUSH1 0x20 ADD PUSH1 0x40 MLOAD SWAP1 DUP2 ADD PUSH1 0x40 MSTORE DUP1 SWAP3 SWAP2 SWAP1 DUP2 DUP2 MSTORE PUSH1 0x20 ADD DUP3 DUP1 SLOAD PUSH2 0x3BA0 SWAP1 PUSH2 0x5974 JUMP JUMPDEST DUP1 ISZERO PUSH2 0x3BED JUMPI DUP1 PUSH1 0x1F LT PUSH2 0x3BC2 JUMPI PUSH2 0x100 DUP1 DUP4 SLOAD DIV MUL DUP4 MSTORE SWAP2 PUSH1 0x20 ADD SWAP2 PUSH2 0x3BED JUMP JUMPDEST DUP3 ADD SWAP2 SWAP1 PUSH1 0x0 MSTORE PUSH1 0x20 PUSH1 0x0 KECCAK256 SWAP1 JUMPDEST DUP2 SLOAD DUP2 MSTORE SWAP1 PUSH1 0x1 ADD SWAP1 PUSH1 0x20 ADD DUP1 DUP4 GT PUSH2 0x3BD0 JUMPI DUP3 SWAP1 SUB PUSH1 0x1F AND DUP3 ADD SWAP2 JUMPDEST POP POP POP POP POP DUP2 MSTORE PUSH1 0x20 ADD PUSH1 0x6 DUP3 ADD DUP1 SLOAD PUSH2 0x3C06 SWAP1 PUSH2 0x5974 JUMP JUMPDEST DUP1 PUSH1 0x1F ADD PUSH1 0x20 DUP1 SWAP2 DIV MUL PUSH1 0x20 ADD PUSH1 0x40 MLOAD SWAP1 DUP2 ADD PUSH1 0x40 MSTORE DUP1 SWAP3 SWAP2 SWAP1 DUP2 DUP2 MSTORE PUSH1 0x20 ADD DUP3 DUP1 SLOAD PUSH2 0x3C32 SWAP1 PUSH2 0x5974 JUMP JUMPDEST DUP1 ISZERO PUSH2 0x3C7F JUMPI DUP1 PUSH1 0x1F LT PUSH2 0x3C54 JUMPI PUSH2 0x100 DUP1 DUP4 SLOAD DIV MUL DUP4 MSTORE SWAP2 PUSH1 0x20 ADD SWAP2 PUSH2 0x3C7F JUMP JUMPDEST DUP3 ADD SWAP2 SWAP1 PUSH1 0x0 MSTORE PUSH1 0x20 PUSH1 0x0 KECCAK256 SWAP1 JUMPDEST DUP2 SLOAD DUP2 MSTORE SWAP1 PUSH1 0x1 ADD SWAP1 PUSH1 0x20 ADD DUP1 DUP4 GT PUSH2 0x3C62 JUMPI DUP3 SWAP1 SUB PUSH1 0x1F AND DUP3 ADD SWAP2 JUMPDEST POP POP POP POP POP DUP2 MSTORE PUSH1 0x20 ADD PUSH1 0x7 DUP3 ADD DUP1 SLOAD PUSH2 0x3C98 SWAP1 PUSH2 0x5974 JUMP JUMPDEST DUP1 PUSH1 0x1F ADD PUSH1 0x20 DUP1 SWAP2 DIV MUL PUSH1 0x20 ADD PUSH1 0x40 MLOAD SWAP1 DUP2 ADD PUSH1 0x40 MSTORE DUP1 SWAP3 SWAP2 SWAP1 DUP2 DUP2 MSTORE PUSH1 0x20 ADD DUP3 DUP1 SLOAD PUSH2 0x3CC4 SWAP1 PUSH2 0x5974 JUMP JUMPDEST DUP1 ISZERO PUSH2 0x3D11 JUMPI DUP1 PUSH1 0x1F LT PUSH2 0x3CE6 JUMPI PUSH2 0x100 DUP1 DUP4 SLOAD DIV MUL DUP4 MSTORE SWAP2 PUSH1 0x20 ADD SWAP2 PUSH2 0x3D11 JUMP JUMPDEST DUP3 ADD SWAP2 SWAP1 PUSH1 0x0 MSTORE PUSH1 0x20 PUSH1 0x0 KECCAK256 SWAP1 JUMPDEST DUP2 SLOAD DUP2 MSTORE SWAP1 PUSH1 0x1 ADD SWAP1 PUSH1 0x20 ADD DUP1 DUP4 GT PUSH2 0x3CF4 JUMPI DUP3 SWAP1 SUB PUSH1 0x1F AND DUP3 ADD SWAP2 JUMPDEST POP POP POP SWAP2 DUP4 MSTORE POP POP PUSH1 0x8 DUP3 ADD SLOAD PUSH1 0x20 DUP3 ADD MSTORE PUSH1 0x9 SWAP1 SWAP2 ADD SLOAD PUSH1 0xFF AND ISZERO ISZERO PUSH1 0x40 SWAP1 SWAP2 ADD MSTORE DUP3 MLOAD DUP4 SWAP1 DUP4 SWAP1 DUP2 LT PUSH2 0x3D48 JUMPI PUSH2 0x3D48 PUSH2 0x59A8 JUMP JUMPDEST PUSH1 0x20 MUL PUSH1 0x20 ADD ADD DUP2 SWAP1 MSTORE POP DUP1 DUP1 PUSH2 0x3D5E SWAP1 PUSH2 0x59D4 JUMP JUMPDEST SWAP2 POP POP PUSH2 0x38CC JUMP JUMPDEST PUSH1 0x0 DUP2 DUP2 MSTORE PUSH1 0x7 PUSH1 0x20 MSTORE PUSH1 0x40 SWAP1 KECCAK256 PUSH1 0xA ADD SLOAD PUSH1 0xFF AND PUSH2 0x3D97 JUMPI PUSH1 0x40 MLOAD PUSH3 0x461BCD PUSH1 0xE5 SHL DUP2 MSTORE PUSH1 0x4 ADD PUSH2 0x850 SWAP1 PUSH2 0x5B84 JUMP JUMPDEST PUSH1 0x0 DUP2 DUP2 MSTORE PUSH1 0x7 PUSH1 0x20 MSTORE PUSH1 0x40 DUP2 KECCAK256 PUSH1 0x8 ADD DUP1 SLOAD SWAP2 PUSH2 0x3DB4 DUP4 PUSH2 0x59D4 JUMP JUMPDEST SWAP1 SWAP2 SSTORE POP POP PUSH1 0x40 MLOAD DUP2 SWAP1 PUSH32 0x2B4557DC4017846F558FDC087E75E3EC527411984BD18E0CB63C92B851862C2E SWAP1 PUSH1 0x0 SWAP1 LOG2 POP JUMP JUMPDEST PUSH2 0x3DEF PUSH2 0x4719 JUMP JUMPDEST PUSH1 0x0 DUP2 DUP2 MSTORE PUSH1 0x9 PUSH1 0x20 MSTORE PUSH1 0x40 DUP2 KECCAK256 SLOAD SWAP1 SUB PUSH2 0x3E4C JUMPI PUSH1 0x40 MLOAD PUSH3 0x461BCD PUSH1 0xE5 SHL DUP2 MSTORE PUSH1 0x20 PUSH1 0x4 DUP3 ADD MSTORE PUSH1 0x19 PUSH1 0x24 DUP3 ADD MSTORE PUSH32 0x457870657269656E636520646F6573206E6F7420657869737400000000000000 PUSH1 0x44 DUP3 ADD MSTORE PUSH1 0x64 ADD PUSH2 0x850 JUMP JUMPDEST PUSH1 0x0 SWAP1 DUP2 MSTORE PUSH1 0x9 PUSH1 0x20 DUP2 SWAP1 MSTORE PUSH1 0x40 SWAP1 SWAP2 KECCAK256 ADD DUP1 SLOAD PUSH1 0xFF NOT DUP2 AND PUSH1 0xFF SWAP1 SWAP2 AND ISZERO OR SWAP1 SSTORE JUMP JUMPDEST PUSH1 0x0 DUP1 DUP1 DUP1 DUP1 DUP1 DUP1 DUP1 DUP1 DUP1 DUP1 DUP1 JUMPDEST PUSH1 0xE SLOAD DUP2 LT ISZERO PUSH2 0x3F1C JUMPI PUSH1 0x7 PUSH1 0x0 PUSH1 0xE DUP4 DUP2 SLOAD DUP2 LT PUSH2 0x3E9F JUMPI PUSH2 0x3E9F PUSH2 0x59A8 JUMP JUMPDEST SWAP1 PUSH1 0x0 MSTORE PUSH1 0x20 PUSH1 0x0 KECCAK256 ADD SLOAD DUP2 MSTORE PUSH1 0x20 ADD SWAP1 DUP2 MSTORE PUSH1 0x20 ADD PUSH1 0x0 KECCAK256 PUSH1 0x7 ADD SLOAD DUP4 PUSH2 0x3EC7 SWAP2 SWAP1 PUSH2 0x5BB4 JUMP JUMPDEST SWAP3 POP PUSH1 0x7 PUSH1 0x0 PUSH1 0xE DUP4 DUP2 SLOAD DUP2 LT PUSH2 0x3EE0 JUMPI PUSH2 0x3EE0 PUSH2 0x59A8 JUMP JUMPDEST SWAP1 PUSH1 0x0 MSTORE PUSH1 0x20 PUSH1 0x0 KECCAK256 ADD SLOAD DUP2 MSTORE PUSH1 0x20 ADD SWAP1 DUP2 MSTORE PUSH1 0x20 ADD PUSH1 0x0 KECCAK256 PUSH1 0x8 ADD SLOAD DUP3 PUSH2 0x3F08 SWAP2 SWAP1 PUSH2 0x5BB4 JUMP JUMPDEST SWAP2 POP DUP1 PUSH2 0x3F14 DUP2 PUSH2 0x59D4 JUMP JUMPDEST SWAP2 POP POP PUSH2 0x3E7E JUMP JUMPDEST POP PUSH1 0xE DUP1 SLOAD SWAP1 POP PUSH1 0xF DUP1 SLOAD SWAP1 POP PUSH1 0x10 DUP1 SLOAD SWAP1 POP PUSH1 0x11 DUP1 SLOAD SWAP1 POP PUSH1 0x12 DUP1 SLOAD SWAP1 POP DUP7 DUP7 PUSH1 0x13 PUSH1 0x8 ADD SLOAD PUSH1 0x13 PUSH1 0x7 ADD SLOAD SWAP11 POP SWAP11 POP SWAP11 POP SWAP11 POP SWAP11 POP SWAP11 POP SWAP11 POP SWAP11 POP SWAP11 POP POP POP SWAP1 SWAP2 SWAP3 SWAP4 SWAP5 SWAP6 SWAP7 SWAP8 SWAP9 JUMP JUMPDEST PUSH1 0x8 PUSH1 0x20 MSTORE PUSH1 0x0 SWAP1 DUP2 MSTORE PUSH1 0x40 SWAP1 KECCAK256 DUP1 SLOAD PUSH1 0x1 DUP3 ADD DUP1 SLOAD SWAP2 SWAP3 SWAP2 PUSH2 0x3F8A SWAP1 PUSH2 0x5974 JUMP JUMPDEST DUP1 PUSH1 0x1F ADD PUSH1 0x20 DUP1 SWAP2 DIV MUL PUSH1 0x20 ADD PUSH1 0x40 MLOAD SWAP1 DUP2 ADD PUSH1 0x40 MSTORE DUP1 SWAP3 SWAP2 SWAP1 DUP2 DUP2 MSTORE PUSH1 0x20 ADD DUP3 DUP1 SLOAD PUSH2 0x3FB6 SWAP1 PUSH2 0x5974 JUMP JUMPDEST DUP1 ISZERO PUSH2 0x4003 JUMPI DUP1 PUSH1 0x1F LT PUSH2 0x3FD8 JUMPI PUSH2 0x100 DUP1 DUP4 SLOAD DIV MUL DUP4 MSTORE SWAP2 PUSH1 0x20 ADD SWAP2 PUSH2 0x4003 JUMP JUMPDEST DUP3 ADD SWAP2 SWAP1 PUSH1 0x0 MSTORE PUSH1 0x20 PUSH1 0x0 KECCAK256 SWAP1 JUMPDEST DUP2 SLOAD DUP2 MSTORE SWAP1 PUSH1 0x1 ADD SWAP1 PUSH1 0x20 ADD DUP1 DUP4 GT PUSH2 0x3FE6 JUMPI DUP3 SWAP1 SUB PUSH1 0x1F AND DUP3 ADD SWAP2 JUMPDEST POP POP POP POP POP SWAP1 DUP1 PUSH1 0x2 ADD DUP1 SLOAD PUSH2 0x4018 SWAP1 PUSH2 0x5974 JUMP JUMPDEST DUP1 PUSH1 0x1F ADD PUSH1 0x20 DUP1 SWAP2 DIV MUL PUSH1 0x20 ADD PUSH1 0x40 MLOAD SWAP1 DUP2 ADD PUSH1 0x40 MSTORE DUP1 SWAP3 SWAP2 SWAP1 DUP2 DUP2 MSTORE PUSH1 0x20 ADD DUP3 DUP1 SLOAD PUSH2 0x4044 SWAP1 PUSH2 0x5974 JUMP JUMPDEST DUP1 ISZERO PUSH2 0x4091 JUMPI DUP1 PUSH1 0x1F LT PUSH2 0x4066 JUMPI PUSH2 0x100 DUP1 DUP4 SLOAD DIV MUL DUP4 MSTORE SWAP2 PUSH1 0x20 ADD SWAP2 PUSH2 0x4091 JUMP JUMPDEST DUP3 ADD SWAP2 SWAP1 PUSH1 0x0 MSTORE PUSH1 0x20 PUSH1 0x0 KECCAK256 SWAP1 JUMPDEST DUP2 SLOAD DUP2 MSTORE SWAP1 PUSH1 0x1 ADD SWAP1 PUSH1 0x20 ADD DUP1 DUP4 GT PUSH2 0x4074 JUMPI DUP3 SWAP1 SUB PUSH1 0x1F AND DUP3 ADD SWAP2 JUMPDEST POP POP POP POP POP SWAP1 DUP1 PUSH1 0x3 ADD DUP1 SLOAD PUSH2 0x40A6 SWAP1 PUSH2 0x5974 JUMP JUMPDEST DUP1 PUSH1 0x1F ADD PUSH1 0x20 DUP1 SWAP2 DIV MUL PUSH1 0x20 ADD PUSH1 0x40 MLOAD SWAP1 DUP2 ADD PUSH1 0x40 MSTORE DUP1 SWAP3 SWAP2 SWAP1 DUP2 DUP2 MSTORE PUSH1 0x20 ADD DUP3 DUP1 SLOAD PUSH2 0x40D2 SWAP1 PUSH2 0x5974 JUMP JUMPDEST DUP1 ISZERO PUSH2 0x411F JUMPI DUP1 PUSH1 0x1F LT PUSH2 0x40F4 JUMPI PUSH2 0x100 DUP1 DUP4 SLOAD DIV MUL DUP4 MSTORE SWAP2 PUSH1 0x20 ADD SWAP2 PUSH2 0x411F JUMP JUMPDEST DUP3 ADD SWAP2 SWAP1 PUSH1 0x0 MSTORE PUSH1 0x20 PUSH1 0x0 KECCAK256 SWAP1 JUMPDEST DUP2 SLOAD DUP2 MSTORE SWAP1 PUSH1 0x1 ADD SWAP1 PUSH1 0x20 ADD DUP1 DUP4 GT PUSH2 0x4102 JUMPI DUP3 SWAP1 SUB PUSH1 0x1F AND DUP3 ADD SWAP2 JUMPDEST POP POP POP POP POP SWAP1 DUP1 PUSH1 0x4 ADD DUP1 SLOAD PUSH2 0x4134 SWAP1 PUSH2 0x5974 JUMP JUMPDEST DUP1 PUSH1 0x1F ADD PUSH1 0x20 DUP1 SWAP2 DIV MUL PUSH1 0x20 ADD PUSH1 0x40 MLOAD SWAP1 DUP2 ADD PUSH1 0x40 MSTORE DUP1 SWAP3 SWAP2 SWAP1 DUP2 DUP2 MSTORE PUSH1 0x20 ADD DUP3 DUP1 SLOAD PUSH2 0x4160 SWAP1 PUSH2 0x5974 JUMP JUMPDEST DUP1 ISZERO PUSH2 0x41AD JUMPI DUP1 PUSH1 0x1F LT PUSH2 0x4182 JUMPI PUSH2 0x100 DUP1 DUP4 SLOAD DIV MUL DUP4 MSTORE SWAP2 PUSH1 0x20 ADD SWAP2 PUSH2 0x41AD JUMP JUMPDEST DUP3 ADD SWAP2 SWAP1 PUSH1 0x0 MSTORE PUSH1 0x20 PUSH1 0x0 KECCAK256 SWAP1 JUMPDEST DUP2 SLOAD DUP2 MSTORE SWAP1 PUSH1 0x1 ADD SWAP1 PUSH1 0x20 ADD DUP1 DUP4 GT PUSH2 0x4190 JUMPI DUP3 SWAP1 SUB PUSH1 0x1F AND DUP3 ADD SWAP2 JUMPDEST POP POP POP POP POP SWAP1 DUP1 PUSH1 0x5 ADD DUP1 SLOAD PUSH2 0x41C2 SWAP1 PUSH2 0x5974 JUMP JUMPDEST DUP1 PUSH1 0x1F ADD PUSH1 0x20 DUP1 SWAP2 DIV MUL PUSH1 0x20 ADD PUSH1 0x40 MLOAD SWAP1 DUP2 ADD PUSH1 0x40 MSTORE DUP1 SWAP3 SWAP2 SWAP1 DUP2 DUP2 MSTORE PUSH1 0x20 ADD DUP3 DUP1 SLOAD PUSH2 0x41EE SWAP1 PUSH2 0x5974 JUMP JUMPDEST DUP1 ISZERO PUSH2 0x423B JUMPI DUP1 PUSH1 0x1F LT PUSH2 0x4210 JUMPI PUSH2 0x100 DUP1 DUP4 SLOAD DIV MUL DUP4 MSTORE SWAP2 PUSH1 0x20 ADD SWAP2 PUSH2 0x423B JUMP JUMPDEST DUP3 ADD SWAP2 SWAP1 PUSH1 0x0 MSTORE PUSH1 0x20 PUSH1 0x0 KECCAK256 SWAP1 JUMPDEST DUP2 SLOAD DUP2 MSTORE SWAP1 PUSH1 0x1 ADD SWAP1 PUSH1 0x20 ADD DUP1 DUP4 GT PUSH2 0x421E JUMPI DUP3 SWAP1 SUB PUSH1 0x1F AND DUP3 ADD SWAP2 JUMPDEST POP POP POP POP POP SWAP1 DUP1 PUSH1 0x6 ADD DUP1 SLOAD PUSH2 0x4250 SWAP1 PUSH2 0x5974 JUMP JUMPDEST DUP1 PUSH1 0x1F ADD PUSH1 0x20 DUP1 SWAP2 DIV MUL PUSH1 0x20 ADD PUSH1 0x40 MLOAD SWAP1 DUP2 ADD PUSH1 0x40 MSTORE DUP1 SWAP3 SWAP2 SWAP1 DUP2 DUP2 MSTORE PUSH1 0x20 ADD DUP3 DUP1 SLOAD PUSH2 0x427C SWAP1 PUSH2 0x5974 JUMP JUMPDEST DUP1 ISZERO PUSH2 0x42C9 JUMPI DUP1 PUSH1 0x1F LT PUSH2 0x429E JUMPI PUSH2 0x100 DUP1 DUP4 SLOAD DIV MUL DUP4 MSTORE SWAP2 PUSH1 0x20 ADD SWAP2 PUSH2 0x42C9 JUMP JUMPDEST DUP3 ADD SWAP2 SWAP1 PUSH1 0x0 MSTORE PUSH1 0x20 PUSH1 0x0 KECCAK256 SWAP1 JUMPDEST DUP2 SLOAD DUP2 MSTORE SWAP1 PUSH1 0x1 ADD SWAP1 PUSH1 0x20 ADD DUP1 DUP4 GT PUSH2 0x42AC JUMPI DUP3 SWAP1 SUB PUSH1 0x1F AND DUP3 ADD SWAP2 JUMPDEST POP POP POP POP POP SWAP1 DUP1 PUSH1 0x7 ADD DUP1 SLOAD PUSH2 0x42DE SWAP1 PUSH2 0x5974 JUMP JUMPDEST DUP1 PUSH1 0x1F ADD PUSH1 0x20 DUP1 SWAP2 DIV MUL PUSH1 0x20 ADD PUSH1 0x40 MLOAD SWAP1 DUP2 ADD PUSH1 0x40 MSTORE DUP1 SWAP3 SWAP2 SWAP1 DUP2 DUP2 MSTORE PUSH1 0x20 ADD DUP3 DUP1 SLOAD PUSH2 0x430A SWAP1 PUSH2 0x5974 JUMP JUMPDEST DUP1 ISZERO PUSH2 0x4357 JUMPI DUP1 PUSH1 0x1F LT PUSH2 0x432C JUMPI PUSH2 0x100 DUP1 DUP4 SLOAD DIV MUL DUP4 MSTORE SWAP2 PUSH1 0x20 ADD SWAP2 PUSH2 0x4357 JUMP JUMPDEST DUP3 ADD SWAP2 SWAP1 PUSH1 0x0 MSTORE PUSH1 0x20 PUSH1 0x0 KECCAK256 SWAP1 JUMPDEST DUP2 SLOAD DUP2 MSTORE SWAP1 PUSH1 0x1 ADD SWAP1 PUSH1 0x20 ADD DUP1 DUP4 GT PUSH2 0x433A JUMPI DUP3 SWAP1 SUB PUSH1 0x1F AND DUP3 ADD SWAP2 JUMPDEST POP POP POP POP PUSH1 0x8 DUP4 ADD SLOAD PUSH1 0x9 SWAP1 SWAP4 ADD SLOAD SWAP2 SWAP3 SWAP2 PUSH1 0xFF AND SWAP1 POP DUP11 JUMP JUMPDEST PUSH1 0x13 DUP1 SLOAD DUP2 SWAP1 PUSH2 0x4380 SWAP1 PUSH2 0x5974 JUMP JUMPDEST DUP1 PUSH1 0x1F ADD PUSH1 0x20 DUP1 SWAP2 DIV MUL PUSH1 0x20 ADD PUSH1 0x40 MLOAD SWAP1 DUP2 ADD PUSH1 0x40 MSTORE DUP1 SWAP3 SWAP2 SWAP1 DUP2 DUP2 MSTORE PUSH1 0x20 ADD DUP3 DUP1 SLOAD PUSH2 0x43AC SWAP1 PUSH2 0x5974 JUMP JUMPDEST DUP1 ISZERO PUSH2 0x43F9 JUMPI DUP1 PUSH1 0x1F LT PUSH2 0x43CE JUMPI PUSH2 0x100 DUP1 DUP4 SLOAD DIV MUL DUP4 MSTORE SWAP2 PUSH1 0x20 ADD SWAP2 PUSH2 0x43F9 JUMP JUMPDEST DUP3 ADD SWAP2 SWAP1 PUSH1 0x0 MSTORE PUSH1 0x20 PUSH1 0x0 KECCAK256 SWAP1 JUMPDEST DUP2 SLOAD DUP2 MSTORE SWAP1 PUSH1 0x1 ADD SWAP1 PUSH1 0x20 ADD DUP1 DUP4 GT PUSH2 0x43DC JUMPI DUP3 SWAP1 SUB PUSH1 0x1F AND DUP3 ADD SWAP2 JUMPDEST POP POP POP POP POP SWAP1 DUP1 PUSH1 0x1 ADD DUP1 SLOAD PUSH2 0x440E SWAP1 PUSH2 0x5974 JUMP JUMPDEST DUP1 PUSH1 0x1F ADD PUSH1 0x20 DUP1 SWAP2 DIV MUL PUSH1 0x20 ADD PUSH1 0x40 MLOAD SWAP1 DUP2 ADD PUSH1 0x40 MSTORE DUP1 SWAP3 SWAP2 SWAP1 DUP2 DUP2 MSTORE PUSH1 0x20 ADD DUP3 DUP1 SLOAD PUSH2 0x443A SWAP1 PUSH2 0x5974 JUMP JUMPDEST DUP1 ISZERO PUSH2 0x4487 JUMPI DUP1 PUSH1 0x1F LT PUSH2 0x445C JUMPI PUSH2 0x100 DUP1 DUP4 SLOAD DIV MUL DUP4 MSTORE SWAP2 PUSH1 0x20 ADD SWAP2 PUSH2 0x4487 JUMP JUMPDEST DUP3 ADD SWAP2 SWAP1 PUSH1 0x0 MSTORE PUSH1 0x20 PUSH1 0x0 KECCAK256 SWAP1 JUMPDEST DUP2 SLOAD DUP2 MSTORE SWAP1 PUSH1 0x1 ADD SWAP1 PUSH1 0x20 ADD DUP1 DUP4 GT PUSH2 0x446A JUMPI DUP3 SWAP1 SUB PUSH1 0x1F AND DUP3 ADD SWAP2 JUMPDEST POP POP POP POP POP SWAP1 DUP1 PUSH1 0x2 ADD DUP1 SLOAD PUSH2 0x449C SWAP1 PUSH2 0x5974 JUMP JUMPDEST DUP1 PUSH1 0x1F ADD PUSH1 0x20 DUP1 SWAP2 DIV MUL PUSH1 0x20 ADD PUSH1 0x40 MLOAD SWAP1 DUP2 ADD PUSH1 0x40 MSTORE DUP1 SWAP3 SWAP2 SWAP1 DUP2 DUP2 MSTORE PUSH1 0x20 ADD DUP3 DUP1 SLOAD PUSH2 0x44C8 SWAP1 PUSH2 0x5974 JUMP JUMPDEST DUP1 ISZERO PUSH2 0x4515 JUMPI DUP1 PUSH1 0x1F LT PUSH2 0x44EA JUMPI PUSH2 0x100 DUP1 DUP4 SLOAD DIV MUL DUP4 MSTORE SWAP2 PUSH1 0x20 ADD SWAP2 PUSH2 0x4515 JUMP JUMPDEST DUP3 ADD SWAP2 SWAP1 PUSH1 0x0 MSTORE PUSH1 0x20 PUSH1 0x0 KECCAK256 SWAP1 JUMPDEST DUP2 SLOAD DUP2 MSTORE SWAP1 PUSH1 0x1 ADD SWAP1 PUSH1 0x20 ADD DUP1 DUP4 GT PUSH2 0x44F8 JUMPI DUP3 SWAP1 SUB PUSH1 0x1F AND DUP3 ADD SWAP2 JUMPDEST POP POP POP POP POP SWAP1 DUP1 PUSH1 0x3 ADD DUP1 SLOAD PUSH2 0x452A SWAP1 PUSH2 0x5974 JUMP JUMPDEST DUP1 PUSH1 0x1F ADD PUSH1 0x20 DUP1 SWAP2 DIV MUL PUSH1 0x20 ADD PUSH1 0x40 MLOAD SWAP1 DUP2 ADD PUSH1 0x40 MSTORE DUP1 SWAP3 SWAP2 SWAP1 DUP2 DUP2 MSTORE PUSH1 0x20 ADD DUP3 DUP1 SLOAD PUSH2 0x4556 SWAP1 PUSH2 0x5974 JUMP JUMPDEST DUP1 ISZERO PUSH2 0x45A3 JUMPI DUP1 PUSH1 0x1F LT PUSH2 0x4578 JUMPI PUSH2 0x100 DUP1 DUP4 SLOAD DIV MUL DUP4 MSTORE SWAP2 PUSH1 0x20 ADD SWAP2 PUSH2 0x45A3 JUMP JUMPDEST DUP3 ADD SWAP2 SWAP1 PUSH1 0x0 MSTORE PUSH1 0x20 PUSH1 0x0 KECCAK256 SWAP1 JUMPDEST DUP2 SLOAD DUP2 MSTORE SWAP1 PUSH1 0x1 ADD SWAP1 PUSH1 0x20 ADD DUP1 DUP4 GT PUSH2 0x4586 JUMPI DUP3 SWAP1 SUB PUSH1 0x1F AND DUP3 ADD SWAP2 JUMPDEST POP POP POP POP POP SWAP1 DUP1 PUSH1 0x4 ADD DUP1 SLOAD PUSH2 0x45B8 SWAP1 PUSH2 0x5974 JUMP JUMPDEST DUP1 PUSH1 0x1F ADD PUSH1 0x20 DUP1 SWAP2 DIV MUL PUSH1 0x20 ADD PUSH1 0x40 MLOAD SWAP1 DUP2 ADD PUSH1 0x40 MSTORE DUP1 SWAP3 SWAP2 SWAP1 DUP2 DUP2 MSTORE PUSH1 0x20 ADD DUP3 DUP1 SLOAD PUSH2 0x45E4 SWAP1 PUSH2 0x5974 JUMP JUMPDEST DUP1 ISZERO PUSH2 0x4631 JUMPI DUP1 PUSH1 0x1F LT PUSH2 0x4606 JUMPI PUSH2 0x100 DUP1 DUP4 SLOAD DIV MUL DUP4 MSTORE SWAP2 PUSH1 0x20 ADD SWAP2 PUSH2 0x4631 JUMP JUMPDEST DUP3 ADD SWAP2 SWAP1 PUSH1 0x0 MSTORE PUSH1 0x20 PUSH1 0x0 KECCAK256 SWAP1 JUMPDEST DUP2 SLOAD DUP2 MSTORE SWAP1 PUSH1 0x1 ADD SWAP1 PUSH1 0x20 ADD DUP1 DUP4 GT PUSH2 0x4614 JUMPI DUP3 SWAP1 SUB PUSH1 0x1F AND DUP3 ADD SWAP2 JUMPDEST POP POP POP POP POP SWAP1 DUP1 PUSH1 0x6 ADD DUP1 SLOAD PUSH2 0x4646 SWAP1 PUSH2 0x5974 JUMP JUMPDEST DUP1 PUSH1 0x1F ADD PUSH1 0x20 DUP1 SWAP2 DIV MUL PUSH1 0x20 ADD PUSH1 0x40 MLOAD SWAP1 DUP2 ADD PUSH1 0x40 MSTORE DUP1 SWAP3 SWAP2 SWAP1 DUP2 DUP2 MSTORE PUSH1 0x20 ADD DUP3 DUP1 SLOAD PUSH2 0x4672 SWAP1 PUSH2 0x5974 JUMP JUMPDEST DUP1 ISZERO PUSH2 0x46BF JUMPI DUP1 PUSH1 0x1F LT PUSH2 0x4694 JUMPI PUSH2 0x100 DUP1 DUP4 SLOAD DIV MUL DUP4 MSTORE SWAP2 PUSH1 0x20 ADD SWAP2 PUSH2 0x46BF JUMP JUMPDEST DUP3 ADD SWAP2 SWAP1 PUSH1 0x0 MSTORE PUSH1 0x20 PUSH1 0x0 KECCAK256 SWAP1 JUMPDEST DUP2 SLOAD DUP2 MSTORE SWAP1 PUSH1 0x1 ADD SWAP1 PUSH1 0x20 ADD DUP1 DUP4 GT PUSH2 0x46A2 JUMPI DUP3 SWAP1 SUB PUSH1 0x1F AND DUP3 ADD SWAP2 JUMPDEST POP POP POP POP POP SWAP1 DUP1 PUSH1 0x7 ADD SLOAD SWAP1 DUP1 PUSH1 0x8 ADD SLOAD SWAP1 DUP1 PUSH1 0x9 ADD SLOAD SWAP1 POP DUP10 JUMP JUMPDEST PUSH2 0x46E3 PUSH2 0x4719 JUMP JUMPDEST PUSH1 0x1 PUSH1 0x1 PUSH1 0xA0 SHL SUB DUP2 AND PUSH2 0x470D JUMPI PUSH1 0x40 MLOAD PUSH4 0x1E4FBDF7 PUSH1 0xE0 SHL DUP2 MSTORE PUSH1 0x0 PUSH1 0x4 DUP3 ADD MSTORE PUSH1 0x24 ADD PUSH2 0x850 JUMP JUMPDEST PUSH2 0x4716 DUP2 PUSH2 0x4746 JUMP JUMPDEST POP JUMP JUMPDEST PUSH1 0x0 SLOAD PUSH1 0x1 PUSH1 0x1 PUSH1 0xA0 SHL SUB AND CALLER EQ PUSH2 0x1F0F JUMPI PUSH1 0x40 MLOAD PUSH4 0x118CDAA7 PUSH1 0xE0 SHL DUP2 MSTORE CALLER PUSH1 0x4 DUP3 ADD MSTORE PUSH1 0x24 ADD PUSH2 0x850 JUMP JUMPDEST PUSH1 0x0 DUP1 SLOAD PUSH1 0x1 PUSH1 0x1 PUSH1 0xA0 SHL SUB DUP4 DUP2 AND PUSH1 0x1 PUSH1 0x1 PUSH1 0xA0 SHL SUB NOT DUP4 AND DUP2 OR DUP5 SSTORE PUSH1 0x40 MLOAD SWAP2 SWAP1 SWAP3 AND SWAP3 DUP4 SWAP2 PUSH32 0x8BE0079C531659141344CD1FD0A4F28419497F9722A3DAAFE3B4186F6B6457E0 SWAP2 SWAP1 LOG3 POP POP JUMP JUMPDEST PUSH1 0x2 PUSH1 0x1 SLOAD SUB PUSH2 0x47B9 JUMPI PUSH1 0x40 MLOAD PUSH4 0x3EE5AEB5 PUSH1 0xE0 SHL DUP2 MSTORE PUSH1 0x4 ADD PUSH1 0x40 MLOAD DUP1 SWAP2 SUB SWAP1 REVERT JUMPDEST PUSH1 0x2 PUSH1 0x1 SSTORE JUMP JUMPDEST DUP3 DUP1 SLOAD DUP3 DUP3 SSTORE SWAP1 PUSH1 0x0 MSTORE PUSH1 0x20 PUSH1 0x0 KECCAK256 SWAP1 DUP2 ADD SWAP3 DUP3 ISZERO PUSH2 0x4806 JUMPI SWAP2 PUSH1 0x20 MUL DUP3 ADD JUMPDEST DUP3 DUP2 GT ISZERO PUSH2 0x4806 JUMPI DUP3 MLOAD DUP3 SWAP1 PUSH2 0x47F6 SWAP1 DUP3 PUSH2 0x5A3C JUMP JUMPDEST POP SWAP2 PUSH1 0x20 ADD SWAP2 SWAP1 PUSH1 0x1 ADD SWAP1 PUSH2 0x47E0 JUMP JUMPDEST POP PUSH2 0x4812 SWAP3 SWAP2 POP PUSH2 0x4816 JUMP JUMPDEST POP SWAP1 JUMP JUMPDEST DUP1 DUP3 GT ISZERO PUSH2 0x4812 JUMPI PUSH1 0x0 PUSH2 0x482A DUP3 DUP3 PUSH2 0x4833 JUMP JUMPDEST POP PUSH1 0x1 ADD PUSH2 0x4816 JUMP JUMPDEST POP DUP1 SLOAD PUSH2 0x483F SWAP1 PUSH2 0x5974 JUMP JUMPDEST PUSH1 0x0 DUP3 SSTORE DUP1 PUSH1 0x1F LT PUSH2 0x484F JUMPI POP POP JUMP JUMPDEST PUSH1 0x1F ADD PUSH1 0x20 SWAP1 DIV SWAP1 PUSH1 0x0 MSTORE PUSH1 0x20 PUSH1 0x0 KECCAK256 SWAP1 DUP2 ADD SWAP1 PUSH2 0x4716 SWAP2 SWAP1 JUMPDEST DUP1 DUP3 GT ISZERO PUSH2 0x4812 JUMPI PUSH1 0x0 DUP2 SSTORE PUSH1 0x1 ADD PUSH2 0x4869 JUMP JUMPDEST PUSH1 0x0 PUSH1 0x20 DUP3 DUP5 SUB SLT ISZERO PUSH2 0x488F JUMPI PUSH1 0x0 DUP1 REVERT JUMPDEST POP CALLDATALOAD SWAP2 SWAP1 POP JUMP JUMPDEST PUSH1 0x0 DUP2 MLOAD DUP1 DUP5 MSTORE PUSH1 0x0 JUMPDEST DUP2 DUP2 LT ISZERO PUSH2 0x48BC JUMPI PUSH1 0x20 DUP2 DUP6 ADD DUP2 ADD MLOAD DUP7 DUP4 ADD DUP3 ADD MSTORE ADD PUSH2 0x48A0 JUMP JUMPDEST POP PUSH1 0x0 PUSH1 0x20 DUP3 DUP7 ADD ADD MSTORE PUSH1 0x20 PUSH1 0x1F NOT PUSH1 0x1F DUP4 ADD AND DUP6 ADD ADD SWAP2 POP POP SWAP3 SWAP2 POP POP JUMP JUMPDEST PUSH1 0x0 PUSH2 0x140 DUP13 DUP4 MSTORE DUP1 PUSH1 0x20 DUP5 ADD MSTORE PUSH2 0x48F6 DUP2 DUP5 ADD DUP14 PUSH2 0x4896 JUMP JUMPDEST SWAP1 POP DUP3 DUP2 SUB PUSH1 0x40 DUP5 ADD MSTORE PUSH2 0x490A DUP2 DUP13 PUSH2 0x4896 JUMP JUMPDEST SWAP1 POP DUP3 DUP2 SUB PUSH1 0x60 DUP5 ADD MSTORE PUSH2 0x491E DUP2 DUP12 PUSH2 0x4896 JUMP JUMPDEST SWAP1 POP DUP3 DUP2 SUB PUSH1 0x80 DUP5 ADD MSTORE PUSH2 0x4932 DUP2 DUP11 PUSH2 0x4896 JUMP JUMPDEST SWAP1 POP DUP3 DUP2 SUB PUSH1 0xA0 DUP5 ADD MSTORE PUSH2 0x4946 DUP2 DUP10 PUSH2 0x4896 JUMP JUMPDEST SWAP2 POP POP DUP6 PUSH1 0xC0 DUP4 ADD MSTORE DUP5 PUSH1 0xE0 DUP4 ADD MSTORE DUP4 PUSH2 0x100 DUP4 ADD MSTORE DUP3 ISZERO ISZERO PUSH2 0x120 DUP4 ADD MSTORE SWAP12 SWAP11 POP POP POP POP POP POP POP POP POP POP POP JUMP JUMPDEST PUSH1 0x0 DUP3 DUP3 MLOAD DUP1 DUP6 MSTORE PUSH1 0x20 DUP1 DUP7 ADD SWAP6 POP DUP1 DUP3 PUSH1 0x5 SHL DUP5 ADD ADD DUP2 DUP7 ADD PUSH1 0x0 JUMPDEST DUP5 DUP2 LT ISZERO PUSH2 0x49BF JUMPI PUSH1 0x1F NOT DUP7 DUP5 SUB ADD DUP10 MSTORE PUSH2 0x49AD DUP4 DUP4 MLOAD PUSH2 0x4896 JUMP JUMPDEST SWAP9 DUP5 ADD SWAP9 SWAP3 POP SWAP1 DUP4 ADD SWAP1 PUSH1 0x1 ADD PUSH2 0x4991 JUMP JUMPDEST POP SWAP1 SWAP8 SWAP7 POP POP POP POP POP POP POP JUMP JUMPDEST PUSH1 0x0 PUSH1 0x20 DUP1 DUP4 ADD DUP2 DUP5 MSTORE DUP1 DUP6 MLOAD DUP1 DUP4 MSTORE PUSH1 0x40 SWAP3 POP DUP3 DUP7 ADD SWAP2 POP DUP3 DUP2 PUSH1 0x5 SHL DUP8 ADD ADD DUP5 DUP9 ADD PUSH1 0x0 JUMPDEST DUP4 DUP2 LT ISZERO PUSH2 0x4AFA JUMPI PUSH1 0x3F NOT DUP10 DUP5 SUB ADD DUP6 MSTORE DUP2 MLOAD PUSH2 0x140 DUP2 MLOAD DUP6 MSTORE DUP9 DUP3 ADD MLOAD DUP2 DUP11 DUP8 ADD MSTORE PUSH2 0x4A22 DUP3 DUP8 ADD DUP3 PUSH2 0x4896 JUMP JUMPDEST SWAP2 POP POP DUP8 DUP3 ADD MLOAD DUP6 DUP3 SUB DUP10 DUP8 ADD MSTORE PUSH2 0x4A3A DUP3 DUP3 PUSH2 0x4896 JUMP JUMPDEST SWAP2 POP POP PUSH1 0x60 DUP1 DUP4 ADD MLOAD DUP7 DUP4 SUB DUP3 DUP9 ADD MSTORE PUSH2 0x4A54 DUP4 DUP3 PUSH2 0x4896 JUMP JUMPDEST SWAP3 POP POP POP PUSH1 0x80 DUP1 DUP4 ADD MLOAD DUP7 DUP4 SUB DUP3 DUP9 ADD MSTORE PUSH2 0x4A6F DUP4 DUP3 PUSH2 0x4896 JUMP JUMPDEST SWAP3 POP POP POP PUSH1 0xA0 DUP1 DUP4 ADD MLOAD DUP7 DUP4 SUB DUP3 DUP9 ADD MSTORE PUSH2 0x4A8A DUP4 DUP3 PUSH2 0x4896 JUMP JUMPDEST SWAP3 POP POP POP PUSH1 0xC0 DUP1 DUP4 ADD MLOAD DUP7 DUP4 SUB DUP3 DUP9 ADD MSTORE PUSH2 0x4AA5 DUP4 DUP3 PUSH2 0x4896 JUMP JUMPDEST SWAP3 POP POP POP PUSH1 0xE0 DUP1 DUP4 ADD MLOAD DUP7 DUP4 SUB DUP3 DUP9 ADD MSTORE PUSH2 0x4AC0 DUP4 DUP3 PUSH2 0x4974 JUMP JUMPDEST SWAP3 POP POP POP PUSH2 0x100 DUP1 DUP4 ADD MLOAD DUP2 DUP8 ADD MSTORE POP PUSH2 0x120 DUP1 DUP4 ADD MLOAD SWAP3 POP PUSH2 0x4AE6 DUP2 DUP8 ADD DUP5 ISZERO ISZERO SWAP1 MSTORE JUMP JUMPDEST POP SWAP6 DUP9 ADD SWAP6 SWAP4 POP POP SWAP1 DUP7 ADD SWAP1 PUSH1 0x1 ADD PUSH2 0x49F3 JUMP JUMPDEST POP SWAP1 SWAP9 SWAP8 POP POP POP POP POP POP POP POP JUMP JUMPDEST PUSH1 0x0 PUSH2 0x100 DUP11 DUP4 MSTORE DUP1 PUSH1 0x20 DUP5 ADD MSTORE PUSH2 0x4B22 DUP2 DUP5 ADD DUP12 PUSH2 0x4896 JUMP JUMPDEST SWAP1 POP DUP3 DUP2 SUB PUSH1 0x40 DUP5 ADD MSTORE PUSH2 0x4B36 DUP2 DUP11 PUSH2 0x4896 JUMP JUMPDEST SWAP1 POP DUP3 DUP2 SUB PUSH1 0x60 DUP5 ADD MSTORE PUSH2 0x4B4A DUP2 DUP10 PUSH2 0x4896 JUMP JUMPDEST SWAP1 POP DUP3 DUP2 SUB PUSH1 0x80 DUP5 ADD MSTORE PUSH2 0x4B5E DUP2 DUP9 PUSH2 0x4896 JUMP JUMPDEST SWAP1 POP DUP6 PUSH1 0xA0 DUP5 ADD MSTORE DUP3 DUP2 SUB PUSH1 0xC0 DUP5 ADD MSTORE PUSH2 0x4B78 DUP2 DUP7 PUSH2 0x4896 JUMP JUMPDEST SWAP2 POP POP DUP3 ISZERO ISZERO PUSH1 0xE0 DUP4 ADD MSTORE SWAP10 SWAP9 POP POP POP POP POP POP POP POP POP JUMP JUMPDEST PUSH4 0x4E487B71 PUSH1 0xE0 SHL PUSH1 0x0 MSTORE PUSH1 0x41 PUSH1 0x4 MSTORE PUSH1 0x24 PUSH1 0x0 REVERT JUMPDEST PUSH1 0x40 MLOAD PUSH1 0x1F DUP3 ADD PUSH1 0x1F NOT AND DUP2 ADD PUSH1 0x1 PUSH1 0x1 PUSH1 0x40 SHL SUB DUP2 GT DUP3 DUP3 LT OR ISZERO PUSH2 0x4BCE JUMPI PUSH2 0x4BCE PUSH2 0x4B90 JUMP JUMPDEST PUSH1 0x40 MSTORE SWAP2 SWAP1 POP JUMP JUMPDEST PUSH1 0x0 DUP3 PUSH1 0x1F DUP4 ADD SLT PUSH2 0x4BE7 JUMPI PUSH1 0x0 DUP1 REVERT JUMPDEST DUP2 CALLDATALOAD PUSH1 0x1 PUSH1 0x1 PUSH1 0x40 SHL SUB DUP2 GT ISZERO PUSH2 0x4C00 JUMPI PUSH2 0x4C00 PUSH2 0x4B90 JUMP JUMPDEST PUSH2 0x4C13 PUSH1 0x1F DUP3 ADD PUSH1 0x1F NOT AND PUSH1 0x20 ADD PUSH2 0x4BA6 JUMP JUMPDEST DUP2 DUP2 MSTORE DUP5 PUSH1 0x20 DUP4 DUP7 ADD ADD GT ISZERO PUSH2 0x4C28 JUMPI PUSH1 0x0 DUP1 REVERT JUMPDEST DUP2 PUSH1 0x20 DUP6 ADD PUSH1 0x20 DUP4 ADD CALLDATACOPY PUSH1 0x0 SWAP2 DUP2 ADD PUSH1 0x20 ADD SWAP2 SWAP1 SWAP2 MSTORE SWAP4 SWAP3 POP POP POP JUMP JUMPDEST PUSH1 0x0 DUP3 PUSH1 0x1F DUP4 ADD SLT PUSH2 0x4C56 JUMPI PUSH1 0x0 DUP1 REVERT JUMPDEST DUP2 CALLDATALOAD PUSH1 0x20 PUSH1 0x1 PUSH1 0x1 PUSH1 0x40 SHL SUB DUP1 DUP4 GT ISZERO PUSH2 0x4C72 JUMPI PUSH2 0x4C72 PUSH2 0x4B90 JUMP JUMPDEST DUP3 PUSH1 0x5 SHL PUSH2 0x4C81 DUP4 DUP3 ADD PUSH2 0x4BA6 JUMP JUMPDEST SWAP4 DUP5 MSTORE DUP6 DUP2 ADD DUP4 ADD SWAP4 DUP4 DUP2 ADD SWAP1 DUP9 DUP7 GT ISZERO PUSH2 0x4C9B JUMPI PUSH1 0x0 DUP1 REVERT JUMPDEST DUP5 DUP9 ADD SWAP3 POP JUMPDEST DUP6 DUP4 LT ISZERO PUSH2 0x4CD7 JUMPI DUP3 CALLDATALOAD DUP5 DUP2 GT ISZERO PUSH2 0x4CB9 JUMPI PUSH1 0x0 DUP1 DUP2 REVERT JUMPDEST PUSH2 0x4CC7 DUP11 DUP8 DUP4 DUP13 ADD ADD PUSH2 0x4BD6 JUMP JUMPDEST DUP4 MSTORE POP SWAP2 DUP5 ADD SWAP2 SWAP1 DUP5 ADD SWAP1 PUSH2 0x4CA1 JUMP JUMPDEST SWAP9 SWAP8 POP POP POP POP POP POP POP POP JUMP JUMPDEST PUSH1 0x0 DUP1 PUSH1 0x0 DUP1 PUSH1 0x0 DUP1 PUSH1 0xC0 DUP8 DUP10 SUB SLT ISZERO PUSH2 0x4CFC JUMPI PUSH1 0x0 DUP1 REVERT JUMPDEST DUP7 CALLDATALOAD PUSH1 0x1 PUSH1 0x1 PUSH1 0x40 SHL SUB DUP1 DUP3 GT ISZERO PUSH2 0x4D13 JUMPI PUSH1 0x0 DUP1 REVERT JUMPDEST PUSH2 0x4D1F DUP11 DUP4 DUP12 ADD PUSH2 0x4BD6 JUMP JUMPDEST SWAP8 POP PUSH1 0x20 DUP10 ADD CALLDATALOAD SWAP2 POP DUP1 DUP3 GT ISZERO PUSH2 0x4D35 JUMPI PUSH1 0x0 DUP1 REVERT JUMPDEST PUSH2 0x4D41 DUP11 DUP4 DUP12 ADD PUSH2 0x4BD6 JUMP JUMPDEST SWAP7 POP PUSH1 0x40 DUP10 ADD CALLDATALOAD SWAP2 POP DUP1 DUP3 GT ISZERO PUSH2 0x4D57 JUMPI PUSH1 0x0 DUP1 REVERT JUMPDEST PUSH2 0x4D63 DUP11 DUP4 DUP12 ADD PUSH2 0x4BD6 JUMP JUMPDEST SWAP6 POP PUSH1 0x60 DUP10 ADD CALLDATALOAD SWAP2 POP DUP1 DUP3 GT ISZERO PUSH2 0x4D79 JUMPI PUSH1 0x0 DUP1 REVERT JUMPDEST PUSH2 0x4D85 DUP11 DUP4 DUP12 ADD PUSH2 0x4BD6 JUMP JUMPDEST SWAP5 POP PUSH1 0x80 DUP10 ADD CALLDATALOAD SWAP2 POP DUP1 DUP3 GT ISZERO PUSH2 0x4D9B JUMPI PUSH1 0x0 DUP1 REVERT JUMPDEST PUSH2 0x4DA7 DUP11 DUP4 DUP12 ADD PUSH2 0x4BD6 JUMP JUMPDEST SWAP4 POP PUSH1 0xA0 DUP10 ADD CALLDATALOAD SWAP2 POP DUP1 DUP3 GT ISZERO PUSH2 0x4DBD JUMPI PUSH1 0x0 DUP1 REVERT JUMPDEST POP PUSH2 0x4DCA DUP10 DUP3 DUP11 ADD PUSH2 0x4C45 JUMP JUMPDEST SWAP2 POP POP SWAP3 SWAP6 POP SWAP3 SWAP6 POP SWAP3 SWAP6 JUMP JUMPDEST DUP8 DUP2 MSTORE PUSH1 0xE0 PUSH1 0x20 DUP3 ADD MSTORE PUSH1 0x0 PUSH2 0x4DF0 PUSH1 0xE0 DUP4 ADD DUP10 PUSH2 0x4896 JUMP JUMPDEST DUP3 DUP2 SUB PUSH1 0x40 DUP5 ADD MSTORE PUSH2 0x4E02 DUP2 DUP10 PUSH2 0x4896 JUMP JUMPDEST SWAP1 POP DUP3 DUP2 SUB PUSH1 0x60 DUP5 ADD MSTORE PUSH2 0x4E16 DUP2 DUP9 PUSH2 0x4896 JUMP JUMPDEST PUSH1 0x80 DUP5 ADD SWAP7 SWAP1 SWAP7 MSTORE POP POP PUSH1 0xA0 DUP2 ADD SWAP3 SWAP1 SWAP3 MSTORE ISZERO ISZERO PUSH1 0xC0 SWAP1 SWAP2 ADD MSTORE SWAP5 SWAP4 POP POP POP POP JUMP JUMPDEST PUSH1 0x0 PUSH1 0x20 DUP3 DUP5 SUB SLT ISZERO PUSH2 0x4E4A JUMPI PUSH1 0x0 DUP1 REVERT JUMPDEST DUP2 CALLDATALOAD PUSH1 0x1 PUSH1 0x1 PUSH1 0x40 SHL SUB DUP2 GT ISZERO PUSH2 0x4E60 JUMPI PUSH1 0x0 DUP1 REVERT JUMPDEST PUSH2 0x4E6C DUP5 DUP3 DUP6 ADD PUSH2 0x4BD6 JUMP JUMPDEST SWAP5 SWAP4 POP POP POP POP JUMP JUMPDEST PUSH1 0x0 PUSH1 0x20 DUP1 DUP4 ADD DUP2 DUP5 MSTORE DUP1 DUP6 MLOAD DUP1 DUP4 MSTORE PUSH1 0x40 SWAP3 POP DUP3 DUP7 ADD SWAP2 POP DUP3 DUP2 PUSH1 0x5 SHL DUP8 ADD ADD DUP5 DUP9 ADD PUSH1 0x0 JUMPDEST DUP4 DUP2 LT ISZERO PUSH2 0x4AFA JUMPI PUSH1 0x3F NOT DUP10 DUP5 SUB ADD DUP6 MSTORE DUP2 MLOAD PUSH1 0xE0 DUP2 MLOAD DUP6 MSTORE DUP9 DUP3 ADD MLOAD DUP2 DUP11 DUP8 ADD MSTORE PUSH2 0x4EC9 DUP3 DUP8 ADD DUP3 PUSH2 0x4896 JUMP JUMPDEST SWAP2 POP POP DUP8 DUP3 ADD MLOAD DUP6 DUP3 SUB DUP10 DUP8 ADD MSTORE PUSH2 0x4EE1 DUP3 DUP3 PUSH2 0x4896 JUMP JUMPDEST SWAP2 POP POP PUSH1 0x60 DUP1 DUP4 ADD MLOAD DUP7 DUP4 SUB DUP3 DUP9 ADD MSTORE PUSH2 0x4EFB DUP4 DUP3 PUSH2 0x4896 JUMP JUMPDEST PUSH1 0x80 DUP6 DUP2 ADD MLOAD SWAP1 DUP10 ADD MSTORE PUSH1 0xA0 DUP1 DUP7 ADD MLOAD SWAP1 DUP10 ADD MSTORE PUSH1 0xC0 SWAP5 DUP6 ADD MLOAD ISZERO ISZERO SWAP5 SWAP1 SWAP8 ADD SWAP4 SWAP1 SWAP4 MSTORE POP POP POP SWAP4 DUP7 ADD SWAP4 SWAP1 DUP7 ADD SWAP1 PUSH1 0x1 ADD PUSH2 0x4E9B JUMP JUMPDEST DUP1 CALLDATALOAD PUSH1 0x1 PUSH1 0x1 PUSH1 0xA0 SHL SUB DUP2 AND DUP2 EQ PUSH2 0x4F49 JUMPI PUSH1 0x0 DUP1 REVERT JUMPDEST SWAP2 SWAP1 POP JUMP JUMPDEST PUSH1 0x0 DUP1 PUSH1 0x40 DUP4 DUP6 SUB SLT ISZERO PUSH2 0x4F61 JUMPI PUSH1 0x0 DUP1 REVERT JUMPDEST DUP3 CALLDATALOAD SWAP2 POP PUSH2 0x4F71 PUSH1 0x20 DUP5 ADD PUSH2 0x4F32 JUMP JUMPDEST SWAP1 POP SWAP3 POP SWAP3 SWAP1 POP JUMP JUMPDEST PUSH1 0x0 DUP1 PUSH1 0x0 DUP1 PUSH1 0x80 DUP6 DUP8 SUB SLT ISZERO PUSH2 0x4F90 JUMPI PUSH1 0x0 DUP1 REVERT JUMPDEST DUP5 CALLDATALOAD PUSH1 0x1 PUSH1 0x1 PUSH1 0x40 SHL SUB DUP1 DUP3 GT ISZERO PUSH2 0x4FA7 JUMPI PUSH1 0x0 DUP1 REVERT JUMPDEST PUSH2 0x4FB3 DUP9 DUP4 DUP10 ADD PUSH2 0x4BD6 JUMP JUMPDEST SWAP6 POP PUSH1 0x20 DUP8 ADD CALLDATALOAD SWAP2 POP DUP1 DUP3 GT ISZERO PUSH2 0x4FC9 JUMPI PUSH1 0x0 DUP1 REVERT JUMPDEST PUSH2 0x4FD5 DUP9 DUP4 DUP10 ADD PUSH2 0x4BD6 JUMP JUMPDEST SWAP5 POP PUSH1 0x40 DUP8 ADD CALLDATALOAD SWAP2 POP DUP1 DUP3 GT ISZERO PUSH2 0x4FEB JUMPI PUSH1 0x0 DUP1 REVERT JUMPDEST POP PUSH2 0x4FF8 DUP8 DUP3 DUP9 ADD PUSH2 0x4BD6 JUMP JUMPDEST SWAP5 SWAP8 SWAP4 SWAP7 POP SWAP4 SWAP5 PUSH1 0x60 ADD CALLDATALOAD SWAP4 POP POP POP JUMP JUMPDEST PUSH1 0x0 PUSH1 0x20 DUP1 DUP4 ADD DUP2 DUP5 MSTORE DUP1 DUP6 MLOAD DUP1 DUP4 MSTORE PUSH1 0x40 SWAP3 POP DUP3 DUP7 ADD SWAP2 POP DUP3 DUP2 PUSH1 0x5 SHL DUP8 ADD ADD DUP5 DUP9 ADD PUSH1 0x0 JUMPDEST DUP4 DUP2 LT ISZERO PUSH2 0x4AFA JUMPI PUSH1 0x3F NOT DUP10 DUP5 SUB ADD DUP6 MSTORE DUP2 MLOAD PUSH2 0x100 DUP2 MLOAD DUP6 MSTORE DUP9 DUP3 ADD MLOAD DUP2 DUP11 DUP8 ADD MSTORE PUSH2 0x505F DUP3 DUP8 ADD DUP3 PUSH2 0x4896 JUMP JUMPDEST SWAP2 POP POP DUP8 DUP3 ADD MLOAD DUP6 DUP3 SUB DUP10 DUP8 ADD MSTORE PUSH2 0x5077 DUP3 DUP3 PUSH2 0x4896 JUMP JUMPDEST SWAP2 POP POP PUSH1 0x60 DUP1 DUP4 ADD MLOAD DUP7 DUP4 SUB DUP3 DUP9 ADD MSTORE PUSH2 0x5091 DUP4 DUP3 PUSH2 0x4896 JUMP JUMPDEST SWAP3 POP POP POP PUSH1 0x80 DUP1 DUP4 ADD MLOAD DUP7 DUP4 SUB DUP3 DUP9 ADD MSTORE PUSH2 0x50AC DUP4 DUP3 PUSH2 0x4896 JUMP JUMPDEST SWAP3 POP POP POP PUSH1 0xA0 DUP1 DUP4 ADD MLOAD DUP2 DUP8 ADD MSTORE POP PUSH1 0xC0 DUP1 DUP4 ADD MLOAD DUP7 DUP4 SUB DUP3 DUP9 ADD MSTORE PUSH2 0x50D2 DUP4 DUP3 PUSH2 0x4896 JUMP JUMPDEST SWAP3 POP POP POP PUSH1 0xE0 DUP1 DUP4 ADD MLOAD SWAP3 POP PUSH2 0x50EB DUP2 DUP8 ADD DUP5 ISZERO ISZERO SWAP1 MSTORE JUMP JUMPDEST POP SWAP6 DUP9 ADD SWAP6 SWAP4 POP POP SWAP1 DUP7 ADD SWAP1 PUSH1 0x1 ADD PUSH2 0x5030 JUMP JUMPDEST PUSH1 0x0 DUP1 PUSH1 0x0 DUP1 PUSH1 0x0 DUP1 PUSH1 0xC0 DUP8 DUP10 SUB SLT ISZERO PUSH2 0x5118 JUMPI PUSH1 0x0 DUP1 REVERT JUMPDEST DUP7 CALLDATALOAD PUSH1 0x1 PUSH1 0x1 PUSH1 0x40 SHL SUB DUP1 DUP3 GT ISZERO PUSH2 0x512F JUMPI PUSH1 0x0 DUP1 REVERT JUMPDEST PUSH2 0x513B DUP11 DUP4 DUP12 ADD PUSH2 0x4BD6 JUMP JUMPDEST SWAP8 POP PUSH1 0x20 DUP10 ADD CALLDATALOAD SWAP2 POP DUP1 DUP3 GT ISZERO PUSH2 0x5151 JUMPI PUSH1 0x0 DUP1 REVERT JUMPDEST PUSH2 0x515D DUP11 DUP4 DUP12 ADD PUSH2 0x4BD6 JUMP JUMPDEST SWAP7 POP PUSH1 0x40 DUP10 ADD CALLDATALOAD SWAP2 POP DUP1 DUP3 GT ISZERO PUSH2 0x5173 JUMPI PUSH1 0x0 DUP1 REVERT JUMPDEST PUSH2 0x517F DUP11 DUP4 DUP12 ADD PUSH2 0x4BD6 JUMP JUMPDEST SWAP6 POP PUSH1 0x60 DUP10 ADD CALLDATALOAD SWAP2 POP DUP1 DUP3 GT ISZERO PUSH2 0x5195 JUMPI PUSH1 0x0 DUP1 REVERT JUMPDEST PUSH2 0x51A1 DUP11 DUP4 DUP12 ADD PUSH2 0x4BD6 JUMP JUMPDEST SWAP5 POP PUSH1 0x80 DUP10 ADD CALLDATALOAD SWAP4 POP PUSH1 0xA0 DUP10 ADD CALLDATALOAD SWAP2 POP DUP1 DUP3 GT ISZERO PUSH2 0x51BE JUMPI PUSH1 0x0 DUP1 REVERT JUMPDEST POP PUSH2 0x4DCA DUP10 DUP3 DUP11 ADD PUSH2 0x4BD6 JUMP JUMPDEST PUSH1 0x0 PUSH1 0x20 DUP1 DUP4 ADD DUP2 DUP5 MSTORE DUP1 DUP6 MLOAD DUP1 DUP4 MSTORE PUSH1 0x40 SWAP3 POP DUP3 DUP7 ADD SWAP2 POP DUP3 DUP2 PUSH1 0x5 SHL DUP8 ADD ADD DUP5 DUP9 ADD PUSH1 0x0 JUMPDEST DUP4 DUP2 LT ISZERO PUSH2 0x4AFA JUMPI PUSH1 0x3F NOT DUP10 DUP5 SUB ADD DUP6 MSTORE DUP2 MLOAD PUSH2 0x160 DUP2 MLOAD DUP6 MSTORE DUP9 DUP3 ADD MLOAD DUP2 DUP11 DUP8 ADD MSTORE PUSH2 0x5221 DUP3 DUP8 ADD DUP3 PUSH2 0x4896 JUMP JUMPDEST SWAP2 POP POP DUP8 DUP3 ADD MLOAD DUP6 DUP3 SUB DUP10 DUP8 ADD MSTORE PUSH2 0x5239 DUP3 DUP3 PUSH2 0x4896 JUMP JUMPDEST SWAP2 POP POP PUSH1 0x60 DUP1 DUP4 ADD MLOAD DUP7 DUP4 SUB DUP3 DUP9 ADD MSTORE PUSH2 0x5253 DUP4 DUP3 PUSH2 0x4896 JUMP JUMPDEST SWAP3 POP POP POP PUSH1 0x80 DUP1 DUP4 ADD MLOAD DUP7 DUP4 SUB DUP3 DUP9 ADD MSTORE PUSH2 0x526E DUP4 DUP3 PUSH2 0x4896 JUMP JUMPDEST SWAP3 POP POP POP PUSH1 0xA0 DUP1 DUP4 ADD MLOAD DUP7 DUP4 SUB DUP3 DUP9 ADD MSTORE PUSH2 0x5289 DUP4 DUP3 PUSH2 0x4896 JUMP JUMPDEST SWAP3 POP POP POP PUSH1 0xC0 DUP1 DUP4 ADD MLOAD DUP7 DUP4 SUB DUP3 DUP9 ADD MSTORE PUSH2 0x52A4 DUP4 DUP3 PUSH2 0x4974 JUMP JUMPDEST PUSH1 0xE0 DUP6 DUP2 ADD MLOAD SWAP1 DUP10 ADD MSTORE PUSH2 0x100 DUP1 DUP7 ADD MLOAD SWAP1 DUP10 ADD MSTORE PUSH2 0x120 DUP1 DUP7 ADD MLOAD SWAP1 DUP10 ADD MSTORE PUSH2 0x140 SWAP5 DUP6 ADD MLOAD DUP1 ISZERO ISZERO DUP7 DUP11 ADD MSTORE SWAP5 SWAP1 SWAP4 POP SWAP2 POP PUSH2 0x52DF SWAP1 POP JUMP JUMPDEST POP SWAP6 DUP9 ADD SWAP6 SWAP4 POP POP SWAP1 DUP7 ADD SWAP1 PUSH1 0x1 ADD PUSH2 0x51F2 JUMP JUMPDEST PUSH1 0x0 DUP1 PUSH1 0x0 DUP1 PUSH1 0x0 DUP1 PUSH1 0x0 PUSH1 0xE0 DUP9 DUP11 SUB SLT ISZERO PUSH2 0x530E JUMPI PUSH1 0x0 DUP1 REVERT JUMPDEST DUP8 CALLDATALOAD PUSH1 0x1 PUSH1 0x1 PUSH1 0x40 SHL SUB DUP1 DUP3 GT ISZERO PUSH2 0x5325 JUMPI PUSH1 0x0 DUP1 REVERT JUMPDEST PUSH2 0x5331 DUP12 DUP4 DUP13 ADD PUSH2 0x4BD6 JUMP JUMPDEST SWAP9 POP PUSH1 0x20 DUP11 ADD CALLDATALOAD SWAP2 POP DUP1 DUP3 GT ISZERO PUSH2 0x5347 JUMPI PUSH1 0x0 DUP1 REVERT JUMPDEST PUSH2 0x5353 DUP12 DUP4 DUP13 ADD PUSH2 0x4BD6 JUMP JUMPDEST SWAP8 POP PUSH1 0x40 DUP11 ADD CALLDATALOAD SWAP2 POP DUP1 DUP3 GT ISZERO PUSH2 0x5369 JUMPI PUSH1 0x0 DUP1 REVERT JUMPDEST PUSH2 0x5375 DUP12 DUP4 DUP13 ADD PUSH2 0x4BD6 JUMP JUMPDEST SWAP7 POP PUSH1 0x60 DUP11 ADD CALLDATALOAD SWAP2 POP DUP1 DUP3 GT ISZERO PUSH2 0x538B JUMPI PUSH1 0x0 DUP1 REVERT JUMPDEST PUSH2 0x5397 DUP12 DUP4 DUP13 ADD PUSH2 0x4BD6 JUMP JUMPDEST SWAP6 POP PUSH1 0x80 DUP11 ADD CALLDATALOAD SWAP2 POP DUP1 DUP3 GT ISZERO PUSH2 0x53AD JUMPI PUSH1 0x0 DUP1 REVERT JUMPDEST PUSH2 0x53B9 DUP12 DUP4 DUP13 ADD PUSH2 0x4BD6 JUMP JUMPDEST SWAP5 POP PUSH1 0xA0 DUP11 ADD CALLDATALOAD SWAP2 POP DUP1 DUP3 GT ISZERO PUSH2 0x53CF JUMPI PUSH1 0x0 DUP1 REVERT JUMPDEST PUSH2 0x53DB DUP12 DUP4 DUP13 ADD PUSH2 0x4BD6 JUMP JUMPDEST SWAP4 POP PUSH1 0xC0 DUP11 ADD CALLDATALOAD SWAP2 POP DUP1 DUP3 GT ISZERO PUSH2 0x53F1 JUMPI PUSH1 0x0 DUP1 REVERT JUMPDEST POP PUSH2 0x53FE DUP11 DUP3 DUP12 ADD PUSH2 0x4BD6 JUMP JUMPDEST SWAP2 POP POP SWAP3 SWAP6 SWAP9 SWAP2 SWAP5 SWAP8 POP SWAP3 SWAP6 POP JUMP JUMPDEST PUSH1 0x0 DUP1 PUSH1 0x0 DUP1 PUSH1 0x0 DUP1 PUSH1 0x0 PUSH1 0xE0 DUP9 DUP11 SUB SLT ISZERO PUSH2 0x5428 JUMPI PUSH1 0x0 DUP1 REVERT JUMPDEST DUP8 CALLDATALOAD SWAP7 POP PUSH1 0x20 DUP9 ADD CALLDATALOAD PUSH1 0x1 PUSH1 0x1 PUSH1 0x40 SHL SUB DUP1 DUP3 GT ISZERO PUSH2 0x5446 JUMPI PUSH1 0x0 DUP1 REVERT JUMPDEST PUSH2 0x5452 DUP12 DUP4 DUP13 ADD PUSH2 0x4BD6 JUMP JUMPDEST SWAP8 POP PUSH1 0x40 DUP11 ADD CALLDATALOAD SWAP2 POP DUP1 DUP3 GT ISZERO PUSH2 0x5468 JUMPI PUSH1 0x0 DUP1 REVERT JUMPDEST PUSH2 0x5474 DUP12 DUP4 DUP13 ADD PUSH2 0x4BD6 JUMP JUMPDEST SWAP7 POP PUSH1 0x60 DUP11 ADD CALLDATALOAD SWAP2 POP DUP1 DUP3 GT ISZERO PUSH2 0x548A JUMPI PUSH1 0x0 DUP1 REVERT JUMPDEST PUSH2 0x5496 DUP12 DUP4 DUP13 ADD PUSH2 0x4BD6 JUMP JUMPDEST SWAP6 POP PUSH1 0x80 DUP11 ADD CALLDATALOAD SWAP2 POP DUP1 DUP3 GT ISZERO PUSH2 0x54AC JUMPI PUSH1 0x0 DUP1 REVERT JUMPDEST PUSH2 0x54B8 DUP12 DUP4 DUP13 ADD PUSH2 0x4BD6 JUMP JUMPDEST SWAP5 POP PUSH1 0xA0 DUP11 ADD CALLDATALOAD SWAP2 POP DUP1 DUP3 GT ISZERO PUSH2 0x54CE JUMPI PUSH1 0x0 DUP1 REVERT JUMPDEST PUSH2 0x54DA DUP12 DUP4 DUP13 ADD PUSH2 0x4BD6 JUMP JUMPDEST SWAP4 POP PUSH1 0xC0 DUP11 ADD CALLDATALOAD SWAP2 POP DUP1 DUP3 GT ISZERO PUSH2 0x54F0 JUMPI PUSH1 0x0 DUP1 REVERT JUMPDEST POP PUSH2 0x53FE DUP11 DUP3 DUP12 ADD PUSH2 0x4C45 JUMP JUMPDEST PUSH1 0x0 DUP1 PUSH1 0x0 DUP1 PUSH1 0x0 DUP1 PUSH1 0x0 PUSH1 0xE0 DUP9 DUP11 SUB SLT ISZERO PUSH2 0x5518 JUMPI PUSH1 0x0 DUP1 REVERT JUMPDEST DUP8 CALLDATALOAD PUSH1 0x1 PUSH1 0x1 PUSH1 0x40 SHL SUB DUP1 DUP3 GT ISZERO PUSH2 0x552F JUMPI PUSH1 0x0 DUP1 REVERT JUMPDEST PUSH2 0x553B DUP12 DUP4 DUP13 ADD PUSH2 0x4BD6 JUMP JUMPDEST SWAP9 POP PUSH1 0x20 DUP11 ADD CALLDATALOAD SWAP2 POP DUP1 DUP3 GT ISZERO PUSH2 0x5446 JUMPI PUSH1 0x0 DUP1 REVERT JUMPDEST PUSH1 0x0 PUSH1 0x20 DUP3 DUP5 SUB SLT ISZERO PUSH2 0x5563 JUMPI PUSH1 0x0 DUP1 REVERT JUMPDEST PUSH2 0x556C DUP3 PUSH2 0x4F32 JUMP JUMPDEST SWAP4 SWAP3 POP POP POP JUMP JUMPDEST PUSH1 0x0 DUP1 PUSH1 0x0 DUP1 PUSH1 0x0 DUP1 PUSH1 0x0 PUSH1 0xE0 DUP9 DUP11 SUB SLT ISZERO PUSH2 0x558E JUMPI PUSH1 0x0 DUP1 REVERT JUMPDEST DUP8 CALLDATALOAD PUSH1 0x1 PUSH1 0x1 PUSH1 0x40 SHL SUB DUP1 DUP3 GT ISZERO PUSH2 0x55A5 JUMPI PUSH1 0x0 DUP1 REVERT JUMPDEST PUSH2 0x55B1 DUP12 DUP4 DUP13 ADD PUSH2 0x4BD6 JUMP JUMPDEST SWAP9 POP PUSH1 0x20 DUP11 ADD CALLDATALOAD SWAP2 POP DUP1 DUP3 GT ISZERO PUSH2 0x55C7 JUMPI PUSH1 0x0 DUP1 REVERT JUMPDEST PUSH2 0x55D3 DUP12 DUP4 DUP13 ADD PUSH2 0x4BD6 JUMP JUMPDEST SWAP8 POP PUSH1 0x40 DUP11 ADD CALLDATALOAD SWAP2 POP DUP1 DUP3 GT ISZERO PUSH2 0x55E9 JUMPI PUSH1 0x0 DUP1 REVERT JUMPDEST PUSH2 0x55F5 DUP12 DUP4 DUP13 ADD PUSH2 0x4BD6 JUMP JUMPDEST SWAP7 POP PUSH1 0x60 DUP11 ADD CALLDATALOAD SWAP2 POP DUP1 DUP3 GT ISZERO PUSH2 0x560B JUMPI PUSH1 0x0 DUP1 REVERT JUMPDEST PUSH2 0x5617 DUP12 DUP4 DUP13 ADD PUSH2 0x4BD6 JUMP JUMPDEST SWAP6 POP PUSH1 0x80 DUP11 ADD CALLDATALOAD SWAP2 POP DUP1 DUP3 GT ISZERO PUSH2 0x562D JUMPI PUSH1 0x0 DUP1 REVERT JUMPDEST PUSH2 0x5639 DUP12 DUP4 DUP13 ADD PUSH2 0x4BD6 JUMP JUMPDEST SWAP5 POP PUSH1 0xA0 DUP11 ADD CALLDATALOAD SWAP2 POP DUP1 DUP3 GT ISZERO PUSH2 0x564F JUMPI PUSH1 0x0 DUP1 REVERT JUMPDEST PUSH2 0x53DB DUP12 DUP4 DUP13 ADD PUSH2 0x4C45 JUMP JUMPDEST PUSH1 0x0 PUSH2 0x120 DUP12 DUP4 MSTORE DUP1 PUSH1 0x20 DUP5 ADD MSTORE PUSH2 0x5675 DUP2 DUP5 ADD DUP13 PUSH2 0x4896 JUMP JUMPDEST SWAP1 POP DUP3 DUP2 SUB PUSH1 0x40 DUP5 ADD MSTORE PUSH2 0x5689 DUP2 DUP12 PUSH2 0x4896 JUMP JUMPDEST SWAP1 POP DUP3 DUP2 SUB PUSH1 0x60 DUP5 ADD MSTORE PUSH2 0x569D DUP2 DUP11 PUSH2 0x4896 JUMP JUMPDEST SWAP1 POP DUP3 DUP2 SUB PUSH1 0x80 DUP5 ADD MSTORE PUSH2 0x56B1 DUP2 DUP10 PUSH2 0x4896 JUMP JUMPDEST SWAP1 POP DUP3 DUP2 SUB PUSH1 0xA0 DUP5 ADD MSTORE PUSH2 0x56C5 DUP2 DUP9 PUSH2 0x4896 JUMP JUMPDEST SWAP1 POP DUP3 DUP2 SUB PUSH1 0xC0 DUP5 ADD MSTORE PUSH2 0x56D9 DUP2 DUP8 PUSH2 0x4896 JUMP JUMPDEST PUSH1 0xE0 DUP5 ADD SWAP6 SWAP1 SWAP6 MSTORE POP POP SWAP1 ISZERO ISZERO PUSH2 0x100 SWAP1 SWAP2 ADD MSTORE SWAP8 SWAP7 POP POP POP POP POP POP POP JUMP JUMPDEST PUSH1 0x0 PUSH1 0x20 DUP1 DUP4 ADD DUP2 DUP5 MSTORE DUP1 DUP6 MLOAD DUP1 DUP4 MSTORE PUSH1 0x40 SWAP3 POP DUP3 DUP7 ADD SWAP2 POP DUP3 DUP2 PUSH1 0x5 SHL DUP8 ADD ADD DUP5 DUP9 ADD PUSH1 0x0 JUMPDEST DUP4 DUP2 LT ISZERO PUSH2 0x4AFA JUMPI PUSH1 0x3F NOT DUP10 DUP5 SUB ADD DUP6 MSTORE DUP2 MLOAD PUSH2 0x140 DUP2 MLOAD DUP6 MSTORE DUP9 DUP3 ADD MLOAD DUP2 DUP11 DUP8 ADD MSTORE PUSH2 0x574E DUP3 DUP8 ADD DUP3 PUSH2 0x4896 JUMP JUMPDEST SWAP2 POP POP DUP8 DUP3 ADD MLOAD DUP6 DUP3 SUB DUP10 DUP8 ADD MSTORE PUSH2 0x5766 DUP3 DUP3 PUSH2 0x4896 JUMP JUMPDEST SWAP2 POP POP PUSH1 0x60 DUP1 DUP4 ADD MLOAD DUP7 DUP4 SUB DUP3 DUP9 ADD MSTORE PUSH2 0x5780 DUP4 DUP3 PUSH2 0x4896 JUMP JUMPDEST SWAP3 POP POP POP PUSH1 0x80 DUP1 DUP4 ADD MLOAD DUP7 DUP4 SUB DUP3 DUP9 ADD MSTORE PUSH2 0x579B DUP4 DUP3 PUSH2 0x4896 JUMP JUMPDEST SWAP3 POP POP POP PUSH1 0xA0 DUP1 DUP4 ADD MLOAD DUP7 DUP4 SUB DUP3 DUP9 ADD MSTORE PUSH2 0x57B6 DUP4 DUP3 PUSH2 0x4896 JUMP JUMPDEST SWAP3 POP POP POP PUSH1 0xC0 DUP1 DUP4 ADD MLOAD DUP7 DUP4 SUB DUP3 DUP9 ADD MSTORE PUSH2 0x57D1 DUP4 DUP3 PUSH2 0x4896 JUMP JUMPDEST SWAP3 POP POP POP PUSH1 0xE0 DUP1 DUP4 ADD MLOAD DUP7 DUP4 SUB DUP3 DUP9 ADD MSTORE PUSH2 0x57EC DUP4 DUP3 PUSH2 0x4896 JUMP JUMPDEST SWAP3 POP POP POP PUSH2 0x100 DUP1 DUP4 ADD MLOAD DUP2 DUP8 ADD MSTORE POP PUSH2 0x120 DUP1 DUP4 ADD MLOAD SWAP3 POP PUSH2 0x5812 DUP2 DUP8 ADD DUP5 ISZERO ISZERO SWAP1 MSTORE JUMP JUMPDEST POP SWAP6 DUP9 ADD SWAP6 SWAP4 POP POP SWAP1 DUP7 ADD SWAP1 PUSH1 0x1 ADD PUSH2 0x571F JUMP JUMPDEST PUSH1 0x0 PUSH2 0x140 DUP13 DUP4 MSTORE DUP1 PUSH1 0x20 DUP5 ADD MSTORE PUSH2 0x5840 DUP2 DUP5 ADD DUP14 PUSH2 0x4896 JUMP JUMPDEST SWAP1 POP DUP3 DUP2 SUB PUSH1 0x40 DUP5 ADD MSTORE PUSH2 0x5854 DUP2 DUP13 PUSH2 0x4896 JUMP JUMPDEST SWAP1 POP DUP3 DUP2 SUB PUSH1 0x60 DUP5 ADD MSTORE PUSH2 0x5868 DUP2 DUP12 PUSH2 0x4896 JUMP JUMPDEST SWAP1 POP DUP3 DUP2 SUB PUSH1 0x80 DUP5 ADD MSTORE PUSH2 0x587C DUP2 DUP11 PUSH2 0x4896 JUMP JUMPDEST SWAP1 POP DUP3 DUP2 SUB PUSH1 0xA0 DUP5 ADD MSTORE PUSH2 0x5890 DUP2 DUP10 PUSH2 0x4896 JUMP JUMPDEST SWAP1 POP DUP3 DUP2 SUB PUSH1 0xC0 DUP5 ADD MSTORE PUSH2 0x58A4 DUP2 DUP9 PUSH2 0x4896 JUMP JUMPDEST SWAP1 POP DUP3 DUP2 SUB PUSH1 0xE0 DUP5 ADD MSTORE PUSH2 0x58B8 DUP2 DUP8 PUSH2 0x4896 JUMP JUMPDEST PUSH2 0x100 DUP5 ADD SWAP6 SWAP1 SWAP6 MSTORE POP POP SWAP1 ISZERO ISZERO PUSH2 0x120 SWAP1 SWAP2 ADD MSTORE SWAP9 SWAP8 POP POP POP POP POP POP POP POP JUMP JUMPDEST PUSH1 0x0 PUSH2 0x120 DUP1 DUP4 MSTORE PUSH2 0x58ED DUP2 DUP5 ADD DUP14 PUSH2 0x4896 JUMP JUMPDEST SWAP1 POP DUP3 DUP2 SUB PUSH1 0x20 DUP5 ADD MSTORE PUSH2 0x5901 DUP2 DUP13 PUSH2 0x4896 JUMP JUMPDEST SWAP1 POP DUP3 DUP2 SUB PUSH1 0x40 DUP5 ADD MSTORE PUSH2 0x5915 DUP2 DUP12 PUSH2 0x4896 JUMP JUMPDEST SWAP1 POP DUP3 DUP2 SUB PUSH1 0x60 DUP5 ADD MSTORE PUSH2 0x5929 DUP2 DUP11 PUSH2 0x4896 JUMP JUMPDEST SWAP1 POP DUP3 DUP2 SUB PUSH1 0x80 DUP5 ADD MSTORE PUSH2 0x593D DUP2 DUP10 PUSH2 0x4896 JUMP JUMPDEST SWAP1 POP DUP3 DUP2 SUB PUSH1 0xA0 DUP5 ADD MSTORE PUSH2 0x5951 DUP2 DUP9 PUSH2 0x4896 JUMP JUMPDEST PUSH1 0xC0 DUP5 ADD SWAP7 SWAP1 SWAP7 MSTORE POP POP PUSH1 0xE0 DUP2 ADD SWAP3 SWAP1 SWAP3 MSTORE PUSH2 0x100 SWAP1 SWAP2 ADD MSTORE SWAP7 SWAP6 POP POP POP POP POP POP JUMP JUMPDEST PUSH1 0x1 DUP2 DUP2 SHR SWAP1 DUP3 AND DUP1 PUSH2 0x5988 JUMPI PUSH1 0x7F DUP3 AND SWAP2 POP JUMPDEST PUSH1 0x20 DUP3 LT DUP2 SUB PUSH2 0x1105 JUMPI PUSH4 0x4E487B71 PUSH1 0xE0 SHL PUSH1 0x0 MSTORE PUSH1 0x22 PUSH1 0x4 MSTORE PUSH1 0x24 PUSH1 0x0 REVERT JUMPDEST PUSH4 0x4E487B71 PUSH1 0xE0 SHL PUSH1 0x0 MSTORE PUSH1 0x32 PUSH1 0x4 MSTORE PUSH1 0x24 PUSH1 0x0 REVERT JUMPDEST PUSH4 0x4E487B71 PUSH1 0xE0 SHL PUSH1 0x0 MSTORE PUSH1 0x11 PUSH1 0x4 MSTORE PUSH1 0x24 PUSH1 0x0 REVERT JUMPDEST PUSH1 0x0 PUSH1 0x1 DUP3 ADD PUSH2 0x59E6 JUMPI PUSH2 0x59E6 PUSH2 0x59BE JUMP JUMPDEST POP PUSH1 0x1 ADD SWAP1 JUMP JUMPDEST PUSH1 0x1F DUP3 GT ISZERO PUSH2 0x5A37 JUMPI PUSH1 0x0 DUP2 DUP2 MSTORE PUSH1 0x20 DUP2 KECCAK256 PUSH1 0x1F DUP6 ADD PUSH1 0x5 SHR DUP2 ADD PUSH1 0x20 DUP7 LT ISZERO PUSH2 0x5A14 JUMPI POP DUP1 JUMPDEST PUSH1 0x1F DUP6 ADD PUSH1 0x5 SHR DUP3 ADD SWAP2 POP JUMPDEST DUP2 DUP2 LT ISZERO PUSH2 0x5A33 JUMPI DUP3 DUP2 SSTORE PUSH1 0x1 ADD PUSH2 0x5A20 JUMP JUMPDEST POP POP POP JUMPDEST POP POP POP JUMP JUMPDEST DUP2 MLOAD PUSH1 0x1 PUSH1 0x1 PUSH1 0x40 SHL SUB DUP2 GT ISZERO PUSH2 0x5A55 JUMPI PUSH2 0x5A55 PUSH2 0x4B90 JUMP JUMPDEST PUSH2 0x5A69 DUP2 PUSH2 0x5A63 DUP5 SLOAD PUSH2 0x5974 JUMP JUMPDEST DUP5 PUSH2 0x59ED JUMP JUMPDEST PUSH1 0x20 DUP1 PUSH1 0x1F DUP4 GT PUSH1 0x1 DUP2 EQ PUSH2 0x5A9E JUMPI PUSH1 0x0 DUP5 ISZERO PUSH2 0x5A86 JUMPI POP DUP6 DUP4 ADD MLOAD JUMPDEST PUSH1 0x0 NOT PUSH1 0x3 DUP7 SWAP1 SHL SHR NOT AND PUSH1 0x1 DUP6 SWAP1 SHL OR DUP6 SSTORE PUSH2 0x5A33 JUMP JUMPDEST PUSH1 0x0 DUP6 DUP2 MSTORE PUSH1 0x20 DUP2 KECCAK256 PUSH1 0x1F NOT DUP7 AND SWAP2 JUMPDEST DUP3 DUP2 LT ISZERO PUSH2 0x5ACD JUMPI DUP9 DUP7 ADD MLOAD DUP3 SSTORE SWAP5 DUP5 ADD SWAP5 PUSH1 0x1 SWAP1 SWAP2 ADD SWAP1 DUP5 ADD PUSH2 0x5AAE JUMP JUMPDEST POP DUP6 DUP3 LT ISZERO PUSH2 0x5AEB JUMPI DUP8 DUP6 ADD MLOAD PUSH1 0x0 NOT PUSH1 0x3 DUP9 SWAP1 SHL PUSH1 0xF8 AND SHR NOT AND DUP2 SSTORE JUMPDEST POP POP POP POP POP PUSH1 0x1 SWAP1 DUP2 SHL ADD SWAP1 SSTORE POP JUMP JUMPDEST PUSH1 0x20 DUP2 MSTORE PUSH1 0x0 PUSH2 0x556C PUSH1 0x20 DUP4 ADD DUP5 PUSH2 0x4896 JUMP JUMPDEST PUSH1 0x0 DUP1 DUP4 SLOAD PUSH2 0x5B1C DUP2 PUSH2 0x5974 JUMP JUMPDEST PUSH1 0x1 DUP3 DUP2 AND DUP1 ISZERO PUSH2 0x5B34 JUMPI PUSH1 0x1 DUP2 EQ PUSH2 0x5B49 JUMPI PUSH2 0x5B78 JUMP JUMPDEST PUSH1 0xFF NOT DUP5 AND DUP8 MSTORE DUP3 ISZERO ISZERO DUP4 MUL DUP8 ADD SWAP5 POP PUSH2 0x5B78 JUMP JUMPDEST DUP8 PUSH1 0x0 MSTORE PUSH1 0x20 DUP1 PUSH1 0x0 KECCAK256 PUSH1 0x0 JUMPDEST DUP6 DUP2 LT ISZERO PUSH2 0x5B6F JUMPI DUP2 SLOAD DUP11 DUP3 ADD MSTORE SWAP1 DUP5 ADD SWAP1 DUP3 ADD PUSH2 0x5B56 JUMP JUMPDEST POP POP POP DUP3 DUP8 ADD SWAP5 POP JUMPDEST POP SWAP3 SWAP7 SWAP6 POP POP POP POP POP POP JUMP JUMPDEST PUSH1 0x20 DUP1 DUP3 MSTORE PUSH1 0x16 SWAP1 DUP3 ADD MSTORE PUSH22 0x141C9BDA9958DD08191BD95CC81B9BDD08195E1A5CDD PUSH1 0x52 SHL PUSH1 0x40 DUP3 ADD MSTORE PUSH1 0x60 ADD SWAP1 JUMP JUMPDEST DUP1 DUP3 ADD DUP1 DUP3 GT ISZERO PUSH2 0x5BC7 JUMPI PUSH2 0x5BC7 PUSH2 0x59BE JUMP JUMPDEST SWAP3 SWAP2 POP POP JUMP INVALID LOG2 PUSH5 0x6970667358 0x22 SLT KECCAK256 0xCB LT LOG4 CHAINID PUSH28 0xA02D39449A6E04E7FEEFC21B2D5E7F982496D7BFD80B8B982D5ADA64 PUSH20 0x6F6C634300081400330000000000000000000000 "},"methodIdentifiers":{"achievementIds(uint256)":"574726f2","achievements(uint256)":"27aed72e","addAchievement(string,string,string,string,uint256,string)":"7920efdb","addEducation(string,string,string,string,string,string,string)":"9f35998e","addExperience(string,string,string,string,string,string,string[])":"b83fac9f","addProject(string,string,string,string,string,string[])":"27b09002","addSkill(string,string,string,uint256)":"632c655f","donateEth()":"aadd1b03","educationIds(uint256)":"43b06c1f","educations(uint256)":"eaeac631","experienceIds(uint256)":"7358e08d","experiences(uint256)":"cf3e7c7c","getAllAchievements()":"7725a9fb","getAllEducations()":"e2f62dc3","getAllExperiences()":"117be5ba","getAllProjects()":"80d03829","getAllSkills()":"ccc3bba8","getPortfolioStats()":"e5e92e9c","getSkillsByCategory(string)":"56e34410","hasLikedProject(address)":"c351f0ec","incrementProfileViews()":"debf99a1","likeProject(uint256)":"66e628dd","owner()":"8da5cb5b","personalInfo()":"f2dbf12e","projectIds(uint256)":"48c35ad4","projectLikes(uint256,address)":"5e1c6ece","projects(uint256)":"107046bd","renounceOwnership()":"715018a6","skillIds(uint256)":"2e6c95b4","skills(uint256)":"50d15fbe","toggleAchievementStatus(uint256)":"722c51ae","toggleEducationStatus(uint256)":"a72a2440","toggleExperienceStatus(uint256)":"e54a3d09","toggleProjectStatus(uint256)":"8b8a417e","toggleSkillStatus(uint256)":"049bfecc","transferOwnership(address)":"f2fde38b","updatePersonalInfo(string,string,string,string,string,string[],string)":"ce47d973","updateProject(uint256,string,string,string,string,string,string[])":"a6751ba7","viewProject(uint256)":"e4375492"}}}}}