{
  "_format": "hh-sol-artifact-1",
  "contractName": "Portfolio",
  "sourceName": "contracts/Portfolio.sol",
  "abi": [
    {
      "inputs": [
        {
          "internalType": "address",
          "name": "initialOwner",
          "type": "address"
        },
        {
          "internalType": "string",
          "name": "_name",
          "type": "string"
        },
        {
          "internalType": "string",
          "name": "_bio",
          "type": "string"
        },
        {
          "internalType": "string",
          "name": "_profileImage",
          "type": "string"
        },
        {
          "internalType": "string",
          "name": "_resumeLink",
          "type": "string"
        },
        {
          "internalType": "string",
          "name": "_location",
          "type": "string"
        },
        {
          "internalType": "string",
          "name": "_email",
          "type": "string"
        },
        {
          "internalType": "string[]",
          "name": "_socialLinks",
          "type": "string[]"
        }
      ],
      "stateMutability": "nonpayable",
      "type": "constructor"
    },
    {
      "inputs": [
        {
          "internalType": "address",
          "name": "owner",
          "type": "address"
        }
      ],
      "name": "OwnableInvalidOwner",
      "type": "error"
    },
    {
      "inputs": [
        {
          "internalType": "address",
          "name": "account",
          "type": "address"
        }
      ],
      "name": "OwnableUnauthorizedAccount",
      "type": "error"
    },
    {
      "inputs": [],
      "name": "ReentrancyGuardReentrantCall",
      "type": "error"
    },
    {
      "anonymous": false,
      "inputs": [
        {
          "indexed": true,
          "internalType": "uint256",
          "name": "id",
          "type": "uint256"
        },
        {
          "indexed": false,
          "internalType": "string",
          "name": "title",
          "type": "string"
        }
      ],
      "name": "AchievementAdded",
      "type": "event"
    },
    {
      "anonymous": false,
      "inputs": [
        {
          "indexed": true,
          "internalType": "address",
          "name": "donor",
          "type": "address"
        },
        {
          "indexed": false,
          "internalType": "uint256",
          "name": "amount",
          "type": "uint256"
        }
      ],
      "name": "DonationReceived",
      "type": "event"
    },
    {
      "anonymous": false,
      "inputs": [
        {
          "indexed": true,
          "internalType": "uint256",
          "name": "id",
          "type": "uint256"
        },
        {
          "indexed": false,
          "internalType": "string",
          "name": "degree",
          "type": "string"
        }
      ],
      "name": "EducationAdded",
      "type": "event"
    },
    {
      "anonymous": false,
      "inputs": [
        {
          "indexed": true,
          "internalType": "uint256",
          "name": "id",
          "type": "uint256"
        },
        {
          "indexed": false,
          "internalType": "string",
          "name": "designation",
          "type": "string"
        }
      ],
      "name": "ExperienceAdded",
      "type": "event"
    },
    {
      "anonymous": false,
      "inputs": [
        {
          "indexed": true,
          "internalType": "address",
          "name": "previousOwner",
          "type": "address"
        },
        {
          "indexed": true,
          "internalType": "address",
          "name": "newOwner",
          "type": "address"
        }
      ],
      "name": "OwnershipTransferred",
      "type": "event"
    },
    {
      "anonymous": false,
      "inputs": [],
      "name": "ProfileUpdated",
      "type": "event"
    },
    {
      "anonymous": false,
      "inputs": [
        {
          "indexed": true,
          "internalType": "uint256",
          "name": "id",
          "type": "uint256"
        },
        {
          "indexed": false,
          "internalType": "string",
          "name": "name",
          "type": "string"
        }
      ],
      "name": "ProjectAdded",
      "type": "event"
    },
    {
      "anonymous": false,
      "inputs": [
        {
          "indexed": true,
          "internalType": "uint256",
          "name": "id",
          "type": "uint256"
        },
        {
          "indexed": true,
          "internalType": "address",
          "name": "liker",
          "type": "address"
        }
      ],
      "name": "ProjectLiked",
      "type": "event"
    },
    {
      "anonymous": false,
      "inputs": [
        {
          "indexed": true,
          "internalType": "uint256",
          "name": "id",
          "type": "uint256"
        }
      ],
      "name": "ProjectUpdated",
      "type": "event"
    },
    {
      "anonymous": false,
      "inputs": [
        {
          "indexed": true,
          "internalType": "uint256",
          "name": "id",
          "type": "uint256"
        }
      ],
      "name": "ProjectViewed",
      "type": "event"
    },
    {
      "anonymous": false,
      "inputs": [
        {
          "indexed": true,
          "internalType": "uint256",
          "name": "id",
          "type": "uint256"
        },
        {
          "indexed": false,
          "internalType": "string",
          "name": "name",
          "type": "string"
        }
      ],
      "name": "SkillAdded",
      "type": "event"
    },
    {
      "inputs": [
        {
          "internalType": "uint256",
          "name": "",
          "type": "uint256"
        }
      ],
      "name": "achievementIds",
      "outputs": [
        {
          "internalType": "uint256",
          "name": "",
          "type": "uint256"
        }
      ],
      "stateMutability": "view",
      "type": "function"
    },
    {
      "inputs": [
        {
          "internalType": "uint256",
          "name": "",
          "type": "uint256"
        }
      ],
      "name": "achievements",
      "outputs": [
        {
          "internalType": "uint256",
          "name": "id",
          "type": "uint256"
        },
        {
          "internalType": "string",
          "name": "title",
          "type": "string"
        },
        {
          "internalType": "string",
          "name": "description",
          "type": "string"
        },
        {
          "internalType": "string",
          "name": "image",
          "type": "string"
        },
        {
          "internalType": "string",
          "name": "verificationLink",
          "type": "string"
        },
        {
          "internalType": "uint256",
          "name": "date",
          "type": "uint256"
        },
        {
          "internalType": "string",
          "name": "category",
          "type": "string"
        },
        {
          "internalType": "bool",
          "name": "isActive",
          "type": "bool"
        }
      ],
      "stateMutability": "view",
      "type": "function"
    },
    {
      "inputs": [
        {
          "internalType": "string",
          "name": "_title",
          "type": "string"
        },
        {
          "internalType": "string",
          "name": "_description",
          "type": "string"
        },
        {
          "internalType": "string",
          "name": "_image",
          "type": "string"
        },
        {
          "internalType": "string",
          "name": "_verificationLink",
          "type": "string"
        },
        {
          "internalType": "uint256",
          "name": "_date",
          "type": "uint256"
        },
        {
          "internalType": "string",
          "name": "_category",
          "type": "string"
        }
      ],
      "name": "addAchievement",
      "outputs": [],
      "stateMutability": "nonpayable",
      "type": "function"
    },
    {
      "inputs": [
        {
          "internalType": "string",
          "name": "_startDate",
          "type": "string"
        },
        {
          "internalType": "string",
          "name": "_endDate",
          "type": "string"
        },
        {
          "internalType": "string",
          "name": "_degree",
          "type": "string"
        },
        {
          "internalType": "string",
          "name": "_knowledgeAcquired",
          "type": "string"
        },
        {
          "internalType": "string",
          "name": "_institutionName",
          "type": "string"
        },
        {
          "internalType": "string",
          "name": "_institutionLogo",
          "type": "string"
        },
        {
          "internalType": "string",
          "name": "_grade",
          "type": "string"
        }
      ],
      "name": "addEducation",
      "outputs": [],
      "stateMutability": "nonpayable",
      "type": "function"
    },
    {
      "inputs": [
        {
          "internalType": "string",
          "name": "_startDate",
          "type": "string"
        },
        {
          "internalType": "string",
          "name": "_endDate",
          "type": "string"
        },
        {
          "internalType": "string",
          "name": "_designation",
          "type": "string"
        },
        {
          "internalType": "string",
          "name": "_experienceAcquired",
          "type": "string"
        },
        {
          "internalType": "string",
          "name": "_companyName",
          "type": "string"
        },
        {
          "internalType": "string",
          "name": "_companyLogo",
          "type": "string"
        },
        {
          "internalType": "string[]",
          "name": "_skills",
          "type": "string[]"
        }
      ],
      "name": "addExperience",
      "outputs": [],
      "stateMutability": "nonpayable",
      "type": "function"
    },
    {
      "inputs": [
        {
          "internalType": "string",
          "name": "_name",
          "type": "string"
        },
        {
          "internalType": "string",
          "name": "_description",
          "type": "string"
        },
        {
          "internalType": "string",
          "name": "_image",
          "type": "string"
        },
        {
          "internalType": "string",
          "name": "_githubLink",
          "type": "string"
        },
        {
          "internalType": "string",
          "name": "_liveLink",
          "type": "string"
        },
        {
          "internalType": "string[]",
          "name": "_technologies",
          "type": "string[]"
        }
      ],
      "name": "addProject",
      "outputs": [],
      "stateMutability": "nonpayable",
      "type": "function"
    },
    {
      "inputs": [
        {
          "internalType": "string",
          "name": "_name",
          "type": "string"
        },
        {
          "internalType": "string",
          "name": "_category",
          "type": "string"
        },
        {
          "internalType": "string",
          "name": "_icon",
          "type": "string"
        },
        {
          "internalType": "uint256",
          "name": "_proficiencyLevel",
          "type": "uint256"
        }
      ],
      "name": "addSkill",
      "outputs": [],
      "stateMutability": "nonpayable",
      "type": "function"
    },
    {
      "inputs": [],
      "name": "donateEth",
      "outputs": [],
      "stateMutability": "payable",
      "type": "function"
    },
    {
      "inputs": [
        {
          "internalType": "uint256",
          "name": "",
          "type": "uint256"
        }
      ],
      "name": "educationIds",
      "outputs": [
        {
          "internalType": "uint256",
          "name": "",
          "type": "uint256"
        }
      ],
      "stateMutability": "view",
      "type": "function"
    },
    {
      "inputs": [
        {
          "internalType": "uint256",
          "name": "",
          "type": "uint256"
        }
      ],
      "name": "educations",
      "outputs": [
        {
          "internalType": "uint256",
          "name": "id",
          "type": "uint256"
        },
        {
          "internalType": "string",
          "name": "startDate",
          "type": "string"
        },
        {
          "internalType": "string",
          "name": "endDate",
          "type": "string"
        },
        {
          "internalType": "string",
          "name": "degree",
          "type": "string"
        },
        {
          "internalType": "string",
          "name": "knowledgeAcquired",
          "type": "string"
        },
        {
          "internalType": "string",
          "name": "institutionName",
          "type": "string"
        },
        {
          "internalType": "string",
          "name": "institutionLogo",
          "type": "string"
        },
        {
          "internalType": "string",
          "name": "grade",
          "type": "string"
        },
        {
          "internalType": "uint256",
          "name": "createdAt",
          "type": "uint256"
        },
        {
          "internalType": "bool",
          "name": "isActive",
          "type": "bool"
        }
      ],
      "stateMutability": "view",
      "type": "function"
    },
    {
      "inputs": [
        {
          "internalType": "uint256",
          "name": "",
          "type": "uint256"
        }
      ],
      "name": "experienceIds",
      "outputs": [
        {
          "internalType": "uint256",
          "name": "",
          "type": "uint256"
        }
      ],
      "stateMutability": "view",
      "type": "function"
    },
    {
      "inputs": [
        {
          "internalType": "uint256",
          "name": "",
          "type": "uint256"
        }
      ],
      "name": "experiences",
      "outputs": [
        {
          "internalType": "uint256",
          "name": "id",
          "type": "uint256"
        },
        {
          "internalType": "string",
          "name": "startDate",
          "type": "string"
        },
        {
          "internalType": "string",
          "name": "endDate",
          "type": "string"
        },
        {
          "internalType": "string",
          "name": "designation",
          "type": "string"
        },
        {
          "internalType": "string",
          "name": "experienceAcquired",
          "type": "string"
        },
        {
          "internalType": "string",
          "name": "companyName",
          "type": "string"
        },
        {
          "internalType": "string",
          "name": "companyLogo",
          "type": "string"
        },
        {
          "internalType": "uint256",
          "name": "createdAt",
          "type": "uint256"
        },
        {
          "internalType": "bool",
          "name": "isActive",
          "type": "bool"
        }
      ],
      "stateMutability": "view",
      "type": "function"
    },
    {
      "inputs": [],
      "name": "getAllAchievements",
      "outputs": [
        {
          "components": [
            {
              "internalType": "uint256",
              "name": "id",
              "type": "uint256"
            },
            {
              "internalType": "string",
              "name": "title",
              "type": "string"
            },
            {
              "internalType": "string",
              "name": "description",
              "type": "string"
            },
            {
              "internalType": "string",
              "name": "image",
              "type": "string"
            },
            {
              "internalType": "string",
              "name": "verificationLink",
              "type": "string"
            },
            {
              "internalType": "uint256",
              "name": "date",
              "type": "uint256"
            },
            {
              "internalType": "string",
              "name": "category",
              "type": "string"
            },
            {
              "internalType": "bool",
              "name": "isActive",
              "type": "bool"
            }
          ],
          "internalType": "struct Portfolio.Achievement[]",
          "name": "",
          "type": "tuple[]"
        }
      ],
      "stateMutability": "view",
      "type": "function"
    },
    {
      "inputs": [],
      "name": "getAllEducations",
      "outputs": [
        {
          "components": [
            {
              "internalType": "uint256",
              "name": "id",
              "type": "uint256"
            },
            {
              "internalType": "string",
              "name": "startDate",
              "type": "string"
            },
            {
              "internalType": "string",
              "name": "endDate",
              "type": "string"
            },
            {
              "internalType": "string",
              "name": "degree",
              "type": "string"
            },
            {
              "internalType": "string",
              "name": "knowledgeAcquired",
              "type": "string"
            },
            {
              "internalType": "string",
              "name": "institutionName",
              "type": "string"
            },
            {
              "internalType": "string",
              "name": "institutionLogo",
              "type": "string"
            },
            {
              "internalType": "string",
              "name": "grade",
              "type": "string"
            },
            {
              "internalType": "uint256",
              "name": "createdAt",
              "type": "uint256"
            },
            {
              "internalType": "bool",
              "name": "isActive",
              "type": "bool"
            }
          ],
          "internalType": "struct Portfolio.Education[]",
          "name": "",
          "type": "tuple[]"
        }
      ],
      "stateMutability": "view",
      "type": "function"
    },
    {
      "inputs": [],
      "name": "getAllExperiences",
      "outputs": [
        {
          "components": [
            {
              "internalType": "uint256",
              "name": "id",
              "type": "uint256"
            },
            {
              "internalType": "string",
              "name": "startDate",
              "type": "string"
            },
            {
              "internalType": "string",
              "name": "endDate",
              "type": "string"
            },
            {
              "internalType": "string",
              "name": "designation",
              "type": "string"
            },
            {
              "internalType": "string",
              "name": "experienceAcquired",
              "type": "string"
            },
            {
              "internalType": "string",
              "name": "companyName",
              "type": "string"
            },
            {
              "internalType": "string",
              "name": "companyLogo",
              "type": "string"
            },
            {
              "internalType": "string[]",
              "name": "skills",
              "type": "string[]"
            },
            {
              "internalType": "uint256",
              "name": "createdAt",
              "type": "uint256"
            },
            {
              "internalType": "bool",
              "name": "isActive",
              "type": "bool"
            }
          ],
          "internalType": "struct Portfolio.Experience[]",
          "name": "",
          "type": "tuple[]"
        }
      ],
      "stateMutability": "view",
      "type": "function"
    },
    {
      "inputs": [],
      "name": "getAllProjects",
      "outputs": [
        {
          "components": [
            {
              "internalType": "uint256",
              "name": "id",
              "type": "uint256"
            },
            {
              "internalType": "string",
              "name": "name",
              "type": "string"
            },
            {
              "internalType": "string",
              "name": "description",
              "type": "string"
            },
            {
              "internalType": "string",
              "name": "image",
              "type": "string"
            },
            {
              "internalType": "string",
              "name": "githubLink",
              "type": "string"
            },
            {
              "internalType": "string",
              "name": "liveLink",
              "type": "string"
            },
            {
              "internalType": "string[]",
              "name": "technologies",
              "type": "string[]"
            },
            {
              "internalType": "uint256",
              "name": "likes",
              "type": "uint256"
            },
            {
              "internalType": "uint256",
              "name": "views",
              "type": "uint256"
            },
            {
              "internalType": "uint256",
              "name": "createdAt",
              "type": "uint256"
            },
            {
              "internalType": "bool",
              "name": "isActive",
              "type": "bool"
            }
          ],
          "internalType": "struct Portfolio.Project[]",
          "name": "",
          "type": "tuple[]"
        }
      ],
      "stateMutability": "view",
      "type": "function"
    },
    {
      "inputs": [],
      "name": "getAllSkills",
      "outputs": [
        {
          "components": [
            {
              "internalType": "uint256",
              "name": "id",
              "type": "uint256"
            },
            {
              "internalType": "string",
              "name": "name",
              "type": "string"
            },
            {
              "internalType": "string",
              "name": "category",
              "type": "string"
            },
            {
              "internalType": "string",
              "name": "icon",
              "type": "string"
            },
            {
              "internalType": "uint256",
              "name": "proficiencyLevel",
              "type": "uint256"
            },
            {
              "internalType": "uint256",
              "name": "createdAt",
              "type": "uint256"
            },
            {
              "internalType": "bool",
              "name": "isActive",
              "type": "bool"
            }
          ],
          "internalType": "struct Portfolio.Skill[]",
          "name": "",
          "type": "tuple[]"
        }
      ],
      "stateMutability": "view",
      "type": "function"
    },
    {
      "inputs": [],
      "name": "getPortfolioStats",
      "outputs": [
        {
          "internalType": "uint256",
          "name": "totalProjects",
          "type": "uint256"
        },
        {
          "internalType": "uint256",
          "name": "totalEducations",
          "type": "uint256"
        },
        {
          "internalType": "uint256",
          "name": "totalExperiences",
          "type": "uint256"
        },
        {
          "internalType": "uint256",
          "name": "totalSkills",
          "type": "uint256"
        },
        {
          "internalType": "uint256",
          "name": "totalAchievements",
          "type": "uint256"
        },
        {
          "internalType": "uint256",
          "name": "totalLikes",
          "type": "uint256"
        },
        {
          "internalType": "uint256",
          "name": "totalViews",
          "type": "uint256"
        },
        {
          "internalType": "uint256",
          "name": "profileViews",
          "type": "uint256"
        },
        {
          "internalType": "uint256",
          "name": "totalDonations",
          "type": "uint256"
        }
      ],
      "stateMutability": "view",
      "type": "function"
    },
    {
      "inputs": [
        {
          "internalType": "string",
          "name": "_category",
          "type": "string"
        }
      ],
      "name": "getSkillsByCategory",
      "outputs": [
        {
          "components": [
            {
              "internalType": "uint256",
              "name": "id",
              "type": "uint256"
            },
            {
              "internalType": "string",
              "name": "name",
              "type": "string"
            },
            {
              "internalType": "string",
              "name": "category",
              "type": "string"
            },
            {
              "internalType": "string",
              "name": "icon",
              "type": "string"
            },
            {
              "internalType": "uint256",
              "name": "proficiencyLevel",
              "type": "uint256"
            },
            {
              "internalType": "uint256",
              "name": "createdAt",
              "type": "uint256"
            },
            {
              "internalType": "bool",
              "name": "isActive",
              "type": "bool"
            }
          ],
          "internalType": "struct Portfolio.Skill[]",
          "name": "",
          "type": "tuple[]"
        }
      ],
      "stateMutability": "view",
      "type": "function"
    },
    {
      "inputs": [
        {
          "internalType": "address",
          "name": "",
          "type": "address"
        }
      ],
      "name": "hasLikedProject",
      "outputs": [
        {
          "internalType": "bool",
          "name": "",
          "type": "bool"
        }
      ],
      "stateMutability": "view",
      "type": "function"
    },
    {
      "inputs": [],
      "name": "incrementProfileViews",
      "outputs": [],
      "stateMutability": "nonpayable",
      "type": "function"
    },
    {
      "inputs": [
        {
          "internalType": "uint256",
          "name": "_projectId",
          "type": "uint256"
        }
      ],
      "name": "likeProject",
      "outputs": [],
      "stateMutability": "nonpayable",
      "type": "function"
    },
    {
      "inputs": [],
      "name": "owner",
      "outputs": [
        {
          "internalType": "address",
          "name": "",
          "type": "address"
        }
      ],
      "stateMutability": "view",
      "type": "function"
    },
    {
      "inputs": [],
      "name": "personalInfo",
      "outputs": [
        {
          "internalType": "string",
          "name": "name",
          "type": "string"
        },
        {
          "internalType": "string",
          "name": "bio",
          "type": "string"
        },
        {
          "internalType": "string",
          "name": "profileImage",
          "type": "string"
        },
        {
          "internalType": "string",
          "name": "resumeLink",
          "type": "string"
        },
        {
          "internalType": "string",
          "name": "location",
          "type": "string"
        },
        {
          "internalType": "string",
          "name": "email",
          "type": "string"
        },
        {
          "internalType": "uint256",
          "name": "totalDonations",
          "type": "uint256"
        },
        {
          "internalType": "uint256",
          "name": "profileViews",
          "type": "uint256"
        },
        {
          "internalType": "uint256",
          "name": "lastUpdated",
          "type": "uint256"
        }
      ],
      "stateMutability": "view",
      "type": "function"
    },
    {
      "inputs": [
        {
          "internalType": "uint256",
          "name": "",
          "type": "uint256"
        }
      ],
      "name": "projectIds",
      "outputs": [
        {
          "internalType": "uint256",
          "name": "",
          "type": "uint256"
        }
      ],
      "stateMutability": "view",
      "type": "function"
    },
    {
      "inputs": [
        {
          "internalType": "uint256",
          "name": "",
          "type": "uint256"
        },
        {
          "internalType": "address",
          "name": "",
          "type": "address"
        }
      ],
      "name": "projectLikes",
      "outputs": [
        {
          "internalType": "bool",
          "name": "",
          "type": "bool"
        }
      ],
      "stateMutability": "view",
      "type": "function"
    },
    {
      "inputs": [
        {
          "internalType": "uint256",
          "name": "",
          "type": "uint256"
        }
      ],
      "name": "projects",
      "outputs": [
        {
          "internalType": "uint256",
          "name": "id",
          "type": "uint256"
        },
        {
          "internalType": "string",
          "name": "name",
          "type": "string"
        },
        {
          "internalType": "string",
          "name": "description",
          "type": "string"
        },
        {
          "internalType": "string",
          "name": "image",
          "type": "string"
        },
        {
          "internalType": "string",
          "name": "githubLink",
          "type": "string"
        },
        {
          "internalType": "string",
          "name": "liveLink",
          "type": "string"
        },
        {
          "internalType": "uint256",
          "name": "likes",
          "type": "uint256"
        },
        {
          "internalType": "uint256",
          "name": "views",
          "type": "uint256"
        },
        {
          "internalType": "uint256",
          "name": "createdAt",
          "type": "uint256"
        },
        {
          "internalType": "bool",
          "name": "isActive",
          "type": "bool"
        }
      ],
      "stateMutability": "view",
      "type": "function"
    },
    {
      "inputs": [],
      "name": "renounceOwnership",
      "outputs": [],
      "stateMutability": "nonpayable",
      "type": "function"
    },
    {
      "inputs": [
        {
          "internalType": "uint256",
          "name": "",
          "type": "uint256"
        }
      ],
      "name": "skillIds",
      "outputs": [
        {
          "internalType": "uint256",
          "name": "",
          "type": "uint256"
        }
      ],
      "stateMutability": "view",
      "type": "function"
    },
    {
      "inputs": [
        {
          "internalType": "uint256",
          "name": "",
          "type": "uint256"
        }
      ],
      "name": "skills",
      "outputs": [
        {
          "internalType": "uint256",
          "name": "id",
          "type": "uint256"
        },
        {
          "internalType": "string",
          "name": "name",
          "type": "string"
        },
        {
          "internalType": "string",
          "name": "category",
          "type": "string"
        },
        {
          "internalType": "string",
          "name": "icon",
          "type": "string"
        },
        {
          "internalType": "uint256",
          "name": "proficiencyLevel",
          "type": "uint256"
        },
        {
          "internalType": "uint256",
          "name": "createdAt",
          "type": "uint256"
        },
        {
          "internalType": "bool",
          "name": "isActive",
          "type": "bool"
        }
      ],
      "stateMutability": "view",
      "type": "function"
    },
    {
      "inputs": [
        {
          "internalType": "uint256",
          "name": "_achievementId",
          "type": "uint256"
        }
      ],
      "name": "toggleAchievementStatus",
      "outputs": [],
      "stateMutability": "nonpayable",
      "type": "function"
    },
    {
      "inputs": [
        {
          "internalType": "uint256",
          "name": "_educationId",
          "type": "uint256"
        }
      ],
      "name": "toggleEducationStatus",
      "outputs": [],
      "stateMutability": "nonpayable",
      "type": "function"
    },
    {
      "inputs": [
        {
          "internalType": "uint256",
          "name": "_experienceId",
          "type": "uint256"
        }
      ],
      "name": "toggleExperienceStatus",
      "outputs": [],
      "stateMutability": "nonpayable",
      "type": "function"
    },
    {
      "inputs": [
        {
          "internalType": "uint256",
          "name": "_projectId",
          "type": "uint256"
        }
      ],
      "name": "toggleProjectStatus",
      "outputs": [],
      "stateMutability": "nonpayable",
      "type": "function"
    },
    {
      "inputs": [
        {
          "internalType": "uint256",
          "name": "_skillId",
          "type": "uint256"
        }
      ],
      "name": "toggleSkillStatus",
      "outputs": [],
      "stateMutability": "nonpayable",
      "type": "function"
    },
    {
      "inputs": [
        {
          "internalType": "address",
          "name": "newOwner",
          "type": "address"
        }
      ],
      "name": "transferOwnership",
      "outputs": [],
      "stateMutability": "nonpayable",
      "type": "function"
    },
    {
      "inputs": [
        {
          "internalType": "string",
          "name": "_name",
          "type": "string"
        },
        {
          "internalType": "string",
          "name": "_bio",
          "type": "string"
        },
        {
          "internalType": "string",
          "name": "_profileImage",
          "type": "string"
        },
        {
          "internalType": "string",
          "name": "_resumeLink",
          "type": "string"
        },
        {
          "internalType": "string",
          "name": "_location",
          "type": "string"
        },
        {
          "internalType": "string[]",
          "name": "_socialLinks",
          "type": "string[]"
        },
        {
          "internalType": "string",
          "name": "_email",
          "type": "string"
        }
      ],
      "name": "updatePersonalInfo",
      "outputs": [],
      "stateMutability": "nonpayable",
      "type": "function"
    },
    {
      "inputs": [
        {
          "internalType": "uint256",
          "name": "_id",
          "type": "uint256"
        },
        {
          "internalType": "string",
          "name": "_name",
          "type": "string"
        },
        {
          "internalType": "string",
          "name": "_description",
          "type": "string"
        },
        {
          "internalType": "string",
          "name": "_image",
          "type": "string"
        },
        {
          "internalType": "string",
          "name": "_githubLink",
          "type": "string"
        },
        {
          "internalType": "string",
          "name": "_liveLink",
          "type": "string"
        },
        {
          "internalType": "string[]",
          "name": "_technologies",
          "type": "string[]"
        }
      ],
      "name": "updateProject",
      "outputs": [],
      "stateMutability": "nonpayable",
      "type": "function"
    },
    {
      "inputs": [
        {
          "internalType": "uint256",
          "name": "_projectId",
          "type": "uint256"
        }
      ],
      "name": "viewProject",
      "outputs": [],
      "stateMutability": "nonpayable",
      "type": "function"
    }
  ],
  "bytecode": "0x60806040523480156200001157600080fd5b506040516200630938038062006309833981016040819052620000349162000457565b876001600160a01b0381166200006457604051631e4fbdf760e01b81526000600482015260240160405180910390fd5b6200006f8162000193565b5060018055604080516101408101825288815260208101889052908101869052606081018590526080810184905260a0810182905260c08101839052600060e0820181905261010082015242610120820152601380620000d08a826200062a565b5060208201516001820190620000e790826200062a565b5060408201516002820190620000fe90826200062a565b50606082015160038201906200011590826200062a565b50608082015160048201906200012c90826200062a565b5060a082015180516200014a916005840191602090910190620001e3565b5060c082015160068201906200016190826200062a565b5060e08201518160070155610100820151816008015561012082015181600901559050505050505050505050620006f6565b600080546001600160a01b038381166001600160a01b0319831681178455604051919092169283917f8be0079c531659141344cd1fd0a4f28419497f9722a3daafe3b4186f6b6457e09190a35050565b8280548282559060005260206000209081019282156200022e579160200282015b828111156200022e57825182906200021d90826200062a565b509160200191906001019062000204565b506200023c92915062000240565b5090565b808211156200023c57600062000257828262000261565b5060010162000240565b5080546200026f906200059b565b6000825580601f1062000280575050565b601f016020900490600052602060002090810190620002a09190620002a3565b50565b5b808211156200023c5760008155600101620002a4565b80516001600160a01b0381168114620002d257600080fd5b919050565b634e487b7160e01b600052604160045260246000fd5b604051601f8201601f191681016001600160401b0381118282101715620003185762000318620002d7565b604052919050565b600082601f8301126200033257600080fd5b81516001600160401b038111156200034e576200034e620002d7565b602062000364601f8301601f19168201620002ed565b82815285828487010111156200037957600080fd5b60005b83811015620003995785810183015182820184015282016200037c565b506000928101909101919091529392505050565b600082601f830112620003bf57600080fd5b815160206001600160401b0380831115620003de57620003de620002d7565b8260051b620003ef838201620002ed565b93845285810183019383810190888611156200040a57600080fd5b84880192505b858310156200044b578251848111156200042a5760008081fd5b6200043a8a87838c010162000320565b835250918401919084019062000410565b98975050505050505050565b600080600080600080600080610100898b0312156200047557600080fd5b6200048089620002ba565b60208a01519098506001600160401b03808211156200049e57600080fd5b620004ac8c838d0162000320565b985060408b0151915080821115620004c357600080fd5b620004d18c838d0162000320565b975060608b0151915080821115620004e857600080fd5b620004f68c838d0162000320565b965060808b01519150808211156200050d57600080fd5b6200051b8c838d0162000320565b955060a08b01519150808211156200053257600080fd5b620005408c838d0162000320565b945060c08b01519150808211156200055757600080fd5b620005658c838d0162000320565b935060e08b01519150808211156200057c57600080fd5b506200058b8b828c01620003ad565b9150509295985092959890939650565b600181811c90821680620005b057607f821691505b602082108103620005d157634e487b7160e01b600052602260045260246000fd5b50919050565b601f8211156200062557600081815260208120601f850160051c81016020861015620006005750805b601f850160051c820191505b8181101562000621578281556001016200060c565b5050505b505050565b81516001600160401b03811115620006465762000646620002d7565b6200065e816200065784546200059b565b84620005d7565b602080601f8311600181146200069657600084156200067d5750858301515b600019600386901b1c1916600185901b17855562000621565b600085815260208120601f198616915b82811015620006c757888601518255948401946001909101908401620006a6565b5085821015620006e65787850151600019600388901b60f8161c191681555b5050505050600190811b01905550565b615c0380620007066000396000f3fe6080604052600436106102305760003560e01c806380d038291161012e578063ce47d973116100ab578063e54a3d091161006f578063e54a3d09146106ff578063e5e92e9c1461071f578063eaeac63114610778578063f2dbf12e146107ae578063f2fde38b146107d857600080fd5b8063ce47d97314610653578063cf3e7c7c14610673578063debf99a1146106a8578063e2f62dc3146106bd578063e4375492146106df57600080fd5b8063a72a2440116100f2578063a72a2440146105c6578063aadd1b03146105e6578063b83fac9f146105ee578063c351f0ec1461060e578063ccc3bba81461063e57600080fd5b806380d038291461051c5780638b8a417e1461053e5780638da5cb5b1461055e5780639f35998e14610586578063a6751ba7146105a657600080fd5b806356e34410116101bc578063715018a611610180578063715018a614610485578063722c51ae1461049a5780637358e08d146104ba5780637725a9fb146104da5780637920efdb146104fc57600080fd5b806356e34410146103ad578063574726f2146103da5780635e1c6ece146103fa578063632c655f1461044557806366e628dd1461046557600080fd5b806327b090021161020357806327b09002146102ec5780632e6c95b41461030c57806343b06c1f1461033a57806348c35ad41461035a57806350d15fbe1461037a57600080fd5b8063049bfecc14610235578063107046bd14610257578063117be5ba1461029657806327aed72e146102b8575b600080fd5b34801561024157600080fd5b5061025561025036600461487d565b6107f8565b005b34801561026357600080fd5b5061027761027236600461487d565b61087c565b60405161028d9a999897969594939291906148dc565b60405180910390f35b3480156102a257600080fd5b506102ab610b75565b60405161028d91906149cc565b3480156102c457600080fd5b506102d86102d336600461487d565b61110b565b60405161028d989796959493929190614b08565b3480156102f857600080fd5b50610255610307366004614ce3565b6113f7565b34801561031857600080fd5b5061032c61032736600461487d565b6115b6565b60405190815260200161028d565b34801561034657600080fd5b5061032c61035536600461487d565b6115d7565b34801561036657600080fd5b5061032c61037536600461487d565b6115e7565b34801561038657600080fd5b5061039a61039536600461487d565b6115f7565b60405161028d9796959493929190614dd7565b3480156103b957600080fd5b506103cd6103c8366004614e38565b6117cf565b60405161028d9190614e74565b3480156103e657600080fd5b5061032c6103f536600461487d565b611c35565b34801561040657600080fd5b50610435610415366004614f4e565b600d60209081526000928352604080842090915290825290205460ff1681565b604051901515815260200161028d565b34801561045157600080fd5b50610255610460366004614f7a565b611c45565b34801561047157600080fd5b5061025561048036600461487d565b611df1565b34801561049157600080fd5b50610255611efd565b3480156104a657600080fd5b506102556104b536600461487d565b611f11565b3480156104c657600080fd5b5061032c6104d536600461487d565b611f99565b3480156104e657600080fd5b506104ef611fa9565b60405161028d9190615009565b34801561050857600080fd5b506102556105173660046150ff565b6123c1565b34801561052857600080fd5b50610531612527565b60405161028d91906151cb565b34801561054a57600080fd5b5061025561055936600461487d565b612a40565b34801561056a57600080fd5b506000546040516001600160a01b03909116815260200161028d565b34801561059257600080fd5b506102556105a13660046152f3565b612a98565b3480156105b257600080fd5b506102556105c136600461540d565b612c4a565b3480156105d257600080fd5b506102556105e136600461487d565b612d65565b610255612ded565b3480156105fa57600080fd5b506102556106093660046154fd565b612f50565b34801561061a57600080fd5b50610435610629366004615551565b600c6020526000908152604090205460ff1681565b34801561064a57600080fd5b506103cd6130f7565b34801561065f57600080fd5b5061025561066e366004615573565b6133eb565b34801561067f57600080fd5b5061069361068e36600461487d565b61348b565b60405161028d9998979695949392919061565b565b3480156106b457600080fd5b50610255613806565b3480156106c957600080fd5b506106d261381d565b60405161028d91906156f8565b3480156106eb57600080fd5b506102556106fa36600461487d565b613d66565b34801561070b57600080fd5b5061025561071a36600461487d565b613de7565b34801561072b57600080fd5b50610734613e70565b60408051998a5260208a0198909852968801959095526060870193909352608086019190915260a085015260c084015260e08301526101008201526101200161028d565b34801561078457600080fd5b5061079861079336600461487d565b613f68565b60405161028d9a99989796959493929190615826565b3480156107ba57600080fd5b506107c3614371565b60405161028d999897969594939291906158d9565b3480156107e457600080fd5b506102556107f3366004615551565b6146db565b610800614719565b6000818152600a602052604081205490036108595760405162461bcd60e51b815260206004820152601460248201527314dada5b1b08191bd95cc81b9bdd08195e1a5cdd60621b60448201526064015b60405180910390fd5b6000908152600a60205260409020600601805460ff19811660ff90911615179055565b6007602052600090815260409020805460018201805491929161089e90615974565b80601f01602080910402602001604051908101604052809291908181526020018280546108ca90615974565b80156109175780601f106108ec57610100808354040283529160200191610917565b820191906000526020600020905b8154815290600101906020018083116108fa57829003601f168201915b50505050509080600201805461092c90615974565b80601f016020809104026020016040519081016040528092919081815260200182805461095890615974565b80156109a55780601f1061097a576101008083540402835291602001916109a5565b820191906000526020600020905b81548152906001019060200180831161098857829003601f168201915b5050505050908060030180546109ba90615974565b80601f01602080910402602001604051908101604052809291908181526020018280546109e690615974565b8015610a335780601f10610a0857610100808354040283529160200191610a33565b820191906000526020600020905b815481529060010190602001808311610a1657829003601f168201915b505050505090806004018054610a4890615974565b80601f0160208091040260200160405190810160405280929190818152602001828054610a7490615974565b8015610ac15780601f10610a9657610100808354040283529160200191610ac1565b820191906000526020600020905b815481529060010190602001808311610aa457829003601f168201915b505050505090806005018054610ad690615974565b80601f0160208091040260200160405190810160405280929190818152602001828054610b0290615974565b8015610b4f5780601f10610b2457610100808354040283529160200191610b4f565b820191906000526020600020905b815481529060010190602001808311610b3257829003601f168201915b50505050600783015460088401546009850154600a909501549394919390925060ff168a565b6010546060906000906001600160401b03811115610b9557610b95614b90565b604051908082528060200260200182016040528015610c1e57816020015b610c0b6040518061014001604052806000815260200160608152602001606081526020016060815260200160608152602001606081526020016060815260200160608152602001600081526020016000151581525090565b815260200190600190039081610bb35790505b50905060005b601054811015611105576009600060108381548110610c4557610c456159a8565b906000526020600020015481526020019081526020016000206040518061014001604052908160008201548152602001600182018054610c8490615974565b80601f0160208091040260200160405190810160405280929190818152602001828054610cb090615974565b8015610cfd5780601f10610cd257610100808354040283529160200191610cfd565b820191906000526020600020905b815481529060010190602001808311610ce057829003601f168201915b50505050508152602001600282018054610d1690615974565b80601f0160208091040260200160405190810160405280929190818152602001828054610d4290615974565b8015610d8f5780601f10610d6457610100808354040283529160200191610d8f565b820191906000526020600020905b815481529060010190602001808311610d7257829003601f168201915b50505050508152602001600382018054610da890615974565b80601f0160208091040260200160405190810160405280929190818152602001828054610dd490615974565b8015610e215780601f10610df657610100808354040283529160200191610e21565b820191906000526020600020905b815481529060010190602001808311610e0457829003601f168201915b50505050508152602001600482018054610e3a90615974565b80601f0160208091040260200160405190810160405280929190818152602001828054610e6690615974565b8015610eb35780601f10610e8857610100808354040283529160200191610eb3565b820191906000526020600020905b815481529060010190602001808311610e9657829003601f168201915b50505050508152602001600582018054610ecc90615974565b80601f0160208091040260200160405190810160405280929190818152602001828054610ef890615974565b8015610f455780601f10610f1a57610100808354040283529160200191610f45565b820191906000526020600020905b815481529060010190602001808311610f2857829003601f168201915b50505050508152602001600682018054610f5e90615974565b80601f0160208091040260200160405190810160405280929190818152602001828054610f8a90615974565b8015610fd75780601f10610fac57610100808354040283529160200191610fd7565b820191906000526020600020905b815481529060010190602001808311610fba57829003601f168201915b5050505050815260200160078201805480602002602001604051908101604052809291908181526020016000905b828210156110b157838290600052602060002001805461102490615974565b80601f016020809104026020016040519081016040528092919081815260200182805461105090615974565b801561109d5780601f106110725761010080835404028352916020019161109d565b820191906000526020600020905b81548152906001019060200180831161108057829003601f168201915b505050505081526020019060010190611005565b505050908252506008820154602082015260099091015460ff16151560409091015282518390839081106110e7576110e76159a8565b602002602001018190525080806110fd906159d4565b915050610c24565b50919050565b600b602052600090815260409020805460018201805491929161112d90615974565b80601f016020809104026020016040519081016040528092919081815260200182805461115990615974565b80156111a65780601f1061117b576101008083540402835291602001916111a6565b820191906000526020600020905b81548152906001019060200180831161118957829003601f168201915b5050505050908060020180546111bb90615974565b80601f01602080910402602001604051908101604052809291908181526020018280546111e790615974565b80156112345780601f1061120957610100808354040283529160200191611234565b820191906000526020600020905b81548152906001019060200180831161121757829003601f168201915b50505050509080600301805461124990615974565b80601f016020809104026020016040519081016040528092919081815260200182805461127590615974565b80156112c25780601f10611297576101008083540402835291602001916112c2565b820191906000526020600020905b8154815290600101906020018083116112a557829003601f168201915b5050505050908060040180546112d790615974565b80601f016020809104026020016040519081016040528092919081815260200182805461130390615974565b80156113505780601f1061132557610100808354040283529160200191611350565b820191906000526020600020905b81548152906001019060200180831161133357829003601f168201915b50505050509080600501549080600601805461136b90615974565b80601f016020809104026020016040519081016040528092919081815260200182805461139790615974565b80156113e45780601f106113b9576101008083540402835291602001916113e4565b820191906000526020600020905b8154815290600101906020018083116113c757829003601f168201915b5050506007909301549192505060ff1688565b6113ff614719565b60026000815461140e906159d4565b90915550600254604080516101608101825282815260208082018a81528284018a9052606083018990526080830188905260a0830187905260c08301869052600060e0840181905261010084018190524261012085015260016101408501819052868252600790935293909320825181559251919291908201906114929082615a3c565b50604082015160028201906114a79082615a3c565b50606082015160038201906114bc9082615a3c565b50608082015160048201906114d19082615a3c565b5060a082015160058201906114e69082615a3c565b5060c082015180516115029160068401916020909101906147c0565b5060e082015160078201556101008201516008820155610120820151600982015561014090910151600a909101805460ff1916911515919091179055600e80546001810182556000919091527fbb7b4a454dc3493923482f07822329ed19e8244eff582cc204f8554c3620c3fd0181905560405181907f0855be7ab46e0ae9e0d9c2f3567377c0a577a8c726b7c88615644d282a1fc291906115a5908a90615afb565b60405180910390a250505050505050565b601181815481106115c657600080fd5b600091825260209091200154905081565b600f81815481106115c657600080fd5b600e81815481106115c657600080fd5b600a602052600090815260409020805460018201805491929161161990615974565b80601f016020809104026020016040519081016040528092919081815260200182805461164590615974565b80156116925780601f1061166757610100808354040283529160200191611692565b820191906000526020600020905b81548152906001019060200180831161167557829003601f168201915b5050505050908060020180546116a790615974565b80601f01602080910402602001604051908101604052809291908181526020018280546116d390615974565b80156117205780601f106116f557610100808354040283529160200191611720565b820191906000526020600020905b81548152906001019060200180831161170357829003601f168201915b50505050509080600301805461173590615974565b80601f016020809104026020016040519081016040528092919081815260200182805461176190615974565b80156117ae5780601f10611783576101008083540402835291602001916117ae565b820191906000526020600020905b81548152906001019060200180831161179157829003601f168201915b50505050600483015460058401546006909401549293909290915060ff1687565b60606000805b601154811015611896578380519060200120600a6000601184815481106117fe576117fe6159a8565b906000526020600020015481526020019081526020016000206002016040516118279190615b0e565b60405180910390201480156118715750600a60006011838154811061184e5761184e6159a8565b6000918252602080832090910154835282019290925260400190206006015460ff165b156118845781611880816159d4565b9250505b8061188e816159d4565b9150506117d5565b506000816001600160401b038111156118b1576118b1614b90565b60405190808252806020026020018201604052801561192457816020015b6119116040518060e001604052806000815260200160608152602001606081526020016060815260200160008152602001600081526020016000151581525090565b8152602001906001900390816118cf5790505b5090506000805b601154811015611c2b578580519060200120600a600060118481548110611954576119546159a8565b9060005260206000200154815260200190815260200160002060020160405161197d9190615b0e565b60405180910390201480156119c75750600a6000601183815481106119a4576119a46159a8565b6000918252602080832090910154835282019290925260400190206006015460ff165b15611c1957600a6000601183815481106119e3576119e36159a8565b906000526020600020015481526020019081526020016000206040518060e001604052908160008201548152602001600182018054611a2190615974565b80601f0160208091040260200160405190810160405280929190818152602001828054611a4d90615974565b8015611a9a5780601f10611a6f57610100808354040283529160200191611a9a565b820191906000526020600020905b815481529060010190602001808311611a7d57829003601f168201915b50505050508152602001600282018054611ab390615974565b80601f0160208091040260200160405190810160405280929190818152602001828054611adf90615974565b8015611b2c5780601f10611b0157610100808354040283529160200191611b2c565b820191906000526020600020905b815481529060010190602001808311611b0f57829003601f168201915b50505050508152602001600382018054611b4590615974565b80601f0160208091040260200160405190810160405280929190818152602001828054611b7190615974565b8015611bbe5780601f10611b9357610100808354040283529160200191611bbe565b820191906000526020600020905b815481529060010190602001808311611ba157829003601f168201915b5050509183525050600482015460208201526005820154604082015260069091015460ff1615156060909101528351849084908110611bff57611bff6159a8565b60200260200101819052508180611c15906159d4565b9250505b80611c23816159d4565b91505061192b565b5090949350505050565b601281815481106115c657600080fd5b611c4d614719565b6064811115611cae5760405162461bcd60e51b815260206004820152602760248201527f50726f66696369656e6379206c6576656c206d7573742062652062657477656560448201526606e20302d3130360cc1b6064820152608401610850565b600560008154611cbd906159d4565b909155506005546040805160e081018252828152602080820188815282840188905260608301879052608083018690524260a0840152600160c084018190526000868152600a909352939091208251815590519192909190820190611d229082615a3c565b5060408201516002820190611d379082615a3c565b5060608201516003820190611d4c9082615a3c565b506080820151600482015560a0820151600582015560c0909101516006909101805460ff1916911515919091179055601180546001810182556000919091527f31ecc21a745e3968a04e9570e4425bc18fa8019c68028196b546d1669c200c680181905560405181907f9187da888fb0a4e77ba1969299efdd67961b0bba0aea2875b80e51aefe03f25090611de2908890615afb565b60405180910390a25050505050565b6000818152600760205260409020600a015460ff16611e225760405162461bcd60e51b815260040161085090615b84565b6000818152600d6020908152604080832033845290915290205460ff1615611e8c5760405162461bcd60e51b815260206004820152601a60248201527f416c7265616479206c696b656420746869732070726f6a6563740000000000006044820152606401610850565b6000818152600d602090815260408083203384528252808320805460ff19166001179055838352600791829052822001805491611ec8836159d4565b9091555050604051339082907ffb3102d8ecb66d98243ae49796162a002aaca5261e7af9e47b4e110e6c1d6d3590600090a350565b611f05614719565b611f0f6000614746565b565b611f19614719565b6000818152600b60205260408120549003611f765760405162461bcd60e51b815260206004820152601a60248201527f416368696576656d656e7420646f6573206e6f742065786973740000000000006044820152606401610850565b6000908152600b60205260409020600701805460ff19811660ff90911615179055565b601081815481106115c657600080fd5b6012546060906000906001600160401b03811115611fc957611fc9614b90565b60405190808252806020026020018201604052801561204457816020015b612031604051806101000160405280600081526020016060815260200160608152602001606081526020016060815260200160008152602001606081526020016000151581525090565b815260200190600190039081611fe75790505b50905060005b60125481101561110557600b60006012838154811061206b5761206b6159a8565b9060005260206000200154815260200190815260200160002060405180610100016040529081600082015481526020016001820180546120aa90615974565b80601f01602080910402602001604051908101604052809291908181526020018280546120d690615974565b80156121235780601f106120f857610100808354040283529160200191612123565b820191906000526020600020905b81548152906001019060200180831161210657829003601f168201915b5050505050815260200160028201805461213c90615974565b80601f016020809104026020016040519081016040528092919081815260200182805461216890615974565b80156121b55780601f1061218a576101008083540402835291602001916121b5565b820191906000526020600020905b81548152906001019060200180831161219857829003601f168201915b505050505081526020016003820180546121ce90615974565b80601f01602080910402602001604051908101604052809291908181526020018280546121fa90615974565b80156122475780601f1061221c57610100808354040283529160200191612247565b820191906000526020600020905b81548152906001019060200180831161222a57829003601f168201915b5050505050815260200160048201805461226090615974565b80601f016020809104026020016040519081016040528092919081815260200182805461228c90615974565b80156122d95780601f106122ae576101008083540402835291602001916122d9565b820191906000526020600020905b8154815290600101906020018083116122bc57829003601f168201915b50505050508152602001600582015481526020016006820180546122fc90615974565b80601f016020809104026020016040519081016040528092919081815260200182805461232890615974565b80156123755780601f1061234a57610100808354040283529160200191612375565b820191906000526020600020905b81548152906001019060200180831161235857829003601f168201915b50505091835250506007919091015460ff16151560209091015282518390839081106123a3576123a36159a8565b602002602001018190525080806123b9906159d4565b91505061204a565b6123c9614719565b6006600081546123d8906159d4565b90915550600654604080516101008101825282815260208082018a81528284018a9052606083018990526080830188905260a0830187905260c08301869052600160e084018190526000868152600b9093529390912082518155905191929091908201906124469082615a3c565b506040820151600282019061245b9082615a3c565b50606082015160038201906124709082615a3c565b50608082015160048201906124859082615a3c565b5060a0820151600582015560c082015160068201906124a49082615a3c565b5060e091909101516007909101805460ff1916911515919091179055601280546001810182556000919091527fbb8a6a4669ba250d26cd7a459eca9d215f8307e33aebe50379bc5a3617ec34440181905560405181907ff17f92196cd6983957acf186d3c32425568737aac0a230c7cd0b9068addcc5d0906115a5908a90615afb565b600e546060906000906001600160401b0381111561254757612547614b90565b6040519080825280602002602001820160405280156125d757816020015b6125c4604051806101600160405280600081526020016060815260200160608152602001606081526020016060815260200160608152602001606081526020016000815260200160008152602001600081526020016000151581525090565b8152602001906001900390816125655790505b50905060005b600e548110156111055760076000600e83815481106125fe576125fe6159a8565b90600052602060002001548152602001908152602001600020604051806101600160405290816000820154815260200160018201805461263d90615974565b80601f016020809104026020016040519081016040528092919081815260200182805461266990615974565b80156126b65780601f1061268b576101008083540402835291602001916126b6565b820191906000526020600020905b81548152906001019060200180831161269957829003601f168201915b505050505081526020016002820180546126cf90615974565b80601f01602080910402602001604051908101604052809291908181526020018280546126fb90615974565b80156127485780601f1061271d57610100808354040283529160200191612748565b820191906000526020600020905b81548152906001019060200180831161272b57829003601f168201915b5050505050815260200160038201805461276190615974565b80601f016020809104026020016040519081016040528092919081815260200182805461278d90615974565b80156127da5780601f106127af576101008083540402835291602001916127da565b820191906000526020600020905b8154815290600101906020018083116127bd57829003601f168201915b505050505081526020016004820180546127f390615974565b80601f016020809104026020016040519081016040528092919081815260200182805461281f90615974565b801561286c5780601f106128415761010080835404028352916020019161286c565b820191906000526020600020905b81548152906001019060200180831161284f57829003601f168201915b5050505050815260200160058201805461288590615974565b80601f01602080910402602001604051908101604052809291908181526020018280546128b190615974565b80156128fe5780601f106128d3576101008083540402835291602001916128fe565b820191906000526020600020905b8154815290600101906020018083116128e157829003601f168201915b5050505050815260200160068201805480602002602001604051908101604052809291908181526020016000905b828210156129d857838290600052602060002001805461294b90615974565b80601f016020809104026020016040519081016040528092919081815260200182805461297790615974565b80156129c45780601f10612999576101008083540402835291602001916129c4565b820191906000526020600020905b8154815290600101906020018083116129a757829003601f168201915b50505050508152602001906001019061292c565b50505090825250600782015460208201526008820154604082015260098201546060820152600a9091015460ff1615156080909101528251839083908110612a2257612a226159a8565b60200260200101819052508080612a38906159d4565b9150506125dd565b612a48614719565b6000818152600760205260408120549003612a755760405162461bcd60e51b815260040161085090615b84565b6000908152600760205260409020600a01805460ff19811660ff90911615179055565b612aa0614719565b600360008154612aaf906159d4565b90915550600354604080516101408101825282815260208082018b81528284018b9052606083018a90526080830189905260a0830188905260c0830187905260e08301869052426101008401526001610120840181905260008681526008909352939091208251815590519192909190820190612b2c9082615a3c565b5060408201516002820190612b419082615a3c565b5060608201516003820190612b569082615a3c565b5060808201516004820190612b6b9082615a3c565b5060a08201516005820190612b809082615a3c565b5060c08201516006820190612b959082615a3c565b5060e08201516007820190612baa9082615a3c565b506101008201516008820155610120909101516009909101805460ff1916911515919091179055600f80546001810182556000919091527f8d1108e10bcb7c27dddfc02ed9d693a074039d026cf4ea4240b40f7d581ac8020181905560405181907ff5bbb635e6e75237148e193e7d9ef620ab355d1d09ec782c89e43bfe5af40cc890612c38908990615afb565b60405180910390a25050505050505050565b612c52614719565b6000878152600760205260409020600a015460ff16612cc15760405162461bcd60e51b815260206004820152602560248201527f50726f6a65637420646f6573206e6f74206578697374206f7220697320696e61604482015264637469766560d81b6064820152608401610850565b600087815260076020526040902060018101612cdd8882615a3c565b5060028101612cec8782615a3c565b5060038101612cfb8682615a3c565b5060048101612d0a8582615a3c565b5060058101612d198482615a3c565b508151612d2f90600683019060208501906147c0565b5060405188907fda124279e8f8c56d142d1f8d79ba312ac54eb788b54f07b8040ff61eaf21100990600090a25050505050505050565b612d6d614719565b6000818152600860205260408120549003612dca5760405162461bcd60e51b815260206004820152601860248201527f456475636174696f6e20646f6573206e6f7420657869737400000000000000006044820152606401610850565b6000908152600860205260409020600901805460ff19811660ff90911615179055565b612df5614796565b60003411612e545760405162461bcd60e51b815260206004820152602660248201527f446f6e6174696f6e20616d6f756e74206d75737420626520677265617465722060448201526507468616e20360d41b6064820152608401610850565b3460136007016000828254612e699190615bb4565b9091555050600080546040516001600160a01b039091169034908381818185875af1925050503d8060008114612ebb576040519150601f19603f3d011682016040523d82523d6000602084013e612ec0565b606091505b5050905080612f115760405162461bcd60e51b815260206004820152601860248201527f446f6e6174696f6e207472616e73666572206661696c656400000000000000006044820152606401610850565b60405134815233907f264f630d9efa0d07053a31163641d9fcc0adafc9d9e76f1c37c2ce3a558d2c529060200160405180910390a250611f0f60018055565b612f58614719565b600460008154612f67906159d4565b90915550600454604080516101408101825282815260208082018b81528284018b9052606083018a90526080830189905260a0830188905260c0830187905260e08301869052426101008401526001610120840181905260008681526009909352939091208251815590519192909190820190612fe49082615a3c565b5060408201516002820190612ff99082615a3c565b506060820151600382019061300e9082615a3c565b50608082015160048201906130239082615a3c565b5060a082015160058201906130389082615a3c565b5060c0820151600682019061304d9082615a3c565b5060e082015180516130699160078401916020909101906147c0565b506101008201516008820155610120909101516009909101805460ff1916911515919091179055601080546001810182556000919091527f1b6847dc741a1b0cd08d278845f9d819d87b734759afb55fe2de5cb82a9ae6720181905560405181907f7bab0d14dcd32266c701747fa8b71424d340a4b0f4f864a4d4b8a92538b22c0390612c38908990615afb565b6011546060906000906001600160401b0381111561311757613117614b90565b60405190808252806020026020018201604052801561318a57816020015b6131776040518060e001604052806000815260200160608152602001606081526020016060815260200160008152602001600081526020016000151581525090565b8152602001906001900390816131355790505b50905060005b60115481101561110557600a6000601183815481106131b1576131b16159a8565b906000526020600020015481526020019081526020016000206040518060e0016040529081600082015481526020016001820180546131ef90615974565b80601f016020809104026020016040519081016040528092919081815260200182805461321b90615974565b80156132685780601f1061323d57610100808354040283529160200191613268565b820191906000526020600020905b81548152906001019060200180831161324b57829003601f168201915b5050505050815260200160028201805461328190615974565b80601f01602080910402602001604051908101604052809291908181526020018280546132ad90615974565b80156132fa5780601f106132cf576101008083540402835291602001916132fa565b820191906000526020600020905b8154815290600101906020018083116132dd57829003601f168201915b5050505050815260200160038201805461331390615974565b80601f016020809104026020016040519081016040528092919081815260200182805461333f90615974565b801561338c5780601f106133615761010080835404028352916020019161338c565b820191906000526020600020905b81548152906001019060200180831161336f57829003601f168201915b5050509183525050600482015460208201526005820154604082015260069091015460ff16151560609091015282518390839081106133cd576133cd6159a8565b602002602001018190525080806133e3906159d4565b915050613190565b6133f3614719565b60136133ff8882615a3c565b50601461340c8782615a3c565b5060156134198682615a3c565b5060166134268582615a3c565b5060176134338482615a3c565b5081516134479060189060208501906147c0565b5060196134548282615a3c565b5042601c556040517fa5a5ab76615c969594387069888e113fe2c9e39bd533a63259ebb8d7a3c4185390600090a150505050505050565b600960205260009081526040902080546001820180549192916134ad90615974565b80601f01602080910402602001604051908101604052809291908181526020018280546134d990615974565b80156135265780601f106134fb57610100808354040283529160200191613526565b820191906000526020600020905b81548152906001019060200180831161350957829003601f168201915b50505050509080600201805461353b90615974565b80601f016020809104026020016040519081016040528092919081815260200182805461356790615974565b80156135b45780601f10613589576101008083540402835291602001916135b4565b820191906000526020600020905b81548152906001019060200180831161359757829003601f168201915b5050505050908060030180546135c990615974565b80601f01602080910402602001604051908101604052809291908181526020018280546135f590615974565b80156136425780601f1061361757610100808354040283529160200191613642565b820191906000526020600020905b81548152906001019060200180831161362557829003601f168201915b50505050509080600401805461365790615974565b80601f016020809104026020016040519081016040528092919081815260200182805461368390615974565b80156136d05780601f106136a5576101008083540402835291602001916136d0565b820191906000526020600020905b8154815290600101906020018083116136b357829003601f168201915b5050505050908060050180546136e590615974565b80601f016020809104026020016040519081016040528092919081815260200182805461371190615974565b801561375e5780601f106137335761010080835404028352916020019161375e565b820191906000526020600020905b81548152906001019060200180831161374157829003601f168201915b50505050509080600601805461377390615974565b80601f016020809104026020016040519081016040528092919081815260200182805461379f90615974565b80156137ec5780601f106137c1576101008083540402835291602001916137ec565b820191906000526020600020905b8154815290600101906020018083116137cf57829003601f168201915b50505050600883015460099093015491929160ff16905089565b601b8054906000613816836159d4565b9190505550565b600f546060906000906001600160401b0381111561383d5761383d614b90565b6040519080825280602002602001820160405280156138c657816020015b6138b36040518061014001604052806000815260200160608152602001606081526020016060815260200160608152602001606081526020016060815260200160608152602001600081526020016000151581525090565b81526020019060019003908161385b5790505b50905060005b600f548110156111055760086000600f83815481106138ed576138ed6159a8565b90600052602060002001548152602001908152602001600020604051806101400160405290816000820154815260200160018201805461392c90615974565b80601f016020809104026020016040519081016040528092919081815260200182805461395890615974565b80156139a55780601f1061397a576101008083540402835291602001916139a5565b820191906000526020600020905b81548152906001019060200180831161398857829003601f168201915b505050505081526020016002820180546139be90615974565b80601f01602080910402602001604051908101604052809291908181526020018280546139ea90615974565b8015613a375780601f10613a0c57610100808354040283529160200191613a37565b820191906000526020600020905b815481529060010190602001808311613a1a57829003601f168201915b50505050508152602001600382018054613a5090615974565b80601f0160208091040260200160405190810160405280929190818152602001828054613a7c90615974565b8015613ac95780601f10613a9e57610100808354040283529160200191613ac9565b820191906000526020600020905b815481529060010190602001808311613aac57829003601f168201915b50505050508152602001600482018054613ae290615974565b80601f0160208091040260200160405190810160405280929190818152602001828054613b0e90615974565b8015613b5b5780601f10613b3057610100808354040283529160200191613b5b565b820191906000526020600020905b815481529060010190602001808311613b3e57829003601f168201915b50505050508152602001600582018054613b7490615974565b80601f0160208091040260200160405190810160405280929190818152602001828054613ba090615974565b8015613bed5780601f10613bc257610100808354040283529160200191613bed565b820191906000526020600020905b815481529060010190602001808311613bd057829003601f168201915b50505050508152602001600682018054613c0690615974565b80601f0160208091040260200160405190810160405280929190818152602001828054613c3290615974565b8015613c7f5780601f10613c5457610100808354040283529160200191613c7f565b820191906000526020600020905b815481529060010190602001808311613c6257829003601f168201915b50505050508152602001600782018054613c9890615974565b80601f0160208091040260200160405190810160405280929190818152602001828054613cc490615974565b8015613d115780601f10613ce657610100808354040283529160200191613d11565b820191906000526020600020905b815481529060010190602001808311613cf457829003601f168201915b50505091835250506008820154602082015260099091015460ff1615156040909101528251839083908110613d4857613d486159a8565b60200260200101819052508080613d5e906159d4565b9150506138cc565b6000818152600760205260409020600a015460ff16613d975760405162461bcd60e51b815260040161085090615b84565b6000818152600760205260408120600801805491613db4836159d4565b909155505060405181907f2b4557dc4017846f558fdc087e75e3ec527411984bd18e0cb63c92b851862c2e90600090a250565b613def614719565b6000818152600960205260408120549003613e4c5760405162461bcd60e51b815260206004820152601960248201527f457870657269656e636520646f6573206e6f74206578697374000000000000006044820152606401610850565b600090815260096020819052604090912001805460ff19811660ff90911615179055565b600080808080808080808080805b600e54811015613f1c5760076000600e8381548110613e9f57613e9f6159a8565b906000526020600020015481526020019081526020016000206007015483613ec79190615bb4565b925060076000600e8381548110613ee057613ee06159a8565b906000526020600020015481526020019081526020016000206008015482613f089190615bb4565b915080613f14816159d4565b915050613e7e565b50600e80549050600f8054905060108054905060118054905060128054905086866013600801546013600701549a509a509a509a509a509a509a509a509a505050909192939495969798565b60086020526000908152604090208054600182018054919291613f8a90615974565b80601f0160208091040260200160405190810160405280929190818152602001828054613fb690615974565b80156140035780601f10613fd857610100808354040283529160200191614003565b820191906000526020600020905b815481529060010190602001808311613fe657829003601f168201915b50505050509080600201805461401890615974565b80601f016020809104026020016040519081016040528092919081815260200182805461404490615974565b80156140915780601f1061406657610100808354040283529160200191614091565b820191906000526020600020905b81548152906001019060200180831161407457829003601f168201915b5050505050908060030180546140a690615974565b80601f01602080910402602001604051908101604052809291908181526020018280546140d290615974565b801561411f5780601f106140f45761010080835404028352916020019161411f565b820191906000526020600020905b81548152906001019060200180831161410257829003601f168201915b50505050509080600401805461413490615974565b80601f016020809104026020016040519081016040528092919081815260200182805461416090615974565b80156141ad5780601f10614182576101008083540402835291602001916141ad565b820191906000526020600020905b81548152906001019060200180831161419057829003601f168201915b5050505050908060050180546141c290615974565b80601f01602080910402602001604051908101604052809291908181526020018280546141ee90615974565b801561423b5780601f106142105761010080835404028352916020019161423b565b820191906000526020600020905b81548152906001019060200180831161421e57829003601f168201915b50505050509080600601805461425090615974565b80601f016020809104026020016040519081016040528092919081815260200182805461427c90615974565b80156142c95780601f1061429e576101008083540402835291602001916142c9565b820191906000526020600020905b8154815290600101906020018083116142ac57829003601f168201915b5050505050908060070180546142de90615974565b80601f016020809104026020016040519081016040528092919081815260200182805461430a90615974565b80156143575780601f1061432c57610100808354040283529160200191614357565b820191906000526020600020905b81548152906001019060200180831161433a57829003601f168201915b50505050600883015460099093015491929160ff1690508a565b60138054819061438090615974565b80601f01602080910402602001604051908101604052809291908181526020018280546143ac90615974565b80156143f95780601f106143ce576101008083540402835291602001916143f9565b820191906000526020600020905b8154815290600101906020018083116143dc57829003601f168201915b50505050509080600101805461440e90615974565b80601f016020809104026020016040519081016040528092919081815260200182805461443a90615974565b80156144875780601f1061445c57610100808354040283529160200191614487565b820191906000526020600020905b81548152906001019060200180831161446a57829003601f168201915b50505050509080600201805461449c90615974565b80601f01602080910402602001604051908101604052809291908181526020018280546144c890615974565b80156145155780601f106144ea57610100808354040283529160200191614515565b820191906000526020600020905b8154815290600101906020018083116144f857829003601f168201915b50505050509080600301805461452a90615974565b80601f016020809104026020016040519081016040528092919081815260200182805461455690615974565b80156145a35780601f10614578576101008083540402835291602001916145a3565b820191906000526020600020905b81548152906001019060200180831161458657829003601f168201915b5050505050908060040180546145b890615974565b80601f01602080910402602001604051908101604052809291908181526020018280546145e490615974565b80156146315780601f1061460657610100808354040283529160200191614631565b820191906000526020600020905b81548152906001019060200180831161461457829003601f168201915b50505050509080600601805461464690615974565b80601f016020809104026020016040519081016040528092919081815260200182805461467290615974565b80156146bf5780601f10614694576101008083540402835291602001916146bf565b820191906000526020600020905b8154815290600101906020018083116146a257829003601f168201915b5050505050908060070154908060080154908060090154905089565b6146e3614719565b6001600160a01b03811661470d57604051631e4fbdf760e01b815260006004820152602401610850565b61471681614746565b50565b6000546001600160a01b03163314611f0f5760405163118cdaa760e01b8152336004820152602401610850565b600080546001600160a01b038381166001600160a01b0319831681178455604051919092169283917f8be0079c531659141344cd1fd0a4f28419497f9722a3daafe3b4186f6b6457e09190a35050565b6002600154036147b957604051633ee5aeb560e01b815260040160405180910390fd5b6002600155565b828054828255906000526020600020908101928215614806579160200282015b8281111561480657825182906147f69082615a3c565b50916020019190600101906147e0565b50614812929150614816565b5090565b8082111561481257600061482a8282614833565b50600101614816565b50805461483f90615974565b6000825580601f1061484f575050565b601f01602090049060005260206000209081019061471691905b808211156148125760008155600101614869565b60006020828403121561488f57600080fd5b5035919050565b6000815180845260005b818110156148bc576020818501810151868301820152016148a0565b506000602082860101526020601f19601f83011685010191505092915050565b60006101408c83528060208401526148f68184018d614896565b9050828103604084015261490a818c614896565b9050828103606084015261491e818b614896565b90508281036080840152614932818a614896565b905082810360a08401526149468189614896565b9150508560c08301528460e0830152836101008301528215156101208301529b9a5050505050505050505050565b600082825180855260208086019550808260051b84010181860160005b848110156149bf57601f198684030189526149ad838351614896565b98840198925090830190600101614991565b5090979650505050505050565b60006020808301818452808551808352604092508286019150828160051b87010184880160005b83811015614afa57603f1989840301855281516101408151855288820151818a870152614a2282870182614896565b9150508782015185820389870152614a3a8282614896565b91505060608083015186830382880152614a548382614896565b9250505060808083015186830382880152614a6f8382614896565b9250505060a08083015186830382880152614a8a8382614896565b9250505060c08083015186830382880152614aa58382614896565b9250505060e08083015186830382880152614ac08382614974565b92505050610100808301518187015250610120808301519250614ae68187018415159052565b5095880195935050908601906001016149f3565b509098975050505050505050565b60006101008a8352806020840152614b228184018b614896565b90508281036040840152614b36818a614896565b90508281036060840152614b4a8189614896565b90508281036080840152614b5e8188614896565b90508560a084015282810360c0840152614b788186614896565b91505082151560e08301529998505050505050505050565b634e487b7160e01b600052604160045260246000fd5b604051601f8201601f191681016001600160401b0381118282101715614bce57614bce614b90565b604052919050565b600082601f830112614be757600080fd5b81356001600160401b03811115614c0057614c00614b90565b614c13601f8201601f1916602001614ba6565b818152846020838601011115614c2857600080fd5b816020850160208301376000918101602001919091529392505050565b600082601f830112614c5657600080fd5b813560206001600160401b0380831115614c7257614c72614b90565b8260051b614c81838201614ba6565b9384528581018301938381019088861115614c9b57600080fd5b84880192505b85831015614cd757823584811115614cb95760008081fd5b614cc78a87838c0101614bd6565b8352509184019190840190614ca1565b98975050505050505050565b60008060008060008060c08789031215614cfc57600080fd5b86356001600160401b0380821115614d1357600080fd5b614d1f8a838b01614bd6565b97506020890135915080821115614d3557600080fd5b614d418a838b01614bd6565b96506040890135915080821115614d5757600080fd5b614d638a838b01614bd6565b95506060890135915080821115614d7957600080fd5b614d858a838b01614bd6565b94506080890135915080821115614d9b57600080fd5b614da78a838b01614bd6565b935060a0890135915080821115614dbd57600080fd5b50614dca89828a01614c45565b9150509295509295509295565b87815260e060208201526000614df060e0830189614896565b8281036040840152614e028189614896565b90508281036060840152614e168188614896565b6080840196909652505060a0810192909252151560c090910152949350505050565b600060208284031215614e4a57600080fd5b81356001600160401b03811115614e6057600080fd5b614e6c84828501614bd6565b949350505050565b60006020808301818452808551808352604092508286019150828160051b87010184880160005b83811015614afa57603f19898403018552815160e08151855288820151818a870152614ec982870182614896565b9150508782015185820389870152614ee18282614896565b91505060608083015186830382880152614efb8382614896565b6080858101519089015260a0808601519089015260c094850151151594909701939093525050509386019390860190600101614e9b565b80356001600160a01b0381168114614f4957600080fd5b919050565b60008060408385031215614f6157600080fd5b82359150614f7160208401614f32565b90509250929050565b60008060008060808587031215614f9057600080fd5b84356001600160401b0380821115614fa757600080fd5b614fb388838901614bd6565b95506020870135915080821115614fc957600080fd5b614fd588838901614bd6565b94506040870135915080821115614feb57600080fd5b50614ff887828801614bd6565b949793965093946060013593505050565b60006020808301818452808551808352604092508286019150828160051b87010184880160005b83811015614afa57603f1989840301855281516101008151855288820151818a87015261505f82870182614896565b91505087820151858203898701526150778282614896565b915050606080830151868303828801526150918382614896565b92505050608080830151868303828801526150ac8382614896565b9250505060a080830151818701525060c080830151868303828801526150d28382614896565b9250505060e08083015192506150eb8187018415159052565b509588019593505090860190600101615030565b60008060008060008060c0878903121561511857600080fd5b86356001600160401b038082111561512f57600080fd5b61513b8a838b01614bd6565b9750602089013591508082111561515157600080fd5b61515d8a838b01614bd6565b9650604089013591508082111561517357600080fd5b61517f8a838b01614bd6565b9550606089013591508082111561519557600080fd5b6151a18a838b01614bd6565b94506080890135935060a08901359150808211156151be57600080fd5b50614dca89828a01614bd6565b60006020808301818452808551808352604092508286019150828160051b87010184880160005b83811015614afa57603f1989840301855281516101608151855288820151818a87015261522182870182614896565b91505087820151858203898701526152398282614896565b915050606080830151868303828801526152538382614896565b925050506080808301518683038288015261526e8382614896565b9250505060a080830151868303828801526152898382614896565b9250505060c080830151868303828801526152a48382614974565b60e085810151908901526101008086015190890152610120808601519089015261014094850151801515868a01529490935091506152df9050565b5095880195935050908601906001016151f2565b600080600080600080600060e0888a03121561530e57600080fd5b87356001600160401b038082111561532557600080fd5b6153318b838c01614bd6565b985060208a013591508082111561534757600080fd5b6153538b838c01614bd6565b975060408a013591508082111561536957600080fd5b6153758b838c01614bd6565b965060608a013591508082111561538b57600080fd5b6153978b838c01614bd6565b955060808a01359150808211156153ad57600080fd5b6153b98b838c01614bd6565b945060a08a01359150808211156153cf57600080fd5b6153db8b838c01614bd6565b935060c08a01359150808211156153f157600080fd5b506153fe8a828b01614bd6565b91505092959891949750929550565b600080600080600080600060e0888a03121561542857600080fd5b8735965060208801356001600160401b038082111561544657600080fd5b6154528b838c01614bd6565b975060408a013591508082111561546857600080fd5b6154748b838c01614bd6565b965060608a013591508082111561548a57600080fd5b6154968b838c01614bd6565b955060808a01359150808211156154ac57600080fd5b6154b88b838c01614bd6565b945060a08a01359150808211156154ce57600080fd5b6154da8b838c01614bd6565b935060c08a01359150808211156154f057600080fd5b506153fe8a828b01614c45565b600080600080600080600060e0888a03121561551857600080fd5b87356001600160401b038082111561552f57600080fd5b61553b8b838c01614bd6565b985060208a013591508082111561544657600080fd5b60006020828403121561556357600080fd5b61556c82614f32565b9392505050565b600080600080600080600060e0888a03121561558e57600080fd5b87356001600160401b03808211156155a557600080fd5b6155b18b838c01614bd6565b985060208a01359150808211156155c757600080fd5b6155d38b838c01614bd6565b975060408a01359150808211156155e957600080fd5b6155f58b838c01614bd6565b965060608a013591508082111561560b57600080fd5b6156178b838c01614bd6565b955060808a013591508082111561562d57600080fd5b6156398b838c01614bd6565b945060a08a013591508082111561564f57600080fd5b6153db8b838c01614c45565b60006101208b83528060208401526156758184018c614896565b90508281036040840152615689818b614896565b9050828103606084015261569d818a614896565b905082810360808401526156b18189614896565b905082810360a08401526156c58188614896565b905082810360c08401526156d98187614896565b60e0840195909552505090151561010090910152979650505050505050565b60006020808301818452808551808352604092508286019150828160051b87010184880160005b83811015614afa57603f1989840301855281516101408151855288820151818a87015261574e82870182614896565b91505087820151858203898701526157668282614896565b915050606080830151868303828801526157808382614896565b925050506080808301518683038288015261579b8382614896565b9250505060a080830151868303828801526157b68382614896565b9250505060c080830151868303828801526157d18382614896565b9250505060e080830151868303828801526157ec8382614896565b925050506101008083015181870152506101208083015192506158128187018415159052565b50958801959350509086019060010161571f565b60006101408c83528060208401526158408184018d614896565b90508281036040840152615854818c614896565b90508281036060840152615868818b614896565b9050828103608084015261587c818a614896565b905082810360a08401526158908189614896565b905082810360c08401526158a48188614896565b905082810360e08401526158b88187614896565b61010084019590955250509015156101209091015298975050505050505050565b60006101208083526158ed8184018d614896565b90508281036020840152615901818c614896565b90508281036040840152615915818b614896565b90508281036060840152615929818a614896565b9050828103608084015261593d8189614896565b905082810360a08401526159518188614896565b60c0840196909652505060e0810192909252610100909101529695505050505050565b600181811c9082168061598857607f821691505b60208210810361110557634e487b7160e01b600052602260045260246000fd5b634e487b7160e01b600052603260045260246000fd5b634e487b7160e01b600052601160045260246000fd5b6000600182016159e6576159e66159be565b5060010190565b601f821115615a3757600081815260208120601f850160051c81016020861015615a145750805b601f850160051c820191505b81811015615a3357828155600101615a20565b5050505b505050565b81516001600160401b03811115615a5557615a55614b90565b615a6981615a638454615974565b846159ed565b602080601f831160018114615a9e5760008415615a865750858301515b600019600386901b1c1916600185901b178555615a33565b600085815260208120601f198616915b82811015615acd57888601518255948401946001909101908401615aae565b5085821015615aeb5787850151600019600388901b60f8161c191681555b5050505050600190811b01905550565b60208152600061556c6020830184614896565b6000808354615b1c81615974565b60018281168015615b345760018114615b4957615b78565b60ff1984168752821515830287019450615b78565b8760005260208060002060005b85811015615b6f5781548a820152908401908201615b56565b50505082870194505b50929695505050505050565b602080825260169082015275141c9bda9958dd08191bd95cc81b9bdd08195e1a5cdd60521b604082015260600190565b80820180821115615bc757615bc76159be565b9291505056fea2646970667358221220cb10a4467ba02d39449a6e04e7feefc21b2d5e7f982496d7bfd80b8b982d5ada64736f6c63430008140033",
  "linkReferences": {},
  "deployedLinkReferences": {}
}